{
  "_format": "hh-sol-artifact-1",
  "contractName": "DateTime",
  "sourceName": "contracts/DateTime.sol",
  "abi": [
    {
      "constant": true,
      "inputs": [
        {
          "name": "timestamp",
          "type": "uint256"
        }
      ],
      "name": "getHour",
      "outputs": [
        {
          "name": "",
          "type": "uint8"
        }
      ],
      "payable": false,
      "stateMutability": "pure",
      "type": "function"
    },
    {
      "constant": true,
      "inputs": [
        {
          "name": "timestamp",
          "type": "uint256"
        }
      ],
      "name": "getWeekday",
      "outputs": [
        {
          "name": "",
          "type": "uint8"
        }
      ],
      "payable": false,
      "stateMutability": "pure",
      "type": "function"
    },
    {
      "constant": true,
      "inputs": [
        {
          "name": "year",
          "type": "uint16"
        },
        {
          "name": "month",
          "type": "uint8"
        },
        {
          "name": "day",
          "type": "uint8"
        },
        {
          "name": "hour",
          "type": "uint8"
        },
        {
          "name": "minute",
          "type": "uint8"
        }
      ],
      "name": "toTimestamp",
      "outputs": [
        {
          "name": "timestamp",
          "type": "uint256"
        }
      ],
      "payable": false,
      "stateMutability": "pure",
      "type": "function"
    },
    {
      "constant": true,
      "inputs": [
        {
          "name": "timestamp",
          "type": "uint256"
        }
      ],
      "name": "getDay",
      "outputs": [
        {
          "name": "",
          "type": "uint8"
        }
      ],
      "payable": false,
      "stateMutability": "pure",
      "type": "function"
    },
    {
      "constant": true,
      "inputs": [
        {
          "name": "year",
          "type": "uint16"
        },
        {
          "name": "month",
          "type": "uint8"
        },
        {
          "name": "day",
          "type": "uint8"
        },
        {
          "name": "hour",
          "type": "uint8"
        }
      ],
      "name": "toTimestamp",
      "outputs": [
        {
          "name": "timestamp",
          "type": "uint256"
        }
      ],
      "payable": false,
      "stateMutability": "pure",
      "type": "function"
    },
    {
      "constant": true,
      "inputs": [
        {
          "name": "timestamp",
          "type": "uint256"
        }
      ],
      "name": "getSecond",
      "outputs": [
        {
          "name": "",
          "type": "uint8"
        }
      ],
      "payable": false,
      "stateMutability": "pure",
      "type": "function"
    },
    {
      "constant": true,
      "inputs": [
        {
          "name": "year",
          "type": "uint16"
        },
        {
          "name": "month",
          "type": "uint8"
        },
        {
          "name": "day",
          "type": "uint8"
        }
      ],
      "name": "toTimestamp",
      "outputs": [
        {
          "name": "timestamp",
          "type": "uint256"
        }
      ],
      "payable": false,
      "stateMutability": "pure",
      "type": "function"
    },
    {
      "constant": true,
      "inputs": [
        {
          "name": "year",
          "type": "uint16"
        },
        {
          "name": "month",
          "type": "uint8"
        },
        {
          "name": "day",
          "type": "uint8"
        },
        {
          "name": "hour",
          "type": "uint8"
        },
        {
          "name": "minute",
          "type": "uint8"
        },
        {
          "name": "second",
          "type": "uint8"
        }
      ],
      "name": "toTimestamp",
      "outputs": [
        {
          "name": "timestamp",
          "type": "uint256"
        }
      ],
      "payable": false,
      "stateMutability": "pure",
      "type": "function"
    },
    {
      "constant": true,
      "inputs": [
        {
          "name": "timestamp",
          "type": "uint256"
        }
      ],
      "name": "getYear",
      "outputs": [
        {
          "name": "",
          "type": "uint16"
        }
      ],
      "payable": false,
      "stateMutability": "pure",
      "type": "function"
    },
    {
      "constant": true,
      "inputs": [
        {
          "name": "timestamp",
          "type": "uint256"
        }
      ],
      "name": "getMonth",
      "outputs": [
        {
          "name": "",
          "type": "uint8"
        }
      ],
      "payable": false,
      "stateMutability": "pure",
      "type": "function"
    },
    {
      "constant": true,
      "inputs": [
        {
          "name": "year",
          "type": "uint16"
        }
      ],
      "name": "isLeapYear",
      "outputs": [
        {
          "name": "",
          "type": "bool"
        }
      ],
      "payable": false,
      "stateMutability": "pure",
      "type": "function"
    },
    {
      "constant": true,
      "inputs": [
        {
          "name": "year",
          "type": "uint256"
        }
      ],
      "name": "leapYearsBefore",
      "outputs": [
        {
          "name": "",
          "type": "uint256"
        }
      ],
      "payable": false,
      "stateMutability": "pure",
      "type": "function"
    },
    {
      "constant": true,
      "inputs": [
        {
          "name": "month",
          "type": "uint8"
        },
        {
          "name": "year",
          "type": "uint16"
        }
      ],
      "name": "getDaysInMonth",
      "outputs": [
        {
          "name": "",
          "type": "uint8"
        }
      ],
      "payable": false,
      "stateMutability": "pure",
      "type": "function"
    },
    {
      "constant": true,
      "inputs": [
        {
          "name": "timestamp",
          "type": "uint256"
        }
      ],
      "name": "getMinute",
      "outputs": [
        {
          "name": "",
          "type": "uint8"
        }
      ],
      "payable": false,
      "stateMutability": "pure",
      "type": "function"
    }
  ],
  "bytecode": "0x6060604052341561000f57600080fd5b5b610a288061001f6000396000f300606060405236156100cd5763ffffffff7c01000000000000000000000000000000000000000000000000000000006000350416633e239e1a81146100d25780634ac1ad78146100fe57806362ba96871461012a57806365c728401461016e5780637f7918331461019a5780638aa001fc146101d85780638c8d98a0146102045780639054bdec1461023c57806392d6631314610286578063a324ad24146102b3578063a6f0e577146102df578063b19999371461030d578063b238ad0e14610335578063fa93f8831461036b575b600080fd5b34156100dd57600080fd5b6100e8600435610397565b60405160ff909116815260200160405180910390f35b341561010957600080fd5b6100e86004356103bd565b60405160ff909116815260200160405180910390f35b341561013557600080fd5b61015c61ffff6004351660ff602435811690604435811690606435811690608435166103dd565b60405190815260200160405180910390f35b341561017957600080fd5b6100e86004356103fa565b60405160ff909116815260200160405180910390f35b34156101a557600080fd5b61015c61ffff6004351660ff60243581169060443581169060643516610411565b60405190815260200160405180910390f35b34156101e357600080fd5b6100e860043561042d565b60405160ff909116815260200160405180910390f35b341561020f57600080fd5b61015c61ffff6004351660ff60243581169060443516610440565b60405190815260200160405180910390f35b341561024757600080fd5b61015c61ffff6004351660ff60243581169060443581169060643581169060843581169060a4351661045c565b60405190815260200160405180910390f35b341561029157600080fd5b61029c60043561063e565b60405161ffff909116815260200160405180910390f35b34156102be57600080fd5b6100e86004356106d5565b60405160ff909116815260200160405180910390f35b34156102ea57600080fd5b6102f961ffff600435166106ec565b604051901515815260200160405180910390f35b341561031857600080fd5b61015c600435610746565b60405190815260200160405180910390f35b341561034057600080fd5b6100e860ff6004351661ffff60243516610766565b60405160ff909116815260200160405180910390f35b341561037657600080fd5b6100e8600435610831565b60405160ff909116815260200160405180910390f35b60006018603c80845b048115156103aa57fe5b048115156103b457fe5b0690505b919050565b6000600762015180835b046004018115156103b457fe5b0690505b919050565b60006103ee8686868686600061045c565b90505b95945050505050565b60006104058261084f565b6040015190505b919050565b60006104228585858560008061045c565b90505b949350505050565b6000603c826103b4565b0690505b919050565b6000610452848484600080600061045c565b90505b9392505050565b600080610467610997565b6107b291505b8861ffff168261ffff1610156104af57610486826106ec565b15610499576301e28500830192506104a3565b6301e13380830192505b5b60019091019061046d565b601f8160005b60ff90921660209290920201526104cb896106ec565b156104e857601d8160015b60ff90921660209290920201526104fc565b601c8160015b60ff90921660209290920201525b601f8160025b60ff9092166020929092020152601e8160035b60ff9092166020929092020152601f8160045b60ff9092166020929092020152601e8160055b60ff9092166020929092020152601f8160065b60ff9092166020929092020152601f8160075b60ff9092166020929092020152601e8160085b60ff9092166020929092020152601f8160095b60ff9092166020929092020152601e81600a5b60ff9092166020929092020152601f81600b5b60ff9092166020929092020152600191505b8760ff168261ffff1610156105ff578061ffff600019840116600c81106105e257fe5b602002015160ff166201518002830192505b6001909101906105bf565b6001870360ff166201518002830192508560ff16610e1002830192508460ff16603c02830192508360ff16830192508292505b50509695505050505050565b60008080806301e13380855b046107b2908101925061065c90610746565b6106698361ffff16610746565b039050806301e285000283019250806107b2830361ffff16036301e1338002830192505b848311156106c9576106a1600183036106ec565b156106b4576301e28500830392506106be565b6301e13380830392505b60018203915061068d565b8193505b505050919050565b60006106e08261084f565b6020015190505b919050565b6000600461ffff83165b0661ffff1615610708575060006103b8565b606461ffff83165b0661ffff1615610722575060016103b8565b61019061ffff83165b0661ffff161561073d575060006103b8565b5060015b919050565b600019016000610190825b046064835b046004845b04030190505b919050565b60008260ff166001148061077d57508260ff166003145b8061078b57508260ff166005145b8061079957508260ff166007145b806107a757508260ff166008145b806107b557508260ff16600a145b806107c357508260ff16600c145b156107d05750601f610828565b8260ff16600414806107e557508260ff166006145b806107f357508260ff166009145b8061080157508260ff16600b145b1561080e5750601e610828565b610817826106ec565b156108245750601d610828565b50601c5b5b5b5b92915050565b6000603c80836103aa565b048115156103b457fe5b0690505b919050565b6108576109c0565b60008080806108658661063e565b61ffff1685526108766107b2610746565b610884865161ffff16610746565b039250826301e285000284019350826107b286600001510361ffff16036301e133800284019350600191505b600c60ff8316116108f8576108c6828651610766565b60ff16620151800290508584820111156108e85760ff821660208601526108f8565b928301925b6001909101906108b0565b600191505b61090c85602001518651610766565b60ff168260ff16111515610949578584620151800111156109355760ff82166040860152610949565b62015180840193505b6001909101906108fd565b61095286610397565b60ff16606086015261096386610831565b60ff1660808601526109748661042d565b60ff1660a0860152610985866103bd565b60ff1660c08601525b50505050919050565b610180604051908101604052600c815b6000815260001990910190602001816109a75790505090565b60e06040519081016040908152600080835260208301819052908201819052606082018190526080820181905260a0820181905260c0820152905600a165627a7a72305820622a4c3e7993e2ca526e14a5c049890d9384e722a8d4e7eca41697f6b474879b0029",
  "linkReferences": {},
  "deployedLinkReferences": {}
}