{
    "_format": "hh-sol-artifact-1",
    "contractName": "BitgertLock02",
    "sourceName": "contracts/BitgertLock02.sol",
    "abi": [
        {
            "anonymous": false,
            "inputs": [
                {
                    "indexed": true,
                    "internalType": "uint256",
                    "name": "id",
                    "type": "uint256"
                },
                {
                    "indexed": false,
                    "internalType": "address",
                    "name": "token",
                    "type": "address"
                },
                {
                    "indexed": false,
                    "internalType": "address",
                    "name": "owner",
                    "type": "address"
                },
                {
                    "indexed": false,
                    "internalType": "uint256",
                    "name": "amount",
                    "type": "uint256"
                },
                {
                    "indexed": false,
                    "internalType": "uint256",
                    "name": "unlockDate",
                    "type": "uint256"
                }
            ],
            "name": "LockAdded",
            "type": "event"
        },
        {
            "anonymous": false,
            "inputs": [
                {
                    "indexed": false,
                    "internalType": "uint256",
                    "name": "lockId",
                    "type": "uint256"
                }
            ],
            "name": "LockDescriptionChanged",
            "type": "event"
        },
        {
            "anonymous": false,
            "inputs": [
                {
                    "indexed": false,
                    "internalType": "uint256",
                    "name": "lockId",
                    "type": "uint256"
                },
                {
                    "indexed": false,
                    "internalType": "address",
                    "name": "owner",
                    "type": "address"
                },
                {
                    "indexed": false,
                    "internalType": "address",
                    "name": "newOwner",
                    "type": "address"
                }
            ],
            "name": "LockOwnerChanged",
            "type": "event"
        },
        {
            "anonymous": false,
            "inputs": [
                {
                    "indexed": true,
                    "internalType": "uint256",
                    "name": "id",
                    "type": "uint256"
                },
                {
                    "indexed": false,
                    "internalType": "address",
                    "name": "token",
                    "type": "address"
                },
                {
                    "indexed": false,
                    "internalType": "address",
                    "name": "owner",
                    "type": "address"
                },
                {
                    "indexed": false,
                    "internalType": "uint256",
                    "name": "amount",
                    "type": "uint256"
                },
                {
                    "indexed": false,
                    "internalType": "uint256",
                    "name": "unlockedAt",
                    "type": "uint256"
                }
            ],
            "name": "LockRemoved",
            "type": "event"
        },
        {
            "anonymous": false,
            "inputs": [
                {
                    "indexed": true,
                    "internalType": "uint256",
                    "name": "id",
                    "type": "uint256"
                },
                {
                    "indexed": false,
                    "internalType": "address",
                    "name": "token",
                    "type": "address"
                },
                {
                    "indexed": false,
                    "internalType": "address",
                    "name": "owner",
                    "type": "address"
                },
                {
                    "indexed": false,
                    "internalType": "uint256",
                    "name": "newAmount",
                    "type": "uint256"
                },
                {
                    "indexed": false,
                    "internalType": "uint256",
                    "name": "newUnlockDate",
                    "type": "uint256"
                }
            ],
            "name": "LockUpdated",
            "type": "event"
        },
        {
            "anonymous": false,
            "inputs": [
                {
                    "indexed": true,
                    "internalType": "uint256",
                    "name": "id",
                    "type": "uint256"
                },
                {
                    "indexed": false,
                    "internalType": "address",
                    "name": "token",
                    "type": "address"
                },
                {
                    "indexed": false,
                    "internalType": "address",
                    "name": "owner",
                    "type": "address"
                },
                {
                    "indexed": false,
                    "internalType": "uint256",
                    "name": "amount",
                    "type": "uint256"
                },
                {
                    "indexed": false,
                    "internalType": "uint256",
                    "name": "remaining",
                    "type": "uint256"
                },
                {
                    "indexed": false,
                    "internalType": "uint256",
                    "name": "timestamp",
                    "type": "uint256"
                }
            ],
            "name": "LockVested",
            "type": "event"
        },
        {
            "inputs": [],
            "name": "allLpTokenLockedCount",
            "outputs": [
                {
                    "internalType": "uint256",
                    "name": "",
                    "type": "uint256"
                }
            ],
            "stateMutability": "view",
            "type": "function"
        },
        {
            "inputs": [],
            "name": "allNormalTokenLockedCount",
            "outputs": [
                {
                    "internalType": "uint256",
                    "name": "",
                    "type": "uint256"
                }
            ],
            "stateMutability": "view",
            "type": "function"
        },
        {
            "inputs": [
                {
                    "internalType": "address",
                    "name": "",
                    "type": "address"
                }
            ],
            "name": "cumulativeLockInfo",
            "outputs": [
                {
                    "internalType": "address",
                    "name": "token",
                    "type": "address"
                },
                {
                    "internalType": "address",
                    "name": "factory",
                    "type": "address"
                },
                {
                    "internalType": "uint256",
                    "name": "amount",
                    "type": "uint256"
                }
            ],
            "stateMutability": "view",
            "type": "function"
        },
        {
            "inputs": [
                {
                    "internalType": "uint256",
                    "name": "lockId",
                    "type": "uint256"
                },
                {
                    "internalType": "uint256",
                    "name": "newAmount",
                    "type": "uint256"
                },
                {
                    "internalType": "uint256",
                    "name": "newUnlockDate",
                    "type": "uint256"
                }
            ],
            "name": "editLock",
            "outputs": [],
            "stateMutability": "nonpayable",
            "type": "function"
        },
        {
            "inputs": [
                {
                    "internalType": "uint256",
                    "name": "lockId",
                    "type": "uint256"
                },
                {
                    "internalType": "string",
                    "name": "description",
                    "type": "string"
                }
            ],
            "name": "editLockDescription",
            "outputs": [],
            "stateMutability": "nonpayable",
            "type": "function"
        },
        {
            "inputs": [
                {
                    "internalType": "uint256",
                    "name": "start",
                    "type": "uint256"
                },
                {
                    "internalType": "uint256",
                    "name": "end",
                    "type": "uint256"
                }
            ],
            "name": "getCumulativeLpTokenLockInfo",
            "outputs": [
                {
                    "components": [
                        {
                            "internalType": "address",
                            "name": "token",
                            "type": "address"
                        },
                        {
                            "internalType": "address",
                            "name": "factory",
                            "type": "address"
                        },
                        {
                            "internalType": "uint256",
                            "name": "amount",
                            "type": "uint256"
                        }
                    ],
                    "internalType": "struct BitgertLock02.CumulativeLockInfo[]",
                    "name": "",
                    "type": "tuple[]"
                }
            ],
            "stateMutability": "view",
            "type": "function"
        },
        {
            "inputs": [
                {
                    "internalType": "uint256",
                    "name": "index",
                    "type": "uint256"
                }
            ],
            "name": "getCumulativeLpTokenLockInfoAt",
            "outputs": [
                {
                    "components": [
                        {
                            "internalType": "address",
                            "name": "token",
                            "type": "address"
                        },
                        {
                            "internalType": "address",
                            "name": "factory",
                            "type": "address"
                        },
                        {
                            "internalType": "uint256",
                            "name": "amount",
                            "type": "uint256"
                        }
                    ],
                    "internalType": "struct BitgertLock02.CumulativeLockInfo",
                    "name": "",
                    "type": "tuple"
                }
            ],
            "stateMutability": "view",
            "type": "function"
        },
        {
            "inputs": [
                {
                    "internalType": "uint256",
                    "name": "start",
                    "type": "uint256"
                },
                {
                    "internalType": "uint256",
                    "name": "end",
                    "type": "uint256"
                }
            ],
            "name": "getCumulativeNormalTokenLockInfo",
            "outputs": [
                {
                    "components": [
                        {
                            "internalType": "address",
                            "name": "token",
                            "type": "address"
                        },
                        {
                            "internalType": "address",
                            "name": "factory",
                            "type": "address"
                        },
                        {
                            "internalType": "uint256",
                            "name": "amount",
                            "type": "uint256"
                        }
                    ],
                    "internalType": "struct BitgertLock02.CumulativeLockInfo[]",
                    "name": "",
                    "type": "tuple[]"
                }
            ],
            "stateMutability": "view",
            "type": "function"
        },
        {
            "inputs": [
                {
                    "internalType": "uint256",
                    "name": "index",
                    "type": "uint256"
                }
            ],
            "name": "getCumulativeNormalTokenLockInfoAt",
            "outputs": [
                {
                    "components": [
                        {
                            "internalType": "address",
                            "name": "token",
                            "type": "address"
                        },
                        {
                            "internalType": "address",
                            "name": "factory",
                            "type": "address"
                        },
                        {
                            "internalType": "uint256",
                            "name": "amount",
                            "type": "uint256"
                        }
                    ],
                    "internalType": "struct BitgertLock02.CumulativeLockInfo",
                    "name": "",
                    "type": "tuple"
                }
            ],
            "stateMutability": "view",
            "type": "function"
        },
        {
            "inputs": [
                {
                    "internalType": "uint256",
                    "name": "index",
                    "type": "uint256"
                }
            ],
            "name": "getLockAt",
            "outputs": [
                {
                    "components": [
                        {
                            "internalType": "uint256",
                            "name": "id",
                            "type": "uint256"
                        },
                        {
                            "internalType": "address",
                            "name": "token",
                            "type": "address"
                        },
                        {
                            "internalType": "address",
                            "name": "owner",
                            "type": "address"
                        },
                        {
                            "internalType": "uint256",
                            "name": "amount",
                            "type": "uint256"
                        },
                        {
                            "internalType": "uint256",
                            "name": "lockDate",
                            "type": "uint256"
                        },
                        {
                            "internalType": "uint256",
                            "name": "tgeDate",
                            "type": "uint256"
                        },
                        {
                            "internalType": "uint256",
                            "name": "tgeBps",
                            "type": "uint256"
                        },
                        {
                            "internalType": "uint256",
                            "name": "cycle",
                            "type": "uint256"
                        },
                        {
                            "internalType": "uint256",
                            "name": "cycleBps",
                            "type": "uint256"
                        },
                        {
                            "internalType": "uint256",
                            "name": "unlockedAmount",
                            "type": "uint256"
                        },
                        {
                            "internalType": "string",
                            "name": "description",
                            "type": "string"
                        }
                    ],
                    "internalType": "struct BitgertLock02.Lock",
                    "name": "",
                    "type": "tuple"
                }
            ],
            "stateMutability": "view",
            "type": "function"
        },
        {
            "inputs": [
                {
                    "internalType": "uint256",
                    "name": "lockId",
                    "type": "uint256"
                }
            ],
            "name": "getLockById",
            "outputs": [
                {
                    "components": [
                        {
                            "internalType": "uint256",
                            "name": "id",
                            "type": "uint256"
                        },
                        {
                            "internalType": "address",
                            "name": "token",
                            "type": "address"
                        },
                        {
                            "internalType": "address",
                            "name": "owner",
                            "type": "address"
                        },
                        {
                            "internalType": "uint256",
                            "name": "amount",
                            "type": "uint256"
                        },
                        {
                            "internalType": "uint256",
                            "name": "lockDate",
                            "type": "uint256"
                        },
                        {
                            "internalType": "uint256",
                            "name": "tgeDate",
                            "type": "uint256"
                        },
                        {
                            "internalType": "uint256",
                            "name": "tgeBps",
                            "type": "uint256"
                        },
                        {
                            "internalType": "uint256",
                            "name": "cycle",
                            "type": "uint256"
                        },
                        {
                            "internalType": "uint256",
                            "name": "cycleBps",
                            "type": "uint256"
                        },
                        {
                            "internalType": "uint256",
                            "name": "unlockedAmount",
                            "type": "uint256"
                        },
                        {
                            "internalType": "string",
                            "name": "description",
                            "type": "string"
                        }
                    ],
                    "internalType": "struct BitgertLock02.Lock",
                    "name": "",
                    "type": "tuple"
                }
            ],
            "stateMutability": "view",
            "type": "function"
        },
        {
            "inputs": [
                {
                    "internalType": "address",
                    "name": "token",
                    "type": "address"
                },
                {
                    "internalType": "uint256",
                    "name": "start",
                    "type": "uint256"
                },
                {
                    "internalType": "uint256",
                    "name": "end",
                    "type": "uint256"
                }
            ],
            "name": "getLocksForToken",
            "outputs": [
                {
                    "components": [
                        {
                            "internalType": "uint256",
                            "name": "id",
                            "type": "uint256"
                        },
                        {
                            "internalType": "address",
                            "name": "token",
                            "type": "address"
                        },
                        {
                            "internalType": "address",
                            "name": "owner",
                            "type": "address"
                        },
                        {
                            "internalType": "uint256",
                            "name": "amount",
                            "type": "uint256"
                        },
                        {
                            "internalType": "uint256",
                            "name": "lockDate",
                            "type": "uint256"
                        },
                        {
                            "internalType": "uint256",
                            "name": "tgeDate",
                            "type": "uint256"
                        },
                        {
                            "internalType": "uint256",
                            "name": "tgeBps",
                            "type": "uint256"
                        },
                        {
                            "internalType": "uint256",
                            "name": "cycle",
                            "type": "uint256"
                        },
                        {
                            "internalType": "uint256",
                            "name": "cycleBps",
                            "type": "uint256"
                        },
                        {
                            "internalType": "uint256",
                            "name": "unlockedAmount",
                            "type": "uint256"
                        },
                        {
                            "internalType": "string",
                            "name": "description",
                            "type": "string"
                        }
                    ],
                    "internalType": "struct BitgertLock02.Lock[]",
                    "name": "",
                    "type": "tuple[]"
                }
            ],
            "stateMutability": "view",
            "type": "function"
        },
        {
            "inputs": [],
            "name": "getTotalLockCount",
            "outputs": [
                {
                    "internalType": "uint256",
                    "name": "",
                    "type": "uint256"
                }
            ],
            "stateMutability": "view",
            "type": "function"
        },
        {
            "inputs": [
                {
                    "internalType": "address",
                    "name": "owner",
                    "type": "address"
                },
                {
                    "internalType": "address",
                    "name": "token",
                    "type": "address"
                },
                {
                    "internalType": "bool",
                    "name": "isLpToken",
                    "type": "bool"
                },
                {
                    "internalType": "uint256",
                    "name": "amount",
                    "type": "uint256"
                },
                {
                    "internalType": "uint256",
                    "name": "unlockDate",
                    "type": "uint256"
                },
                {
                    "internalType": "string",
                    "name": "description",
                    "type": "string"
                }
            ],
            "name": "lock",
            "outputs": [
                {
                    "internalType": "uint256",
                    "name": "id",
                    "type": "uint256"
                }
            ],
            "stateMutability": "nonpayable",
            "type": "function"
        },
        {
            "inputs": [
                {
                    "internalType": "address",
                    "name": "user",
                    "type": "address"
                }
            ],
            "name": "lpLockCountForUser",
            "outputs": [
                {
                    "internalType": "uint256",
                    "name": "",
                    "type": "uint256"
                }
            ],
            "stateMutability": "view",
            "type": "function"
        },
        {
            "inputs": [
                {
                    "internalType": "address",
                    "name": "user",
                    "type": "address"
                },
                {
                    "internalType": "uint256",
                    "name": "index",
                    "type": "uint256"
                }
            ],
            "name": "lpLockForUserAtIndex",
            "outputs": [
                {
                    "components": [
                        {
                            "internalType": "uint256",
                            "name": "id",
                            "type": "uint256"
                        },
                        {
                            "internalType": "address",
                            "name": "token",
                            "type": "address"
                        },
                        {
                            "internalType": "address",
                            "name": "owner",
                            "type": "address"
                        },
                        {
                            "internalType": "uint256",
                            "name": "amount",
                            "type": "uint256"
                        },
                        {
                            "internalType": "uint256",
                            "name": "lockDate",
                            "type": "uint256"
                        },
                        {
                            "internalType": "uint256",
                            "name": "tgeDate",
                            "type": "uint256"
                        },
                        {
                            "internalType": "uint256",
                            "name": "tgeBps",
                            "type": "uint256"
                        },
                        {
                            "internalType": "uint256",
                            "name": "cycle",
                            "type": "uint256"
                        },
                        {
                            "internalType": "uint256",
                            "name": "cycleBps",
                            "type": "uint256"
                        },
                        {
                            "internalType": "uint256",
                            "name": "unlockedAmount",
                            "type": "uint256"
                        },
                        {
                            "internalType": "string",
                            "name": "description",
                            "type": "string"
                        }
                    ],
                    "internalType": "struct BitgertLock02.Lock",
                    "name": "",
                    "type": "tuple"
                }
            ],
            "stateMutability": "view",
            "type": "function"
        },
        {
            "inputs": [
                {
                    "internalType": "address",
                    "name": "user",
                    "type": "address"
                }
            ],
            "name": "lpLocksForUser",
            "outputs": [
                {
                    "components": [
                        {
                            "internalType": "uint256",
                            "name": "id",
                            "type": "uint256"
                        },
                        {
                            "internalType": "address",
                            "name": "token",
                            "type": "address"
                        },
                        {
                            "internalType": "address",
                            "name": "owner",
                            "type": "address"
                        },
                        {
                            "internalType": "uint256",
                            "name": "amount",
                            "type": "uint256"
                        },
                        {
                            "internalType": "uint256",
                            "name": "lockDate",
                            "type": "uint256"
                        },
                        {
                            "internalType": "uint256",
                            "name": "tgeDate",
                            "type": "uint256"
                        },
                        {
                            "internalType": "uint256",
                            "name": "tgeBps",
                            "type": "uint256"
                        },
                        {
                            "internalType": "uint256",
                            "name": "cycle",
                            "type": "uint256"
                        },
                        {
                            "internalType": "uint256",
                            "name": "cycleBps",
                            "type": "uint256"
                        },
                        {
                            "internalType": "uint256",
                            "name": "unlockedAmount",
                            "type": "uint256"
                        },
                        {
                            "internalType": "string",
                            "name": "description",
                            "type": "string"
                        }
                    ],
                    "internalType": "struct BitgertLock02.Lock[]",
                    "name": "",
                    "type": "tuple[]"
                }
            ],
            "stateMutability": "view",
            "type": "function"
        },
        {
            "inputs": [
                {
                    "internalType": "address[]",
                    "name": "owners",
                    "type": "address[]"
                },
                {
                    "internalType": "uint256[]",
                    "name": "amounts",
                    "type": "uint256[]"
                },
                {
                    "internalType": "address",
                    "name": "token",
                    "type": "address"
                },
                {
                    "internalType": "bool",
                    "name": "isLpToken",
                    "type": "bool"
                },
                {
                    "internalType": "uint256",
                    "name": "tgeDate",
                    "type": "uint256"
                },
                {
                    "internalType": "uint256",
                    "name": "tgeBps",
                    "type": "uint256"
                },
                {
                    "internalType": "uint256",
                    "name": "cycle",
                    "type": "uint256"
                },
                {
                    "internalType": "uint256",
                    "name": "cycleBps",
                    "type": "uint256"
                },
                {
                    "internalType": "string",
                    "name": "description",
                    "type": "string"
                }
            ],
            "name": "multipleVestingLock",
            "outputs": [
                {
                    "internalType": "uint256[]",
                    "name": "",
                    "type": "uint256[]"
                }
            ],
            "stateMutability": "nonpayable",
            "type": "function"
        },
        {
            "inputs": [
                {
                    "internalType": "address",
                    "name": "user",
                    "type": "address"
                }
            ],
            "name": "normalLockCountForUser",
            "outputs": [
                {
                    "internalType": "uint256",
                    "name": "",
                    "type": "uint256"
                }
            ],
            "stateMutability": "view",
            "type": "function"
        },
        {
            "inputs": [
                {
                    "internalType": "address",
                    "name": "user",
                    "type": "address"
                },
                {
                    "internalType": "uint256",
                    "name": "index",
                    "type": "uint256"
                }
            ],
            "name": "normalLockForUserAtIndex",
            "outputs": [
                {
                    "components": [
                        {
                            "internalType": "uint256",
                            "name": "id",
                            "type": "uint256"
                        },
                        {
                            "internalType": "address",
                            "name": "token",
                            "type": "address"
                        },
                        {
                            "internalType": "address",
                            "name": "owner",
                            "type": "address"
                        },
                        {
                            "internalType": "uint256",
                            "name": "amount",
                            "type": "uint256"
                        },
                        {
                            "internalType": "uint256",
                            "name": "lockDate",
                            "type": "uint256"
                        },
                        {
                            "internalType": "uint256",
                            "name": "tgeDate",
                            "type": "uint256"
                        },
                        {
                            "internalType": "uint256",
                            "name": "tgeBps",
                            "type": "uint256"
                        },
                        {
                            "internalType": "uint256",
                            "name": "cycle",
                            "type": "uint256"
                        },
                        {
                            "internalType": "uint256",
                            "name": "cycleBps",
                            "type": "uint256"
                        },
                        {
                            "internalType": "uint256",
                            "name": "unlockedAmount",
                            "type": "uint256"
                        },
                        {
                            "internalType": "string",
                            "name": "description",
                            "type": "string"
                        }
                    ],
                    "internalType": "struct BitgertLock02.Lock",
                    "name": "",
                    "type": "tuple"
                }
            ],
            "stateMutability": "view",
            "type": "function"
        },
        {
            "inputs": [
                {
                    "internalType": "address",
                    "name": "user",
                    "type": "address"
                }
            ],
            "name": "normalLocksForUser",
            "outputs": [
                {
                    "components": [
                        {
                            "internalType": "uint256",
                            "name": "id",
                            "type": "uint256"
                        },
                        {
                            "internalType": "address",
                            "name": "token",
                            "type": "address"
                        },
                        {
                            "internalType": "address",
                            "name": "owner",
                            "type": "address"
                        },
                        {
                            "internalType": "uint256",
                            "name": "amount",
                            "type": "uint256"
                        },
                        {
                            "internalType": "uint256",
                            "name": "lockDate",
                            "type": "uint256"
                        },
                        {
                            "internalType": "uint256",
                            "name": "tgeDate",
                            "type": "uint256"
                        },
                        {
                            "internalType": "uint256",
                            "name": "tgeBps",
                            "type": "uint256"
                        },
                        {
                            "internalType": "uint256",
                            "name": "cycle",
                            "type": "uint256"
                        },
                        {
                            "internalType": "uint256",
                            "name": "cycleBps",
                            "type": "uint256"
                        },
                        {
                            "internalType": "uint256",
                            "name": "unlockedAmount",
                            "type": "uint256"
                        },
                        {
                            "internalType": "string",
                            "name": "description",
                            "type": "string"
                        }
                    ],
                    "internalType": "struct BitgertLock02.Lock[]",
                    "name": "",
                    "type": "tuple[]"
                }
            ],
            "stateMutability": "view",
            "type": "function"
        },
        {
            "inputs": [
                {
                    "internalType": "uint256",
                    "name": "lockId",
                    "type": "uint256"
                }
            ],
            "name": "renounceLockOwnership",
            "outputs": [],
            "stateMutability": "nonpayable",
            "type": "function"
        },
        {
            "inputs": [
                {
                    "internalType": "address",
                    "name": "token",
                    "type": "address"
                }
            ],
            "name": "totalLockCountForToken",
            "outputs": [
                {
                    "internalType": "uint256",
                    "name": "",
                    "type": "uint256"
                }
            ],
            "stateMutability": "view",
            "type": "function"
        },
        {
            "inputs": [
                {
                    "internalType": "address",
                    "name": "user",
                    "type": "address"
                }
            ],
            "name": "totalLockCountForUser",
            "outputs": [
                {
                    "internalType": "uint256",
                    "name": "",
                    "type": "uint256"
                }
            ],
            "stateMutability": "view",
            "type": "function"
        },
        {
            "inputs": [],
            "name": "totalTokenLockedCount",
            "outputs": [
                {
                    "internalType": "uint256",
                    "name": "",
                    "type": "uint256"
                }
            ],
            "stateMutability": "view",
            "type": "function"
        },
        {
            "inputs": [
                {
                    "internalType": "uint256",
                    "name": "lockId",
                    "type": "uint256"
                },
                {
                    "internalType": "address",
                    "name": "newOwner",
                    "type": "address"
                }
            ],
            "name": "transferLockOwnership",
            "outputs": [],
            "stateMutability": "nonpayable",
            "type": "function"
        },
        {
            "inputs": [
                {
                    "internalType": "uint256",
                    "name": "lockId",
                    "type": "uint256"
                }
            ],
            "name": "unlock",
            "outputs": [],
            "stateMutability": "nonpayable",
            "type": "function"
        },
        {
            "inputs": [
                {
                    "internalType": "address",
                    "name": "owner",
                    "type": "address"
                },
                {
                    "internalType": "address",
                    "name": "token",
                    "type": "address"
                },
                {
                    "internalType": "bool",
                    "name": "isLpToken",
                    "type": "bool"
                },
                {
                    "internalType": "uint256",
                    "name": "amount",
                    "type": "uint256"
                },
                {
                    "internalType": "uint256",
                    "name": "tgeDate",
                    "type": "uint256"
                },
                {
                    "internalType": "uint256",
                    "name": "tgeBps",
                    "type": "uint256"
                },
                {
                    "internalType": "uint256",
                    "name": "cycle",
                    "type": "uint256"
                },
                {
                    "internalType": "uint256",
                    "name": "cycleBps",
                    "type": "uint256"
                },
                {
                    "internalType": "string",
                    "name": "description",
                    "type": "string"
                }
            ],
            "name": "vestingLock",
            "outputs": [
                {
                    "internalType": "uint256",
                    "name": "id",
                    "type": "uint256"
                }
            ],
            "stateMutability": "nonpayable",
            "type": "function"
        },
        {
            "inputs": [
                {
                    "internalType": "uint256",
                    "name": "lockId",
                    "type": "uint256"
                }
            ],
            "name": "withdrawableTokens",
            "outputs": [
                {
                    "internalType": "uint256",
                    "name": "",
                    "type": "uint256"
                }
            ],
            "stateMutability": "view",
            "type": "function"
        }
    ],
    "bytecode": "0x608060405260af60375560006038556005603b5562278d00603c5562278d00603d556276a700603e553480156200003557600080fd5b506040516200628838038062006288833981016040819052620000589162000250565b620000633362000200565b6001808055603692909255603280546001600160a01b03199081163390811790925560338054821683179055603480548216909217909155604280546001600160a01b0393909316928216929092179091557f32e903d86335935e9ec8e04ef3354f552c23bab37ceef896f2285b2b2f74c105805460ff1990811684179091557f48c3a1bc1822161cb5b6d96992486e24d4f9c65d16dc95b0d95b3e7bc7337e7480548216841790557f1fed5f608b1b6440ce478e029a24710904da34da8118b9b61f3728ea4bcf56fe805490911690921790915560446020527fff2df0515866d0e5037a04274635c66d5b7f91cd9f7cebf4fde878af347aa2698054821673dd870fa1b7c4700f2bd7f44238821c26f73921481790557fcdad79d33f4de49584ed9b39ca3d8a53cc10e49c033c5359244d3129cc2efd3d8054821673583031d1113ad414f02576bd6afabfb30214022517905560026000527f698f965f71a6f5c9afb45442df7ff01640d7295288618bfa1177b6c22c0c05db8054909116734b0897b0513fdc7c541b6d9d7e929c4e5364d2db1790556200028f565b600080546001600160a01b038381166001600160a01b0319831681178455604051919092169283917f8be0079c531659141344cd1fd0a4f28419497f9722a3daafe3b4186f6b6457e09190a35050565b600080604083850312156200026457600080fd5b825160208401519092506001600160a01b03811681146200028457600080fd5b809150509250929050565b615fe9806200029f6000396000f3fe6080604052600436106104ff5760003560e01c80637f6e1b7011610297578063c46f085911610165578063e82dca74116100cc578063f2fde38b11610085578063f2fde38b146111cc578063f84d473f146111ec578063f941ec7214611219578063fa31de5514611249578063fbfa13aa14611269578063fc015cc31461128957600080fd5b8063e82dca74146110d9578063e898133014611111578063e911b96314611131578063eac61d2414611151578063ee1ad3d314611171578063f25f4b56146111ac57600080fd5b8063d354ae861161011e578063d354ae8614611010578063d45836ce14611040578063d5c78a2814611053578063d7ffd18214611083578063da3c300d146110a3578063e206446a146110b957600080fd5b8063c46f085914610f05578063c4eea66f14610f25578063c5204d8f14610f5b578063c5db2b1d14610f88578063cebb181814610fb5578063d2ef079514610fd557600080fd5b80639958f30811610209578063a743e7b9116101c2578063a743e7b914610e0a578063a9e7c2e514610e37578063b1bc547d14610e4a578063b4428dae14610e82578063b70908f114610eb8578063b914c43b14610ee557600080fd5b80639958f30814610d4e5780639988ab1e14610d7b578063a2030ac714610d91578063a4c3b09114610dbe578063a69bb45d14610dde578063a6a2dc6414610df457600080fd5b806389637d9b1161025b57806389637d9b14610c8a5780638c59091714610cb75780638da5cb5b14610cca5780638f66fa3614610ce857806391f24b0314610cfe578063968743e214610d1e57600080fd5b80637f6e1b7014610bb957806380dd9a1f14610bf457806383033df214610c24578063872b48c514610c545780638778878214610c7457600080fd5b806344c816fa116103d45780636215be77116103465780637388cf9c116102ff5780637388cf9c14610ae657806374c544bb14610b165780637a366d1414610b365780637a66dddf14610b635780637c77658c14610b835780637db7e7b214610b9957600080fd5b80636215be7714610a1e5780636671852414610a3e5780636688ffe714610a5e578063681b3d4914610a8b5780636c71b79f14610aa1578063715018a614610ad157600080fd5b806352df107f1161039857806352df107f1461094e5780635312ea8e1461096e57806355a2b5c814610981578063575a86b2146109ae57806357e45562146109ce5780635e6b3a89146109ee57600080fd5b806344c816fa146108845780634878f78f146108b15780634ab25e9c146108e15780634f05824d146109015780635022b5541461092e57600080fd5b806324ca984e11610478578063365346961161043157806336534696146107a7578063378de45b146107c75780633dd69636146107e75780633ec4c968146107fd5780633fc69a4c1461082a57806342d005011461085757600080fd5b806324ca984e1461068957806325cbe6ef146106a957806326d181a3146106e95780632a35c911146107095780632ed0dac214610741578063311c09661461077157600080fd5b80630a861f2a116104ca5780630a861f2a146105c65780630c8be95f146105e657806314243147146106135780631753fac11461062657806317fdd4f81461063c5780631d458d5d1461065c57600080fd5b8062539af014610504578062a319ba14610526578062c1bce41461054657806305261aea146105665780630559f17414610586575b600080fd5b34801561051057600080fd5b5061052461051f3660046159ac565b6112a9565b005b34801561053257600080fd5b506105246105413660046159ac565b6112fe565b34801561055257600080fd5b50610524610561366004615b0e565b61134a565b34801561057257600080fd5b50610524610581366004615ab7565b61157f565b34801561059257600080fd5b506105b36105a1366004615ab7565b600a6020526000908152604090205481565b6040519081526020015b60405180910390f35b3480156105d257600080fd5b506105246105e1366004615ab7565b6119f2565b3480156105f257600080fd5b506105b3610601366004615ab7565b601e6020526000908152604090205481565b610524610621366004615a9e565b611e6e565b34801561063257600080fd5b506105b3603c5481565b34801561064857600080fd5b506105b3610657366004615ae9565b61252f565b34801561066857600080fd5b506105b3610677366004615ab7565b601f6020526000908152604090205481565b34801561069557600080fd5b506105246106a43660046159ac565b612639565b3480156106b557600080fd5b506106d96106c4366004615ab7565b60296020526000908152604090205460ff1681565b60405190151581526020016105bd565b3480156106f557600080fd5b50610524610704366004615ab7565b612687565b34801561071557600080fd5b50603354610729906001600160a01b031681565b6040516001600160a01b0390911681526020016105bd565b34801561074d57600080fd5b506106d961075c366004615ab7565b602c6020526000908152604090205460ff1681565b34801561077d57600080fd5b506105b361078c366004615ae9565b60208080526000928352604080842090915290825290205481565b3480156107b357600080fd5b506105246107c2366004615ab7565b6126b6565b3480156107d357600080fd5b506105b36107e2366004615ab7565b6126e5565b3480156107f357600080fd5b506105b360395481565b34801561080957600080fd5b506105b3610818366004615ab7565b60056020526000908152604090205481565b34801561083657600080fd5b506105b3610845366004615ab7565b60096020526000908152604090205481565b34801561086357600080fd5b506105b3610872366004615ab7565b60246020526000908152604090205481565b34801561089057600080fd5b506105b361089f366004615ab7565b60086020526000908152604090205481565b3480156108bd57600080fd5b506106d96108cc366004615ab7565b60156020526000908152604090205460ff1681565b3480156108ed57600080fd5b506105246108fc366004615ab7565b612864565b34801561090d57600080fd5b506105b361091c366004615ab7565b60116020526000908152604090205481565b34801561093a57600080fd5b506105246109493660046159ac565b612893565b34801561095a57600080fd5b50603554610729906001600160a01b031681565b61052461097c366004615ab7565b6128df565b34801561098d57600080fd5b506105b361099c366004615ab7565b60106020526000908152604090205481565b3480156109ba57600080fd5b50603f54610729906001600160a01b031681565b3480156109da57600080fd5b506105246109e93660046159ac565b612a8a565b3480156109fa57600080fd5b506106d9610a09366004615ab7565b60226020526000908152604090205460ff1681565b348015610a2a57600080fd5b50610524610a39366004615ab7565b612ad6565b348015610a4a57600080fd5b50610524610a593660046159ac565b612cda565b348015610a6a57600080fd5b506105b3610a79366004615ab7565b60026020526000908152604090205481565b348015610a9757600080fd5b506105b3603b5481565b348015610aad57600080fd5b506106d9610abc366004615ab7565b601c6020526000908152604090205460ff1681565b348015610add57600080fd5b50610524612d26565b348015610af257600080fd5b506106d9610b01366004615ab7565b601a6020526000908152604090205460ff1681565b348015610b2257600080fd5b50603454610729906001600160a01b031681565b348015610b4257600080fd5b506105b3610b51366004615ab7565b60136020526000908152604090205481565b348015610b6f57600080fd5b50610524610b7e366004615ab7565b612d5c565b348015610b8f57600080fd5b506105b360385481565b348015610ba557600080fd5b50610524610bb43660046159ac565b612e1f565b348015610bc557600080fd5b506106d9610bd4366004615ae9565b601760209081526000928352604080842090915290825290205460ff1681565b348015610c0057600080fd5b506106d9610c0f3660046159ac565b600b6020526000908152604090205460ff1681565b348015610c3057600080fd5b506106d9610c3f366004615ab7565b601b6020526000908152604090205460ff1681565b348015610c6057600080fd5b50610524610c6f366004615ab7565b613104565b348015610c8057600080fd5b506105b360375481565b348015610c9657600080fd5b506105b3610ca5366004615ab7565b60126020526000908152604090205481565b610524610cc5366004615b83565b613133565b348015610cd657600080fd5b506000546001600160a01b0316610729565b348015610cf457600080fd5b506105b3603a5481565b348015610d0a57600080fd5b50604154610729906001600160a01b031681565b348015610d2a57600080fd5b506106d9610d393660046159ac565b60196020526000908152604090205460ff1681565b348015610d5a57600080fd5b506105b3610d69366004615ab7565b60256020526000908152604090205481565b348015610d8757600080fd5b506105b3603e5481565b348015610d9d57600080fd5b506105b3610dac366004615ab7565b60036020526000908152604090205481565b348015610dca57600080fd5b50610524610dd93660046159e6565b613564565b348015610dea57600080fd5b506105b3603d5481565b348015610e0057600080fd5b506105b360315481565b348015610e1657600080fd5b506105b3610e25366004615ab7565b60066020526000908152604090205481565b610524610e45366004615ab7565b6135f3565b348015610e5657600080fd5b506105b3610e65366004615ae9565b602160209081526000928352604080842090915290825290205481565b348015610e8e57600080fd5b50610729610e9d366004615ab7565b6027602052600090815260409020546001600160a01b031681565b348015610ec457600080fd5b506105b3610ed3366004615ab7565b600f6020526000908152604090205481565b348015610ef157600080fd5b50610524610f003660046159ac565b6139a2565b348015610f1157600080fd5b50610524610f20366004615ab7565b6139ee565b348015610f3157600080fd5b50610729610f40366004615ab7565b600c602052600090815260409020546001600160a01b031681565b348015610f6757600080fd5b506105b3610f76366004615ab7565b60076020526000908152604090205481565b348015610f9457600080fd5b506105b3610fa3366004615ab7565b60146020526000908152604090205481565b348015610fc157600080fd5b50610524610fd0366004615ab7565b613a1d565b348015610fe157600080fd5b506106d9610ff0366004615ae9565b602d60209081526000928352604080842090915290825290205460ff1681565b34801561101c57600080fd5b506106d961102b366004615ab7565b60286020526000908152604090205460ff1681565b61052461104e366004615b5e565b613a4c565b34801561105f57600080fd5b506106d961106e366004615ab7565b602e6020526000908152604090205460ff1681565b34801561108f57600080fd5b5061052461109e366004615ab7565b613aee565b3480156110af57600080fd5b506105b360365481565b3480156110c557600080fd5b506105246110d4366004615a12565b613b1d565b3480156110e557600080fd5b506105b36110f4366004615ae9565b601d60209081526000928352604080842090915290825290205481565b34801561111d57600080fd5b5061052461112c366004615ab7565b613ba9565b34801561113d57600080fd5b5061052461114c366004615ab7565b613bd8565b34801561115d57600080fd5b5061052461116c366004615ab7565b613d70565b34801561117d57600080fd5b506106d961118c366004615ae9565b601860209081526000928352604080842090915290825290205460ff1681565b3480156111b857600080fd5b50603254610729906001600160a01b031681565b3480156111d857600080fd5b506105246111e73660046159ac565b613d9f565b3480156111f857600080fd5b506105b3611207366004615ab7565b60236020526000908152604090205481565b34801561122557600080fd5b506106d9611234366004615ab7565b60266020526000908152604090205460ff1681565b34801561125557600080fd5b50604054610729906001600160a01b031681565b34801561127557600080fd5b506105246112843660046159ac565b613e37565b34801561129557600080fd5b506105246112a43660046159ac565b613f01565b6000546001600160a01b031633146112dc5760405162461bcd60e51b81526004016112d390615d16565b60405180910390fd5b603580546001600160a01b0319166001600160a01b0392909216919091179055565b6000546001600160a01b031633146113285760405162461bcd60e51b81526004016112d390615d16565b604280546001600160a01b0319166001600160a01b0392909216919091179055565b6000838152602a60205260409020546001600160a01b031633146113805760405162461bcd60e51b81526004016112d390615cc5565b6000838152601a602052604090205460ff166113d65760405162461bcd60e51b81526020600482015260156024820152741dda1a5d195b1a5cdd0b5b9bdd0b595b98589b1959605a1b60448201526064016112d3565b8060011415611467576000838152601b60205260408120805460ff191660011790555b825181101561146157600083828151811061141657611416615f64565b60209081029190910181015160008781526017835260408082206001600160a01b039093168252919092529020805460ff19166001179055508061145981615f33565b9150506113f9565b50505050565b80600214156114f2576000838152601c60205260408120805460ff191660011790555b82518110156114615760008382815181106114a7576114a7615f64565b60209081029190910181015160008781526018835260408082206001600160a01b039093168252919092529020805460ff1916600117905550806114ea81615f33565b91505061148a565b60005b825181101561146157600083828151811061151257611512615f64565b60209081029190910181015160008781526017835260408082206001600160a01b03909316808352928452808220805460ff1990811690915589835260188552818320938352929093529190912080549091169055508061157281615f33565b9150506114f5565b505050565b600260015414156115a25760405162461bcd60e51b81526004016112d390615d75565b60026001556000818152602a60205260409020546001600160a01b031633146115dd5760405162461bcd60e51b81526004016112d390615cc5565b6000818152602e602052604090205460ff161561160c5760405162461bcd60e51b81526004016112d390615d4b565b6000818152600860205260409020544210158061165257506000818152601e60209081526040808320546002835281842054601490935292205461164f91613f4d565b11155b61168f5760405162461bcd60e51b815260206004820152600e60248201526d70726573616c652d61637469766560901b60448201526064016112d3565b60008181526029602052604090205460ff16156116e15760405162461bcd60e51b815260206004820152601060248201526f616c72656164792d66696e696c697a6560801b60448201526064016112d3565b6000818152602960209081526040808320805460ff191660011790556013825280832054601e83528184205460099093529220429055108015906119b4576037546000838152601e6020526040812054909161174b91612710916117459190613f60565b90613f6c565b60008481526026602052604090205490915060ff166117a4576033546040516001600160a01b039091169082156108fc029083906000818181858888f1935050505015801561179e573d6000803e3d6000fd5b506117d1565b6000838152602760205260409020546033546001600160a01b03918216916117cf9183911684613f78565b505b6000838152601e60205260408120546117ea9083613f4d565b600085815260046020908152604080832054603854601f909352908320549394506001600160a01b03169283929161182a91612710916117459190613f60565b9050801561199f576034546040516370a0823160e01b81526001600160a01b0391821660048201526000918416906370a082319060240160206040518083038186803b15801561187957600080fd5b505afa15801561188d573d6000803e3d6000fd5b505050506040513d601f19601f820116820180604052508101906118b19190615ad0565b6034549091506118ce906001600160a01b03858116911684613f78565b6034546040516370a0823160e01b81526001600160a01b0391821660048201526000918516906370a082319060240160206040518083038186803b15801561191557600080fd5b505afa158015611929573d6000803e3d6000fd5b505050506040513d601f19601f8201168201806040525081019061194d9190615ad0565b90508061195a8484615dac565b1461199c5760405162461bcd60e51b815260206004820152601260248201527173686f756c642d6578636c7564652d66656560701b60448201526064016112d3565b50505b6119aa848883613fdb565b50505050506119ea565b60006119bf836126e5565b6000848152600460205260409020549091506001600160a01b0316806119e6813385613f78565b5050505b505060018055565b60026001541415611a155760405162461bcd60e51b81526004016112d390615d75565b60026001556000818152602a60205260409020546001600160a01b03163314611a505760405162461bcd60e51b81526004016112d390615cc5565b6000818152600a60205260409020544211611aa05760405162461bcd60e51b815260206004820152601060248201526f1b1a5c5d5a591a5d1e4b5b1bd8dad95960821b60448201526064016112d3565b60008181526028602052604090205460ff1615611af25760405162461bcd60e51b815260206004820152601060248201526f616c72656164792d776974686472617760801b60448201526064016112d3565b6000818152600c602090815260408083205460048084528285205483516315ab88c960e31b815293516001600160a01b039384169693909116948694859363ad5c4648938282019392909190829003018186803b158015611b5257600080fd5b505afa158015611b66573d6000803e3d6000fd5b505050506040513d601f19601f82011682018060405250810190611b8a91906159c9565b90506000826001600160a01b031663c45a01556040518163ffffffff1660e01b815260040160206040518083038186803b158015611bc757600080fd5b505afa158015611bdb573d6000803e3d6000fd5b505050506040513d601f19601f82011682018060405250810190611bff91906159c9565b60405163e6a4390560e01b81526001600160a01b038681166004830152848116602483015291925060009183169063e6a439059060440160206040518083038186803b158015611c4e57600080fd5b505afa158015611c62573d6000803e3d6000fd5b505050506040513d601f19601f82011682018060405250810190611c8691906159c9565b6000888152602b602090815260408083206001600160a01b03808c168552925290912054919250611cbc91908316903390613f78565b6000878152602b602090815260408083206035546001600160a01b0316845290915290205415801590611cfd57506035546001600160a01b03878116911614155b15611e48576035546040805163c45a015560e01b815290516001600160a01b0390921691600091839163c45a015591600480820192602092909190829003018186803b158015611d4c57600080fd5b505afa158015611d60573d6000803e3d6000fd5b505050506040513d601f19601f82011682018060405250810190611d8491906159c9565b60405163e6a4390560e01b81526001600160a01b038981166004830152878116602483015291925060009183169063e6a439059060440160206040518083038186803b158015611dd357600080fd5b505afa158015611de7573d6000803e3d6000fd5b505050506040513d601f19601f82011682018060405250810190611e0b91906159c9565b60008b8152602b602090815260408083206035546001600160a01b039081168552925290912054919250611e4491908316903390613f78565b5050505b5050506000938452505060286020525060409020805460ff191660019081179091558055565b60026001541415611e915760405162461bcd60e51b81526004016112d390615d75565b6002600155603a54813514611ee05760405162461bcd60e51b81526020600482015260156024820152741c1c995cd85b194b585b1c9958591e4b595e1a5cdd605a1b60448201526064016112d3565b600b6000611ef6610140840161012085016159ac565b6001600160a01b0316815260208101919091526040016000205460ff16611f545760405162461bcd60e51b81526020600482015260126024820152716e6f742d726f757465722d6164647265737360701b60448201526064016112d3565b603654341015611f975760405162461bcd60e51b815260206004820152600e60248201526d6e6f742d656e6f7567682d66656560901b60448201526064016112d3565b8060a00135816080013511158015611fb757508060c001358160a0013511155b8015611fcb57508060e001358160c0013511155b6120085760405162461bcd60e51b815260206004820152600e60248201526d1d1a5b594b5a5b98dbdc9c9958dd60921b60448201526064016112d3565b603d5461201d60e08301356080840135613f4d565b111561206b5760405162461bcd60e51b815260206004820152601a60248201527f70726573616c652d6c656e6774682d72656163682d6c696d697400000000000060448201526064016112d3565b603e5461208161010083013560e0840135613f4d565b10156120cf5760405162461bcd60e51b815260206004820152601960248201527f6c69717569646974792d6c6f636b2d74696d652d6c696d69740000000000000060448201526064016112d3565b80610160013581610140013510156121165760405162461bcd60e51b815260206004820152600a60248201526974696572312d7261746560b01b60448201526064016112d3565b806101800135816101600135101561215d5760405162461bcd60e51b815260206004820152600a60248201526974696572322d7261746560b01b60448201526064016112d3565b61271081610280013511156121a65760405162461bcd60e51b815260206004820152600f60248201526e1bdd995c8b5b585e0b585b5bdd5b9d608a1b60448201526064016112d3565b6121b660408201602083016159ac565b603a8054600090815260046020908152604080832080546001600160a01b0319166001600160a01b0396909616959095179094558254825260028152838220858501359055825482526003815283822060608601359055825482526005815283822060808601359055825482526006815283822060a08601359055825482526007815283822060c08601359055825482526008815283822060e0860135905591548152600a909152206101008201359055612279610140820161012083016159ac565b603a80546000908152600c6020908152604080832080546001600160a01b03969096166001600160a01b031996871617905583548352600f82528083206101408701359055835483526010825280832061016087013590558354835260128252808320610180870135905583548352601182528083206101a0870135905583548352601382528083206101c0870135905583548352601482528083206101e0870135905583548352602a82528083208054909516331790945582548252600d8152838220610200860135905591548152600e90915220610220820135905561236961026082016102408301615a64565b603a546000908152601560205260409020805460ff191691151591909117905561239b61028082016102608301615a64565b603a80546000908152602260209081526040808320805460ff1916951515959095179094558254825260238152838220610280860135905582548252602481528382206102a08601359055915481526025909152206102c0820135905561240a61030082016102e08301615a64565b603a546000908152602660205260409020805460ff191691151591909117905561243c610320820161030083016159ac565b60276000603a54815260200190815260200160002060006101000a8154816001600160a01b0302191690836001600160a01b031602179055507ffeb1a35f16ecbe41d24e3f046c717848233dcf5b5682413d214c77980898c8ff603a5482608001358360e001358460200160208101906124b691906159ac565b604080519485526020850193909352918301526001600160a01b0316606082015260800160405180910390a1603a546124f0906001614117565b603a556032546036546040516001600160a01b039092169181156108fc0291906000818181858888f193505050501580156119ea573d6000803e3d6000fd5b60008281526022602052604081205460ff16156126105760008381526025602090815260408083205460248352818420546009909352908320546125829261257c91611745904290613f4d565b90613f60565b6000858152602360205260408120549192509061259f9083614117565b90506127108111156125d3576000858152602080805260408083206001600160a01b03881684529091529020549250612609565b6000858152602080805260408083206001600160a01b038816845290915290205461260690612710906117459084613f60565b92505b5050612633565b506000828152602080805260408083206001600160a01b03851684529091529020545b92915050565b6000546001600160a01b031633146126635760405162461bcd60e51b81526004016112d390615d16565b6001600160a01b03166000908152600b60205260409020805460ff19166001179055565b6000546001600160a01b031633146126b15760405162461bcd60e51b81526004016112d390615d16565b603c55565b6000546001600160a01b031633146126e05760405162461bcd60e51b81526004016112d390615d16565b603155565b600081815260146020908152604080832054600f835281842054600e845282852054600d85528386205460119095529285205491939092916127278585613f60565b9550600061274860646117458461257c6127418989614117565b8b90613f60565b90506127548782614117565b60008981526026602052604090205490975060ff166127a057612799670de0b6b3a76400006117456127106117456038546127106127929190615dac565b8c90613f60565b9650612859565b600088815260276020908152604080832054815163313ce56760e01b815291516001600160a01b039091169263313ce5679260048082019391829003018186803b1580156127ed57600080fd5b505afa158015612801573d6000803e3d6000fd5b505050506040513d601f19601f820116820180604052508101906128259190615ad0565b905061285561283582600a615e29565b61174561271061174560385461271061284e9190615dac565b8d90613f60565b9750505b505050505050919050565b6000546001600160a01b0316331461288e5760405162461bcd60e51b81526004016112d390615d16565b603855565b6000546001600160a01b031633146128bd5760405162461bcd60e51b81526004016112d390615d16565b604080546001600160a01b0319166001600160a01b0392909216919091179055565b600260015414156129025760405162461bcd60e51b81526004016112d390615d75565b600260015560008181526029602052604090205460ff161561295c5760405162461bcd60e51b81526020600482015260136024820152721c1c995cd85b194b585b1c9958591e4b595b99606a1b60448201526064016112d3565b6000818152601d6020908152604080832033808552908352818420548585528380528285208286528452828520548686526026909452919093205490919060ff166129dd576040516001600160a01b0384169083156108fc029084906000818181858888f193505050501580156129d7573d6000803e3d6000fd5b50612a02565b6000848152602760205260409020546001600160a01b0316612a00813385613f78565b505b6000848152601d60209081526040808320338085529083528184208490558784528280528184209084528252808320839055868352601e909152902054612a499083613f4d565b6000858152601e6020908152604080832093909355601f90522054612a6e9082613f4d565b6000948552601f60205260409094209390935550506001805550565b6000546001600160a01b03163314612ab45760405162461bcd60e51b81526004016112d390615d16565b603f80546001600160a01b0319166001600160a01b0392909216919091179055565b6000818152602a60205260409020546001600160a01b03163314612b0c5760405162461bcd60e51b81526004016112d390615cc5565b6000818152602e602052604090205460ff1615612b3b5760405162461bcd60e51b81526004016112d390615d4b565b6000818152600460205260408120546001600160a01b0316908190612b5f846126e5565b6040516370a0823160e01b81523060048201529091506000906001600160a01b038416906370a082319060240160206040518083038186803b158015612ba457600080fd5b505afa158015612bb8573d6000803e3d6000fd5b505050506040513d601f19601f82011682018060405250810190612bdc9190615ad0565b9050612bf36001600160a01b038416333085614123565b6040516370a0823160e01b81523060048201526000906001600160a01b038516906370a082319060240160206040518083038186803b158015612c3557600080fd5b505afa158015612c49573d6000803e3d6000fd5b505050506040513d601f19601f82011682018060405250810190612c6d9190615ad0565b905082612c7a8284613f4d565b14612cba5760405162461bcd60e51b815260206004820152601060248201526f185b5bdd5b9d0b5b9bdd0b595c5d585b60821b60448201526064016112d3565b50505060009283525050602c60205260409020805460ff19166001179055565b6000546001600160a01b03163314612d045760405162461bcd60e51b81526004016112d390615d16565b603280546001600160a01b0319166001600160a01b0392909216919091179055565b6000546001600160a01b03163314612d505760405162461bcd60e51b81526004016112d390615d16565b612d5a600061415b565b565b3360009081526043602052604090205460ff16612d8b5760405162461bcd60e51b81526004016112d390615cf0565b6041546001600160a01b03163314612ddb5760405162461bcd60e51b81526020600482015260136024820152721b9bdd0b5dda5d1a191c985dcb5dd85b1b195d606a1b60448201526064016112d3565b6040513390819083156108fc029084906000818181858888f19350505050158015612e0a573d6000803e3d6000fd5b5050604180546001600160a01b031916905550565b3360009081526043602052604090205460ff16612e4e5760405162461bcd60e51b81526004016112d390615cf0565b6041546001600160a01b0382811691161415612e9a5760405162461bcd60e51b815260206004820152600b60248201526a185b1c9958591e4b5cd95d60aa1b60448201526064016112d3565b3360009081526045602090815260408083206041546001600160a01b0316845290915290205460ff16612efe5760405162461bcd60e51b815260206004820152600c60248201526b30b63932b0b23c96b9b4b3b760a11b60448201526064016112d3565b336000908152604560208181526040808420604180546001600160a01b039081168752918452828620805460ff191660011790557fff2df0515866d0e5037a04274635c66d5b7f91cd9f7cebf4fde878af347aa2695482168652938352818520935416845291905290205460ff168015612fc257507fcdad79d33f4de49584ed9b39ca3d8a53cc10e49c033c5359244d3129cc2efd3d546001600160a01b0390811660009081526045602090815260408083206041549094168352929052205460ff165b801561301857507f698f965f71a6f5c9afb45442df7ff01640d7295288618bfa1177b6c22c0c05db546001600160a01b0390811660009081526045602090815260408083206041549094168352929052205460ff165b1561310157604180546001600160a01b0319166001600160a01b0383811691821783557fff2df0515866d0e5037a04274635c66d5b7f91cd9f7cebf4fde878af347aa2695481166000908152604560208181526040808420958452948152848320805460ff199081169091557fcdad79d33f4de49584ed9b39ca3d8a53cc10e49c033c5359244d3129cc2efd3d548516845282825285842087548616855282528584208054821690557f698f965f71a6f5c9afb45442df7ff01640d7295288618bfa1177b6c22c0c05db5485168452918152848320955490931682529390915220805490911690555b50565b6000546001600160a01b0316331461312e5760405162461bcd60e51b81526004016112d390615d16565b603d55565b600260015414156131565760405162461bcd60e51b81526004016112d390615d75565b60026001556000828152600460205260409020546001600160a01b03166131b35760405162461bcd60e51b81526020600482015260116024820152701c1c995cd85b194b5b9bdd0b595e1a5cdd607a1b60448201526064016112d3565b6000828152602e602052604090205460ff16156131e25760405162461bcd60e51b81526004016112d390615d4b565b6000828152602c602052604090205460ff166132405760405162461bcd60e51b815260206004820152601760248201527f746f6b656e2d6e6f742d6465706f73697465642d79657400000000000000000060448201526064016112d3565b600082815260056020526040902054421080159061326c57506000828152600860205260409020544211155b6132ad5760405162461bcd60e51b815260206004820152601260248201527170726573616c652d6e6f742d61637469766560701b60448201526064016112d3565b60008281526026602052604090205460ff16613317578034146133125760405162461bcd60e51b815260206004820152601d60248201527f6e6f742d657175616c2d636f6e747269627574696f6e2d616d6f756e7400000060448201526064016112d3565b61333d565b6000828152602760205260409020546001600160a01b031661333b81333085614123565b505b6000828152601d6020908152604080832033845290915281208054839290613366908490615dac565b90915550506000828152601e602052604081208054839290613389908490615dac565b9091555050600082815260036020908152604080832054601d83528184203385529092529091205411156133ff5760405162461bcd60e51b815260206004820152601c60248201527f6f7665722d6d61782d636f6e747275627574696f6e2d616d6f756e740000000060448201526064016112d3565b600082815260026020908152604080832054601d835281842033855290925290912054101561347a5760405162461bcd60e51b815260206004820152602160248201527f6c6573732d7468616e2d6d696e2d636f6e747275627574696f6e2d616d6f756e6044820152601d60fa1b60648201526084016112d3565b600082815260146020908152604080832054601e9092529091205411156134d95760405162461bcd60e51b81526020600482015260136024820152721bdd995c8b5a185c9918d85c0b585b5bdd5b9d606a1b60448201526064016112d3565b6000828152601a602052604090205460ff161561355a576000828152600660205260409020544210156135155761351082826141ab565b6119ea565b600082815260066020526040902054421080159061354157506000828152600760205260409020544211155b15613550576135108282614571565b61351082826148c3565b6119ea82826148c3565b6000546001600160a01b0316331461358e5760405162461bcd60e51b81526004016112d390615d16565b6041546001600160a01b031633146135de5760405162461bcd60e51b81526020600482015260136024820152721b9bdd0b5dda5d1a191c985dcb5dd85b1b195d606a1b60448201526064016112d3565b81612e0a6001600160a01b0382163384613f78565b600260015414156136165760405162461bcd60e51b81526004016112d390615d75565b600260015560008181526029602052604090205460ff16806136695750600081815260086020526040902054421180156136695750600081815260136020908152604080832054601e9092529091205411155b6136a75760405162461bcd60e51b815260206004820152600f60248201526e1c1c995cd85b194b5b9bdd0b595b99608a1b60448201526064016112d3565b6000818152601d6020908152604080832033845290915290205461370d5760405162461bcd60e51b815260206004820152601f60248201527f6469642d6e6f742d636f6e747269627574652d746869732d70726573616c650060448201526064016112d3565b6000818152602d6020908152604080832033845290915290205460ff16156137695760405162461bcd60e51b815260206004820152600f60248201526e185b1c9958591e4b58db185a5b5959608a1b60448201526064016112d3565b6000818152600460209081526040808320546013835281842054601e9093529220546001600160a01b03909216911080159082906138a25760008481526029602052604090205460ff166137f35760405162461bcd60e51b81526020600482015260116024820152701b9bdd0b599a5b985b1a5e99590b5e595d607a1b60448201526064016112d3565b60006137ff853361252f565b600086815260216020908152604080832033845290915281205491925090613828908390613f4d565b90506000811161386e5760405162461bcd60e51b81526020600482015260116024820152706e6f2d746f6b656e2d746f2d636c61696d60781b60448201526064016112d3565b6138826001600160a01b0384163383613f78565b506000858152602160209081526040808320338452909152902055613998565b600084815260266020526040902054339060ff1661390e576000858152601d602090815260408083203384529091528082205490516001600160a01b0384169282156108fc02929190818181858888f19350505050158015613908573d6000803e3d6000fd5b50613949565b600085815260276020908152604080832054601d83528184203380865293529220546001600160a01b0390921691613947918391613f78565b505b506000848152602d6020908152604080832033808552908352818420805460ff19166001179055878452601d835281842081855283528184208490558784528280528184209084529091528120555b5050600180555050565b6000546001600160a01b031633146139cc5760405162461bcd60e51b81526004016112d390615d16565b603480546001600160a01b0319166001600160a01b0392909216919091179055565b6000546001600160a01b03163314613a185760405162461bcd60e51b81526004016112d390615d16565b603e55565b6000546001600160a01b03163314613a475760405162461bcd60e51b81526004016112d390615d16565b603655565b6000828152602a60205260409020546001600160a01b03163314613a825760405162461bcd60e51b81526004016112d390615cc5565b60395434101580613a91575080155b613ace5760405162461bcd60e51b815260206004820152600e60248201526d0cccaca5adcdee85acadcdeeaced60931b60448201526064016112d3565b6000918252601a6020526040909120805460ff1916911515919091179055565b6000546001600160a01b03163314613b185760405162461bcd60e51b81526004016112d390615d16565b603955565b6000546001600160a01b03163314613b475760405162461bcd60e51b81526004016112d390615d16565b60005b825181101561157a576000838281518110613b6757613b67615f64565b6020908102919091018101516001600160a01b03166000908152601990915260409020805460ff19168415151790555080613ba181615f33565b915050613b4a565b6000546001600160a01b03163314613bd35760405162461bcd60e51b81526004016112d390615d16565b603755565b6000818152602a60205260409020546001600160a01b03163314613c325760405162461bcd60e51b81526020600482015260116024820152703737ba16b83932b9b0b63296b7bbb2b73960791b60448201526064016112d3565b600081815260056020526040902054421115613c815760405162461bcd60e51b815260206004820152600e60248201526d70726573616c652d61637469766560901b60448201526064016112d3565b6000818152602e602052604090205460ff16613cd05760405162461bcd60e51b815260206004820152600e60248201526d185b1c9958591e4b58db1bdcd95960921b60448201526064016112d3565b6000818152602c602052604090205460ff1615613d1a576000613cf2826126e5565b600083815260046020526040902054909150613d18906001600160a01b03163383613f78565b505b6000818152602e602052604090819020805460ff19166001179055517fcb67f20f64495b30f15524c55f90201dd6571d6b5c19dac183d2aeb25315b2dc90613d659083815260200190565b60405180910390a150565b6000546001600160a01b03163314613d9a5760405162461bcd60e51b81526004016112d390615d16565b603b55565b6000546001600160a01b03163314613dc95760405162461bcd60e51b81526004016112d390615d16565b6001600160a01b038116613e2e5760405162461bcd60e51b815260206004820152602660248201527f4f776e61626c653a206e6577206f776e657220697320746865207a65726f206160448201526564647265737360d01b60648201526084016112d3565b6131018161415b565b3360009081526043602052604090205460ff16613e665760405162461bcd60e51b81526004016112d390615cf0565b33600090815260436020526040808220805460ff199081169091556001600160a01b0384168352908220805490911660011790555b6003811015613efd576000818152604460205260409020546001600160a01b0316331415613eeb57600081815260446020526040902080546001600160a01b0319166001600160a01b0384161790555b80613ef581615f33565b915050613e9b565b5050565b6000546001600160a01b03163314613f2b5760405162461bcd60e51b81526004016112d390615d16565b603380546001600160a01b0319166001600160a01b0392909216919091179055565b6000613f598284615ef0565b9392505050565b6000613f598284615ed1565b6000613f598284615dc4565b6040516001600160a01b03831660248201526044810182905261157a90849063a9059cbb60e01b906064015b60408051601f198184030181529190526020810180516001600160e01b03166001600160e01b031990931692909217909152614a6a565b600082815260046020908152604080832054600c9092528220546035546001600160a01b03928316939183169216158061402257506035546001600160a01b038381169116145b6000868152600e602052604081205491925061404360646117458a85613f60565b6000888152600d60205260408120549192509061406890606490611745908c90613f60565b905060006140808261407a8c86613f4d565b90613f4d565b905061409187878786868d8f614b3c565b600089815260266020526040902054339060ff166140e5576040516001600160a01b0382169083156108fc029084906000818181858888f193505050501580156140df573d6000803e3d6000fd5b5061410a565b60008a8152602760205260409020546001600160a01b0316614108818385613f78565b505b5050505050505050505050565b6000613f598284615dac565b6040516001600160a01b03808516602483015283166044820152606481018290526114619085906323b872dd60e01b90608401613fa4565b600080546001600160a01b038381166001600160a01b0319831681178455604051919092169283917f8be0079c531659141344cd1fd0a4f28419497f9722a3daafe3b4186f6b6457e09190a35050565b3360009081526019602052604081205460ff1680156142325750603b54336000908152602f60205260409020541115806142325750603c54336000908152602f60205260409020603b54815461422f929161420591615ef0565b8154811061421557614215615f64565b906000526020600020015442613f4d90919063ffffffff16565b10155b600084815260176020908152604080832033845290915290205490915060ff1615156001148061433b5750603154158015906142fb57506031546142f8614277615637565b6042546040516370a0823160e01b81523360048201526001600160a01b03909116906370a082319060240160206040518083038186803b1580156142ba57600080fd5b505afa1580156142ce573d6000803e3d6000fd5b505050506040513d601f19601f820116820180604052508101906142f29190615ad0565b90614117565b10155b80156143215750600083815260306020908152604080832033845290915290205460ff16155b801561433b575060008381526015602052604090205460ff165b806143435750805b6143835760405162461bcd60e51b81526020600482015260116024820152701c195c9b5a5cdcda5bdb8b59195b9a5959607a1b60448201526064016112d3565b600083815260176020908152604080832033845290915290205460ff166143c95760008381526030602090815260408083203384529091529020805460ff191660011790555b6000838152600f602090815260408083205460269092529091205460ff1661446d57614401670de0b6b3a76400006117458334613f60565b60008581526020808052604080832033845290915281208054909190614428908490615dac565b909155506144449050670de0b6b3a76400006117458334613f60565b6000858152601f602052604081208054909190614462908490615dac565b909155506114619050565b600084815260276020908152604080832054815163313ce56760e01b815291516001600160a01b039091169263313ce5679260048082019391829003018186803b1580156144ba57600080fd5b505afa1580156144ce573d6000803e3d6000fd5b505050506040513d601f19601f820116820180604052508101906144f29190615ad0565b905061450c61450282600a615e29565b6117458487613f60565b60008681526020808052604080832033845290915281208054909190614533908490615dac565b90915550614547905061450282600a615e29565b6000868152601f602052604081208054909190614565908490615dac565b90915550505050505050565b6000603154614581614277615637565b101580156145a95750600083815260306020908152604080832033845290915290205460ff16155b80156145c3575060008381526015602052604090205460ff165b80156145d0575060315415155b336000908152601960205260408120549192509060ff1680156146315750603b54336000908152602f60205260409020541115806146315750603c54336000908152602f60205260409020603b54815461462e929161420591615ef0565b10155b600085815260186020908152604080832033845290915290205490915060ff1615156001148061465e5750815b806146665750805b6146a65760405162461bcd60e51b81526020600482015260116024820152701c195c9b5a5cdcda5bdb8b59195b9a5959607a1b60448201526064016112d3565b600084815260186020908152604080832033845290915290205460ff166147195781156146f65760008481526030602090815260408083203384529091529020805460ff19166001179055614719565b336000908152602f60209081526040822080546001810182559083529120429101555b60008481526010602090815260408083205460269092529091205460ff166147bd57614751670de0b6b3a76400006117458334613f60565b60008681526020808052604080832033845290915281208054909190614778908490615dac565b909155506147949050670de0b6b3a76400006117458334613f60565b6000868152601f6020526040812080549091906147b2908490615dac565b909155506148bc9050565b600085815260276020908152604080832054815163313ce56760e01b815291516001600160a01b039091169263313ce5679260048082019391829003018186803b15801561480a57600080fd5b505afa15801561481e573d6000803e3d6000fd5b505050506040513d601f19601f820116820180604052508101906148429190615ad0565b905061485c61485282600a615e29565b6117458488613f60565b60008781526020808052604080832033845290915281208054909190614883908490615dac565b90915550614897905061485282600a615e29565b6000878152601f6020526040812080549091906148b5908490615dac565b9091555050505b5050505050565b60008281526012602090815260408083205460269092529091205460ff16614967576148fb670de0b6b3a76400006117458334613f60565b60008481526020808052604080832033845290915281208054909190614922908490615dac565b9091555061493e9050670de0b6b3a76400006117458334613f60565b6000848152601f60205260408120805490919061495c908490615dac565b9091555061157a9050565b600083815260276020908152604080832054815163313ce56760e01b815291516001600160a01b039091169263313ce5679260048082019391829003018186803b1580156149b457600080fd5b505afa1580156149c8573d6000803e3d6000fd5b505050506040513d601f19601f820116820180604052508101906149ec9190615ad0565b9050614a066149fc82600a615e29565b6117458486613f60565b60008581526020808052604080832033845290915281208054909190614a2d908490615dac565b90915550614a4190506149fc82600a615e29565b6000858152601f602052604081208054909190614a5f908490615dac565b909155505050505050565b6000614abf826040518060400160405280602081526020017f5361666545524332303a206c6f772d6c6576656c2063616c6c206661696c6564815250856001600160a01b031661577c9092919063ffffffff16565b80519091501561157a5780806020019051810190614add9190615a81565b61157a5760405162461bcd60e51b815260206004820152602a60248201527f5361666545524332303a204552433230206f7065726174696f6e20646964206e6044820152691bdd081cdd58d8d9595960b21b60648201526084016112d3565b600081815260116020526040812054614b6390670de0b6b3a7640000906117459088613f60565b60008381526011602052604081205491925090614b8e90670de0b6b3a7640000906117459088613f60565b905085156150cf5760405163095ea7b360e01b81526001600160a01b038981166004830152602482018490528a169063095ea7b390604401602060405180830381600087803b158015614be057600080fd5b505af1158015614bf4573d6000803e3d6000fd5b505050506040513d601f19601f82011682018060405250810190614c189190615a81565b50876000614c28426104b0614117565b60008681526026602052604090205490915060ff16614f3f57816001600160a01b031663ad5c46486040518163ffffffff1660e01b815260040160206040518083038186803b158015614c7a57600080fd5b505afa158015614c8e573d6000803e3d6000fd5b505050506040513d601f19601f82011682018060405250810190614cb291906159c9565b6001600160a01b031663d0e30db0896040518263ffffffff1660e01b81526004016000604051808303818588803b158015614cec57600080fd5b505af1158015614d00573d6000803e3d6000fd5b5050505050816001600160a01b031663ad5c46486040518163ffffffff1660e01b815260040160206040518083038186803b158015614d3e57600080fd5b505afa158015614d52573d6000803e3d6000fd5b505050506040513d601f19601f82011682018060405250810190614d7691906159c9565b60405163095ea7b360e01b81526001600160a01b038c81166004830152602482018b9052919091169063095ea7b390604401602060405180830381600087803b158015614dc257600080fd5b505af1158015614dd6573d6000803e3d6000fd5b505050506040513d601f19601f82011682018060405250810190614dfa9190615a81565b506000826001600160a01b031663e8e33700846001600160a01b031663ad5c46486040518163ffffffff1660e01b815260040160206040518083038186803b158015614e4557600080fd5b505afa158015614e59573d6000803e3d6000fd5b505050506040513d601f19601f82011682018060405250810190614e7d91906159c9565b8e8c89600080308a6040518963ffffffff1660e01b8152600401614ea8989796959493929190615c49565b606060405180830381600087803b158015614ec257600080fd5b505af1158015614ed6573d6000803e3d6000fd5b505050506040513d601f19601f82011682018060405250810190614efa9190615bc9565b9250505080602b600088815260200190815260200160002060008d6001600160a01b03166001600160a01b0316815260200190815260200160002081905550506150cc565b6000858152602760205260409081902054905163095ea7b360e01b81526001600160a01b038c81166004830152602482018b905290911690819063095ea7b390604401602060405180830381600087803b158015614f9c57600080fd5b505af1158015614fb0573d6000803e3d6000fd5b505050506040513d601f19601f82011682018060405250810190614fd49190615a81565b506000836001600160a01b031663e8e33700602760008a815260200190815260200160002060009054906101000a90046001600160a01b03168f8d8a600080308b6040518963ffffffff1660e01b8152600401615038989796959493929190615c49565b606060405180830381600087803b15801561505257600080fd5b505af1158015615066573d6000803e3d6000fd5b505050506040513d601f19601f8201168201806040525081019061508a9190615bc9565b9250505080602b600089815260200190815260200160002060008e6001600160a01b03166001600160a01b031681526020019081526020016000208190555050505b50505b84156155f15760355460405163095ea7b360e01b81526001600160a01b03918216600482015260248101839052908a169063095ea7b390604401602060405180830381600087803b15801561512357600080fd5b505af1158015615137573d6000803e3d6000fd5b505050506040513d601f19601f8201168201806040525081019061515b9190615a81565b506035546001600160a01b03166000615176426104b0614117565b60008681526026602052604090205490915060ff1661547757816001600160a01b031663ad5c46486040518163ffffffff1660e01b815260040160206040518083038186803b1580156151c857600080fd5b505afa1580156151dc573d6000803e3d6000fd5b505050506040513d601f19601f8201168201806040525081019061520091906159c9565b6001600160a01b031663d0e30db0886040518263ffffffff1660e01b81526004016000604051808303818588803b15801561523a57600080fd5b505af115801561524e573d6000803e3d6000fd5b5050505050816001600160a01b031663ad5c46486040518163ffffffff1660e01b815260040160206040518083038186803b15801561528c57600080fd5b505afa1580156152a0573d6000803e3d6000fd5b505050506040513d601f19601f820116820180604052508101906152c491906159c9565b60355460405163095ea7b360e01b81526001600160a01b039182166004820152602481018a905291169063095ea7b390604401602060405180830381600087803b15801561531157600080fd5b505af1158015615325573d6000803e3d6000fd5b505050506040513d601f19601f820116820180604052508101906153499190615a81565b506000826001600160a01b031663e8e33700846001600160a01b031663ad5c46486040518163ffffffff1660e01b815260040160206040518083038186803b15801561539457600080fd5b505afa1580156153a8573d6000803e3d6000fd5b505050506040513d601f19601f820116820180604052508101906153cc91906159c9565b8e8b88600080308a6040518963ffffffff1660e01b81526004016153f7989796959493929190615c49565b606060405180830381600087803b15801561541157600080fd5b505af1158015615425573d6000803e3d6000fd5b505050506040513d601f19601f820116820180604052508101906154499190615bc9565b6000898152602b602090815260408083206035546001600160a01b03168452909152902055506155ee915050565b6000858152602760205260409081902054603554915163095ea7b360e01b81526001600160a01b039283166004820152602481018a9052911690819063095ea7b390604401602060405180830381600087803b1580156154d657600080fd5b505af11580156154ea573d6000803e3d6000fd5b505050506040513d601f19601f8201168201806040525081019061550e9190615a81565b506000836001600160a01b031663e8e33700602760008a815260200190815260200160002060009054906101000a90046001600160a01b03168f8c89600080308b6040518963ffffffff1660e01b8152600401615572989796959493929190615c49565b606060405180830381600087803b15801561558c57600080fd5b505af11580156155a0573d6000803e3d6000fd5b505050506040513d601f19601f820116820180604052508101906155c49190615bc9565b60008a8152602b602090815260408083206035546001600160a01b03168452909152902055505050505b50505b6000838152601f602052604081205461561590869061407a9081868189818c6126e5565b905061562b6001600160a01b038b163383613f78565b50505050505050505050565b603f546000906001600160a01b0316156156d057603f546040516393f1a40b60e01b8152600060048201523360248201526001600160a01b03909116906393f1a40b90604401604080518083038186803b15801561569457600080fd5b505afa1580156156a8573d6000803e3d6000fd5b505050506040513d601f19601f820116820180604052508101906156cc9190615ba5565b5090505b6040546001600160a01b03161561577957604080549051630cacd00160e11b81523360048201526000916001600160a01b031690631959a0029060240160806040518083038186803b15801561572557600080fd5b505afa158015615739573d6000803e3d6000fd5b505050506040513d601f19601f8201168201806040525081019061575d9190615bf7565b5050509050615775818361411790919063ffffffff16565b9150505b90565b606061578b8484600085615793565b949350505050565b6060824710156157f45760405162461bcd60e51b815260206004820152602660248201527f416464726573733a20696e73756666696369656e742062616c616e636520666f6044820152651c8818d85b1b60d21b60648201526084016112d3565b843b6158425760405162461bcd60e51b815260206004820152601d60248201527f416464726573733a2063616c6c20746f206e6f6e2d636f6e747261637400000060448201526064016112d3565b600080866001600160a01b0316858760405161585e9190615c2d565b60006040518083038185875af1925050503d806000811461589b576040519150601f19603f3d011682016040523d82523d6000602084013e6158a0565b606091505b50915091506158b08282866158bb565b979650505050505050565b606083156158ca575081613f59565b8251156158da5782518084602001fd5b8160405162461bcd60e51b81526004016112d39190615c92565b80356158ff81615f90565b919050565b600082601f83011261591557600080fd5b8135602067ffffffffffffffff8083111561593257615932615f7a565b8260051b604051601f19603f8301168101818110848211171561595757615957615f7a565b6040528481528381019250868401828801850189101561597657600080fd5b600092505b858310156159a05761598c816158f4565b84529284019260019290920191840161597b565b50979650505050505050565b6000602082840312156159be57600080fd5b8135613f5981615f90565b6000602082840312156159db57600080fd5b8151613f5981615f90565b600080604083850312156159f957600080fd5b8235615a0481615f90565b946020939093013593505050565b60008060408385031215615a2557600080fd5b823567ffffffffffffffff811115615a3c57600080fd5b615a4885828601615904565b9250506020830135615a5981615fa5565b809150509250929050565b600060208284031215615a7657600080fd5b8135613f5981615fa5565b600060208284031215615a9357600080fd5b8151613f5981615fa5565b60006103208284031215615ab157600080fd5b50919050565b600060208284031215615ac957600080fd5b5035919050565b600060208284031215615ae257600080fd5b5051919050565b60008060408385031215615afc57600080fd5b823591506020830135615a5981615f90565b600080600060608486031215615b2357600080fd5b83359250602084013567ffffffffffffffff811115615b4157600080fd5b615b4d86828701615904565b925050604084013590509250925092565b60008060408385031215615b7157600080fd5b823591506020830135615a5981615fa5565b60008060408385031215615b9657600080fd5b50508035926020909101359150565b60008060408385031215615bb857600080fd5b505080516020909101519092909150565b600080600060608486031215615bde57600080fd5b8351925060208401519150604084015190509250925092565b60008060008060808587031215615c0d57600080fd5b505082516020840151604085015160609095015191969095509092509050565b60008251615c3f818460208701615f07565b9190910192915050565b6001600160a01b039889168152968816602088015260408701959095526060860193909352608085019190915260a084015290921660c082015260e08101919091526101000190565b6020815260008251806020840152615cb1816040850160208701615f07565b601f01601f19169190910160400192915050565b6020808252601190820152703737ba16b83932b9b0b63296b7bbb732b960791b604082015260600190565b6020808252600c908201526b3737ba16b096b9b4b3b732b960a11b604082015260600190565b6020808252818101527f4f776e61626c653a2063616c6c6572206973206e6f7420746865206f776e6572604082015260600190565b60208082526010908201526f1c1c995cd85b194b58d85b98d95b195960821b604082015260600190565b6020808252601f908201527f5265656e7472616e637947756172643a207265656e7472616e742063616c6c00604082015260600190565b60008219821115615dbf57615dbf615f4e565b500190565b600082615de157634e487b7160e01b600052601260045260246000fd5b500490565b600181815b80851115615e21578160001904821115615e0757615e07615f4e565b80851615615e1457918102915b93841c9390800290615deb565b509250929050565b6000613f598383600082615e3f57506001612633565b81615e4c57506000612633565b8160018114615e625760028114615e6c57615e88565b6001915050612633565b60ff841115615e7d57615e7d615f4e565b50506001821b612633565b5060208310610133831016604e8410600b8410161715615eab575081810a612633565b615eb58383615de6565b8060001904821115615ec957615ec9615f4e565b029392505050565b6000816000190483118215151615615eeb57615eeb615f4e565b500290565b600082821015615f0257615f02615f4e565b500390565b60005b83811015615f22578181015183820152602001615f0a565b838111156114615750506000910152565b6000600019821415615f4757615f47615f4e565b5060010190565b634e487b7160e01b600052601160045260246000fd5b634e487b7160e01b600052603260045260246000fd5b634e487b7160e01b600052604160045260246000fd5b6001600160a01b038116811461310157600080fd5b801515811461310157600080fdfea2646970667358221220558c2a328565900fce12d03ae3bb53cfd7b2ac421ed3e40722396cd27afa43a764736f6c63430008060033",
    "linkReferences": {},
    "deployedLinkReferences": {}
}