{
  "_format": "hh-sol-artifact-1",
  "contractName": "Reward",
  "sourceName": "contracts/Reward.sol",
  "abi": [
    {
      "inputs": [
        {
          "internalType": "address",
          "name": "_owner1",
          "type": "address"
        },
        {
          "internalType": "address",
          "name": "_tokenX",
          "type": "address"
        }
      ],
      "stateMutability": "nonpayable",
      "type": "constructor"
    },
    {
      "anonymous": false,
      "inputs": [
        {
          "indexed": true,
          "internalType": "address",
          "name": "_to",
          "type": "address"
        },
        {
          "indexed": true,
          "internalType": "uint256",
          "name": "amount",
          "type": "uint256"
        }
      ],
      "name": "rewardCalled",
      "type": "event"
    },
    {
      "anonymous": false,
      "inputs": [
        {
          "indexed": true,
          "internalType": "address",
          "name": "_to",
          "type": "address"
        },
        {
          "indexed": true,
          "internalType": "uint256",
          "name": "timestamp",
          "type": "uint256"
        },
        {
          "indexed": true,
          "internalType": "uint256",
          "name": "amount",
          "type": "uint256"
        }
      ],
      "name": "transferInitialized",
      "type": "event"
    },
    {
      "inputs": [
        {
          "internalType": "address",
          "name": "",
          "type": "address"
        }
      ],
      "name": "blacklist",
      "outputs": [
        {
          "internalType": "bool",
          "name": "",
          "type": "bool"
        }
      ],
      "stateMutability": "view",
      "type": "function"
    },
    {
      "inputs": [
        {
          "internalType": "bool",
          "name": "_value",
          "type": "bool"
        }
      ],
      "name": "changeRewardState",
      "outputs": [],
      "stateMutability": "nonpayable",
      "type": "function"
    },
    {
      "inputs": [
        {
          "internalType": "address",
          "name": "_owner",
          "type": "address"
        },
        {
          "internalType": "address",
          "name": "_tokenX",
          "type": "address"
        }
      ],
      "name": "changeTokenDetails",
      "outputs": [],
      "stateMutability": "nonpayable",
      "type": "function"
    },
    {
      "inputs": [
        {
          "internalType": "uint256",
          "name": "ID",
          "type": "uint256"
        }
      ],
      "name": "claim",
      "outputs": [],
      "stateMutability": "nonpayable",
      "type": "function"
    },
    {
      "inputs": [],
      "name": "getIDLength",
      "outputs": [
        {
          "internalType": "uint256",
          "name": "length",
          "type": "uint256"
        }
      ],
      "stateMutability": "view",
      "type": "function"
    },
    {
      "inputs": [],
      "name": "isRewardOn",
      "outputs": [
        {
          "internalType": "bool",
          "name": "",
          "type": "bool"
        }
      ],
      "stateMutability": "view",
      "type": "function"
    },
    {
      "inputs": [
        {
          "internalType": "uint256",
          "name": "_amountIn",
          "type": "uint256"
        },
        {
          "internalType": "address",
          "name": "_to",
          "type": "address"
        }
      ],
      "name": "reward",
      "outputs": [],
      "stateMutability": "nonpayable",
      "type": "function"
    },
    {
      "inputs": [
        {
          "internalType": "address",
          "name": "",
          "type": "address"
        },
        {
          "internalType": "uint256",
          "name": "",
          "type": "uint256"
        }
      ],
      "name": "tokenXAmount",
      "outputs": [
        {
          "internalType": "uint256",
          "name": "amount",
          "type": "uint256"
        },
        {
          "internalType": "uint256",
          "name": "timestamp",
          "type": "uint256"
        }
      ],
      "stateMutability": "view",
      "type": "function"
    },
    {
      "inputs": [
        {
          "internalType": "address",
          "name": "_user",
          "type": "address"
        },
        {
          "internalType": "bool",
          "name": "_flag",
          "type": "bool"
        }
      ],
      "name": "updateBlacklist",
      "outputs": [],
      "stateMutability": "nonpayable",
      "type": "function"
    }
  ],
  "bytecode": "0x60a06040526003805460ff1916600117905534801561001d57600080fd5b50604051610b69380380610b698339818101604052604081101561004057600080fd5b5080516020909101513360601b608052600080546001600160a01b039384166001600160a01b0319918216179091556001805493909216921691909117905560805160601c610ac36100a66000398061063952806106d0528061076a5250610ac36000f3fe608060405234801561001057600080fd5b50600436106100935760003560e01c8063d93c1f6811610066578063d93c1f681461013f578063de75584e1461015e578063e8e56088146101a3578063ef6bdb0e146101bd578063f9f92be4146101d957610093565b8063379607f51461009857806371bb61f3146100b75780639155e083146100e3578063a68c0e6a14610111575b600080fd5b6100b5600480360360208110156100ae57600080fd5b50356101ff565b005b6100b5600480360360408110156100cd57600080fd5b50803590602001356001600160a01b0316610423565b6100b5600480360360408110156100f957600080fd5b506001600160a01b0381351690602001351515610637565b6100b56004803603604081101561012757600080fd5b506001600160a01b03813581169160200135166106ce565b6100b56004803603602081101561015557600080fd5b50351515610768565b61018a6004803603604081101561017457600080fd5b506001600160a01b0381351690602001356107e7565b6040805192835260208301919091528051918290030190f35b6101ab610820565b60408051918252519081900360200190f35b6101c5610833565b604080519115158252519081900360200190f35b6101c5600480360360208110156101ef57600080fd5b50356001600160a01b031661083c565b33600090815260046020526040812080548390811061021a57fe5b9060005260206000209060020201600001541161027e576040805162461bcd60e51b815260206004820152601860248201527f506f73697469766520616d6f756e742065787065637465640000000000000000604482015290519081900360640190fd5b33600090815260046020526040902080548290811061029957fe5b90600052602060002090600202016001015460b4014210156102f4576040805162461bcd60e51b815260206004820152600f60248201526e18d85b89dd0818db185a5b481e595d608a1b604482015290519081900360640190fd5b33600090815260046020526040812080548390811061030f57fe5b600091825260208083206002909202909101543383526004909152604082208054919350908490811061033e57fe5b600091825260208083206002909202909101929092556001546040805163a9059cbb60e01b815233600482015260248101869052905192936001600160a01b039092169263a9059cbb9260448084019391929182900301818787803b1580156103a657600080fd5b505af11580156103ba573d6000803e3d6000fd5b505050506040513d60208110156103d057600080fd5b505190508061041e576040805162461bcd60e51b8152602060048201526015602482015274151bdad95b881d1c985b9cd9995c8819985a5b1959605a1b604482015290519081900360640190fd5b505050565b60405182906001600160a01b038316907f52398eafdb11f98ba10ec676f9c01e5f5aa918e1c444eeab35a379bb1a0c0dd590600090a36001600160a01b03811660009081526002602052604090205460ff16156104b6576040805162461bcd60e51b815260206004820152600c60248201526b1a5b97d89b1858dadb1a5cdd60a21b604482015290519081900360640190fd5b60035460ff16156106335760008211610516576040805162461bcd60e51b815260206004820152601f60248201527f616d6f756e742073686f756c64206265206d6f7265207468616e207a65726f00604482015290519081900360640190fd5b6001600160a01b038116610563576040805162461bcd60e51b815260206004820152600f60248201526e1859191c995cdcc81a5b9d985b1a59608a1b604482015290519081900360640190fd5b600154600054604080516370a0823160e01b81526001600160a01b0392831660048201529051859392909216916370a0823191602480820192602092909190829003018186803b1580156105b657600080fd5b505afa1580156105ca573d6000803e3d6000fd5b505050506040513d60208110156105e057600080fd5b50511015610629576040805162461bcd60e51b81526020600482015260116024820152704e6f7420656e6f75676820746f6b656e7360781b604482015290519081900360640190fd5b6106338183610851565b5050565b7f00000000000000000000000000000000000000000000000000000000000000006001600160a01b031633146106a3576040805162461bcd60e51b815260206004820152600c60248201526b2737ba1030b71037bbb732b960a11b604482015290519081900360640190fd5b6001600160a01b03919091166000908152600260205260409020805460ff1916911515919091179055565b7f00000000000000000000000000000000000000000000000000000000000000006001600160a01b0316331461073a576040805162461bcd60e51b815260206004820152600c60248201526b2737ba1030b71037bbb732b960a11b604482015290519081900360640190fd5b600080546001600160a01b039384166001600160a01b03199182161790915560018054929093169116179055565b7f00000000000000000000000000000000000000000000000000000000000000006001600160a01b031633146107d4576040805162461bcd60e51b815260206004820152600c60248201526b2737ba1030b71037bbb732b960a11b604482015290519081900360640190fd5b6003805460ff1916911515919091179055565b6004602052816000526040600020818154811061080057fe5b600091825260209091206002909102018054600190910154909250905082565b3360009081526004602052604090205490565b60035460ff1681565b60026020526000908152604090205460ff1681565b60015460005460408051636eb1769f60e11b81526001600160a01b03928316600482015230602482015290518493929092169163dd62ed3e91604480820192602092909190829003018186803b1580156108aa57600080fd5b505afa1580156108be573d6000803e3d6000fd5b505050506040513d60208110156108d457600080fd5b50511015610929576040805162461bcd60e51b815260206004820152601960248201527f546f6b656e203120616c6c6f77616e636520746f6f206c6f7700000000000000604482015290519081900360640190fd5b610633828260015460008054604080516323b872dd60e01b81526001600160a01b039283166004820152306024820152604481018690529051929391909116916323b872dd9160648082019260209290919082900301818787803b15801561099057600080fd5b505af11580156109a4573d6000803e3d6000fd5b505050506040513d60208110156109ba57600080fd5b5051905080610a08576040805162461bcd60e51b8152602060048201526015602482015274151bdad95b881d1c985b9cd9995c8819985a5b1959605a1b604482015290519081900360640190fd5b801561041e576001600160a01b03831660008181526004602090815260408083208151808301835287815242818501818152835460018181018655948852958720925160029096029092019485559051939091019290925551859391927f4360f5320ef452a3ac552e563b0a7ad91b6dd31f258c6c47bdc47ca05f97e0b391a450505056fea2646970667358221220bf8ec6e23ffc6292cdf4f0551010ab9f01b0b5915839b027398830fa6dea58ad64736f6c63430006060033",
  "linkReferences": {},
  "deployedLinkReferences": {}
}