{
  "_format": "hh-sol-artifact-1",
  "contractName": "BitgertSwapRouter",
  "sourceName": "contracts/BitgertSwapRouter.sol",
  "abi": [
    {
      "inputs": [
        {
          "internalType": "address",
          "name": "_factory",
          "type": "address"
        },
        {
          "internalType": "address",
          "name": "_WBRISE",
          "type": "address"
        },
        {
          "internalType": "address",
          "name": "_rewardToken",
          "type": "address"
        }
      ],
      "stateMutability": "nonpayable",
      "type": "constructor"
    },
    {
      "inputs": [],
      "name": "WBRISE",
      "outputs": [
        {
          "internalType": "address",
          "name": "",
          "type": "address"
        }
      ],
      "stateMutability": "view",
      "type": "function"
    },
    {
      "inputs": [
        {
          "internalType": "address",
          "name": "tokenA",
          "type": "address"
        },
        {
          "internalType": "address",
          "name": "tokenB",
          "type": "address"
        },
        {
          "internalType": "uint256",
          "name": "amountADesired",
          "type": "uint256"
        },
        {
          "internalType": "uint256",
          "name": "amountBDesired",
          "type": "uint256"
        },
        {
          "internalType": "uint256",
          "name": "amountAMin",
          "type": "uint256"
        },
        {
          "internalType": "uint256",
          "name": "amountBMin",
          "type": "uint256"
        },
        {
          "internalType": "address",
          "name": "to",
          "type": "address"
        },
        {
          "internalType": "uint256",
          "name": "deadline",
          "type": "uint256"
        }
      ],
      "name": "addLiquidity",
      "outputs": [
        {
          "internalType": "uint256",
          "name": "amountA",
          "type": "uint256"
        },
        {
          "internalType": "uint256",
          "name": "amountB",
          "type": "uint256"
        },
        {
          "internalType": "uint256",
          "name": "liquidity",
          "type": "uint256"
        }
      ],
      "stateMutability": "nonpayable",
      "type": "function"
    },
    {
      "inputs": [
        {
          "internalType": "address",
          "name": "token",
          "type": "address"
        },
        {
          "internalType": "uint256",
          "name": "amountTokenDesired",
          "type": "uint256"
        },
        {
          "internalType": "uint256",
          "name": "amountTokenMin",
          "type": "uint256"
        },
        {
          "internalType": "uint256",
          "name": "amountBRISEMin",
          "type": "uint256"
        },
        {
          "internalType": "address",
          "name": "to",
          "type": "address"
        },
        {
          "internalType": "uint256",
          "name": "deadline",
          "type": "uint256"
        }
      ],
      "name": "addLiquidityBRISE",
      "outputs": [
        {
          "internalType": "uint256",
          "name": "amountToken",
          "type": "uint256"
        },
        {
          "internalType": "uint256",
          "name": "amountBRISE",
          "type": "uint256"
        },
        {
          "internalType": "uint256",
          "name": "liquidity",
          "type": "uint256"
        }
      ],
      "stateMutability": "payable",
      "type": "function"
    },
    {
      "inputs": [],
      "name": "factory",
      "outputs": [
        {
          "internalType": "address",
          "name": "",
          "type": "address"
        }
      ],
      "stateMutability": "view",
      "type": "function"
    },
    {
      "inputs": [
        {
          "internalType": "uint256",
          "name": "amountOut",
          "type": "uint256"
        },
        {
          "internalType": "uint256",
          "name": "reserveIn",
          "type": "uint256"
        },
        {
          "internalType": "uint256",
          "name": "reserveOut",
          "type": "uint256"
        }
      ],
      "name": "getAmountIn",
      "outputs": [
        {
          "internalType": "uint256",
          "name": "amountIn",
          "type": "uint256"
        }
      ],
      "stateMutability": "pure",
      "type": "function"
    },
    {
      "inputs": [
        {
          "internalType": "uint256",
          "name": "amountIn",
          "type": "uint256"
        },
        {
          "internalType": "uint256",
          "name": "reserveIn",
          "type": "uint256"
        },
        {
          "internalType": "uint256",
          "name": "reserveOut",
          "type": "uint256"
        }
      ],
      "name": "getAmountOut",
      "outputs": [
        {
          "internalType": "uint256",
          "name": "amountOut",
          "type": "uint256"
        }
      ],
      "stateMutability": "pure",
      "type": "function"
    },
    {
      "inputs": [
        {
          "internalType": "uint256",
          "name": "amountOut",
          "type": "uint256"
        },
        {
          "internalType": "address[]",
          "name": "path",
          "type": "address[]"
        }
      ],
      "name": "getAmountsIn",
      "outputs": [
        {
          "internalType": "uint256[]",
          "name": "amounts",
          "type": "uint256[]"
        }
      ],
      "stateMutability": "view",
      "type": "function"
    },
    {
      "inputs": [
        {
          "internalType": "uint256",
          "name": "amountIn",
          "type": "uint256"
        },
        {
          "internalType": "address[]",
          "name": "path",
          "type": "address[]"
        }
      ],
      "name": "getAmountsOut",
      "outputs": [
        {
          "internalType": "uint256[]",
          "name": "amounts",
          "type": "uint256[]"
        }
      ],
      "stateMutability": "view",
      "type": "function"
    },
    {
      "inputs": [
        {
          "internalType": "uint256",
          "name": "amountA",
          "type": "uint256"
        },
        {
          "internalType": "uint256",
          "name": "reserveA",
          "type": "uint256"
        },
        {
          "internalType": "uint256",
          "name": "reserveB",
          "type": "uint256"
        }
      ],
      "name": "quote",
      "outputs": [
        {
          "internalType": "uint256",
          "name": "amountB",
          "type": "uint256"
        }
      ],
      "stateMutability": "pure",
      "type": "function"
    },
    {
      "inputs": [
        {
          "internalType": "address",
          "name": "tokenA",
          "type": "address"
        },
        {
          "internalType": "address",
          "name": "tokenB",
          "type": "address"
        },
        {
          "internalType": "uint256",
          "name": "liquidity",
          "type": "uint256"
        },
        {
          "internalType": "uint256",
          "name": "amountAMin",
          "type": "uint256"
        },
        {
          "internalType": "uint256",
          "name": "amountBMin",
          "type": "uint256"
        },
        {
          "internalType": "address",
          "name": "to",
          "type": "address"
        },
        {
          "internalType": "uint256",
          "name": "deadline",
          "type": "uint256"
        }
      ],
      "name": "removeLiquidity",
      "outputs": [
        {
          "internalType": "uint256",
          "name": "amountA",
          "type": "uint256"
        },
        {
          "internalType": "uint256",
          "name": "amountB",
          "type": "uint256"
        }
      ],
      "stateMutability": "nonpayable",
      "type": "function"
    },
    {
      "inputs": [
        {
          "internalType": "address",
          "name": "token",
          "type": "address"
        },
        {
          "internalType": "uint256",
          "name": "liquidity",
          "type": "uint256"
        },
        {
          "internalType": "uint256",
          "name": "amountTokenMin",
          "type": "uint256"
        },
        {
          "internalType": "uint256",
          "name": "amountBRISEMin",
          "type": "uint256"
        },
        {
          "internalType": "address",
          "name": "to",
          "type": "address"
        },
        {
          "internalType": "uint256",
          "name": "deadline",
          "type": "uint256"
        }
      ],
      "name": "removeLiquidityBRISE",
      "outputs": [
        {
          "internalType": "uint256",
          "name": "amountToken",
          "type": "uint256"
        },
        {
          "internalType": "uint256",
          "name": "amountBRISE",
          "type": "uint256"
        }
      ],
      "stateMutability": "nonpayable",
      "type": "function"
    },
    {
      "inputs": [
        {
          "internalType": "address",
          "name": "token",
          "type": "address"
        },
        {
          "internalType": "uint256",
          "name": "liquidity",
          "type": "uint256"
        },
        {
          "internalType": "uint256",
          "name": "amountTokenMin",
          "type": "uint256"
        },
        {
          "internalType": "uint256",
          "name": "amountBRISEMin",
          "type": "uint256"
        },
        {
          "internalType": "address",
          "name": "to",
          "type": "address"
        },
        {
          "internalType": "uint256",
          "name": "deadline",
          "type": "uint256"
        }
      ],
      "name": "removeLiquidityBRISESupportingFeeOnTransferTokens",
      "outputs": [
        {
          "internalType": "uint256",
          "name": "amountBRISE",
          "type": "uint256"
        }
      ],
      "stateMutability": "nonpayable",
      "type": "function"
    },
    {
      "inputs": [
        {
          "internalType": "address",
          "name": "token",
          "type": "address"
        },
        {
          "internalType": "uint256",
          "name": "liquidity",
          "type": "uint256"
        },
        {
          "internalType": "uint256",
          "name": "amountTokenMin",
          "type": "uint256"
        },
        {
          "internalType": "uint256",
          "name": "amountBRISEMin",
          "type": "uint256"
        },
        {
          "internalType": "address",
          "name": "to",
          "type": "address"
        },
        {
          "internalType": "uint256",
          "name": "deadline",
          "type": "uint256"
        },
        {
          "internalType": "bool",
          "name": "approveMax",
          "type": "bool"
        },
        {
          "internalType": "uint8",
          "name": "v",
          "type": "uint8"
        },
        {
          "internalType": "bytes32",
          "name": "r",
          "type": "bytes32"
        },
        {
          "internalType": "bytes32",
          "name": "s",
          "type": "bytes32"
        }
      ],
      "name": "removeLiquidityBRISEWithPermit",
      "outputs": [
        {
          "internalType": "uint256",
          "name": "amountToken",
          "type": "uint256"
        },
        {
          "internalType": "uint256",
          "name": "amountBRISE",
          "type": "uint256"
        }
      ],
      "stateMutability": "nonpayable",
      "type": "function"
    },
    {
      "inputs": [
        {
          "internalType": "address",
          "name": "token",
          "type": "address"
        },
        {
          "internalType": "uint256",
          "name": "liquidity",
          "type": "uint256"
        },
        {
          "internalType": "uint256",
          "name": "amountTokenMin",
          "type": "uint256"
        },
        {
          "internalType": "uint256",
          "name": "amountBRISEMin",
          "type": "uint256"
        },
        {
          "internalType": "address",
          "name": "to",
          "type": "address"
        },
        {
          "internalType": "uint256",
          "name": "deadline",
          "type": "uint256"
        },
        {
          "internalType": "bool",
          "name": "approveMax",
          "type": "bool"
        },
        {
          "internalType": "uint8",
          "name": "v",
          "type": "uint8"
        },
        {
          "internalType": "bytes32",
          "name": "r",
          "type": "bytes32"
        },
        {
          "internalType": "bytes32",
          "name": "s",
          "type": "bytes32"
        }
      ],
      "name": "removeLiquidityBRISEWithPermitSupportingFeeOnTransferTokens",
      "outputs": [
        {
          "internalType": "uint256",
          "name": "amountBRISE",
          "type": "uint256"
        }
      ],
      "stateMutability": "nonpayable",
      "type": "function"
    },
    {
      "inputs": [
        {
          "internalType": "address",
          "name": "tokenA",
          "type": "address"
        },
        {
          "internalType": "address",
          "name": "tokenB",
          "type": "address"
        },
        {
          "internalType": "uint256",
          "name": "liquidity",
          "type": "uint256"
        },
        {
          "internalType": "uint256",
          "name": "amountAMin",
          "type": "uint256"
        },
        {
          "internalType": "uint256",
          "name": "amountBMin",
          "type": "uint256"
        },
        {
          "internalType": "address",
          "name": "to",
          "type": "address"
        },
        {
          "internalType": "uint256",
          "name": "deadline",
          "type": "uint256"
        },
        {
          "internalType": "bool",
          "name": "approveMax",
          "type": "bool"
        },
        {
          "internalType": "uint8",
          "name": "v",
          "type": "uint8"
        },
        {
          "internalType": "bytes32",
          "name": "r",
          "type": "bytes32"
        },
        {
          "internalType": "bytes32",
          "name": "s",
          "type": "bytes32"
        }
      ],
      "name": "removeLiquidityWithPermit",
      "outputs": [
        {
          "internalType": "uint256",
          "name": "amountA",
          "type": "uint256"
        },
        {
          "internalType": "uint256",
          "name": "amountB",
          "type": "uint256"
        }
      ],
      "stateMutability": "nonpayable",
      "type": "function"
    },
    {
      "inputs": [
        {
          "internalType": "uint256",
          "name": "amountOut",
          "type": "uint256"
        },
        {
          "internalType": "address[]",
          "name": "path",
          "type": "address[]"
        },
        {
          "internalType": "address",
          "name": "to",
          "type": "address"
        },
        {
          "internalType": "uint256",
          "name": "deadline",
          "type": "uint256"
        }
      ],
      "name": "swapBRISEForExactTokens",
      "outputs": [
        {
          "internalType": "uint256[]",
          "name": "amounts",
          "type": "uint256[]"
        }
      ],
      "stateMutability": "payable",
      "type": "function"
    },
    {
      "inputs": [
        {
          "internalType": "uint256",
          "name": "amountOutMin",
          "type": "uint256"
        },
        {
          "internalType": "address[]",
          "name": "path",
          "type": "address[]"
        },
        {
          "internalType": "address",
          "name": "to",
          "type": "address"
        },
        {
          "internalType": "uint256",
          "name": "deadline",
          "type": "uint256"
        }
      ],
      "name": "swapExactBRISEForTokens",
      "outputs": [
        {
          "internalType": "uint256[]",
          "name": "amounts",
          "type": "uint256[]"
        }
      ],
      "stateMutability": "payable",
      "type": "function"
    },
    {
      "inputs": [
        {
          "internalType": "uint256",
          "name": "amountOutMin",
          "type": "uint256"
        },
        {
          "internalType": "address[]",
          "name": "path",
          "type": "address[]"
        },
        {
          "internalType": "address",
          "name": "to",
          "type": "address"
        },
        {
          "internalType": "uint256",
          "name": "deadline",
          "type": "uint256"
        }
      ],
      "name": "swapExactBRISEForTokensSupportingFeeOnTransferTokens",
      "outputs": [],
      "stateMutability": "payable",
      "type": "function"
    },
    {
      "inputs": [
        {
          "internalType": "uint256",
          "name": "amountIn",
          "type": "uint256"
        },
        {
          "internalType": "uint256",
          "name": "amountOutMin",
          "type": "uint256"
        },
        {
          "internalType": "address[]",
          "name": "path",
          "type": "address[]"
        },
        {
          "internalType": "address",
          "name": "to",
          "type": "address"
        },
        {
          "internalType": "uint256",
          "name": "deadline",
          "type": "uint256"
        }
      ],
      "name": "swapExactTokensForBRISE",
      "outputs": [
        {
          "internalType": "uint256[]",
          "name": "amounts",
          "type": "uint256[]"
        }
      ],
      "stateMutability": "nonpayable",
      "type": "function"
    },
    {
      "inputs": [
        {
          "internalType": "uint256",
          "name": "amountIn",
          "type": "uint256"
        },
        {
          "internalType": "uint256",
          "name": "amountOutMin",
          "type": "uint256"
        },
        {
          "internalType": "address[]",
          "name": "path",
          "type": "address[]"
        },
        {
          "internalType": "address",
          "name": "to",
          "type": "address"
        },
        {
          "internalType": "uint256",
          "name": "deadline",
          "type": "uint256"
        }
      ],
      "name": "swapExactTokensForBRISESupportingFeeOnTransferTokens",
      "outputs": [],
      "stateMutability": "nonpayable",
      "type": "function"
    },
    {
      "inputs": [
        {
          "internalType": "uint256",
          "name": "amountIn",
          "type": "uint256"
        },
        {
          "internalType": "uint256",
          "name": "amountOutMin",
          "type": "uint256"
        },
        {
          "internalType": "address[]",
          "name": "path",
          "type": "address[]"
        },
        {
          "internalType": "address",
          "name": "to",
          "type": "address"
        },
        {
          "internalType": "uint256",
          "name": "deadline",
          "type": "uint256"
        }
      ],
      "name": "swapExactTokensForTokens",
      "outputs": [
        {
          "internalType": "uint256[]",
          "name": "amounts",
          "type": "uint256[]"
        }
      ],
      "stateMutability": "nonpayable",
      "type": "function"
    },
    {
      "inputs": [
        {
          "internalType": "uint256",
          "name": "amountIn",
          "type": "uint256"
        },
        {
          "internalType": "uint256",
          "name": "amountOutMin",
          "type": "uint256"
        },
        {
          "internalType": "address[]",
          "name": "path",
          "type": "address[]"
        },
        {
          "internalType": "address",
          "name": "to",
          "type": "address"
        },
        {
          "internalType": "uint256",
          "name": "deadline",
          "type": "uint256"
        }
      ],
      "name": "swapExactTokensForTokensSupportingFeeOnTransferTokens",
      "outputs": [],
      "stateMutability": "nonpayable",
      "type": "function"
    },
    {
      "inputs": [
        {
          "internalType": "uint256",
          "name": "amountOut",
          "type": "uint256"
        },
        {
          "internalType": "uint256",
          "name": "amountInMax",
          "type": "uint256"
        },
        {
          "internalType": "address[]",
          "name": "path",
          "type": "address[]"
        },
        {
          "internalType": "address",
          "name": "to",
          "type": "address"
        },
        {
          "internalType": "uint256",
          "name": "deadline",
          "type": "uint256"
        }
      ],
      "name": "swapTokensForExactBRISE",
      "outputs": [
        {
          "internalType": "uint256[]",
          "name": "amounts",
          "type": "uint256[]"
        }
      ],
      "stateMutability": "nonpayable",
      "type": "function"
    },
    {
      "inputs": [
        {
          "internalType": "uint256",
          "name": "amountOut",
          "type": "uint256"
        },
        {
          "internalType": "uint256",
          "name": "amountInMax",
          "type": "uint256"
        },
        {
          "internalType": "address[]",
          "name": "path",
          "type": "address[]"
        },
        {
          "internalType": "address",
          "name": "to",
          "type": "address"
        },
        {
          "internalType": "uint256",
          "name": "deadline",
          "type": "uint256"
        }
      ],
      "name": "swapTokensForExactTokens",
      "outputs": [
        {
          "internalType": "uint256[]",
          "name": "amounts",
          "type": "uint256[]"
        }
      ],
      "stateMutability": "nonpayable",
      "type": "function"
    },
    {
      "stateMutability": "payable",
      "type": "receive"
    }
  ],
  "bytecode": "0x60c06040523480156200001157600080fd5b506040516200535238038062005352833981810160405260608110156200003757600080fd5b50805160208201516040928301516001600160601b0319606084811b821660805283901b1660a052925191929091339082906200007490620000d3565b6001600160a01b03928316815291166020820152604080519182900301906000f080158015620000a8573d6000803e3d6000fd5b50600080546001600160a01b0319166001600160a01b039290921691909117905550620000e1915050565b610aa380620048af83390190565b60805160601c60a05160601c6146a06200020f6000398061015f5280610cd65280610f3252806110785280611100528061148852806115cb52806116535280611a3d5280611c045280611c5a5280611c8e5280611d025280611ea85280611fa25280612058528061210a528061249352806126215280612722528061275d5280612886528061291b528061298f5280612d585280612f335280612fe2525080610cb45280610dc15280610dfa5280610fc5528061113252806112bb5280611392528061151b5280611685528061182d5280611ab75280611c3852806120e8528061224d528061252152806127f1528061281a52806129c15280612c2f5280612de6528061354b528061358e52806139595280613ad85280613d015280613daf5280613e2f52506146a06000f3fe60806040526004361061014f5760003560e01c80638e59e598116100b6578063c45a01551161006f578063c45a0155146109fe578063d06ca61f14610a13578063d910844714610ac8578063e8e3370014610b4c578063ecf7f16c14610bae578063fd2baef114610c4457610188565b80638e59e59814610779578063961adc281461080f578063ad615dec14610882578063baa2abde146108b8578063be41ff7a14610915578063be631baf146109ab57610188565b80634e4c14b2116101085780634e4c14b2146104fe5780635c11d79514610582578063818857c31461061857806385f8c259146106495780638803dbee1461067f5780638c310b9e1461071557610188565b8063054d50d41461018d5780630ce7cfef146101d55780631f00ca74146102485780632195995c1461034d578063334b8029146103e457806338ed17391461046857610188565b3661018857336001600160a01b037f0000000000000000000000000000000000000000000000000000000000000000161461018657fe5b005b600080fd5b34801561019957600080fd5b506101c3600480360360608110156101b057600080fd5b5080359060208101359060400135610c97565b60408051918252519081900360200190f35b3480156101e157600080fd5b506101c360048036036101408110156101f957600080fd5b506001600160a01b0381358116916020810135916040820135916060810135916080820135169060a08101359060c081013515159060ff60e08201351690610100810135906101200135610cac565b34801561025457600080fd5b506102fd6004803603604081101561026b57600080fd5b81359190810190604081016020820135600160201b81111561028c57600080fd5b82018360208201111561029e57600080fd5b803590602001918460208302840111600160201b831117156102bf57600080fd5b919080806020026020016040519081016040528093929190818152602001838360200280828437600092019190915250929550610dba945050505050565b60408051602080825283518183015283519192839290830191858101910280838360005b83811015610339578181015183820152602001610321565b505050509050019250505060405180910390f35b34801561035957600080fd5b506103cb600480360361016081101561037157600080fd5b506001600160a01b038135811691602081013582169160408201359160608101359160808201359160a08101359091169060c08101359060e081013515159060ff6101008201351690610120810135906101400135610df0565b6040805192835260208301919091528051918290030190f35b6102fd600480360360808110156103fa57600080fd5b81359190810190604081016020820135600160201b81111561041b57600080fd5b82018360208201111561042d57600080fd5b803590602001918460208302840111600160201b8311171561044e57600080fd5b91935091506001600160a01b038135169060200135610eea565b34801561047457600080fd5b506102fd600480360360a081101561048b57600080fd5b813591602081013591810190606081016040820135600160201b8111156104b157600080fd5b8201836020820111156104c357600080fd5b803590602001918460208302840111600160201b831117156104e457600080fd5b91935091506001600160a01b038135169060200135611270565b6102fd6004803603608081101561051457600080fd5b81359190810190604081016020820135600160201b81111561053557600080fd5b82018360208201111561054757600080fd5b803590602001918460208302840111600160201b8311171561056857600080fd5b91935091506001600160a01b038135169060200135611440565b34801561058e57600080fd5b50610186600480360360a08110156105a557600080fd5b813591602081013591810190606081016040820135600160201b8111156105cb57600080fd5b8201836020820111156105dd57600080fd5b803590602001918460208302840111600160201b831117156105fe57600080fd5b91935091506001600160a01b0381351690602001356117c3565b34801561062457600080fd5b5061062d611a3b565b604080516001600160a01b039092168252519081900360200190f35b34801561065557600080fd5b506101c36004803603606081101561066c57600080fd5b5080359060208101359060400135611a5f565b34801561068b57600080fd5b506102fd600480360360a08110156106a257600080fd5b813591602081013591810190606081016040820135600160201b8111156106c857600080fd5b8201836020820111156106da57600080fd5b803590602001918460208302840111600160201b831117156106fb57600080fd5b91935091506001600160a01b038135169060200135611a6c565b61075b600480360360c081101561072b57600080fd5b506001600160a01b0381358116916020810135916040820135916060810135916080820135169060a00135611bb5565b60408051938452602084019290925282820152519081900360600190f35b34801561078557600080fd5b50610186600480360360a081101561079c57600080fd5b813591602081013591810190606081016040820135600160201b8111156107c257600080fd5b8201836020820111156107d457600080fd5b803590602001918460208302840111600160201b831117156107f557600080fd5b91935091506001600160a01b038135169060200135611e5a565b34801561081b57600080fd5b506103cb600480360361014081101561083357600080fd5b506001600160a01b0381358116916020810135916040820135916060810135916080820135169060a08101359060c081013515159060ff60e082013516906101008101359061012001356120de565b34801561088e57600080fd5b506101c3600480360360608110156108a557600080fd5b50803590602081013590604001356121f2565b3480156108c457600080fd5b506103cb600480360360e08110156108db57600080fd5b506001600160a01b038135811691602081013582169160408201359160608101359160808201359160a08101359091169060c001356121ff565b34801561092157600080fd5b506102fd600480360360a081101561093857600080fd5b813591602081013591810190606081016040820135600160201b81111561095e57600080fd5b82018360208201111561097057600080fd5b803590602001918460208302840111600160201b8311171561099157600080fd5b91935091506001600160a01b038135169060200135612443565b3480156109b757600080fd5b506103cb600480360360c08110156109ce57600080fd5b506001600160a01b0381358116916020810135916040820135916060810135916080820135169060a001356126d5565b348015610a0a57600080fd5b5061062d6127ef565b348015610a1f57600080fd5b506102fd60048036036040811015610a3657600080fd5b81359190810190604081016020820135600160201b811115610a5757600080fd5b820183602082011115610a6957600080fd5b803590602001918460208302840111600160201b83111715610a8a57600080fd5b919080806020026020016040519081016040528093929190818152602001838360200280828437600092019190915250929550612813945050505050565b61018660048036036080811015610ade57600080fd5b81359190810190604081016020820135600160201b811115610aff57600080fd5b820183602082011115610b1157600080fd5b803590602001918460208302840111600160201b83111715610b3257600080fd5b91935091506001600160a01b038135169060200135612840565b348015610b5857600080fd5b5061075b6004803603610100811015610b7057600080fd5b506001600160a01b038135811691602081013582169160408201359160608101359160808201359160a08101359160c0820135169060e00135612bcc565b348015610bba57600080fd5b506102fd600480360360a0811015610bd157600080fd5b813591602081013591810190606081016040820135600160201b811115610bf757600080fd5b820183602082011115610c0957600080fd5b803590602001918460208302840111600160201b83111715610c2a57600080fd5b91935091506001600160a01b038135169060200135612d08565b348015610c5057600080fd5b506101c3600480360360c0811015610c6757600080fd5b506001600160a01b0381358116916020810135916040820135916060810135916080820135169060a00135612ee7565b6000610ca4848484613068565b949350505050565b600080610cfa7f00000000000000000000000000000000000000000000000000000000000000008d7f0000000000000000000000000000000000000000000000000000000000000000613158565b9050600086610d09578b610d0d565b6000195b6040805163d505accf60e01b815233600482015230602482015260448101839052606481018b905260ff8916608482015260a4810188905260c4810187905290519192506001600160a01b0384169163d505accf9160e48082019260009290919082900301818387803b158015610d8357600080fd5b505af1158015610d97573d6000803e3d6000fd5b50505050610da98d8d8d8d8d8d612ee7565b9d9c50505050505050505050505050565b6060610de77f00000000000000000000000000000000000000000000000000000000000000008484613218565b90505b92915050565b6000806000610e207f00000000000000000000000000000000000000000000000000000000000000008f8f613158565b9050600087610e2f578c610e33565b6000195b6040805163d505accf60e01b815233600482015230602482015260448101839052606481018c905260ff8a16608482015260a4810189905260c4810188905290519192506001600160a01b0384169163d505accf9160e48082019260009290919082900301818387803b158015610ea957600080fd5b505af1158015610ebd573d6000803e3d6000fd5b50505050610ed08f8f8f8f8f8f8f6121ff565b809450819550505050509b509b9950505050505050505050565b60608142811015610f30576040805162461bcd60e51b815260206004820152601a6024820152600080516020614600833981519152604482015290519081900360640190fd5b7f00000000000000000000000000000000000000000000000000000000000000006001600160a01b031686866000818110610f6757fe5b905060200201356001600160a01b03166001600160a01b031614610fc0576040805162461bcd60e51b815260206004820152601f602482015260008051602061451e833981519152604482015290519081900360640190fd5b61101e7f00000000000000000000000000000000000000000000000000000000000000003488888080602002602001604051908101604052809392919081815260200183836020028082843760009201919091525061336592505050565b9150868260018451038151811061103157fe5b602002602001015110156110765760405162461bcd60e51b815260040180806020018281038252602d81526020018061449b602d913960400191505060405180910390fd5b7f00000000000000000000000000000000000000000000000000000000000000006001600160a01b031663d0e30db0836000815181106110b257fe5b60200260200101516040518263ffffffff1660e01b81526004016000604051808303818588803b1580156110e557600080fd5b505af11580156110f9573d6000803e3d6000fd5b50505050507f00000000000000000000000000000000000000000000000000000000000000006001600160a01b031663a9059cbb6111907f00000000000000000000000000000000000000000000000000000000000000008989600081811061115e57fe5b905060200201356001600160a01b03168a8a600181811061117b57fe5b905060200201356001600160a01b0316613158565b8460008151811061119d57fe5b60200260200101516040518363ffffffff1660e01b815260040180836001600160a01b03166001600160a01b0316815260200182815260200192505050602060405180830381600087803b1580156111f457600080fd5b505af1158015611208573d6000803e3d6000fd5b505050506040513d602081101561121e57600080fd5b505161122657fe5b61126634838888808060200260200160405190810160405280939291908181526020018383602002808284376000920191909152508a925061349c915050565b5095945050505050565b606081428110156112b6576040805162461bcd60e51b815260206004820152601a6024820152600080516020614600833981519152604482015290519081900360640190fd5b6113147f00000000000000000000000000000000000000000000000000000000000000008988888080602002602001604051908101604052809392919081815260200183836020028082843760009201919091525061336592505050565b9150868260018451038151811061132757fe5b6020026020010151101561136c5760405162461bcd60e51b815260040180806020018281038252602d81526020018061449b602d913960400191505060405180910390fd5b6113f58686600081811061137c57fe5b905060200201356001600160a01b0316336113db7f00000000000000000000000000000000000000000000000000000000000000008a8a60008181106113be57fe5b905060200201356001600160a01b03168b8b600181811061117b57fe5b856000815181106113e857fe5b60200260200101516136ad565b61143588838888808060200260200160405190810160405280939291908181526020018383602002808284376000920191909152508a925061349c915050565b509695505050505050565b60608142811015611486576040805162461bcd60e51b815260206004820152601a6024820152600080516020614600833981519152604482015290519081900360640190fd5b7f00000000000000000000000000000000000000000000000000000000000000006001600160a01b0316868660008181106114bd57fe5b905060200201356001600160a01b03166001600160a01b031614611516576040805162461bcd60e51b815260206004820152601f602482015260008051602061451e833981519152604482015290519081900360640190fd5b6115747f00000000000000000000000000000000000000000000000000000000000000008888888080602002602001604051908101604052809392919081815260200183836020028082843760009201919091525061321892505050565b9150348260008151811061158457fe5b602002602001015111156115c95760405162461bcd60e51b815260040180806020018281038252602981526020018061444a6029913960400191505060405180910390fd5b7f00000000000000000000000000000000000000000000000000000000000000006001600160a01b031663d0e30db08360008151811061160557fe5b60200260200101516040518263ffffffff1660e01b81526004016000604051808303818588803b15801561163857600080fd5b505af115801561164c573d6000803e3d6000fd5b50505050507f00000000000000000000000000000000000000000000000000000000000000006001600160a01b031663a9059cbb6116b17f00000000000000000000000000000000000000000000000000000000000000008989600081811061115e57fe5b846000815181106116be57fe5b60200260200101516040518363ffffffff1660e01b815260040180836001600160a01b03166001600160a01b0316815260200182815260200192505050602060405180830381600087803b15801561171557600080fd5b505af1158015611729573d6000803e3d6000fd5b505050506040513d602081101561173f57600080fd5b505161174757fe5b61178734838888808060200260200160405190810160405280939291908181526020018383602002808284376000920191909152508a925061349c915050565b8160008151811061179457fe5b60200260200101513411156112665761126633836000815181106117b457fe5b6020026020010151340361380a565b8042811015611807576040805162461bcd60e51b815260206004820152601a6024820152600080516020614600833981519152604482015290519081900360640190fd5b61185f8585600081811061181757fe5b905060200201356001600160a01b0316336118597f00000000000000000000000000000000000000000000000000000000000000008989600081811061115e57fe5b8a6136ad565b60008585600019810181811061187157fe5b905060200201356001600160a01b03166001600160a01b03166370a08231856040518263ffffffff1660e01b815260040180826001600160a01b03166001600160a01b0316815260200191505060206040518083038186803b1580156118d657600080fd5b505afa1580156118ea573d6000803e3d6000fd5b505050506040513d602081101561190057600080fd5b50516040805160208881028281018201909352888252929350611942929091899189918291850190849080828437600092019190915250889250613902915050565b866119f4828888600019810181811061195757fe5b905060200201356001600160a01b03166001600160a01b03166370a08231886040518263ffffffff1660e01b815260040180826001600160a01b03166001600160a01b0316815260200191505060206040518083038186803b1580156119bc57600080fd5b505afa1580156119d0573d6000803e3d6000fd5b505050506040513d60208110156119e657600080fd5b50519063ffffffff613b9e16565b1015611a315760405162461bcd60e51b815260040180806020018281038252602d81526020018061449b602d913960400191505060405180910390fd5b5050505050505050565b7f000000000000000000000000000000000000000000000000000000000000000081565b6000610ca4848484613be0565b60608142811015611ab2576040805162461bcd60e51b815260206004820152601a6024820152600080516020614600833981519152604482015290519081900360640190fd5b611b107f00000000000000000000000000000000000000000000000000000000000000008988888080602002602001604051908101604052809392919081815260200183836020028082843760009201919091525061321892505050565b91508682600081518110611b2057fe5b60200260200101511115611b655760405162461bcd60e51b815260040180806020018281038252602981526020018061444a6029913960400191505060405180910390fd5b611b758686600081811061137c57fe5b61143587838888808060200260200160405190810160405280939291908181526020018383602002808284376000920191909152508a925061349c915050565b60008060008342811015611bfe576040805162461bcd60e51b815260206004820152601a6024820152600080516020614600833981519152604482015290519081900360640190fd5b611c2c8a7f00000000000000000000000000000000000000000000000000000000000000008b348c8c613cd0565b90945092506000611c7e7f00000000000000000000000000000000000000000000000000000000000000008c7f0000000000000000000000000000000000000000000000000000000000000000613158565b9050611c8c8b3383886136ad565b7f00000000000000000000000000000000000000000000000000000000000000006001600160a01b031663d0e30db0856040518263ffffffff1660e01b81526004016000604051808303818588803b158015611ce757600080fd5b505af1158015611cfb573d6000803e3d6000fd5b50505050507f00000000000000000000000000000000000000000000000000000000000000006001600160a01b031663a9059cbb82866040518363ffffffff1660e01b815260040180836001600160a01b03166001600160a01b0316815260200182815260200192505050602060405180830381600087803b158015611d8057600080fd5b505af1158015611d94573d6000803e3d6000fd5b505050506040513d6020811015611daa57600080fd5b5051611db257fe5b806001600160a01b0316636a627842886040518263ffffffff1660e01b815260040180826001600160a01b03166001600160a01b03168152602001915050602060405180830381600087803b158015611e0a57600080fd5b505af1158015611e1e573d6000803e3d6000fd5b505050506040513d6020811015611e3457600080fd5b5051925034841015611e4c57611e4c3385340361380a565b505096509650969350505050565b8042811015611e9e576040805162461bcd60e51b815260206004820152601a6024820152600080516020614600833981519152604482015290519081900360640190fd5b6001600160a01b037f00000000000000000000000000000000000000000000000000000000000000001685856000198101818110611ed857fe5b905060200201356001600160a01b03166001600160a01b031614611f31576040805162461bcd60e51b815260206004820152601f602482015260008051602061451e833981519152604482015290519081900360640190fd5b611f418585600081811061181757fe5b611f7f858580806020026020016040519081016040528093929190818152602001838360200280828437600092019190915250309250613902915050565b604080516370a0823160e01b815230600482015290516000916001600160a01b037f000000000000000000000000000000000000000000000000000000000000000016916370a0823191602480820192602092909190829003018186803b158015611fe957600080fd5b505afa158015611ffd573d6000803e3d6000fd5b505050506040513d602081101561201357600080fd5b50519050868110156120565760405162461bcd60e51b815260040180806020018281038252602d81526020018061449b602d913960400191505060405180910390fd5b7f00000000000000000000000000000000000000000000000000000000000000006001600160a01b0316632e1a7d4d826040518263ffffffff1660e01b815260040180828152602001915050600060405180830381600087803b1580156120bc57600080fd5b505af11580156120d0573d6000803e3d6000fd5b50505050611a31848261380a565b600080600061212e7f00000000000000000000000000000000000000000000000000000000000000008e7f0000000000000000000000000000000000000000000000000000000000000000613158565b905060008761213d578c612141565b6000195b6040805163d505accf60e01b815233600482015230602482015260448101839052606481018c905260ff8a16608482015260a4810189905260c4810188905290519192506001600160a01b0384169163d505accf9160e48082019260009290919082900301818387803b1580156121b757600080fd5b505af11580156121cb573d6000803e3d6000fd5b505050506121dd8e8e8e8e8e8e6126d5565b909f909e509c50505050505050505050505050565b6000610ca4848484613f44565b6000808242811015612246576040805162461bcd60e51b815260206004820152601a6024820152600080516020614600833981519152604482015290519081900360640190fd5b60006122737f00000000000000000000000000000000000000000000000000000000000000008c8c613158565b604080516323b872dd60e01b81523360048201526001600160a01b03831660248201819052604482018d9052915192935090916323b872dd916064808201926020929091908290030181600087803b1580156122ce57600080fd5b505af11580156122e2573d6000803e3d6000fd5b505050506040513d60208110156122f857600080fd5b50506040805163226bf2d160e21b81526001600160a01b03888116600483015282516000938493928616926389afcb44926024808301939282900301818787803b15801561234557600080fd5b505af1158015612359573d6000803e3d6000fd5b505050506040513d604081101561236f57600080fd5b508051602090910151909250905060006123898e8e613ff0565b509050806001600160a01b03168e6001600160a01b0316146123ac5781836123af565b82825b90975095508a8710156123f35760405162461bcd60e51b81526004018080602001828103825260288152602001806144736028913960400191505060405180910390fd5b898610156124325760405162461bcd60e51b81526004018080602001828103825260288152602001806144f66028913960400191505060405180910390fd5b505050505097509795505050505050565b60608142811015612489576040805162461bcd60e51b815260206004820152601a6024820152600080516020614600833981519152604482015290519081900360640190fd5b6001600160a01b037f000000000000000000000000000000000000000000000000000000000000000016868660001981018181106124c357fe5b905060200201356001600160a01b03166001600160a01b03161461251c576040805162461bcd60e51b815260206004820152601f602482015260008051602061451e833981519152604482015290519081900360640190fd5b61257a7f00000000000000000000000000000000000000000000000000000000000000008988888080602002602001604051908101604052809392919081815260200183836020028082843760009201919091525061321892505050565b9150868260008151811061258a57fe5b602002602001015111156125cf5760405162461bcd60e51b815260040180806020018281038252602981526020018061444a6029913960400191505060405180910390fd5b6125df8686600081811061137c57fe5b61261f878388888080602002602001604051908101604052809392919081815260200183836020028082843760009201919091525030925061349c915050565b7f00000000000000000000000000000000000000000000000000000000000000006001600160a01b0316632e1a7d4d8360018551038151811061265e57fe5b60200260200101516040518263ffffffff1660e01b815260040180828152602001915050600060405180830381600087803b15801561269c57600080fd5b505af11580156126b0573d6000803e3d6000fd5b5050505061143584836001855103815181106126c857fe5b602002602001015161380a565b600080824281101561271c576040805162461bcd60e51b815260206004820152601a6024820152600080516020614600833981519152604482015290519081900360640190fd5b61274b897f00000000000000000000000000000000000000000000000000000000000000008a8a8a308a6121ff565b909350915061275b8986856140ce565b7f00000000000000000000000000000000000000000000000000000000000000006001600160a01b0316632e1a7d4d836040518263ffffffff1660e01b815260040180828152602001915050600060405180830381600087803b1580156127c157600080fd5b505af11580156127d5573d6000803e3d6000fd5b505050506127e3858361380a565b50965096945050505050565b7f000000000000000000000000000000000000000000000000000000000000000081565b6060610de77f00000000000000000000000000000000000000000000000000000000000000008484613365565b8042811015612884576040805162461bcd60e51b815260206004820152601a6024820152600080516020614600833981519152604482015290519081900360640190fd5b7f00000000000000000000000000000000000000000000000000000000000000006001600160a01b0316858560008181106128bb57fe5b905060200201356001600160a01b03166001600160a01b031614612914576040805162461bcd60e51b815260206004820152601f602482015260008051602061451e833981519152604482015290519081900360640190fd5b60003490507f00000000000000000000000000000000000000000000000000000000000000006001600160a01b031663d0e30db0826040518263ffffffff1660e01b81526004016000604051808303818588803b15801561297457600080fd5b505af1158015612988573d6000803e3d6000fd5b50505050507f00000000000000000000000000000000000000000000000000000000000000006001600160a01b031663a9059cbb6129ed7f00000000000000000000000000000000000000000000000000000000000000008989600081811061115e57fe5b836040518363ffffffff1660e01b815260040180836001600160a01b03166001600160a01b0316815260200182815260200192505050602060405180830381600087803b158015612a3d57600080fd5b505af1158015612a51573d6000803e3d6000fd5b505050506040513d6020811015612a6757600080fd5b5051612a6f57fe5b600086866000198101818110612a8157fe5b905060200201356001600160a01b03166001600160a01b03166370a08231866040518263ffffffff1660e01b815260040180826001600160a01b03166001600160a01b0316815260200191505060206040518083038186803b158015612ae657600080fd5b505afa158015612afa573d6000803e3d6000fd5b505050506040513d6020811015612b1057600080fd5b50516040805160208981028281018201909352898252929350612b529290918a918a918291850190849080828437600092019190915250899250613902915050565b876119f48289896000198101818110612b6757fe5b905060200201356001600160a01b03166001600160a01b03166370a08231896040518263ffffffff1660e01b815260040180826001600160a01b03166001600160a01b0316815260200191505060206040518083038186803b1580156119bc57600080fd5b60008060008342811015612c15576040805162461bcd60e51b815260206004820152601a6024820152600080516020614600833981519152604482015290519081900360640190fd5b612c238c8c8c8c8c8c613cd0565b90945092506000612c557f00000000000000000000000000000000000000000000000000000000000000008e8e613158565b9050612c638d3383886136ad565b612c6f8c3383876136ad565b806001600160a01b0316636a627842886040518263ffffffff1660e01b815260040180826001600160a01b03166001600160a01b03168152602001915050602060405180830381600087803b158015612cc757600080fd5b505af1158015612cdb573d6000803e3d6000fd5b505050506040513d6020811015612cf157600080fd5b5051949d939c50939a509198505050505050505050565b60608142811015612d4e576040805162461bcd60e51b815260206004820152601a6024820152600080516020614600833981519152604482015290519081900360640190fd5b6001600160a01b037f00000000000000000000000000000000000000000000000000000000000000001686866000198101818110612d8857fe5b905060200201356001600160a01b03166001600160a01b031614612de1576040805162461bcd60e51b815260206004820152601f602482015260008051602061451e833981519152604482015290519081900360640190fd5b612e3f7f00000000000000000000000000000000000000000000000000000000000000008988888080602002602001604051908101604052809392919081815260200183836020028082843760009201919091525061336592505050565b91508682600184510381518110612e5257fe5b60200260200101511015612e975760405162461bcd60e51b815260040180806020018281038252602d81526020018061449b602d913960400191505060405180910390fd5b612ea78686600081811061137c57fe5b61261f888388888080602002602001604051908101604052809392919081815260200183836020028082843760009201919091525030925061349c915050565b60008142811015612f2d576040805162461bcd60e51b815260206004820152601a6024820152600080516020614600833981519152604482015290519081900360640190fd5b612f5c887f000000000000000000000000000000000000000000000000000000000000000089898930896121ff565b604080516370a0823160e01b81523060048201529051919450612fe092508a9187916001600160a01b038416916370a0823191602480820192602092909190829003018186803b158015612faf57600080fd5b505afa158015612fc3573d6000803e3d6000fd5b505050506040513d6020811015612fd957600080fd5b50516140ce565b7f00000000000000000000000000000000000000000000000000000000000000006001600160a01b0316632e1a7d4d836040518263ffffffff1660e01b815260040180828152602001915050600060405180830381600087803b15801561304657600080fd5b505af115801561305a573d6000803e3d6000fd5b50505050611435848361380a565b60008084116130a85760405162461bcd60e51b815260040180806020018281038252602d81526020018061453e602d913960400191505060405180910390fd5b6000831180156130b85750600082115b6130f35760405162461bcd60e51b815260040180806020018281038252602a8152602001806145d6602a913960400191505060405180910390fd5b6000613107856103e563ffffffff61423816565b9050600061311b828563ffffffff61423816565b9050600061314183613135886103e863ffffffff61423816565b9063ffffffff61429116565b905080828161314c57fe5b04979650505050505050565b60008060006131678585613ff0565b604080516bffffffffffffffffffffffff19606094851b811660208084019190915293851b81166034830152825160288184030181526048830184528051908501206001600160f81b031960688401529a90941b9093166069840152607d8301989098527f96df5cfb92e79a8bff2bfe8341ea8de1b6abe0644a94867fc55e410e4a6738ed609d808401919091528851808403909101815260bd909201909752805196019590952095945050505050565b6060600282511015613271576040805162461bcd60e51b815260206004820181905260248201527f42697467657274537761704c6962726172793a20494e56414c49445f50415448604482015290519081900360640190fd5b815167ffffffffffffffff8111801561328957600080fd5b506040519080825280602002602001820160405280156132b3578160200160208202803683370190505b50905082816001835103815181106132c757fe5b60209081029190910101528151600019015b801561335d57600080613316878660018603815181106132f557fe5b602002602001015187868151811061330957fe5b60200260200101516142eb565b9150915061333884848151811061332957fe5b60200260200101518383613be0565b84600185038151811061334757fe5b60209081029190910101525050600019016132d9565b509392505050565b60606002825110156133be576040805162461bcd60e51b815260206004820181905260248201527f42697467657274537761704c6962726172793a20494e56414c49445f50415448604482015290519081900360640190fd5b815167ffffffffffffffff811180156133d657600080fd5b50604051908082528060200260200182016040528015613400578160200160208202803683370190505b509050828160008151811061341157fe5b60200260200101818152505060005b600183510381101561335d576000806134568786858151811061343f57fe5b602002602001015187866001018151811061330957fe5b9150915061347884848151811061346957fe5b60200260200101518383613068565b84846001018151811061348757fe5b60209081029190910101525050600101613420565b60005b6001835103811015613646576000808483815181106134ba57fe5b60200260200101518584600101815181106134d157fe5b60200260200101519150915060006134e98383613ff0565b50905060008785600101815181106134fd57fe5b60200260200101519050600080836001600160a01b0316866001600160a01b03161461352b5782600061352f565b6000835b91509150600060028a510388106135465788613587565b6135877f0000000000000000000000000000000000000000000000000000000000000000878c8b6002018151811061357a57fe5b6020026020010151613158565b90506135b47f00000000000000000000000000000000000000000000000000000000000000008888613158565b6001600160a01b0316636d9a640a8484846040518463ffffffff1660e01b815260040180848152602001838152602001826001600160a01b03166001600160a01b031681526020019350505050600060405180830381600087803b15801561361b57600080fd5b505af115801561362f573d6000803e3d6000fd5b50506001909901985061349f975050505050505050565b5060008054604080516371bb61f360e01b8152600481018890526001600160a01b038581166024830152915191909216926371bb61f3926044808201939182900301818387803b15801561369957600080fd5b505af1158015611a31573d6000803e3d6000fd5b604080516001600160a01b0385811660248301528481166044830152606480830185905283518084039091018152608490920183526020820180516001600160e01b03166323b872dd60e01b17815292518251600094606094938a169392918291908083835b602083106137325780518252601f199092019160209182019101613713565b6001836020036101000a0380198251168184511680821785525050505050509050019150506000604051808303816000865af19150503d8060008114613794576040519150601f19603f3d011682016040523d82523d6000602084013e613799565b606091505b50915091508180156137c75750805115806137c757508080602001905160208110156137c457600080fd5b50515b6138025760405162461bcd60e51b81526004018080602001828103825260248152602001806146476024913960400191505060405180910390fd5b505050505050565b604080516000808252602082019092526001600160a01b0384169083906040518082805190602001908083835b602083106138565780518252601f199092019160209182019101613837565b6001836020036101000a03801982511681845116808217855250505050505090500191505060006040518083038185875af1925050503d80600081146138b8576040519150601f19603f3d011682016040523d82523d6000602084013e6138bd565b606091505b50509050806138fd5760405162461bcd60e51b81526004018080602001828103825260238152602001806145b36023913960400191505060405180910390fd5b505050565b60005b60018351038110156138fd5760008084838151811061392057fe5b602002602001015185846001018151811061393757fe5b602002602001015191509150600061394f8383613ff0565b509050600061397f7f00000000000000000000000000000000000000000000000000000000000000008585613158565b9050600080600080846001600160a01b0316630902f1ac6040518163ffffffff1660e01b815260040160606040518083038186803b1580156139c057600080fd5b505afa1580156139d4573d6000803e3d6000fd5b505050506040513d60608110156139ea57600080fd5b5080516020909101516001600160701b0391821693501690506000806001600160a01b038a811690891614613a20578284613a23565b83835b91509150613a81828b6001600160a01b03166370a082318a6040518263ffffffff1660e01b815260040180826001600160a01b03166001600160a01b0316815260200191505060206040518083038186803b1580156119bc57600080fd5b9550613a8e868383613068565b945050505050600080856001600160a01b0316886001600160a01b031614613ab857826000613abc565b6000835b91509150600060028c51038a10613ad3578a613b07565b613b077f0000000000000000000000000000000000000000000000000000000000000000898e8d6002018151811061357a57fe5b9050856001600160a01b0316636d9a640a8484846040518463ffffffff1660e01b815260040180848152602001838152602001826001600160a01b03166001600160a01b031681526020019350505050600060405180830381600087803b158015613b7157600080fd5b505af1158015613b85573d6000803e3d6000fd5b50506001909b019a506139059950505050505050505050565b6000610de783836040518060400160405280601e81526020017f536166654d6174683a207375627472616374696f6e206f766572666c6f7700008152506143b2565b6000808411613c205760405162461bcd60e51b815260040180806020018281038252602e8152602001806144c8602e913960400191505060405180910390fd5b600083118015613c305750600082115b613c6b5760405162461bcd60e51b815260040180806020018281038252602a8152602001806145d6602a913960400191505060405180910390fd5b6000613c8f6103e8613c83868863ffffffff61423816565b9063ffffffff61423816565b90506000613ca96103e5613c83868963ffffffff613b9e16565b9050613cc66001828481613cb957fe5b049063ffffffff61429116565b9695505050505050565b6040805163e6a4390560e01b81526001600160a01b03888116600483015287811660248301529151600092839283927f00000000000000000000000000000000000000000000000000000000000000009092169163e6a4390591604480820192602092909190829003018186803b158015613d4a57600080fd5b505afa158015613d5e573d6000803e3d6000fd5b505050506040513d6020811015613d7457600080fd5b50516001600160a01b03161415613e2757604080516364e329cb60e11b81526001600160a01b038a81166004830152898116602483015291517f00000000000000000000000000000000000000000000000000000000000000009092169163c9c65396916044808201926020929091908290030181600087803b158015613dfa57600080fd5b505af1158015613e0e573d6000803e3d6000fd5b505050506040513d6020811015613e2457600080fd5b50505b600080613e557f00000000000000000000000000000000000000000000000000000000000000008b8b6142eb565b91509150816000148015613e67575080155b15613e7757879350869250613f37565b6000613e84898484613f44565b9050878111613ed75785811015613ecc5760405162461bcd60e51b81526004018080602001828103825260288152602001806144f66028913960400191505060405180910390fd5b889450925082613f35565b6000613ee4898486613f44565b905089811115613ef057fe5b87811015613f2f5760405162461bcd60e51b81526004018080602001828103825260288152602001806144736028913960400191505060405180910390fd5b94508793505b505b5050965096945050505050565b6000808411613f845760405162461bcd60e51b81526004018080602001828103825260278152602001806146206027913960400191505060405180910390fd5b600083118015613f945750600082115b613fcf5760405162461bcd60e51b815260040180806020018281038252602a8152602001806145d6602a913960400191505060405180910390fd5b82613fe0858463ffffffff61423816565b81613fe757fe5b04949350505050565b600080826001600160a01b0316846001600160a01b031614156140445760405162461bcd60e51b815260040180806020018281038252602781526020018061456b6027913960400191505060405180910390fd5b826001600160a01b0316846001600160a01b031610614064578284614067565b83835b90925090506001600160a01b0382166140c7576040805162461bcd60e51b815260206004820181905260248201527f42697467657274537761704c6962726172793a205a45524f5f41444452455353604482015290519081900360640190fd5b9250929050565b604080516001600160a01b038481166024830152604480830185905283518084039091018152606490920183526020820180516001600160e01b031663a9059cbb60e01b178152925182516000946060949389169392918291908083835b6020831061414b5780518252601f19909201916020918201910161412c565b6001836020036101000a0380198251168184511680821785525050505050509050019150506000604051808303816000865af19150503d80600081146141ad576040519150601f19603f3d011682016040523d82523d6000602084013e6141b2565b606091505b50915091508180156141e05750805115806141e057508080602001905160208110156141dd57600080fd5b50515b614231576040805162461bcd60e51b815260206004820152601f60248201527f5472616e7366657248656c7065723a205452414e534645525f4641494c454400604482015290519081900360640190fd5b5050505050565b60008261424757506000610dea565b8282028284828161425457fe5b0414610de75760405162461bcd60e51b81526004018080602001828103825260218152602001806145926021913960400191505060405180910390fd5b600082820183811015610de7576040805162461bcd60e51b815260206004820152601b60248201527f536166654d6174683a206164646974696f6e206f766572666c6f770000000000604482015290519081900360640190fd5b60008060006142fa8585613ff0565b50905060008061430b888888613158565b6001600160a01b0316630902f1ac6040518163ffffffff1660e01b815260040160606040518083038186803b15801561434357600080fd5b505afa158015614357573d6000803e3d6000fd5b505050506040513d606081101561436d57600080fd5b5080516020909101516001600160701b0391821693501690506001600160a01b03878116908416146143a05780826143a3565b81815b90999098509650505050505050565b600081848411156144415760405162461bcd60e51b81526004018080602001828103825283818151815260200191508051906020019080838360005b838110156144065781810151838201526020016143ee565b50505050905090810190601f1680156144335780820380516001836020036101000a031916815260200191505b509250505060405180910390fd5b50505090039056fe4269746765727453776170526f757465723a204558434553534956455f494e5055545f414d4f554e544269746765727453776170526f757465723a20494e53554646494349454e545f415f414d4f554e544269746765727453776170526f757465723a20494e53554646494349454e545f4f55545055545f414d4f554e5442697467657274537761704c6962726172793a20494e53554646494349454e545f4f55545055545f414d4f554e544269746765727453776170526f757465723a20494e53554646494349454e545f425f414d4f554e544269746765727453776170526f757465723a20494e56414c49445f504154480042697467657274537761704c6962726172793a20494e53554646494349454e545f494e5055545f414d4f554e5442697467657274537761704c6962726172793a204944454e544943414c5f414444524553534553536166654d6174683a206d756c7469706c69636174696f6e206f766572666c6f775472616e7366657248656c7065723a20424e425f5452414e534645525f4641494c454442697467657274537761704c6962726172793a20494e53554646494349454e545f4c49515549444954594269746765727453776170526f757465723a204558504952454400000000000042697467657274537761704c6962726172793a20494e53554646494349454e545f414d4f554e545472616e7366657248656c7065723a205452414e534645525f46524f4d5f4641494c4544a2646970667358221220410726c221326ba5d4b3f2b1a3a75836529c687124157d51ce868e6fee3af3ac64736f6c6343000606003360a06040526001805460ff60a01b1916600160a01b17905534801561002357600080fd5b50604051610aa3380380610aa38339818101604052604081101561004657600080fd5b5080516020909101513360601b608052600080546001600160a01b039384166001600160a01b0319918216179091556001805493909216921691909117905560805160601c6109f76100ac600039806101c8528061060752806106a152506109f76000f3fe608060405234801561001057600080fd5b50600436106100885760003560e01c8063d93c1f681161005b578063d93c1f681461012c578063de75584e1461014b578063e8e5608814610190578063ef6bdb0e146101aa57610088565b80631f1c0e141461008d578063379607f5146100b557806371bb61f3146100d2578063a68c0e6a146100fe575b600080fd5b6100b3600480360360208110156100a357600080fd5b50356001600160a01b03166101c6565b005b6100b3600480360360208110156100cb57600080fd5b5035610256565b6100b3600480360360408110156100e857600080fd5b50803590602001356001600160a01b031661047c565b6100b36004803603604081101561011457600080fd5b506001600160a01b0381358116916020013516610605565b6100b36004803603602081101561014257600080fd5b5035151561069f565b6101776004803603604081101561016157600080fd5b506001600160a01b038135169060200135610729565b6040805192835260208301919091528051918290030190f35b610198610762565b60408051918252519081900360200190f35b6101b2610775565b604080519115158252519081900360200190f35b7f00000000000000000000000000000000000000000000000000000000000000006001600160a01b03163314610232576040805162461bcd60e51b815260206004820152600c60248201526b2737ba1030b71037bbb732b960a11b604482015290519081900360640190fd5b6001600160a01b03166000908152600260205260409020805460ff19166001179055565b33600090815260036020526040812080548390811061027157fe5b906000526020600020906002020160000154116102d5576040805162461bcd60e51b815260206004820152601860248201527f506f73697469766520616d6f756e742065787065637465640000000000000000604482015290519081900360640190fd5b3360009081526003602052604090208054829081106102f057fe5b906000526020600020906002020160010154623b53800142101561034d576040805162461bcd60e51b815260206004820152600f60248201526e18d85b89dd0818db185a5b481e595d608a1b604482015290519081900360640190fd5b33600090815260036020526040812080548390811061036857fe5b600091825260208083206002909202909101543383526003909152604082208054919350908490811061039757fe5b600091825260208083206002909202909101929092556001546040805163a9059cbb60e01b815233600482015260248101869052905192936001600160a01b039092169263a9059cbb9260448084019391929182900301818787803b1580156103ff57600080fd5b505af1158015610413573d6000803e3d6000fd5b505050506040513d602081101561042957600080fd5b5051905080610477576040805162461bcd60e51b8152602060048201526015602482015274151bdad95b881d1c985b9cd9995c8819985a5b1959605a1b604482015290519081900360640190fd5b505050565b600154600160a01b900460ff161561060157600082116104e3576040805162461bcd60e51b815260206004820152601f60248201527f616d6f756e742073686f756c64206265206d6f7265207468616e207a65726f00604482015290519081900360640190fd5b6001600160a01b038116610530576040805162461bcd60e51b815260206004820152600f60248201526e1859191c995cdcc81a5b9d985b1a59608a1b604482015290519081900360640190fd5b600154600054604080516370a0823160e01b81526001600160a01b039283166004820152905160c8860493849316916370a08231916024808301926020929190829003018186803b15801561058457600080fd5b505afa158015610598573d6000803e3d6000fd5b505050506040513d60208110156105ae57600080fd5b505110156105f7576040805162461bcd60e51b81526020600482015260116024820152704e6f7420656e6f75676820746f6b656e7360781b604482015290519081900360640190fd5b6104778282610785565b5050565b7f00000000000000000000000000000000000000000000000000000000000000006001600160a01b03163314610671576040805162461bcd60e51b815260206004820152600c60248201526b2737ba1030b71037bbb732b960a11b604482015290519081900360640190fd5b600080546001600160a01b039384166001600160a01b03199182161790915560018054929093169116179055565b7f00000000000000000000000000000000000000000000000000000000000000006001600160a01b0316331461070b576040805162461bcd60e51b815260206004820152600c60248201526b2737ba1030b71037bbb732b960a11b604482015290519081900360640190fd5b60018054911515600160a01b0260ff60a01b19909216919091179055565b6003602052816000526040600020818154811061074257fe5b600091825260209091206002909102018054600190910154909250905082565b3360009081526003602052604090205490565b600154600160a01b900460ff1681565b60015460005460408051636eb1769f60e11b81526001600160a01b03928316600482015230602482015290518493929092169163dd62ed3e91604480820192602092909190829003018186803b1580156107de57600080fd5b505afa1580156107f2573d6000803e3d6000fd5b505050506040513d602081101561080857600080fd5b5051101561085d576040805162461bcd60e51b815260206004820152601960248201527f546f6b656e203120616c6c6f77616e636520746f6f206c6f7700000000000000604482015290519081900360640190fd5b610601828260015460008054604080516323b872dd60e01b81526001600160a01b039283166004820152306024820152604481018690529051929391909116916323b872dd9160648082019260209290919082900301818787803b1580156108c457600080fd5b505af11580156108d8573d6000803e3d6000fd5b505050506040513d60208110156108ee57600080fd5b505190508061093c576040805162461bcd60e51b8152602060048201526015602482015274151bdad95b881d1c985b9cd9995c8819985a5b1959605a1b604482015290519081900360640190fd5b8015610477576001600160a01b03831660008181526003602090815260408083208151808301835287815242818501818152835460018181018655948852958720925160029096029092019485559051939091019290925551859391927f4360f5320ef452a3ac552e563b0a7ad91b6dd31f258c6c47bdc47ca05f97e0b391a450505056fea2646970667358221220620fa78e6bdde7b3cd5d4f80ab4aac537306c439c28aa2c217341a8b32cb15d864736f6c63430006060033",
  "linkReferences": {},
  "deployedLinkReferences": {}
}