{
  "_format": "hh-sol-artifact-1",
  "contractName": "BitgertSwapRouter",
  "sourceName": "contracts/BitgertSwapRouter.sol",
  "abi": [
    {
      "inputs": [
        {
          "internalType": "address",
          "name": "_factory",
          "type": "address"
        },
        {
          "internalType": "address",
          "name": "_WBRISE",
          "type": "address"
        },
        {
          "internalType": "address",
          "name": "_rewardToken",
          "type": "address"
        }
      ],
      "stateMutability": "nonpayable",
      "type": "constructor"
    },
    {
      "inputs": [],
      "name": "WBRISE",
      "outputs": [
        {
          "internalType": "address",
          "name": "",
          "type": "address"
        }
      ],
      "stateMutability": "view",
      "type": "function"
    },
    {
      "inputs": [
        {
          "internalType": "address",
          "name": "tokenA",
          "type": "address"
        },
        {
          "internalType": "address",
          "name": "tokenB",
          "type": "address"
        },
        {
          "internalType": "uint256",
          "name": "amountADesired",
          "type": "uint256"
        },
        {
          "internalType": "uint256",
          "name": "amountBDesired",
          "type": "uint256"
        },
        {
          "internalType": "uint256",
          "name": "amountAMin",
          "type": "uint256"
        },
        {
          "internalType": "uint256",
          "name": "amountBMin",
          "type": "uint256"
        },
        {
          "internalType": "address",
          "name": "to",
          "type": "address"
        },
        {
          "internalType": "uint256",
          "name": "deadline",
          "type": "uint256"
        }
      ],
      "name": "addLiquidity",
      "outputs": [
        {
          "internalType": "uint256",
          "name": "amountA",
          "type": "uint256"
        },
        {
          "internalType": "uint256",
          "name": "amountB",
          "type": "uint256"
        },
        {
          "internalType": "uint256",
          "name": "liquidity",
          "type": "uint256"
        }
      ],
      "stateMutability": "nonpayable",
      "type": "function"
    },
    {
      "inputs": [
        {
          "internalType": "address",
          "name": "token",
          "type": "address"
        },
        {
          "internalType": "uint256",
          "name": "amountTokenDesired",
          "type": "uint256"
        },
        {
          "internalType": "uint256",
          "name": "amountTokenMin",
          "type": "uint256"
        },
        {
          "internalType": "uint256",
          "name": "amountBRISEMin",
          "type": "uint256"
        },
        {
          "internalType": "address",
          "name": "to",
          "type": "address"
        },
        {
          "internalType": "uint256",
          "name": "deadline",
          "type": "uint256"
        }
      ],
      "name": "addLiquidityBRISE",
      "outputs": [
        {
          "internalType": "uint256",
          "name": "amountToken",
          "type": "uint256"
        },
        {
          "internalType": "uint256",
          "name": "amountBRISE",
          "type": "uint256"
        },
        {
          "internalType": "uint256",
          "name": "liquidity",
          "type": "uint256"
        }
      ],
      "stateMutability": "payable",
      "type": "function"
    },
    {
      "inputs": [],
      "name": "factory",
      "outputs": [
        {
          "internalType": "address",
          "name": "",
          "type": "address"
        }
      ],
      "stateMutability": "view",
      "type": "function"
    },
    {
      "inputs": [
        {
          "internalType": "uint256",
          "name": "amountOut",
          "type": "uint256"
        },
        {
          "internalType": "uint256",
          "name": "reserveIn",
          "type": "uint256"
        },
        {
          "internalType": "uint256",
          "name": "reserveOut",
          "type": "uint256"
        }
      ],
      "name": "getAmountIn",
      "outputs": [
        {
          "internalType": "uint256",
          "name": "amountIn",
          "type": "uint256"
        }
      ],
      "stateMutability": "pure",
      "type": "function"
    },
    {
      "inputs": [
        {
          "internalType": "uint256",
          "name": "amountIn",
          "type": "uint256"
        },
        {
          "internalType": "uint256",
          "name": "reserveIn",
          "type": "uint256"
        },
        {
          "internalType": "uint256",
          "name": "reserveOut",
          "type": "uint256"
        }
      ],
      "name": "getAmountOut",
      "outputs": [
        {
          "internalType": "uint256",
          "name": "amountOut",
          "type": "uint256"
        }
      ],
      "stateMutability": "pure",
      "type": "function"
    },
    {
      "inputs": [
        {
          "internalType": "uint256",
          "name": "amountOut",
          "type": "uint256"
        },
        {
          "internalType": "address[]",
          "name": "path",
          "type": "address[]"
        }
      ],
      "name": "getAmountsIn",
      "outputs": [
        {
          "internalType": "uint256[]",
          "name": "amounts",
          "type": "uint256[]"
        }
      ],
      "stateMutability": "view",
      "type": "function"
    },
    {
      "inputs": [
        {
          "internalType": "uint256",
          "name": "amountIn",
          "type": "uint256"
        },
        {
          "internalType": "address[]",
          "name": "path",
          "type": "address[]"
        }
      ],
      "name": "getAmountsOut",
      "outputs": [
        {
          "internalType": "uint256[]",
          "name": "amounts",
          "type": "uint256[]"
        }
      ],
      "stateMutability": "view",
      "type": "function"
    },
    {
      "inputs": [
        {
          "internalType": "uint256",
          "name": "amountA",
          "type": "uint256"
        },
        {
          "internalType": "uint256",
          "name": "reserveA",
          "type": "uint256"
        },
        {
          "internalType": "uint256",
          "name": "reserveB",
          "type": "uint256"
        }
      ],
      "name": "quote",
      "outputs": [
        {
          "internalType": "uint256",
          "name": "amountB",
          "type": "uint256"
        }
      ],
      "stateMutability": "pure",
      "type": "function"
    },
    {
      "inputs": [
        {
          "internalType": "address",
          "name": "tokenA",
          "type": "address"
        },
        {
          "internalType": "address",
          "name": "tokenB",
          "type": "address"
        },
        {
          "internalType": "uint256",
          "name": "liquidity",
          "type": "uint256"
        },
        {
          "internalType": "uint256",
          "name": "amountAMin",
          "type": "uint256"
        },
        {
          "internalType": "uint256",
          "name": "amountBMin",
          "type": "uint256"
        },
        {
          "internalType": "address",
          "name": "to",
          "type": "address"
        },
        {
          "internalType": "uint256",
          "name": "deadline",
          "type": "uint256"
        }
      ],
      "name": "removeLiquidity",
      "outputs": [
        {
          "internalType": "uint256",
          "name": "amountA",
          "type": "uint256"
        },
        {
          "internalType": "uint256",
          "name": "amountB",
          "type": "uint256"
        }
      ],
      "stateMutability": "nonpayable",
      "type": "function"
    },
    {
      "inputs": [
        {
          "internalType": "address",
          "name": "token",
          "type": "address"
        },
        {
          "internalType": "uint256",
          "name": "liquidity",
          "type": "uint256"
        },
        {
          "internalType": "uint256",
          "name": "amountTokenMin",
          "type": "uint256"
        },
        {
          "internalType": "uint256",
          "name": "amountBRISEMin",
          "type": "uint256"
        },
        {
          "internalType": "address",
          "name": "to",
          "type": "address"
        },
        {
          "internalType": "uint256",
          "name": "deadline",
          "type": "uint256"
        }
      ],
      "name": "removeLiquidityBRISE",
      "outputs": [
        {
          "internalType": "uint256",
          "name": "amountToken",
          "type": "uint256"
        },
        {
          "internalType": "uint256",
          "name": "amountBRISE",
          "type": "uint256"
        }
      ],
      "stateMutability": "nonpayable",
      "type": "function"
    },
    {
      "inputs": [
        {
          "internalType": "address",
          "name": "token",
          "type": "address"
        },
        {
          "internalType": "uint256",
          "name": "liquidity",
          "type": "uint256"
        },
        {
          "internalType": "uint256",
          "name": "amountTokenMin",
          "type": "uint256"
        },
        {
          "internalType": "uint256",
          "name": "amountBRISEMin",
          "type": "uint256"
        },
        {
          "internalType": "address",
          "name": "to",
          "type": "address"
        },
        {
          "internalType": "uint256",
          "name": "deadline",
          "type": "uint256"
        }
      ],
      "name": "removeLiquidityBRISESupportingFeeOnTransferTokens",
      "outputs": [
        {
          "internalType": "uint256",
          "name": "amountBRISE",
          "type": "uint256"
        }
      ],
      "stateMutability": "nonpayable",
      "type": "function"
    },
    {
      "inputs": [
        {
          "internalType": "address",
          "name": "token",
          "type": "address"
        },
        {
          "internalType": "uint256",
          "name": "liquidity",
          "type": "uint256"
        },
        {
          "internalType": "uint256",
          "name": "amountTokenMin",
          "type": "uint256"
        },
        {
          "internalType": "uint256",
          "name": "amountBRISEMin",
          "type": "uint256"
        },
        {
          "internalType": "address",
          "name": "to",
          "type": "address"
        },
        {
          "internalType": "uint256",
          "name": "deadline",
          "type": "uint256"
        },
        {
          "internalType": "bool",
          "name": "approveMax",
          "type": "bool"
        },
        {
          "internalType": "uint8",
          "name": "v",
          "type": "uint8"
        },
        {
          "internalType": "bytes32",
          "name": "r",
          "type": "bytes32"
        },
        {
          "internalType": "bytes32",
          "name": "s",
          "type": "bytes32"
        }
      ],
      "name": "removeLiquidityBRISEWithPermit",
      "outputs": [
        {
          "internalType": "uint256",
          "name": "amountToken",
          "type": "uint256"
        },
        {
          "internalType": "uint256",
          "name": "amountBRISE",
          "type": "uint256"
        }
      ],
      "stateMutability": "nonpayable",
      "type": "function"
    },
    {
      "inputs": [
        {
          "internalType": "address",
          "name": "token",
          "type": "address"
        },
        {
          "internalType": "uint256",
          "name": "liquidity",
          "type": "uint256"
        },
        {
          "internalType": "uint256",
          "name": "amountTokenMin",
          "type": "uint256"
        },
        {
          "internalType": "uint256",
          "name": "amountBRISEMin",
          "type": "uint256"
        },
        {
          "internalType": "address",
          "name": "to",
          "type": "address"
        },
        {
          "internalType": "uint256",
          "name": "deadline",
          "type": "uint256"
        },
        {
          "internalType": "bool",
          "name": "approveMax",
          "type": "bool"
        },
        {
          "internalType": "uint8",
          "name": "v",
          "type": "uint8"
        },
        {
          "internalType": "bytes32",
          "name": "r",
          "type": "bytes32"
        },
        {
          "internalType": "bytes32",
          "name": "s",
          "type": "bytes32"
        }
      ],
      "name": "removeLiquidityBRISEWithPermitSupportingFeeOnTransferTokens",
      "outputs": [
        {
          "internalType": "uint256",
          "name": "amountBRISE",
          "type": "uint256"
        }
      ],
      "stateMutability": "nonpayable",
      "type": "function"
    },
    {
      "inputs": [
        {
          "internalType": "address",
          "name": "tokenA",
          "type": "address"
        },
        {
          "internalType": "address",
          "name": "tokenB",
          "type": "address"
        },
        {
          "internalType": "uint256",
          "name": "liquidity",
          "type": "uint256"
        },
        {
          "internalType": "uint256",
          "name": "amountAMin",
          "type": "uint256"
        },
        {
          "internalType": "uint256",
          "name": "amountBMin",
          "type": "uint256"
        },
        {
          "internalType": "address",
          "name": "to",
          "type": "address"
        },
        {
          "internalType": "uint256",
          "name": "deadline",
          "type": "uint256"
        },
        {
          "internalType": "bool",
          "name": "approveMax",
          "type": "bool"
        },
        {
          "internalType": "uint8",
          "name": "v",
          "type": "uint8"
        },
        {
          "internalType": "bytes32",
          "name": "r",
          "type": "bytes32"
        },
        {
          "internalType": "bytes32",
          "name": "s",
          "type": "bytes32"
        }
      ],
      "name": "removeLiquidityWithPermit",
      "outputs": [
        {
          "internalType": "uint256",
          "name": "amountA",
          "type": "uint256"
        },
        {
          "internalType": "uint256",
          "name": "amountB",
          "type": "uint256"
        }
      ],
      "stateMutability": "nonpayable",
      "type": "function"
    },
    {
      "inputs": [],
      "name": "reward",
      "outputs": [
        {
          "internalType": "contract Reward",
          "name": "",
          "type": "address"
        }
      ],
      "stateMutability": "view",
      "type": "function"
    },
    {
      "inputs": [
        {
          "internalType": "uint256",
          "name": "amountOut",
          "type": "uint256"
        },
        {
          "internalType": "address[]",
          "name": "path",
          "type": "address[]"
        },
        {
          "internalType": "address",
          "name": "to",
          "type": "address"
        },
        {
          "internalType": "uint256",
          "name": "deadline",
          "type": "uint256"
        }
      ],
      "name": "swapBRISEForExactTokens",
      "outputs": [
        {
          "internalType": "uint256[]",
          "name": "amounts",
          "type": "uint256[]"
        }
      ],
      "stateMutability": "payable",
      "type": "function"
    },
    {
      "inputs": [
        {
          "internalType": "uint256",
          "name": "amountOutMin",
          "type": "uint256"
        },
        {
          "internalType": "address[]",
          "name": "path",
          "type": "address[]"
        },
        {
          "internalType": "address",
          "name": "to",
          "type": "address"
        },
        {
          "internalType": "uint256",
          "name": "deadline",
          "type": "uint256"
        }
      ],
      "name": "swapExactBRISEForTokens",
      "outputs": [
        {
          "internalType": "uint256[]",
          "name": "amounts",
          "type": "uint256[]"
        }
      ],
      "stateMutability": "payable",
      "type": "function"
    },
    {
      "inputs": [
        {
          "internalType": "uint256",
          "name": "amountOutMin",
          "type": "uint256"
        },
        {
          "internalType": "address[]",
          "name": "path",
          "type": "address[]"
        },
        {
          "internalType": "address",
          "name": "to",
          "type": "address"
        },
        {
          "internalType": "uint256",
          "name": "deadline",
          "type": "uint256"
        }
      ],
      "name": "swapExactBRISEForTokensSupportingFeeOnTransferTokens",
      "outputs": [],
      "stateMutability": "payable",
      "type": "function"
    },
    {
      "inputs": [
        {
          "internalType": "uint256",
          "name": "amountIn",
          "type": "uint256"
        },
        {
          "internalType": "uint256",
          "name": "amountOutMin",
          "type": "uint256"
        },
        {
          "internalType": "address[]",
          "name": "path",
          "type": "address[]"
        },
        {
          "internalType": "address",
          "name": "to",
          "type": "address"
        },
        {
          "internalType": "uint256",
          "name": "deadline",
          "type": "uint256"
        }
      ],
      "name": "swapExactTokensForBRISE",
      "outputs": [
        {
          "internalType": "uint256[]",
          "name": "amounts",
          "type": "uint256[]"
        }
      ],
      "stateMutability": "nonpayable",
      "type": "function"
    },
    {
      "inputs": [
        {
          "internalType": "uint256",
          "name": "amountIn",
          "type": "uint256"
        },
        {
          "internalType": "uint256",
          "name": "amountOutMin",
          "type": "uint256"
        },
        {
          "internalType": "address[]",
          "name": "path",
          "type": "address[]"
        },
        {
          "internalType": "address",
          "name": "to",
          "type": "address"
        },
        {
          "internalType": "uint256",
          "name": "deadline",
          "type": "uint256"
        }
      ],
      "name": "swapExactTokensForBRISESupportingFeeOnTransferTokens",
      "outputs": [],
      "stateMutability": "nonpayable",
      "type": "function"
    },
    {
      "inputs": [
        {
          "internalType": "uint256",
          "name": "amountIn",
          "type": "uint256"
        },
        {
          "internalType": "uint256",
          "name": "amountOutMin",
          "type": "uint256"
        },
        {
          "internalType": "address[]",
          "name": "path",
          "type": "address[]"
        },
        {
          "internalType": "address",
          "name": "to",
          "type": "address"
        },
        {
          "internalType": "uint256",
          "name": "deadline",
          "type": "uint256"
        }
      ],
      "name": "swapExactTokensForTokens",
      "outputs": [
        {
          "internalType": "uint256[]",
          "name": "amounts",
          "type": "uint256[]"
        }
      ],
      "stateMutability": "nonpayable",
      "type": "function"
    },
    {
      "inputs": [
        {
          "internalType": "uint256",
          "name": "amountIn",
          "type": "uint256"
        },
        {
          "internalType": "uint256",
          "name": "amountOutMin",
          "type": "uint256"
        },
        {
          "internalType": "address[]",
          "name": "path",
          "type": "address[]"
        },
        {
          "internalType": "address",
          "name": "to",
          "type": "address"
        },
        {
          "internalType": "uint256",
          "name": "deadline",
          "type": "uint256"
        }
      ],
      "name": "swapExactTokensForTokensSupportingFeeOnTransferTokens",
      "outputs": [],
      "stateMutability": "nonpayable",
      "type": "function"
    },
    {
      "inputs": [
        {
          "internalType": "uint256",
          "name": "amountOut",
          "type": "uint256"
        },
        {
          "internalType": "uint256",
          "name": "amountInMax",
          "type": "uint256"
        },
        {
          "internalType": "address[]",
          "name": "path",
          "type": "address[]"
        },
        {
          "internalType": "address",
          "name": "to",
          "type": "address"
        },
        {
          "internalType": "uint256",
          "name": "deadline",
          "type": "uint256"
        }
      ],
      "name": "swapTokensForExactBRISE",
      "outputs": [
        {
          "internalType": "uint256[]",
          "name": "amounts",
          "type": "uint256[]"
        }
      ],
      "stateMutability": "nonpayable",
      "type": "function"
    },
    {
      "inputs": [
        {
          "internalType": "uint256",
          "name": "amountOut",
          "type": "uint256"
        },
        {
          "internalType": "uint256",
          "name": "amountInMax",
          "type": "uint256"
        },
        {
          "internalType": "address[]",
          "name": "path",
          "type": "address[]"
        },
        {
          "internalType": "address",
          "name": "to",
          "type": "address"
        },
        {
          "internalType": "uint256",
          "name": "deadline",
          "type": "uint256"
        }
      ],
      "name": "swapTokensForExactTokens",
      "outputs": [
        {
          "internalType": "uint256[]",
          "name": "amounts",
          "type": "uint256[]"
        }
      ],
      "stateMutability": "nonpayable",
      "type": "function"
    },
    {
      "stateMutability": "payable",
      "type": "receive"
    }
  ],
  "bytecode": "0x60c06040523480156200001157600080fd5b50604051620055e4380380620055e4833981810160405260608110156200003757600080fd5b50805160208201516040928301516001600160601b0319606084811b821660805283901b1660a0529251919290913390829062000074906200016d565b6001600160a01b03928316815291166020820152604080519182900301906000f080158015620000a8573d6000803e3d6000fd5b50600280546001600160a01b039283166001600160a01b03199182161790915560008054600181810183557f290decd9548b62a8d60345a988386fc84ba6bc95484008f6362f93160ef3e56391820180549686169685168717905582548082018455909101805496909416958316861790935582548084018455908390527fb10e2d527612073b26eecdfd717e6a320cf44b4afac2b0732d9fcbe2b7fa0cf690810180548316909517909455815480830190925592018054909216179055506200017b565b610b358062004aaf83390190565b60805160601c60a05160601c614806620002a96000398061017a5280610d065280610f7152806110b7528061113f52806114c7528061160a52806116925280611a7c5280611c435280611c995280611ccd5280611d415280611ee75280611fe15280612097528061214952806124d252806126605280612761528061279c52806128c5528061295a52806129ce5280612d975280612f725280613021525080610ce45280610df15280610e2a5280611004528061117152806112fa52806113d1528061155a52806116c4528061186c5280611af65280611c775280612127528061228c5280612560528061283052806128595280612a005280612c6e5280612e25528061358a52806135cd5280613abf5280613c3e5280613e675280613f155280613f9552506148066000f3fe60806040526004361061016a5760003560e01c80638c310b9e116100d1578063be631baf1161008a578063d910844711610064578063d910844714610af8578063e8e3370014610b7c578063ecf7f16c14610bde578063fd2baef114610c74576101a3565b8063be631baf146109db578063c45a015514610a2e578063d06ca61f14610a43576101a3565b80638c310b9e146107455780638e59e598146107a9578063961adc281461083f578063ad615dec146108b2578063baa2abde146108e8578063be41ff7a14610945576101a3565b806338ed17391161012357806338ed1739146104b45780634e4c14b21461054a5780635c11d795146105ce578063818857c31461066457806385f8c259146106795780638803dbee146106af576101a3565b8063054d50d4146101a85780630ce7cfef146101f05780631f00ca74146102635780632195995c14610368578063228cb733146103ff578063334b802914610430576101a3565b366101a357336001600160a01b037f000000000000000000000000000000000000000000000000000000000000000016146101a157fe5b005b600080fd5b3480156101b457600080fd5b506101de600480360360608110156101cb57600080fd5b5080359060208101359060400135610cc7565b60408051918252519081900360200190f35b3480156101fc57600080fd5b506101de600480360361014081101561021457600080fd5b506001600160a01b0381358116916020810135916040820135916060810135916080820135169060a08101359060c081013515159060ff60e08201351690610100810135906101200135610cdc565b34801561026f57600080fd5b506103186004803603604081101561028657600080fd5b81359190810190604081016020820135600160201b8111156102a757600080fd5b8201836020820111156102b957600080fd5b803590602001918460208302840111600160201b831117156102da57600080fd5b919080806020026020016040519081016040528093929190818152602001838360200280828437600092019190915250929550610dea945050505050565b60408051602080825283518183015283519192839290830191858101910280838360005b8381101561035457818101518382015260200161033c565b505050509050019250505060405180910390f35b34801561037457600080fd5b506103e6600480360361016081101561038c57600080fd5b506001600160a01b038135811691602081013582169160408201359160608101359160808201359160a08101359091169060c08101359060e081013515159060ff6101008201351690610120810135906101400135610e20565b6040805192835260208301919091528051918290030190f35b34801561040b57600080fd5b50610414610f1a565b604080516001600160a01b039092168252519081900360200190f35b6103186004803603608081101561044657600080fd5b81359190810190604081016020820135600160201b81111561046757600080fd5b82018360208201111561047957600080fd5b803590602001918460208302840111600160201b8311171561049a57600080fd5b91935091506001600160a01b038135169060200135610f29565b3480156104c057600080fd5b50610318600480360360a08110156104d757600080fd5b813591602081013591810190606081016040820135600160201b8111156104fd57600080fd5b82018360208201111561050f57600080fd5b803590602001918460208302840111600160201b8311171561053057600080fd5b91935091506001600160a01b0381351690602001356112af565b6103186004803603608081101561056057600080fd5b81359190810190604081016020820135600160201b81111561058157600080fd5b82018360208201111561059357600080fd5b803590602001918460208302840111600160201b831117156105b457600080fd5b91935091506001600160a01b03813516906020013561147f565b3480156105da57600080fd5b506101a1600480360360a08110156105f157600080fd5b813591602081013591810190606081016040820135600160201b81111561061757600080fd5b82018360208201111561062957600080fd5b803590602001918460208302840111600160201b8311171561064a57600080fd5b91935091506001600160a01b038135169060200135611802565b34801561067057600080fd5b50610414611a7a565b34801561068557600080fd5b506101de6004803603606081101561069c57600080fd5b5080359060208101359060400135611a9e565b3480156106bb57600080fd5b50610318600480360360a08110156106d257600080fd5b813591602081013591810190606081016040820135600160201b8111156106f857600080fd5b82018360208201111561070a57600080fd5b803590602001918460208302840111600160201b8311171561072b57600080fd5b91935091506001600160a01b038135169060200135611aab565b61078b600480360360c081101561075b57600080fd5b506001600160a01b0381358116916020810135916040820135916060810135916080820135169060a00135611bf4565b60408051938452602084019290925282820152519081900360600190f35b3480156107b557600080fd5b506101a1600480360360a08110156107cc57600080fd5b813591602081013591810190606081016040820135600160201b8111156107f257600080fd5b82018360208201111561080457600080fd5b803590602001918460208302840111600160201b8311171561082557600080fd5b91935091506001600160a01b038135169060200135611e99565b34801561084b57600080fd5b506103e6600480360361014081101561086357600080fd5b506001600160a01b0381358116916020810135916040820135916060810135916080820135169060a08101359060c081013515159060ff60e0820135169061010081013590610120013561211d565b3480156108be57600080fd5b506101de600480360360608110156108d557600080fd5b5080359060208101359060400135612231565b3480156108f457600080fd5b506103e6600480360360e081101561090b57600080fd5b506001600160a01b038135811691602081013582169160408201359160608101359160808201359160a08101359091169060c0013561223e565b34801561095157600080fd5b50610318600480360360a081101561096857600080fd5b813591602081013591810190606081016040820135600160201b81111561098e57600080fd5b8201836020820111156109a057600080fd5b803590602001918460208302840111600160201b831117156109c157600080fd5b91935091506001600160a01b038135169060200135612482565b3480156109e757600080fd5b506103e6600480360360c08110156109fe57600080fd5b506001600160a01b0381358116916020810135916040820135916060810135916080820135169060a00135612714565b348015610a3a57600080fd5b5061041461282e565b348015610a4f57600080fd5b5061031860048036036040811015610a6657600080fd5b81359190810190604081016020820135600160201b811115610a8757600080fd5b820183602082011115610a9957600080fd5b803590602001918460208302840111600160201b83111715610aba57600080fd5b919080806020026020016040519081016040528093929190818152602001838360200280828437600092019190915250929550612852945050505050565b6101a160048036036080811015610b0e57600080fd5b81359190810190604081016020820135600160201b811115610b2f57600080fd5b820183602082011115610b4157600080fd5b803590602001918460208302840111600160201b83111715610b6257600080fd5b91935091506001600160a01b03813516906020013561287f565b348015610b8857600080fd5b5061078b6004803603610100811015610ba057600080fd5b506001600160a01b038135811691602081013582169160408201359160608101359160808201359160a08101359160c0820135169060e00135612c0b565b348015610bea57600080fd5b50610318600480360360a0811015610c0157600080fd5b813591602081013591810190606081016040820135600160201b811115610c2757600080fd5b820183602082011115610c3957600080fd5b803590602001918460208302840111600160201b83111715610c5a57600080fd5b91935091506001600160a01b038135169060200135612d47565b348015610c8057600080fd5b506101de600480360360c0811015610c9757600080fd5b506001600160a01b0381358116916020810135916040820135916060810135916080820135169060a00135612f26565b6000610cd48484846130a7565b949350505050565b600080610d2a7f00000000000000000000000000000000000000000000000000000000000000008d7f0000000000000000000000000000000000000000000000000000000000000000613197565b9050600086610d39578b610d3d565b6000195b6040805163d505accf60e01b815233600482015230602482015260448101839052606481018b905260ff8916608482015260a4810188905260c4810187905290519192506001600160a01b0384169163d505accf9160e48082019260009290919082900301818387803b158015610db357600080fd5b505af1158015610dc7573d6000803e3d6000fd5b50505050610dd98d8d8d8d8d8d612f26565b9d9c50505050505050505050505050565b6060610e177f00000000000000000000000000000000000000000000000000000000000000008484613257565b90505b92915050565b6000806000610e507f00000000000000000000000000000000000000000000000000000000000000008f8f613197565b9050600087610e5f578c610e63565b6000195b6040805163d505accf60e01b815233600482015230602482015260448101839052606481018c905260ff8a16608482015260a4810189905260c4810188905290519192506001600160a01b0384169163d505accf9160e48082019260009290919082900301818387803b158015610ed957600080fd5b505af1158015610eed573d6000803e3d6000fd5b50505050610f008f8f8f8f8f8f8f61223e565b809450819550505050509b509b9950505050505050505050565b6002546001600160a01b031681565b60608142811015610f6f576040805162461bcd60e51b815260206004820152601a6024820152600080516020614766833981519152604482015290519081900360640190fd5b7f00000000000000000000000000000000000000000000000000000000000000006001600160a01b031686866000818110610fa657fe5b905060200201356001600160a01b03166001600160a01b031614610fff576040805162461bcd60e51b815260206004820152601f6024820152600080516020614684833981519152604482015290519081900360640190fd5b61105d7f0000000000000000000000000000000000000000000000000000000000000000348888808060200260200160405190810160405280939291908181526020018383602002808284376000920191909152506133a492505050565b9150868260018451038151811061107057fe5b602002602001015110156110b55760405162461bcd60e51b815260040180806020018281038252602d815260200180614601602d913960400191505060405180910390fd5b7f00000000000000000000000000000000000000000000000000000000000000006001600160a01b031663d0e30db0836000815181106110f157fe5b60200260200101516040518263ffffffff1660e01b81526004016000604051808303818588803b15801561112457600080fd5b505af1158015611138573d6000803e3d6000fd5b50505050507f00000000000000000000000000000000000000000000000000000000000000006001600160a01b031663a9059cbb6111cf7f00000000000000000000000000000000000000000000000000000000000000008989600081811061119d57fe5b905060200201356001600160a01b03168a8a60018181106111ba57fe5b905060200201356001600160a01b0316613197565b846000815181106111dc57fe5b60200260200101516040518363ffffffff1660e01b815260040180836001600160a01b03166001600160a01b0316815260200182815260200192505050602060405180830381600087803b15801561123357600080fd5b505af1158015611247573d6000803e3d6000fd5b505050506040513d602081101561125d57600080fd5b505161126557fe5b6112a534838888808060200260200160405190810160405280939291908181526020018383602002808284376000920191909152508a92506134db915050565b5095945050505050565b606081428110156112f5576040805162461bcd60e51b815260206004820152601a6024820152600080516020614766833981519152604482015290519081900360640190fd5b6113537f0000000000000000000000000000000000000000000000000000000000000000898888808060200260200160405190810160405280939291908181526020018383602002808284376000920191909152506133a492505050565b9150868260018451038151811061136657fe5b602002602001015110156113ab5760405162461bcd60e51b815260040180806020018281038252602d815260200180614601602d913960400191505060405180910390fd5b611434868660008181106113bb57fe5b905060200201356001600160a01b03163361141a7f00000000000000000000000000000000000000000000000000000000000000008a8a60008181106113fd57fe5b905060200201356001600160a01b03168b8b60018181106111ba57fe5b8560008151811061142757fe5b6020026020010151613813565b61147488838888808060200260200160405190810160405280939291908181526020018383602002808284376000920191909152508a92506134db915050565b509695505050505050565b606081428110156114c5576040805162461bcd60e51b815260206004820152601a6024820152600080516020614766833981519152604482015290519081900360640190fd5b7f00000000000000000000000000000000000000000000000000000000000000006001600160a01b0316868660008181106114fc57fe5b905060200201356001600160a01b03166001600160a01b031614611555576040805162461bcd60e51b815260206004820152601f6024820152600080516020614684833981519152604482015290519081900360640190fd5b6115b37f00000000000000000000000000000000000000000000000000000000000000008888888080602002602001604051908101604052809392919081815260200183836020028082843760009201919091525061325792505050565b915034826000815181106115c357fe5b602002602001015111156116085760405162461bcd60e51b81526004018080602001828103825260298152602001806145b06029913960400191505060405180910390fd5b7f00000000000000000000000000000000000000000000000000000000000000006001600160a01b031663d0e30db08360008151811061164457fe5b60200260200101516040518263ffffffff1660e01b81526004016000604051808303818588803b15801561167757600080fd5b505af115801561168b573d6000803e3d6000fd5b50505050507f00000000000000000000000000000000000000000000000000000000000000006001600160a01b031663a9059cbb6116f07f00000000000000000000000000000000000000000000000000000000000000008989600081811061119d57fe5b846000815181106116fd57fe5b60200260200101516040518363ffffffff1660e01b815260040180836001600160a01b03166001600160a01b0316815260200182815260200192505050602060405180830381600087803b15801561175457600080fd5b505af1158015611768573d6000803e3d6000fd5b505050506040513d602081101561177e57600080fd5b505161178657fe5b6117c634838888808060200260200160405190810160405280939291908181526020018383602002808284376000920191909152508a92506134db915050565b816000815181106117d357fe5b60200260200101513411156112a5576112a533836000815181106117f357fe5b60200260200101513403613970565b8042811015611846576040805162461bcd60e51b815260206004820152601a6024820152600080516020614766833981519152604482015290519081900360640190fd5b61189e8585600081811061185657fe5b905060200201356001600160a01b0316336118987f00000000000000000000000000000000000000000000000000000000000000008989600081811061119d57fe5b8a613813565b6000858560001981018181106118b057fe5b905060200201356001600160a01b03166001600160a01b03166370a08231856040518263ffffffff1660e01b815260040180826001600160a01b03166001600160a01b0316815260200191505060206040518083038186803b15801561191557600080fd5b505afa158015611929573d6000803e3d6000fd5b505050506040513d602081101561193f57600080fd5b50516040805160208881028281018201909352888252929350611981929091899189918291850190849080828437600092019190915250889250613a68915050565b86611a33828888600019810181811061199657fe5b905060200201356001600160a01b03166001600160a01b03166370a08231886040518263ffffffff1660e01b815260040180826001600160a01b03166001600160a01b0316815260200191505060206040518083038186803b1580156119fb57600080fd5b505afa158015611a0f573d6000803e3d6000fd5b505050506040513d6020811015611a2557600080fd5b50519063ffffffff613d0416565b1015611a705760405162461bcd60e51b815260040180806020018281038252602d815260200180614601602d913960400191505060405180910390fd5b5050505050505050565b7f000000000000000000000000000000000000000000000000000000000000000081565b6000610cd4848484613d46565b60608142811015611af1576040805162461bcd60e51b815260206004820152601a6024820152600080516020614766833981519152604482015290519081900360640190fd5b611b4f7f00000000000000000000000000000000000000000000000000000000000000008988888080602002602001604051908101604052809392919081815260200183836020028082843760009201919091525061325792505050565b91508682600081518110611b5f57fe5b60200260200101511115611ba45760405162461bcd60e51b81526004018080602001828103825260298152602001806145b06029913960400191505060405180910390fd5b611bb4868660008181106113bb57fe5b61147487838888808060200260200160405190810160405280939291908181526020018383602002808284376000920191909152508a92506134db915050565b60008060008342811015611c3d576040805162461bcd60e51b815260206004820152601a6024820152600080516020614766833981519152604482015290519081900360640190fd5b611c6b8a7f00000000000000000000000000000000000000000000000000000000000000008b348c8c613e36565b90945092506000611cbd7f00000000000000000000000000000000000000000000000000000000000000008c7f0000000000000000000000000000000000000000000000000000000000000000613197565b9050611ccb8b338388613813565b7f00000000000000000000000000000000000000000000000000000000000000006001600160a01b031663d0e30db0856040518263ffffffff1660e01b81526004016000604051808303818588803b158015611d2657600080fd5b505af1158015611d3a573d6000803e3d6000fd5b50505050507f00000000000000000000000000000000000000000000000000000000000000006001600160a01b031663a9059cbb82866040518363ffffffff1660e01b815260040180836001600160a01b03166001600160a01b0316815260200182815260200192505050602060405180830381600087803b158015611dbf57600080fd5b505af1158015611dd3573d6000803e3d6000fd5b505050506040513d6020811015611de957600080fd5b5051611df157fe5b806001600160a01b0316636a627842886040518263ffffffff1660e01b815260040180826001600160a01b03166001600160a01b03168152602001915050602060405180830381600087803b158015611e4957600080fd5b505af1158015611e5d573d6000803e3d6000fd5b505050506040513d6020811015611e7357600080fd5b5051925034841015611e8b57611e8b33853403613970565b505096509650969350505050565b8042811015611edd576040805162461bcd60e51b815260206004820152601a6024820152600080516020614766833981519152604482015290519081900360640190fd5b6001600160a01b037f00000000000000000000000000000000000000000000000000000000000000001685856000198101818110611f1757fe5b905060200201356001600160a01b03166001600160a01b031614611f70576040805162461bcd60e51b815260206004820152601f6024820152600080516020614684833981519152604482015290519081900360640190fd5b611f808585600081811061185657fe5b611fbe858580806020026020016040519081016040528093929190818152602001838360200280828437600092019190915250309250613a68915050565b604080516370a0823160e01b815230600482015290516000916001600160a01b037f000000000000000000000000000000000000000000000000000000000000000016916370a0823191602480820192602092909190829003018186803b15801561202857600080fd5b505afa15801561203c573d6000803e3d6000fd5b505050506040513d602081101561205257600080fd5b50519050868110156120955760405162461bcd60e51b815260040180806020018281038252602d815260200180614601602d913960400191505060405180910390fd5b7f00000000000000000000000000000000000000000000000000000000000000006001600160a01b0316632e1a7d4d826040518263ffffffff1660e01b815260040180828152602001915050600060405180830381600087803b1580156120fb57600080fd5b505af115801561210f573d6000803e3d6000fd5b50505050611a708482613970565b600080600061216d7f00000000000000000000000000000000000000000000000000000000000000008e7f0000000000000000000000000000000000000000000000000000000000000000613197565b905060008761217c578c612180565b6000195b6040805163d505accf60e01b815233600482015230602482015260448101839052606481018c905260ff8a16608482015260a4810189905260c4810188905290519192506001600160a01b0384169163d505accf9160e48082019260009290919082900301818387803b1580156121f657600080fd5b505af115801561220a573d6000803e3d6000fd5b5050505061221c8e8e8e8e8e8e612714565b909f909e509c50505050505050505050505050565b6000610cd48484846140aa565b6000808242811015612285576040805162461bcd60e51b815260206004820152601a6024820152600080516020614766833981519152604482015290519081900360640190fd5b60006122b27f00000000000000000000000000000000000000000000000000000000000000008c8c613197565b604080516323b872dd60e01b81523360048201526001600160a01b03831660248201819052604482018d9052915192935090916323b872dd916064808201926020929091908290030181600087803b15801561230d57600080fd5b505af1158015612321573d6000803e3d6000fd5b505050506040513d602081101561233757600080fd5b50506040805163226bf2d160e21b81526001600160a01b03888116600483015282516000938493928616926389afcb44926024808301939282900301818787803b15801561238457600080fd5b505af1158015612398573d6000803e3d6000fd5b505050506040513d60408110156123ae57600080fd5b508051602090910151909250905060006123c88e8e614156565b509050806001600160a01b03168e6001600160a01b0316146123eb5781836123ee565b82825b90975095508a8710156124325760405162461bcd60e51b81526004018080602001828103825260288152602001806145d96028913960400191505060405180910390fd5b898610156124715760405162461bcd60e51b815260040180806020018281038252602881526020018061465c6028913960400191505060405180910390fd5b505050505097509795505050505050565b606081428110156124c8576040805162461bcd60e51b815260206004820152601a6024820152600080516020614766833981519152604482015290519081900360640190fd5b6001600160a01b037f0000000000000000000000000000000000000000000000000000000000000000168686600019810181811061250257fe5b905060200201356001600160a01b03166001600160a01b03161461255b576040805162461bcd60e51b815260206004820152601f6024820152600080516020614684833981519152604482015290519081900360640190fd5b6125b97f00000000000000000000000000000000000000000000000000000000000000008988888080602002602001604051908101604052809392919081815260200183836020028082843760009201919091525061325792505050565b915086826000815181106125c957fe5b6020026020010151111561260e5760405162461bcd60e51b81526004018080602001828103825260298152602001806145b06029913960400191505060405180910390fd5b61261e868660008181106113bb57fe5b61265e87838888808060200260200160405190810160405280939291908181526020018383602002808284376000920191909152503092506134db915050565b7f00000000000000000000000000000000000000000000000000000000000000006001600160a01b0316632e1a7d4d8360018551038151811061269d57fe5b60200260200101516040518263ffffffff1660e01b815260040180828152602001915050600060405180830381600087803b1580156126db57600080fd5b505af11580156126ef573d6000803e3d6000fd5b50505050611474848360018551038151811061270757fe5b6020026020010151613970565b600080824281101561275b576040805162461bcd60e51b815260206004820152601a6024820152600080516020614766833981519152604482015290519081900360640190fd5b61278a897f00000000000000000000000000000000000000000000000000000000000000008a8a8a308a61223e565b909350915061279a898685614234565b7f00000000000000000000000000000000000000000000000000000000000000006001600160a01b0316632e1a7d4d836040518263ffffffff1660e01b815260040180828152602001915050600060405180830381600087803b15801561280057600080fd5b505af1158015612814573d6000803e3d6000fd5b505050506128228583613970565b50965096945050505050565b7f000000000000000000000000000000000000000000000000000000000000000081565b6060610e177f000000000000000000000000000000000000000000000000000000000000000084846133a4565b80428110156128c3576040805162461bcd60e51b815260206004820152601a6024820152600080516020614766833981519152604482015290519081900360640190fd5b7f00000000000000000000000000000000000000000000000000000000000000006001600160a01b0316858560008181106128fa57fe5b905060200201356001600160a01b03166001600160a01b031614612953576040805162461bcd60e51b815260206004820152601f6024820152600080516020614684833981519152604482015290519081900360640190fd5b60003490507f00000000000000000000000000000000000000000000000000000000000000006001600160a01b031663d0e30db0826040518263ffffffff1660e01b81526004016000604051808303818588803b1580156129b357600080fd5b505af11580156129c7573d6000803e3d6000fd5b50505050507f00000000000000000000000000000000000000000000000000000000000000006001600160a01b031663a9059cbb612a2c7f00000000000000000000000000000000000000000000000000000000000000008989600081811061119d57fe5b836040518363ffffffff1660e01b815260040180836001600160a01b03166001600160a01b0316815260200182815260200192505050602060405180830381600087803b158015612a7c57600080fd5b505af1158015612a90573d6000803e3d6000fd5b505050506040513d6020811015612aa657600080fd5b5051612aae57fe5b600086866000198101818110612ac057fe5b905060200201356001600160a01b03166001600160a01b03166370a08231866040518263ffffffff1660e01b815260040180826001600160a01b03166001600160a01b0316815260200191505060206040518083038186803b158015612b2557600080fd5b505afa158015612b39573d6000803e3d6000fd5b505050506040513d6020811015612b4f57600080fd5b50516040805160208981028281018201909352898252929350612b919290918a918a918291850190849080828437600092019190915250899250613a68915050565b87611a338289896000198101818110612ba657fe5b905060200201356001600160a01b03166001600160a01b03166370a08231896040518263ffffffff1660e01b815260040180826001600160a01b03166001600160a01b0316815260200191505060206040518083038186803b1580156119fb57600080fd5b60008060008342811015612c54576040805162461bcd60e51b815260206004820152601a6024820152600080516020614766833981519152604482015290519081900360640190fd5b612c628c8c8c8c8c8c613e36565b90945092506000612c947f00000000000000000000000000000000000000000000000000000000000000008e8e613197565b9050612ca28d338388613813565b612cae8c338387613813565b806001600160a01b0316636a627842886040518263ffffffff1660e01b815260040180826001600160a01b03166001600160a01b03168152602001915050602060405180830381600087803b158015612d0657600080fd5b505af1158015612d1a573d6000803e3d6000fd5b505050506040513d6020811015612d3057600080fd5b5051949d939c50939a509198505050505050505050565b60608142811015612d8d576040805162461bcd60e51b815260206004820152601a6024820152600080516020614766833981519152604482015290519081900360640190fd5b6001600160a01b037f00000000000000000000000000000000000000000000000000000000000000001686866000198101818110612dc757fe5b905060200201356001600160a01b03166001600160a01b031614612e20576040805162461bcd60e51b815260206004820152601f6024820152600080516020614684833981519152604482015290519081900360640190fd5b612e7e7f0000000000000000000000000000000000000000000000000000000000000000898888808060200260200160405190810160405280939291908181526020018383602002808284376000920191909152506133a492505050565b91508682600184510381518110612e9157fe5b60200260200101511015612ed65760405162461bcd60e51b815260040180806020018281038252602d815260200180614601602d913960400191505060405180910390fd5b612ee6868660008181106113bb57fe5b61265e88838888808060200260200160405190810160405280939291908181526020018383602002808284376000920191909152503092506134db915050565b60008142811015612f6c576040805162461bcd60e51b815260206004820152601a6024820152600080516020614766833981519152604482015290519081900360640190fd5b612f9b887f0000000000000000000000000000000000000000000000000000000000000000898989308961223e565b604080516370a0823160e01b8152306004820152905191945061301f92508a9187916001600160a01b038416916370a0823191602480820192602092909190829003018186803b158015612fee57600080fd5b505afa158015613002573d6000803e3d6000fd5b505050506040513d602081101561301857600080fd5b5051614234565b7f00000000000000000000000000000000000000000000000000000000000000006001600160a01b0316632e1a7d4d836040518263ffffffff1660e01b815260040180828152602001915050600060405180830381600087803b15801561308557600080fd5b505af1158015613099573d6000803e3d6000fd5b505050506114748483613970565b60008084116130e75760405162461bcd60e51b815260040180806020018281038252602d8152602001806146a4602d913960400191505060405180910390fd5b6000831180156130f75750600082115b6131325760405162461bcd60e51b815260040180806020018281038252602a81526020018061473c602a913960400191505060405180910390fd5b6000613146856103e563ffffffff61439e16565b9050600061315a828563ffffffff61439e16565b9050600061318083613174886103e863ffffffff61439e16565b9063ffffffff6143f716565b905080828161318b57fe5b04979650505050505050565b60008060006131a68585614156565b604080516bffffffffffffffffffffffff19606094851b811660208084019190915293851b81166034830152825160288184030181526048830184528051908501206001600160f81b031960688401529a90941b9093166069840152607d8301989098527f96df5cfb92e79a8bff2bfe8341ea8de1b6abe0644a94867fc55e410e4a6738ed609d808401919091528851808403909101815260bd909201909752805196019590952095945050505050565b60606002825110156132b0576040805162461bcd60e51b815260206004820181905260248201527f42697467657274537761704c6962726172793a20494e56414c49445f50415448604482015290519081900360640190fd5b815167ffffffffffffffff811180156132c857600080fd5b506040519080825280602002602001820160405280156132f2578160200160208202803683370190505b509050828160018351038151811061330657fe5b60209081029190910101528151600019015b801561339c576000806133558786600186038151811061333457fe5b602002602001015187868151811061334857fe5b6020026020010151614451565b9150915061337784848151811061336857fe5b60200260200101518383613d46565b84600185038151811061338657fe5b6020908102919091010152505060001901613318565b509392505050565b60606002825110156133fd576040805162461bcd60e51b815260206004820181905260248201527f42697467657274537761704c6962726172793a20494e56414c49445f50415448604482015290519081900360640190fd5b815167ffffffffffffffff8111801561341557600080fd5b5060405190808252806020026020018201604052801561343f578160200160208202803683370190505b509050828160008151811061345057fe5b60200260200101818152505060005b600183510381101561339c576000806134958786858151811061347e57fe5b602002602001015187866001018151811061334857fe5b915091506134b78484815181106134a857fe5b602002602001015183836130a7565b8484600101815181106134c657fe5b6020908102919091010152505060010161345f565b60005b6001835103811015613685576000808483815181106134f957fe5b602002602001015185846001018151811061351057fe5b60200260200101519150915060006135288383614156565b509050600087856001018151811061353c57fe5b60200260200101519050600080836001600160a01b0316866001600160a01b03161461356a5782600061356e565b6000835b91509150600060028a5103881061358557886135c6565b6135c67f0000000000000000000000000000000000000000000000000000000000000000878c8b600201815181106135b957fe5b6020026020010151613197565b90506135f37f00000000000000000000000000000000000000000000000000000000000000008888613197565b6001600160a01b0316636d9a640a8484846040518463ffffffff1660e01b815260040180848152602001838152602001826001600160a01b03166001600160a01b031681526020019350505050600060405180830381600087803b15801561365a57600080fd5b505af115801561366e573d6000803e3d6000fd5b5050600190990198506134de975050505050505050565b5060606136ec8560008054806020026020016040519081016040528092919081815260200182805480156136e257602002820191906000526020600020905b81546001600160a01b031681526001909101906020018083116136c4575b5050505050612852565b9050600060c8826001815181106136ff57fe5b60200260200101518161370e57fe5b04905060606137758260018054806020026020016040519081016040528092919081815260200182805480156136e2576020028201919060005260206000209081546001600160a01b031681526001909101906020018083116136c4575050505050612852565b60025481519192506001600160a01b0316906371bb61f3908390600190811061379a57fe5b6020026020010151866040518363ffffffff1660e01b815260040180838152602001826001600160a01b03166001600160a01b0316815260200192505050600060405180830381600087803b1580156137f257600080fd5b505af1158015613806573d6000803e3d6000fd5b5050505050505050505050565b604080516001600160a01b0385811660248301528481166044830152606480830185905283518084039091018152608490920183526020820180516001600160e01b03166323b872dd60e01b17815292518251600094606094938a169392918291908083835b602083106138985780518252601f199092019160209182019101613879565b6001836020036101000a0380198251168184511680821785525050505050509050019150506000604051808303816000865af19150503d80600081146138fa576040519150601f19603f3d011682016040523d82523d6000602084013e6138ff565b606091505b509150915081801561392d57508051158061392d575080806020019051602081101561392a57600080fd5b50515b6139685760405162461bcd60e51b81526004018080602001828103825260248152602001806147ad6024913960400191505060405180910390fd5b505050505050565b604080516000808252602082019092526001600160a01b0384169083906040518082805190602001908083835b602083106139bc5780518252601f19909201916020918201910161399d565b6001836020036101000a03801982511681845116808217855250505050505090500191505060006040518083038185875af1925050503d8060008114613a1e576040519150601f19603f3d011682016040523d82523d6000602084013e613a23565b606091505b5050905080613a635760405162461bcd60e51b81526004018080602001828103825260238152602001806147196023913960400191505060405180910390fd5b505050565b60005b6001835103811015613a6357600080848381518110613a8657fe5b6020026020010151858460010181518110613a9d57fe5b6020026020010151915091506000613ab58383614156565b5090506000613ae57f00000000000000000000000000000000000000000000000000000000000000008585613197565b9050600080600080846001600160a01b0316630902f1ac6040518163ffffffff1660e01b815260040160606040518083038186803b158015613b2657600080fd5b505afa158015613b3a573d6000803e3d6000fd5b505050506040513d6060811015613b5057600080fd5b5080516020909101516001600160701b0391821693501690506000806001600160a01b038a811690891614613b86578284613b89565b83835b91509150613be7828b6001600160a01b03166370a082318a6040518263ffffffff1660e01b815260040180826001600160a01b03166001600160a01b0316815260200191505060206040518083038186803b1580156119fb57600080fd5b9550613bf48683836130a7565b945050505050600080856001600160a01b0316886001600160a01b031614613c1e57826000613c22565b6000835b91509150600060028c51038a10613c39578a613c6d565b613c6d7f0000000000000000000000000000000000000000000000000000000000000000898e8d600201815181106135b957fe5b9050856001600160a01b0316636d9a640a8484846040518463ffffffff1660e01b815260040180848152602001838152602001826001600160a01b03166001600160a01b031681526020019350505050600060405180830381600087803b158015613cd757600080fd5b505af1158015613ceb573d6000803e3d6000fd5b50506001909b019a50613a6b9950505050505050505050565b6000610e1783836040518060400160405280601e81526020017f536166654d6174683a207375627472616374696f6e206f766572666c6f770000815250614518565b6000808411613d865760405162461bcd60e51b815260040180806020018281038252602e81526020018061462e602e913960400191505060405180910390fd5b600083118015613d965750600082115b613dd15760405162461bcd60e51b815260040180806020018281038252602a81526020018061473c602a913960400191505060405180910390fd5b6000613df56103e8613de9868863ffffffff61439e16565b9063ffffffff61439e16565b90506000613e0f6103e5613de9868963ffffffff613d0416565b9050613e2c6001828481613e1f57fe5b049063ffffffff6143f716565b9695505050505050565b6040805163e6a4390560e01b81526001600160a01b03888116600483015287811660248301529151600092839283927f00000000000000000000000000000000000000000000000000000000000000009092169163e6a4390591604480820192602092909190829003018186803b158015613eb057600080fd5b505afa158015613ec4573d6000803e3d6000fd5b505050506040513d6020811015613eda57600080fd5b50516001600160a01b03161415613f8d57604080516364e329cb60e11b81526001600160a01b038a81166004830152898116602483015291517f00000000000000000000000000000000000000000000000000000000000000009092169163c9c65396916044808201926020929091908290030181600087803b158015613f6057600080fd5b505af1158015613f74573d6000803e3d6000fd5b505050506040513d6020811015613f8a57600080fd5b50505b600080613fbb7f00000000000000000000000000000000000000000000000000000000000000008b8b614451565b91509150816000148015613fcd575080155b15613fdd5787935086925061409d565b6000613fea8984846140aa565b905087811161403d57858110156140325760405162461bcd60e51b815260040180806020018281038252602881526020018061465c6028913960400191505060405180910390fd5b88945092508261409b565b600061404a8984866140aa565b90508981111561405657fe5b878110156140955760405162461bcd60e51b81526004018080602001828103825260288152602001806145d96028913960400191505060405180910390fd5b94508793505b505b5050965096945050505050565b60008084116140ea5760405162461bcd60e51b81526004018080602001828103825260278152602001806147866027913960400191505060405180910390fd5b6000831180156140fa5750600082115b6141355760405162461bcd60e51b815260040180806020018281038252602a81526020018061473c602a913960400191505060405180910390fd5b82614146858463ffffffff61439e16565b8161414d57fe5b04949350505050565b600080826001600160a01b0316846001600160a01b031614156141aa5760405162461bcd60e51b81526004018080602001828103825260278152602001806146d16027913960400191505060405180910390fd5b826001600160a01b0316846001600160a01b0316106141ca5782846141cd565b83835b90925090506001600160a01b03821661422d576040805162461bcd60e51b815260206004820181905260248201527f42697467657274537761704c6962726172793a205a45524f5f41444452455353604482015290519081900360640190fd5b9250929050565b604080516001600160a01b038481166024830152604480830185905283518084039091018152606490920183526020820180516001600160e01b031663a9059cbb60e01b178152925182516000946060949389169392918291908083835b602083106142b15780518252601f199092019160209182019101614292565b6001836020036101000a0380198251168184511680821785525050505050509050019150506000604051808303816000865af19150503d8060008114614313576040519150601f19603f3d011682016040523d82523d6000602084013e614318565b606091505b5091509150818015614346575080511580614346575080806020019051602081101561434357600080fd5b50515b614397576040805162461bcd60e51b815260206004820152601f60248201527f5472616e7366657248656c7065723a205452414e534645525f4641494c454400604482015290519081900360640190fd5b5050505050565b6000826143ad57506000610e1a565b828202828482816143ba57fe5b0414610e175760405162461bcd60e51b81526004018080602001828103825260218152602001806146f86021913960400191505060405180910390fd5b600082820183811015610e17576040805162461bcd60e51b815260206004820152601b60248201527f536166654d6174683a206164646974696f6e206f766572666c6f770000000000604482015290519081900360640190fd5b60008060006144608585614156565b509050600080614471888888613197565b6001600160a01b0316630902f1ac6040518163ffffffff1660e01b815260040160606040518083038186803b1580156144a957600080fd5b505afa1580156144bd573d6000803e3d6000fd5b505050506040513d60608110156144d357600080fd5b5080516020909101516001600160701b0391821693501690506001600160a01b0387811690841614614506578082614509565b81815b90999098509650505050505050565b600081848411156145a75760405162461bcd60e51b81526004018080602001828103825283818151815260200191508051906020019080838360005b8381101561456c578181015183820152602001614554565b50505050905090810190601f1680156145995780820380516001836020036101000a031916815260200191505b509250505060405180910390fd5b50505090039056fe4269746765727453776170526f757465723a204558434553534956455f494e5055545f414d4f554e544269746765727453776170526f757465723a20494e53554646494349454e545f415f414d4f554e544269746765727453776170526f757465723a20494e53554646494349454e545f4f55545055545f414d4f554e5442697467657274537761704c6962726172793a20494e53554646494349454e545f4f55545055545f414d4f554e544269746765727453776170526f757465723a20494e53554646494349454e545f425f414d4f554e544269746765727453776170526f757465723a20494e56414c49445f504154480042697467657274537761704c6962726172793a20494e53554646494349454e545f494e5055545f414d4f554e5442697467657274537761704c6962726172793a204944454e544943414c5f414444524553534553536166654d6174683a206d756c7469706c69636174696f6e206f766572666c6f775472616e7366657248656c7065723a20424e425f5452414e534645525f4641494c454442697467657274537761704c6962726172793a20494e53554646494349454e545f4c49515549444954594269746765727453776170526f757465723a204558504952454400000000000042697467657274537761704c6962726172793a20494e53554646494349454e545f414d4f554e545472616e7366657248656c7065723a205452414e534645525f46524f4d5f4641494c4544a26469706673582212208351442b631c8b53a4cd519cdebfa36a3c4a3a834aed21320dd67f534dcdf6aa64736f6c6343000606003360a06040526003805460ff1916600117905534801561001d57600080fd5b50604051610b35380380610b358339818101604052604081101561004057600080fd5b5080516020909101513360601b608052600080546001600160a01b039384166001600160a01b0319918216179091556001805493909216921691909117905560805160601c610a8f6100a660003980610605528061069c52806107365250610a8f6000f3fe608060405234801561001057600080fd5b50600436106100935760003560e01c8063d93c1f6811610066578063d93c1f681461013f578063de75584e1461015e578063e8e56088146101a3578063ef6bdb0e146101bd578063f9f92be4146101d957610093565b8063379607f51461009857806371bb61f3146100b75780639155e083146100e3578063a68c0e6a14610111575b600080fd5b6100b5600480360360208110156100ae57600080fd5b50356101ff565b005b6100b5600480360360408110156100cd57600080fd5b50803590602001356001600160a01b0316610425565b6100b5600480360360408110156100f957600080fd5b506001600160a01b0381351690602001351515610603565b6100b56004803603604081101561012757600080fd5b506001600160a01b038135811691602001351661069a565b6100b56004803603602081101561015557600080fd5b50351515610734565b61018a6004803603604081101561017457600080fd5b506001600160a01b0381351690602001356107b3565b6040805192835260208301919091528051918290030190f35b6101ab6107ec565b60408051918252519081900360200190f35b6101c56107ff565b604080519115158252519081900360200190f35b6101c5600480360360208110156101ef57600080fd5b50356001600160a01b0316610808565b33600090815260046020526040812080548390811061021a57fe5b9060005260206000209060020201600001541161027e576040805162461bcd60e51b815260206004820152601860248201527f506f73697469766520616d6f756e742065787065637465640000000000000000604482015290519081900360640190fd5b33600090815260046020526040902080548290811061029957fe5b906000526020600020906002020160010154623b5380014210156102f6576040805162461bcd60e51b815260206004820152600f60248201526e18d85b89dd0818db185a5b481e595d608a1b604482015290519081900360640190fd5b33600090815260046020526040812080548390811061031157fe5b600091825260208083206002909202909101543383526004909152604082208054919350908490811061034057fe5b600091825260208083206002909202909101929092556001546040805163a9059cbb60e01b815233600482015260248101869052905192936001600160a01b039092169263a9059cbb9260448084019391929182900301818787803b1580156103a857600080fd5b505af11580156103bc573d6000803e3d6000fd5b505050506040513d60208110156103d257600080fd5b5051905080610420576040805162461bcd60e51b8152602060048201526015602482015274151bdad95b881d1c985b9cd9995c8819985a5b1959605a1b604482015290519081900360640190fd5b505050565b6001600160a01b03811660009081526002602052604090205460ff1615610482576040805162461bcd60e51b815260206004820152600c60248201526b1a5b97d89b1858dadb1a5cdd60a21b604482015290519081900360640190fd5b60035460ff16156105ff57600082116104e2576040805162461bcd60e51b815260206004820152601f60248201527f616d6f756e742073686f756c64206265206d6f7265207468616e207a65726f00604482015290519081900360640190fd5b6001600160a01b03811661052f576040805162461bcd60e51b815260206004820152600f60248201526e1859191c995cdcc81a5b9d985b1a59608a1b604482015290519081900360640190fd5b600154600054604080516370a0823160e01b81526001600160a01b0392831660048201529051859392909216916370a0823191602480820192602092909190829003018186803b15801561058257600080fd5b505afa158015610596573d6000803e3d6000fd5b505050506040513d60208110156105ac57600080fd5b505110156105f5576040805162461bcd60e51b81526020600482015260116024820152704e6f7420656e6f75676820746f6b656e7360781b604482015290519081900360640190fd5b6105ff818361081d565b5050565b7f00000000000000000000000000000000000000000000000000000000000000006001600160a01b0316331461066f576040805162461bcd60e51b815260206004820152600c60248201526b2737ba1030b71037bbb732b960a11b604482015290519081900360640190fd5b6001600160a01b03919091166000908152600260205260409020805460ff1916911515919091179055565b7f00000000000000000000000000000000000000000000000000000000000000006001600160a01b03163314610706576040805162461bcd60e51b815260206004820152600c60248201526b2737ba1030b71037bbb732b960a11b604482015290519081900360640190fd5b600080546001600160a01b039384166001600160a01b03199182161790915560018054929093169116179055565b7f00000000000000000000000000000000000000000000000000000000000000006001600160a01b031633146107a0576040805162461bcd60e51b815260206004820152600c60248201526b2737ba1030b71037bbb732b960a11b604482015290519081900360640190fd5b6003805460ff1916911515919091179055565b600460205281600052604060002081815481106107cc57fe5b600091825260209091206002909102018054600190910154909250905082565b3360009081526004602052604090205490565b60035460ff1681565b60026020526000908152604090205460ff1681565b60015460005460408051636eb1769f60e11b81526001600160a01b03928316600482015230602482015290518493929092169163dd62ed3e91604480820192602092909190829003018186803b15801561087657600080fd5b505afa15801561088a573d6000803e3d6000fd5b505050506040513d60208110156108a057600080fd5b505110156108f5576040805162461bcd60e51b815260206004820152601960248201527f546f6b656e203120616c6c6f77616e636520746f6f206c6f7700000000000000604482015290519081900360640190fd5b6105ff828260015460008054604080516323b872dd60e01b81526001600160a01b039283166004820152306024820152604481018690529051929391909116916323b872dd9160648082019260209290919082900301818787803b15801561095c57600080fd5b505af1158015610970573d6000803e3d6000fd5b505050506040513d602081101561098657600080fd5b50519050806109d4576040805162461bcd60e51b8152602060048201526015602482015274151bdad95b881d1c985b9cd9995c8819985a5b1959605a1b604482015290519081900360640190fd5b8015610420576001600160a01b03831660008181526004602090815260408083208151808301835287815242818501818152835460018181018655948852958720925160029096029092019485559051939091019290925551859391927f4360f5320ef452a3ac552e563b0a7ad91b6dd31f258c6c47bdc47ca05f97e0b391a450505056fea26469706673582212204051a4e427d0af73e60b8cab537d2a959823196eb430c7f42a17a28fb483137064736f6c63430006060033",
  "linkReferences": {},
  "deployedLinkReferences": {}
}