{
  "_format": "hh-sol-artifact-1",
  "contractName": "BitgertSwapRouter",
  "sourceName": "contracts/BitgertSwapRouter.sol",
  "abi": [
    {
      "inputs": [
        {
          "internalType": "address",
          "name": "_factory",
          "type": "address"
        },
        {
          "internalType": "address",
          "name": "_WBRISE",
          "type": "address"
        },
        {
          "internalType": "address",
          "name": "_rewardToken",
          "type": "address"
        }
      ],
      "stateMutability": "nonpayable",
      "type": "constructor"
    },
    {
      "inputs": [],
      "name": "WBRISE",
      "outputs": [
        {
          "internalType": "address",
          "name": "",
          "type": "address"
        }
      ],
      "stateMutability": "view",
      "type": "function"
    },
    {
      "inputs": [
        {
          "internalType": "address",
          "name": "tokenA",
          "type": "address"
        },
        {
          "internalType": "address",
          "name": "tokenB",
          "type": "address"
        },
        {
          "internalType": "uint256",
          "name": "amountADesired",
          "type": "uint256"
        },
        {
          "internalType": "uint256",
          "name": "amountBDesired",
          "type": "uint256"
        },
        {
          "internalType": "uint256",
          "name": "amountAMin",
          "type": "uint256"
        },
        {
          "internalType": "uint256",
          "name": "amountBMin",
          "type": "uint256"
        },
        {
          "internalType": "address",
          "name": "to",
          "type": "address"
        },
        {
          "internalType": "uint256",
          "name": "deadline",
          "type": "uint256"
        }
      ],
      "name": "addLiquidity",
      "outputs": [
        {
          "internalType": "uint256",
          "name": "amountA",
          "type": "uint256"
        },
        {
          "internalType": "uint256",
          "name": "amountB",
          "type": "uint256"
        },
        {
          "internalType": "uint256",
          "name": "liquidity",
          "type": "uint256"
        }
      ],
      "stateMutability": "nonpayable",
      "type": "function"
    },
    {
      "inputs": [
        {
          "internalType": "address",
          "name": "token",
          "type": "address"
        },
        {
          "internalType": "uint256",
          "name": "amountTokenDesired",
          "type": "uint256"
        },
        {
          "internalType": "uint256",
          "name": "amountTokenMin",
          "type": "uint256"
        },
        {
          "internalType": "uint256",
          "name": "amountBRISEMin",
          "type": "uint256"
        },
        {
          "internalType": "address",
          "name": "to",
          "type": "address"
        },
        {
          "internalType": "uint256",
          "name": "deadline",
          "type": "uint256"
        }
      ],
      "name": "addLiquidityBRISE",
      "outputs": [
        {
          "internalType": "uint256",
          "name": "amountToken",
          "type": "uint256"
        },
        {
          "internalType": "uint256",
          "name": "amountBRISE",
          "type": "uint256"
        },
        {
          "internalType": "uint256",
          "name": "liquidity",
          "type": "uint256"
        }
      ],
      "stateMutability": "payable",
      "type": "function"
    },
    {
      "inputs": [],
      "name": "divisionResult1",
      "outputs": [
        {
          "internalType": "uint256",
          "name": "",
          "type": "uint256"
        }
      ],
      "stateMutability": "view",
      "type": "function"
    },
    {
      "inputs": [],
      "name": "divisionResult2",
      "outputs": [
        {
          "internalType": "uint256",
          "name": "",
          "type": "uint256"
        }
      ],
      "stateMutability": "view",
      "type": "function"
    },
    {
      "inputs": [],
      "name": "factory",
      "outputs": [
        {
          "internalType": "address",
          "name": "",
          "type": "address"
        }
      ],
      "stateMutability": "view",
      "type": "function"
    },
    {
      "inputs": [
        {
          "internalType": "uint256",
          "name": "amountOut",
          "type": "uint256"
        },
        {
          "internalType": "uint256",
          "name": "reserveIn",
          "type": "uint256"
        },
        {
          "internalType": "uint256",
          "name": "reserveOut",
          "type": "uint256"
        }
      ],
      "name": "getAmountIn",
      "outputs": [
        {
          "internalType": "uint256",
          "name": "amountIn",
          "type": "uint256"
        }
      ],
      "stateMutability": "pure",
      "type": "function"
    },
    {
      "inputs": [
        {
          "internalType": "uint256",
          "name": "amountIn",
          "type": "uint256"
        },
        {
          "internalType": "uint256",
          "name": "reserveIn",
          "type": "uint256"
        },
        {
          "internalType": "uint256",
          "name": "reserveOut",
          "type": "uint256"
        }
      ],
      "name": "getAmountOut",
      "outputs": [
        {
          "internalType": "uint256",
          "name": "amountOut",
          "type": "uint256"
        }
      ],
      "stateMutability": "pure",
      "type": "function"
    },
    {
      "inputs": [
        {
          "internalType": "uint256",
          "name": "amountOut",
          "type": "uint256"
        },
        {
          "internalType": "address[]",
          "name": "path",
          "type": "address[]"
        }
      ],
      "name": "getAmountsIn",
      "outputs": [
        {
          "internalType": "uint256[]",
          "name": "amounts",
          "type": "uint256[]"
        }
      ],
      "stateMutability": "view",
      "type": "function"
    },
    {
      "inputs": [
        {
          "internalType": "uint256",
          "name": "amountIn",
          "type": "uint256"
        },
        {
          "internalType": "address[]",
          "name": "path",
          "type": "address[]"
        }
      ],
      "name": "getAmountsOut",
      "outputs": [
        {
          "internalType": "uint256[]",
          "name": "amounts",
          "type": "uint256[]"
        }
      ],
      "stateMutability": "view",
      "type": "function"
    },
    {
      "inputs": [],
      "name": "inputAmount1",
      "outputs": [
        {
          "internalType": "uint256",
          "name": "",
          "type": "uint256"
        }
      ],
      "stateMutability": "view",
      "type": "function"
    },
    {
      "inputs": [],
      "name": "inputAmount2",
      "outputs": [
        {
          "internalType": "uint256",
          "name": "",
          "type": "uint256"
        }
      ],
      "stateMutability": "view",
      "type": "function"
    },
    {
      "inputs": [],
      "name": "outputAmount1",
      "outputs": [
        {
          "internalType": "uint256",
          "name": "",
          "type": "uint256"
        }
      ],
      "stateMutability": "view",
      "type": "function"
    },
    {
      "inputs": [],
      "name": "outputAmount2",
      "outputs": [
        {
          "internalType": "uint256",
          "name": "",
          "type": "uint256"
        }
      ],
      "stateMutability": "view",
      "type": "function"
    },
    {
      "inputs": [
        {
          "internalType": "uint256",
          "name": "amountA",
          "type": "uint256"
        },
        {
          "internalType": "uint256",
          "name": "reserveA",
          "type": "uint256"
        },
        {
          "internalType": "uint256",
          "name": "reserveB",
          "type": "uint256"
        }
      ],
      "name": "quote",
      "outputs": [
        {
          "internalType": "uint256",
          "name": "amountB",
          "type": "uint256"
        }
      ],
      "stateMutability": "pure",
      "type": "function"
    },
    {
      "inputs": [
        {
          "internalType": "address",
          "name": "tokenA",
          "type": "address"
        },
        {
          "internalType": "address",
          "name": "tokenB",
          "type": "address"
        },
        {
          "internalType": "uint256",
          "name": "liquidity",
          "type": "uint256"
        },
        {
          "internalType": "uint256",
          "name": "amountAMin",
          "type": "uint256"
        },
        {
          "internalType": "uint256",
          "name": "amountBMin",
          "type": "uint256"
        },
        {
          "internalType": "address",
          "name": "to",
          "type": "address"
        },
        {
          "internalType": "uint256",
          "name": "deadline",
          "type": "uint256"
        }
      ],
      "name": "removeLiquidity",
      "outputs": [
        {
          "internalType": "uint256",
          "name": "amountA",
          "type": "uint256"
        },
        {
          "internalType": "uint256",
          "name": "amountB",
          "type": "uint256"
        }
      ],
      "stateMutability": "nonpayable",
      "type": "function"
    },
    {
      "inputs": [
        {
          "internalType": "address",
          "name": "token",
          "type": "address"
        },
        {
          "internalType": "uint256",
          "name": "liquidity",
          "type": "uint256"
        },
        {
          "internalType": "uint256",
          "name": "amountTokenMin",
          "type": "uint256"
        },
        {
          "internalType": "uint256",
          "name": "amountBRISEMin",
          "type": "uint256"
        },
        {
          "internalType": "address",
          "name": "to",
          "type": "address"
        },
        {
          "internalType": "uint256",
          "name": "deadline",
          "type": "uint256"
        }
      ],
      "name": "removeLiquidityBRISE",
      "outputs": [
        {
          "internalType": "uint256",
          "name": "amountToken",
          "type": "uint256"
        },
        {
          "internalType": "uint256",
          "name": "amountBRISE",
          "type": "uint256"
        }
      ],
      "stateMutability": "nonpayable",
      "type": "function"
    },
    {
      "inputs": [
        {
          "internalType": "address",
          "name": "token",
          "type": "address"
        },
        {
          "internalType": "uint256",
          "name": "liquidity",
          "type": "uint256"
        },
        {
          "internalType": "uint256",
          "name": "amountTokenMin",
          "type": "uint256"
        },
        {
          "internalType": "uint256",
          "name": "amountBRISEMin",
          "type": "uint256"
        },
        {
          "internalType": "address",
          "name": "to",
          "type": "address"
        },
        {
          "internalType": "uint256",
          "name": "deadline",
          "type": "uint256"
        }
      ],
      "name": "removeLiquidityBRISESupportingFeeOnTransferTokens",
      "outputs": [
        {
          "internalType": "uint256",
          "name": "amountBRISE",
          "type": "uint256"
        }
      ],
      "stateMutability": "nonpayable",
      "type": "function"
    },
    {
      "inputs": [
        {
          "internalType": "address",
          "name": "token",
          "type": "address"
        },
        {
          "internalType": "uint256",
          "name": "liquidity",
          "type": "uint256"
        },
        {
          "internalType": "uint256",
          "name": "amountTokenMin",
          "type": "uint256"
        },
        {
          "internalType": "uint256",
          "name": "amountBRISEMin",
          "type": "uint256"
        },
        {
          "internalType": "address",
          "name": "to",
          "type": "address"
        },
        {
          "internalType": "uint256",
          "name": "deadline",
          "type": "uint256"
        },
        {
          "internalType": "bool",
          "name": "approveMax",
          "type": "bool"
        },
        {
          "internalType": "uint8",
          "name": "v",
          "type": "uint8"
        },
        {
          "internalType": "bytes32",
          "name": "r",
          "type": "bytes32"
        },
        {
          "internalType": "bytes32",
          "name": "s",
          "type": "bytes32"
        }
      ],
      "name": "removeLiquidityBRISEWithPermit",
      "outputs": [
        {
          "internalType": "uint256",
          "name": "amountToken",
          "type": "uint256"
        },
        {
          "internalType": "uint256",
          "name": "amountBRISE",
          "type": "uint256"
        }
      ],
      "stateMutability": "nonpayable",
      "type": "function"
    },
    {
      "inputs": [
        {
          "internalType": "address",
          "name": "token",
          "type": "address"
        },
        {
          "internalType": "uint256",
          "name": "liquidity",
          "type": "uint256"
        },
        {
          "internalType": "uint256",
          "name": "amountTokenMin",
          "type": "uint256"
        },
        {
          "internalType": "uint256",
          "name": "amountBRISEMin",
          "type": "uint256"
        },
        {
          "internalType": "address",
          "name": "to",
          "type": "address"
        },
        {
          "internalType": "uint256",
          "name": "deadline",
          "type": "uint256"
        },
        {
          "internalType": "bool",
          "name": "approveMax",
          "type": "bool"
        },
        {
          "internalType": "uint8",
          "name": "v",
          "type": "uint8"
        },
        {
          "internalType": "bytes32",
          "name": "r",
          "type": "bytes32"
        },
        {
          "internalType": "bytes32",
          "name": "s",
          "type": "bytes32"
        }
      ],
      "name": "removeLiquidityBRISEWithPermitSupportingFeeOnTransferTokens",
      "outputs": [
        {
          "internalType": "uint256",
          "name": "amountBRISE",
          "type": "uint256"
        }
      ],
      "stateMutability": "nonpayable",
      "type": "function"
    },
    {
      "inputs": [
        {
          "internalType": "address",
          "name": "tokenA",
          "type": "address"
        },
        {
          "internalType": "address",
          "name": "tokenB",
          "type": "address"
        },
        {
          "internalType": "uint256",
          "name": "liquidity",
          "type": "uint256"
        },
        {
          "internalType": "uint256",
          "name": "amountAMin",
          "type": "uint256"
        },
        {
          "internalType": "uint256",
          "name": "amountBMin",
          "type": "uint256"
        },
        {
          "internalType": "address",
          "name": "to",
          "type": "address"
        },
        {
          "internalType": "uint256",
          "name": "deadline",
          "type": "uint256"
        },
        {
          "internalType": "bool",
          "name": "approveMax",
          "type": "bool"
        },
        {
          "internalType": "uint8",
          "name": "v",
          "type": "uint8"
        },
        {
          "internalType": "bytes32",
          "name": "r",
          "type": "bytes32"
        },
        {
          "internalType": "bytes32",
          "name": "s",
          "type": "bytes32"
        }
      ],
      "name": "removeLiquidityWithPermit",
      "outputs": [
        {
          "internalType": "uint256",
          "name": "amountA",
          "type": "uint256"
        },
        {
          "internalType": "uint256",
          "name": "amountB",
          "type": "uint256"
        }
      ],
      "stateMutability": "nonpayable",
      "type": "function"
    },
    {
      "inputs": [],
      "name": "reward",
      "outputs": [
        {
          "internalType": "contract Reward",
          "name": "",
          "type": "address"
        }
      ],
      "stateMutability": "view",
      "type": "function"
    },
    {
      "inputs": [
        {
          "internalType": "uint256",
          "name": "amountOut",
          "type": "uint256"
        },
        {
          "internalType": "address[]",
          "name": "path",
          "type": "address[]"
        },
        {
          "internalType": "address",
          "name": "to",
          "type": "address"
        },
        {
          "internalType": "uint256",
          "name": "deadline",
          "type": "uint256"
        }
      ],
      "name": "swapBRISEForExactTokens",
      "outputs": [
        {
          "internalType": "uint256[]",
          "name": "amounts",
          "type": "uint256[]"
        }
      ],
      "stateMutability": "payable",
      "type": "function"
    },
    {
      "inputs": [
        {
          "internalType": "uint256",
          "name": "amountOutMin",
          "type": "uint256"
        },
        {
          "internalType": "address[]",
          "name": "path",
          "type": "address[]"
        },
        {
          "internalType": "address",
          "name": "to",
          "type": "address"
        },
        {
          "internalType": "uint256",
          "name": "deadline",
          "type": "uint256"
        }
      ],
      "name": "swapExactBRISEForTokens",
      "outputs": [
        {
          "internalType": "uint256[]",
          "name": "amounts",
          "type": "uint256[]"
        }
      ],
      "stateMutability": "payable",
      "type": "function"
    },
    {
      "inputs": [
        {
          "internalType": "uint256",
          "name": "amountOutMin",
          "type": "uint256"
        },
        {
          "internalType": "address[]",
          "name": "path",
          "type": "address[]"
        },
        {
          "internalType": "address",
          "name": "to",
          "type": "address"
        },
        {
          "internalType": "uint256",
          "name": "deadline",
          "type": "uint256"
        }
      ],
      "name": "swapExactBRISEForTokensSupportingFeeOnTransferTokens",
      "outputs": [],
      "stateMutability": "payable",
      "type": "function"
    },
    {
      "inputs": [
        {
          "internalType": "uint256",
          "name": "amountIn",
          "type": "uint256"
        },
        {
          "internalType": "uint256",
          "name": "amountOutMin",
          "type": "uint256"
        },
        {
          "internalType": "address[]",
          "name": "path",
          "type": "address[]"
        },
        {
          "internalType": "address",
          "name": "to",
          "type": "address"
        },
        {
          "internalType": "uint256",
          "name": "deadline",
          "type": "uint256"
        }
      ],
      "name": "swapExactTokensForBRISE",
      "outputs": [
        {
          "internalType": "uint256[]",
          "name": "amounts",
          "type": "uint256[]"
        }
      ],
      "stateMutability": "nonpayable",
      "type": "function"
    },
    {
      "inputs": [
        {
          "internalType": "uint256",
          "name": "amountIn",
          "type": "uint256"
        },
        {
          "internalType": "uint256",
          "name": "amountOutMin",
          "type": "uint256"
        },
        {
          "internalType": "address[]",
          "name": "path",
          "type": "address[]"
        },
        {
          "internalType": "address",
          "name": "to",
          "type": "address"
        },
        {
          "internalType": "uint256",
          "name": "deadline",
          "type": "uint256"
        }
      ],
      "name": "swapExactTokensForBRISESupportingFeeOnTransferTokens",
      "outputs": [],
      "stateMutability": "nonpayable",
      "type": "function"
    },
    {
      "inputs": [
        {
          "internalType": "uint256",
          "name": "amountIn",
          "type": "uint256"
        },
        {
          "internalType": "uint256",
          "name": "amountOutMin",
          "type": "uint256"
        },
        {
          "internalType": "address[]",
          "name": "path",
          "type": "address[]"
        },
        {
          "internalType": "address",
          "name": "to",
          "type": "address"
        },
        {
          "internalType": "uint256",
          "name": "deadline",
          "type": "uint256"
        }
      ],
      "name": "swapExactTokensForTokens",
      "outputs": [
        {
          "internalType": "uint256[]",
          "name": "amounts",
          "type": "uint256[]"
        }
      ],
      "stateMutability": "nonpayable",
      "type": "function"
    },
    {
      "inputs": [
        {
          "internalType": "uint256",
          "name": "amountIn",
          "type": "uint256"
        },
        {
          "internalType": "uint256",
          "name": "amountOutMin",
          "type": "uint256"
        },
        {
          "internalType": "address[]",
          "name": "path",
          "type": "address[]"
        },
        {
          "internalType": "address",
          "name": "to",
          "type": "address"
        },
        {
          "internalType": "uint256",
          "name": "deadline",
          "type": "uint256"
        }
      ],
      "name": "swapExactTokensForTokensSupportingFeeOnTransferTokens",
      "outputs": [],
      "stateMutability": "nonpayable",
      "type": "function"
    },
    {
      "inputs": [
        {
          "internalType": "uint256",
          "name": "amountOut",
          "type": "uint256"
        },
        {
          "internalType": "uint256",
          "name": "amountInMax",
          "type": "uint256"
        },
        {
          "internalType": "address[]",
          "name": "path",
          "type": "address[]"
        },
        {
          "internalType": "address",
          "name": "to",
          "type": "address"
        },
        {
          "internalType": "uint256",
          "name": "deadline",
          "type": "uint256"
        }
      ],
      "name": "swapTokensForExactBRISE",
      "outputs": [
        {
          "internalType": "uint256[]",
          "name": "amounts",
          "type": "uint256[]"
        }
      ],
      "stateMutability": "nonpayable",
      "type": "function"
    },
    {
      "inputs": [
        {
          "internalType": "uint256",
          "name": "amountOut",
          "type": "uint256"
        },
        {
          "internalType": "uint256",
          "name": "amountInMax",
          "type": "uint256"
        },
        {
          "internalType": "address[]",
          "name": "path",
          "type": "address[]"
        },
        {
          "internalType": "address",
          "name": "to",
          "type": "address"
        },
        {
          "internalType": "uint256",
          "name": "deadline",
          "type": "uint256"
        }
      ],
      "name": "swapTokensForExactTokens",
      "outputs": [
        {
          "internalType": "uint256[]",
          "name": "amounts",
          "type": "uint256[]"
        }
      ],
      "stateMutability": "nonpayable",
      "type": "function"
    },
    {
      "inputs": [
        {
          "internalType": "uint256",
          "name": "",
          "type": "uint256"
        }
      ],
      "name": "tokenPair",
      "outputs": [
        {
          "internalType": "address",
          "name": "",
          "type": "address"
        }
      ],
      "stateMutability": "view",
      "type": "function"
    },
    {
      "inputs": [
        {
          "internalType": "uint256",
          "name": "",
          "type": "uint256"
        }
      ],
      "name": "tokenPairReversed",
      "outputs": [
        {
          "internalType": "address",
          "name": "",
          "type": "address"
        }
      ],
      "stateMutability": "view",
      "type": "function"
    },
    {
      "stateMutability": "payable",
      "type": "receive"
    }
  ],
  "bytecode": "0x60c06040523480156200001157600080fd5b5060405162005abc38038062005abc833981810160405260608110156200003757600080fd5b50805160208201516040928301516001600160601b0319606084811b821660805283901b1660a05292519192909133908290620000749062000169565b6001600160a01b03928316815291166020820152604080519182900301906000f080158015620000a8573d6000803e3d6000fd5b50600280546001600160a01b03199081166001600160a01b039384161790915560008054600181810183557f290decd9548b62a8d60345a988386fc84ba6bc95484008f6362f93160ef3e5639182018054851690558254808201845590910180548416968516968717905580548082018255918190527fb10e2d527612073b26eecdfd717e6a320cf44b4afac2b0732d9fcbe2b7fa0cf691820180548416909617909555845480860190955593909301805490931691161790555062000177565b610b698062004f5383390190565b60805160601c60a05160601c614ca4620002af600039806102025280610e6052806110f8528061123e52806112c6528061166552806117a852806118305280611c2a5280611df35280611e495280611e7d5280611ef152806120975280612194528061224a52806122fc52806126855280612815528061291652806129515280612a805280612b155280612b895280612f5a528061313752806131e6528061385e5280613f84525080610e3e5280610f4b5280610f84528061118b52806112f85280611483528061155a52806116f852806118625280611a0c5280611ca45280611e2752806122da528061243f528061271352806129e55280612a0e5280612bbb5280612e315280612fe8528061374f52806137925280613d2b5280613eaa528061430552806143b352806144335250614ca46000f3fe6080604052600436106101f25760003560e01c806385f8c2591161010d578063be631baf116100a0578063d91084471161006f578063d910844714610c3d578063de1b299514610cc1578063e8e3370014610cd6578063ecf7f16c14610d38578063fd2baef114610dce5761022b565b8063be631baf14610b0b578063c45a015514610b5e578063d06ca61f14610b73578063d445bd4214610c285761022b565b8063961adc28116100dc578063961adc281461096f578063ad615dec146109e2578063baa2abde14610a18578063be41ff7a14610a755761022b565b806385f8c259146107a95780638803dbee146107df5780638c310b9e146108755780638e59e598146108d95761022b565b806338ed1739116101855780635c11d795116101545780635c11d795146106d45780635d976c321461076a5780637606bab41461077f578063818857c3146107945761022b565b806338ed17391461057b5780633d1802a21461061157806347879e2f1461063b5780634e4c14b2146106505761022b565b8063228cb733116101c1578063228cb733146104875780632b25e772146104b85780632c0acd5e146104cd578063334b8029146104f75761022b565b8063054d50d4146102305780630ce7cfef146102785780631f00ca74146102eb5780632195995c146103f05761022b565b3661022b57336001600160a01b037f0000000000000000000000000000000000000000000000000000000000000000161461022957fe5b005b600080fd5b34801561023c57600080fd5b506102666004803603606081101561025357600080fd5b5080359060208101359060400135610e21565b60408051918252519081900360200190f35b34801561028457600080fd5b50610266600480360361014081101561029c57600080fd5b506001600160a01b0381358116916020810135916040820135916060810135916080820135169060a08101359060c081013515159060ff60e08201351690610100810135906101200135610e36565b3480156102f757600080fd5b506103a06004803603604081101561030e57600080fd5b81359190810190604081016020820135600160201b81111561032f57600080fd5b82018360208201111561034157600080fd5b803590602001918460208302840111600160201b8311171561036257600080fd5b919080806020026020016040519081016040528093929190818152602001838360200280828437600092019190915250929550610f44945050505050565b60408051602080825283518183015283519192839290830191858101910280838360005b838110156103dc5781810151838201526020016103c4565b505050509050019250505060405180910390f35b3480156103fc57600080fd5b5061046e600480360361016081101561041457600080fd5b506001600160a01b038135811691602081013582169160408201359160608101359160808201359160a08101359091169060c08101359060e081013515159060ff6101008201351690610120810135906101400135610f7a565b6040805192835260208301919091528051918290030190f35b34801561049357600080fd5b5061049c611074565b604080516001600160a01b039092168252519081900360200190f35b3480156104c457600080fd5b50610266611083565b3480156104d957600080fd5b5061049c600480360360208110156104f057600080fd5b5035611089565b6103a06004803603608081101561050d57600080fd5b81359190810190604081016020820135600160201b81111561052e57600080fd5b82018360208201111561054057600080fd5b803590602001918460208302840111600160201b8311171561056157600080fd5b91935091506001600160a01b0381351690602001356110b0565b34801561058757600080fd5b506103a0600480360360a081101561059e57600080fd5b813591602081013591810190606081016040820135600160201b8111156105c457600080fd5b8201836020820111156105d657600080fd5b803590602001918460208302840111600160201b831117156105f757600080fd5b91935091506001600160a01b038135169060200135611438565b34801561061d57600080fd5b5061049c6004803603602081101561063457600080fd5b503561160a565b34801561064757600080fd5b50610266611617565b6103a06004803603608081101561066657600080fd5b81359190810190604081016020820135600160201b81111561068757600080fd5b82018360208201111561069957600080fd5b803590602001918460208302840111600160201b831117156106ba57600080fd5b91935091506001600160a01b03813516906020013561161d565b3480156106e057600080fd5b50610229600480360360a08110156106f757600080fd5b813591602081013591810190606081016040820135600160201b81111561071d57600080fd5b82018360208201111561072f57600080fd5b803590602001918460208302840111600160201b8311171561075057600080fd5b91935091506001600160a01b0381351690602001356119a2565b34801561077657600080fd5b50610266611c1c565b34801561078b57600080fd5b50610266611c22565b3480156107a057600080fd5b5061049c611c28565b3480156107b557600080fd5b50610266600480360360608110156107cc57600080fd5b5080359060208101359060400135611c4c565b3480156107eb57600080fd5b506103a0600480360360a081101561080257600080fd5b813591602081013591810190606081016040820135600160201b81111561082857600080fd5b82018360208201111561083a57600080fd5b803590602001918460208302840111600160201b8311171561085b57600080fd5b91935091506001600160a01b038135169060200135611c59565b6108bb600480360360c081101561088b57600080fd5b506001600160a01b0381358116916020810135916040820135916060810135916080820135169060a00135611da4565b60408051938452602084019290925282820152519081900360600190f35b3480156108e557600080fd5b50610229600480360360a08110156108fc57600080fd5b813591602081013591810190606081016040820135600160201b81111561092257600080fd5b82018360208201111561093457600080fd5b803590602001918460208302840111600160201b8311171561095557600080fd5b91935091506001600160a01b038135169060200135612049565b34801561097b57600080fd5b5061046e600480360361014081101561099357600080fd5b506001600160a01b0381358116916020810135916040820135916060810135916080820135169060a08101359060c081013515159060ff60e082013516906101008101359061012001356122d0565b3480156109ee57600080fd5b5061026660048036036060811015610a0557600080fd5b50803590602081013590604001356123e4565b348015610a2457600080fd5b5061046e600480360360e0811015610a3b57600080fd5b506001600160a01b038135811691602081013582169160408201359160608101359160808201359160a08101359091169060c001356123f1565b348015610a8157600080fd5b506103a0600480360360a0811015610a9857600080fd5b813591602081013591810190606081016040820135600160201b811115610abe57600080fd5b820183602082011115610ad057600080fd5b803590602001918460208302840111600160201b83111715610af157600080fd5b91935091506001600160a01b038135169060200135612635565b348015610b1757600080fd5b5061046e600480360360c0811015610b2e57600080fd5b506001600160a01b0381358116916020810135916040820135916060810135916080820135169060a001356128c9565b348015610b6a57600080fd5b5061049c6129e3565b348015610b7f57600080fd5b506103a060048036036040811015610b9657600080fd5b81359190810190604081016020820135600160201b811115610bb757600080fd5b820183602082011115610bc957600080fd5b803590602001918460208302840111600160201b83111715610bea57600080fd5b919080806020026020016040519081016040528093929190818152602001838360200280828437600092019190915250929550612a07945050505050565b348015610c3457600080fd5b50610266612a34565b61022960048036036080811015610c5357600080fd5b81359190810190604081016020820135600160201b811115610c7457600080fd5b820183602082011115610c8657600080fd5b803590602001918460208302840111600160201b83111715610ca757600080fd5b91935091506001600160a01b038135169060200135612a3a565b348015610ccd57600080fd5b50610266612dc8565b348015610ce257600080fd5b506108bb6004803603610100811015610cfa57600080fd5b506001600160a01b038135811691602081013582169160408201359160608101359160808201359160a08101359160c0820135169060e00135612dce565b348015610d4457600080fd5b506103a0600480360360a0811015610d5b57600080fd5b813591602081013591810190606081016040820135600160201b811115610d8157600080fd5b820183602082011115610d9357600080fd5b803590602001918460208302840111600160201b83111715610db457600080fd5b91935091506001600160a01b038135169060200135612f0a565b348015610dda57600080fd5b50610266600480360360c0811015610df157600080fd5b506001600160a01b0381358116916020810135916040820135916060810135916080820135169060a001356130eb565b6000610e2e84848461326c565b949350505050565b600080610e847f00000000000000000000000000000000000000000000000000000000000000008d7f000000000000000000000000000000000000000000000000000000000000000061335c565b9050600086610e93578b610e97565b6000195b6040805163d505accf60e01b815233600482015230602482015260448101839052606481018b905260ff8916608482015260a4810188905260c4810187905290519192506001600160a01b0384169163d505accf9160e48082019260009290919082900301818387803b158015610f0d57600080fd5b505af1158015610f21573d6000803e3d6000fd5b50505050610f338d8d8d8d8d8d6130eb565b9d9c50505050505050505050505050565b6060610f717f0000000000000000000000000000000000000000000000000000000000000000848461341c565b90505b92915050565b6000806000610faa7f00000000000000000000000000000000000000000000000000000000000000008f8f61335c565b9050600087610fb9578c610fbd565b6000195b6040805163d505accf60e01b815233600482015230602482015260448101839052606481018c905260ff8a16608482015260a4810189905260c4810188905290519192506001600160a01b0384169163d505accf9160e48082019260009290919082900301818387803b15801561103357600080fd5b505af1158015611047573d6000803e3d6000fd5b5050505061105a8f8f8f8f8f8f8f6123f1565b809450819550505050509b509b9950505050505050505050565b6002546001600160a01b031681565b60065481565b6000818154811061109657fe5b6000918252602090912001546001600160a01b0316905081565b606081428110156110f6576040805162461bcd60e51b815260206004820152601a6024820152600080516020614c04833981519152604482015290519081900360640190fd5b7f00000000000000000000000000000000000000000000000000000000000000006001600160a01b03168686600081811061112d57fe5b905060200201356001600160a01b03166001600160a01b031614611186576040805162461bcd60e51b815260206004820152601f6024820152600080516020614b22833981519152604482015290519081900360640190fd5b6111e47f00000000000000000000000000000000000000000000000000000000000000003488888080602002602001604051908101604052809392919081815260200183836020028082843760009201919091525061356992505050565b915086826001845103815181106111f757fe5b6020026020010151101561123c5760405162461bcd60e51b815260040180806020018281038252602d815260200180614a9f602d913960400191505060405180910390fd5b7f00000000000000000000000000000000000000000000000000000000000000006001600160a01b031663d0e30db08360008151811061127857fe5b60200260200101516040518263ffffffff1660e01b81526004016000604051808303818588803b1580156112ab57600080fd5b505af11580156112bf573d6000803e3d6000fd5b50505050507f00000000000000000000000000000000000000000000000000000000000000006001600160a01b031663a9059cbb6113567f00000000000000000000000000000000000000000000000000000000000000008989600081811061132457fe5b905060200201356001600160a01b03168a8a600181811061134157fe5b905060200201356001600160a01b031661335c565b8460008151811061136357fe5b60200260200101516040518363ffffffff1660e01b815260040180836001600160a01b03166001600160a01b0316815260200182815260200192505050602060405180830381600087803b1580156113ba57600080fd5b505af11580156113ce573d6000803e3d6000fd5b505050506040513d60208110156113e457600080fd5b50516113ec57fe5b61142e34838888808060200260200160405190810160405280939291908181526020018383602002808284376000920191909152508a92508291506136a09050565b5095945050505050565b6060814281101561147e576040805162461bcd60e51b815260206004820152601a6024820152600080516020614c04833981519152604482015290519081900360640190fd5b6114dc7f00000000000000000000000000000000000000000000000000000000000000008988888080602002602001604051908101604052809392919081815260200183836020028082843760009201919091525061356992505050565b915086826001845103815181106114ef57fe5b602002602001015110156115345760405162461bcd60e51b815260040180806020018281038252602d815260200180614a9f602d913960400191505060405180910390fd5b6115bd8686600081811061154457fe5b905060200201356001600160a01b0316336115a37f00000000000000000000000000000000000000000000000000000000000000008a8a600081811061158657fe5b905060200201356001600160a01b03168b8b600181811061134157fe5b856000815181106115b057fe5b6020026020010151613a7f565b6115ff88838888808060200260200160405190810160405280939291908181526020018383602002808284376000920191909152508a92508291506136a09050565b509695505050505050565b6001818154811061109657fe5b60035481565b60608142811015611663576040805162461bcd60e51b815260206004820152601a6024820152600080516020614c04833981519152604482015290519081900360640190fd5b7f00000000000000000000000000000000000000000000000000000000000000006001600160a01b03168686600081811061169a57fe5b905060200201356001600160a01b03166001600160a01b0316146116f3576040805162461bcd60e51b815260206004820152601f6024820152600080516020614b22833981519152604482015290519081900360640190fd5b6117517f00000000000000000000000000000000000000000000000000000000000000008888888080602002602001604051908101604052809392919081815260200183836020028082843760009201919091525061341c92505050565b9150348260008151811061176157fe5b602002602001015111156117a65760405162461bcd60e51b8152600401808060200182810382526029815260200180614a4e6029913960400191505060405180910390fd5b7f00000000000000000000000000000000000000000000000000000000000000006001600160a01b031663d0e30db0836000815181106117e257fe5b60200260200101516040518263ffffffff1660e01b81526004016000604051808303818588803b15801561181557600080fd5b505af1158015611829573d6000803e3d6000fd5b50505050507f00000000000000000000000000000000000000000000000000000000000000006001600160a01b031663a9059cbb61188e7f00000000000000000000000000000000000000000000000000000000000000008989600081811061132457fe5b8460008151811061189b57fe5b60200260200101516040518363ffffffff1660e01b815260040180836001600160a01b03166001600160a01b0316815260200182815260200192505050602060405180830381600087803b1580156118f257600080fd5b505af1158015611906573d6000803e3d6000fd5b505050506040513d602081101561191c57600080fd5b505161192457fe5b61196634838888808060200260200160405190810160405280939291908181526020018383602002808284376000920191909152508a92508291506136a09050565b8160008151811061197357fe5b602002602001015134111561142e5761142e338360008151811061199357fe5b60200260200101513403613bdc565b80428110156119e6576040805162461bcd60e51b815260206004820152601a6024820152600080516020614c04833981519152604482015290519081900360640190fd5b611a3e858560008181106119f657fe5b905060200201356001600160a01b031633611a387f00000000000000000000000000000000000000000000000000000000000000008989600081811061132457fe5b8a613a7f565b600085856000198101818110611a5057fe5b905060200201356001600160a01b03166001600160a01b03166370a08231856040518263ffffffff1660e01b815260040180826001600160a01b03166001600160a01b0316815260200191505060206040518083038186803b158015611ab557600080fd5b505afa158015611ac9573d6000803e3d6000fd5b505050506040513d6020811015611adf57600080fd5b50516040805160208881028281018201909352888252929350611b23928b928a918a918291850190849080828437600092019190915250899250829150613cd49050565b86611bd58288886000198101818110611b3857fe5b905060200201356001600160a01b03166001600160a01b03166370a08231886040518263ffffffff1660e01b815260040180826001600160a01b03166001600160a01b0316815260200191505060206040518083038186803b158015611b9d57600080fd5b505afa158015611bb1573d6000803e3d6000fd5b505050506040513d6020811015611bc757600080fd5b50519063ffffffff6141a216565b1015611c125760405162461bcd60e51b815260040180806020018281038252602d815260200180614a9f602d913960400191505060405180910390fd5b5050505050505050565b60075481565b60055481565b7f000000000000000000000000000000000000000000000000000000000000000081565b6000610e2e8484846141e4565b60608142811015611c9f576040805162461bcd60e51b815260206004820152601a6024820152600080516020614c04833981519152604482015290519081900360640190fd5b611cfd7f00000000000000000000000000000000000000000000000000000000000000008988888080602002602001604051908101604052809392919081815260200183836020028082843760009201919091525061341c92505050565b91508682600081518110611d0d57fe5b60200260200101511115611d525760405162461bcd60e51b8152600401808060200182810382526029815260200180614a4e6029913960400191505060405180910390fd5b611d628686600081811061154457fe5b6115ff87838888808060200260200160405190810160405280939291908181526020018383602002808284376000920191909152508a92508291506136a09050565b60008060008342811015611ded576040805162461bcd60e51b815260206004820152601a6024820152600080516020614c04833981519152604482015290519081900360640190fd5b611e1b8a7f00000000000000000000000000000000000000000000000000000000000000008b348c8c6142d4565b90945092506000611e6d7f00000000000000000000000000000000000000000000000000000000000000008c7f000000000000000000000000000000000000000000000000000000000000000061335c565b9050611e7b8b338388613a7f565b7f00000000000000000000000000000000000000000000000000000000000000006001600160a01b031663d0e30db0856040518263ffffffff1660e01b81526004016000604051808303818588803b158015611ed657600080fd5b505af1158015611eea573d6000803e3d6000fd5b50505050507f00000000000000000000000000000000000000000000000000000000000000006001600160a01b031663a9059cbb82866040518363ffffffff1660e01b815260040180836001600160a01b03166001600160a01b0316815260200182815260200192505050602060405180830381600087803b158015611f6f57600080fd5b505af1158015611f83573d6000803e3d6000fd5b505050506040513d6020811015611f9957600080fd5b5051611fa157fe5b806001600160a01b0316636a627842886040518263ffffffff1660e01b815260040180826001600160a01b03166001600160a01b03168152602001915050602060405180830381600087803b158015611ff957600080fd5b505af115801561200d573d6000803e3d6000fd5b505050506040513d602081101561202357600080fd5b505192503484101561203b5761203b33853403613bdc565b505096509650969350505050565b804281101561208d576040805162461bcd60e51b815260206004820152601a6024820152600080516020614c04833981519152604482015290519081900360640190fd5b6001600160a01b037f000000000000000000000000000000000000000000000000000000000000000016858560001981018181106120c757fe5b905060200201356001600160a01b03166001600160a01b031614612120576040805162461bcd60e51b815260206004820152601f6024820152600080516020614b22833981519152604482015290519081900360640190fd5b612130858560008181106119f657fe5b61217187868680806020026020016040519081016040528093929190818152602001838360200280828437600092019190915250309250889150613cd49050565b604080516370a0823160e01b815230600482015290516000916001600160a01b037f000000000000000000000000000000000000000000000000000000000000000016916370a0823191602480820192602092909190829003018186803b1580156121db57600080fd5b505afa1580156121ef573d6000803e3d6000fd5b505050506040513d602081101561220557600080fd5b50519050868110156122485760405162461bcd60e51b815260040180806020018281038252602d815260200180614a9f602d913960400191505060405180910390fd5b7f00000000000000000000000000000000000000000000000000000000000000006001600160a01b0316632e1a7d4d826040518263ffffffff1660e01b815260040180828152602001915050600060405180830381600087803b1580156122ae57600080fd5b505af11580156122c2573d6000803e3d6000fd5b50505050611c128482613bdc565b60008060006123207f00000000000000000000000000000000000000000000000000000000000000008e7f000000000000000000000000000000000000000000000000000000000000000061335c565b905060008761232f578c612333565b6000195b6040805163d505accf60e01b815233600482015230602482015260448101839052606481018c905260ff8a16608482015260a4810189905260c4810188905290519192506001600160a01b0384169163d505accf9160e48082019260009290919082900301818387803b1580156123a957600080fd5b505af11580156123bd573d6000803e3d6000fd5b505050506123cf8e8e8e8e8e8e6128c9565b909f909e509c50505050505050505050505050565b6000610e2e848484614548565b6000808242811015612438576040805162461bcd60e51b815260206004820152601a6024820152600080516020614c04833981519152604482015290519081900360640190fd5b60006124657f00000000000000000000000000000000000000000000000000000000000000008c8c61335c565b604080516323b872dd60e01b81523360048201526001600160a01b03831660248201819052604482018d9052915192935090916323b872dd916064808201926020929091908290030181600087803b1580156124c057600080fd5b505af11580156124d4573d6000803e3d6000fd5b505050506040513d60208110156124ea57600080fd5b50506040805163226bf2d160e21b81526001600160a01b03888116600483015282516000938493928616926389afcb44926024808301939282900301818787803b15801561253757600080fd5b505af115801561254b573d6000803e3d6000fd5b505050506040513d604081101561256157600080fd5b5080516020909101519092509050600061257b8e8e6145f4565b509050806001600160a01b03168e6001600160a01b03161461259e5781836125a1565b82825b90975095508a8710156125e55760405162461bcd60e51b8152600401808060200182810382526028815260200180614a776028913960400191505060405180910390fd5b898610156126245760405162461bcd60e51b8152600401808060200182810382526028815260200180614afa6028913960400191505060405180910390fd5b505050505097509795505050505050565b6060814281101561267b576040805162461bcd60e51b815260206004820152601a6024820152600080516020614c04833981519152604482015290519081900360640190fd5b6001600160a01b037f000000000000000000000000000000000000000000000000000000000000000016868660001981018181106126b557fe5b905060200201356001600160a01b03166001600160a01b03161461270e576040805162461bcd60e51b815260206004820152601f6024820152600080516020614b22833981519152604482015290519081900360640190fd5b61276c7f00000000000000000000000000000000000000000000000000000000000000008988888080602002602001604051908101604052809392919081815260200183836020028082843760009201919091525061341c92505050565b9150868260008151811061277c57fe5b602002602001015111156127c15760405162461bcd60e51b8152600401808060200182810382526029815260200180614a4e6029913960400191505060405180910390fd5b6127d18686600081811061154457fe5b61281387838888808060200260200160405190810160405280939291908181526020018383602002808284376000920191909152503092508a91506136a09050565b7f00000000000000000000000000000000000000000000000000000000000000006001600160a01b0316632e1a7d4d8360018551038151811061285257fe5b60200260200101516040518263ffffffff1660e01b815260040180828152602001915050600060405180830381600087803b15801561289057600080fd5b505af11580156128a4573d6000803e3d6000fd5b505050506115ff84836001855103815181106128bc57fe5b6020026020010151613bdc565b6000808242811015612910576040805162461bcd60e51b815260206004820152601a6024820152600080516020614c04833981519152604482015290519081900360640190fd5b61293f897f00000000000000000000000000000000000000000000000000000000000000008a8a8a308a6123f1565b909350915061294f8986856146d2565b7f00000000000000000000000000000000000000000000000000000000000000006001600160a01b0316632e1a7d4d836040518263ffffffff1660e01b815260040180828152602001915050600060405180830381600087803b1580156129b557600080fd5b505af11580156129c9573d6000803e3d6000fd5b505050506129d78583613bdc565b50965096945050505050565b7f000000000000000000000000000000000000000000000000000000000000000081565b6060610f717f00000000000000000000000000000000000000000000000000000000000000008484613569565b60045481565b8042811015612a7e576040805162461bcd60e51b815260206004820152601a6024820152600080516020614c04833981519152604482015290519081900360640190fd5b7f00000000000000000000000000000000000000000000000000000000000000006001600160a01b031685856000818110612ab557fe5b905060200201356001600160a01b03166001600160a01b031614612b0e576040805162461bcd60e51b815260206004820152601f6024820152600080516020614b22833981519152604482015290519081900360640190fd5b60003490507f00000000000000000000000000000000000000000000000000000000000000006001600160a01b031663d0e30db0826040518263ffffffff1660e01b81526004016000604051808303818588803b158015612b6e57600080fd5b505af1158015612b82573d6000803e3d6000fd5b50505050507f00000000000000000000000000000000000000000000000000000000000000006001600160a01b031663a9059cbb612be77f00000000000000000000000000000000000000000000000000000000000000008989600081811061132457fe5b836040518363ffffffff1660e01b815260040180836001600160a01b03166001600160a01b0316815260200182815260200192505050602060405180830381600087803b158015612c3757600080fd5b505af1158015612c4b573d6000803e3d6000fd5b505050506040513d6020811015612c6157600080fd5b5051612c6957fe5b600086866000198101818110612c7b57fe5b905060200201356001600160a01b03166001600160a01b03166370a08231866040518263ffffffff1660e01b815260040180826001600160a01b03166001600160a01b0316815260200191505060206040518083038186803b158015612ce057600080fd5b505afa158015612cf4573d6000803e3d6000fd5b505050506040513d6020811015612d0a57600080fd5b50516040805160208981028281018201909352898252929350612d4e9285928b918b9182918501908490808284376000920191909152508a9250829150613cd49050565b87611bd58289896000198101818110612d6357fe5b905060200201356001600160a01b03166001600160a01b03166370a08231896040518263ffffffff1660e01b815260040180826001600160a01b03166001600160a01b0316815260200191505060206040518083038186803b158015611b9d57600080fd5b60085481565b60008060008342811015612e17576040805162461bcd60e51b815260206004820152601a6024820152600080516020614c04833981519152604482015290519081900360640190fd5b612e258c8c8c8c8c8c6142d4565b90945092506000612e577f00000000000000000000000000000000000000000000000000000000000000008e8e61335c565b9050612e658d338388613a7f565b612e718c338387613a7f565b806001600160a01b0316636a627842886040518263ffffffff1660e01b815260040180826001600160a01b03166001600160a01b03168152602001915050602060405180830381600087803b158015612ec957600080fd5b505af1158015612edd573d6000803e3d6000fd5b505050506040513d6020811015612ef357600080fd5b5051949d939c50939a509198505050505050505050565b60608142811015612f50576040805162461bcd60e51b815260206004820152601a6024820152600080516020614c04833981519152604482015290519081900360640190fd5b6001600160a01b037f00000000000000000000000000000000000000000000000000000000000000001686866000198101818110612f8a57fe5b905060200201356001600160a01b03166001600160a01b031614612fe3576040805162461bcd60e51b815260206004820152601f6024820152600080516020614b22833981519152604482015290519081900360640190fd5b6130417f00000000000000000000000000000000000000000000000000000000000000008988888080602002602001604051908101604052809392919081815260200183836020028082843760009201919091525061356992505050565b9150868260018451038151811061305457fe5b602002602001015110156130995760405162461bcd60e51b815260040180806020018281038252602d815260200180614a9f602d913960400191505060405180910390fd5b6130a98686600081811061154457fe5b61281388838888808060200260200160405190810160405280939291908181526020018383602002808284376000920191909152503092508a91506136a09050565b60008142811015613131576040805162461bcd60e51b815260206004820152601a6024820152600080516020614c04833981519152604482015290519081900360640190fd5b613160887f000000000000000000000000000000000000000000000000000000000000000089898930896123f1565b604080516370a0823160e01b815230600482015290519194506131e492508a9187916001600160a01b038416916370a0823191602480820192602092909190829003018186803b1580156131b357600080fd5b505afa1580156131c7573d6000803e3d6000fd5b505050506040513d60208110156131dd57600080fd5b50516146d2565b7f00000000000000000000000000000000000000000000000000000000000000006001600160a01b0316632e1a7d4d836040518263ffffffff1660e01b815260040180828152602001915050600060405180830381600087803b15801561324a57600080fd5b505af115801561325e573d6000803e3d6000fd5b505050506115ff8483613bdc565b60008084116132ac5760405162461bcd60e51b815260040180806020018281038252602d815260200180614b42602d913960400191505060405180910390fd5b6000831180156132bc5750600082115b6132f75760405162461bcd60e51b815260040180806020018281038252602a815260200180614bda602a913960400191505060405180910390fd5b600061330b856103e563ffffffff61483c16565b9050600061331f828563ffffffff61483c16565b9050600061334583613339886103e863ffffffff61483c16565b9063ffffffff61489516565b905080828161335057fe5b04979650505050505050565b600080600061336b85856145f4565b604080516bffffffffffffffffffffffff19606094851b811660208084019190915293851b81166034830152825160288184030181526048830184528051908501206001600160f81b031960688401529a90941b9093166069840152607d8301989098527fbfda6dce8b8a2f3cde65c7002e58697e53486be838031393f8729af841326434609d808401919091528851808403909101815260bd909201909752805196019590952095945050505050565b6060600282511015613475576040805162461bcd60e51b815260206004820181905260248201527f42697467657274537761704c6962726172793a20494e56414c49445f50415448604482015290519081900360640190fd5b815167ffffffffffffffff8111801561348d57600080fd5b506040519080825280602002602001820160405280156134b7578160200160208202803683370190505b50905082816001835103815181106134cb57fe5b60209081029190910101528151600019015b80156135615760008061351a878660018603815181106134f957fe5b602002602001015187868151811061350d57fe5b60200260200101516148ef565b9150915061353c84848151811061352d57fe5b602002602001015183836141e4565b84600185038151811061354b57fe5b60209081029190910101525050600019016134dd565b509392505050565b60606002825110156135c2576040805162461bcd60e51b815260206004820181905260248201527f42697467657274537761704c6962726172793a20494e56414c49445f50415448604482015290519081900360640190fd5b815167ffffffffffffffff811180156135da57600080fd5b50604051908082528060200260200182016040528015613604578160200160208202803683370190505b509050828160008151811061361557fe5b60200260200101818152505060005b60018351038110156135615760008061365a8786858151811061364357fe5b602002602001015187866001018151811061350d57fe5b9150915061367c84848151811061366d57fe5b6020026020010151838361326c565b84846001018151811061368b57fe5b60209081029190910101525050600101613624565b60005b600184510381101561384a576000808583815181106136be57fe5b60200260200101518684600101815181106136d557fe5b60200260200101519150915060006136ed83836145f4565b509050600088856001018151811061370157fe5b60200260200101519050600080836001600160a01b0316866001600160a01b03161461372f57826000613733565b6000835b91509150600060028b5103881061374a578961378b565b61378b7f0000000000000000000000000000000000000000000000000000000000000000878d8b6002018151811061377e57fe5b602002602001015161335c565b90506137b87f0000000000000000000000000000000000000000000000000000000000000000888861335c565b6001600160a01b0316636d9a640a8484846040518463ffffffff1660e01b815260040180848152602001838152602001826001600160a01b03166001600160a01b031681526020019350505050600060405180830381600087803b15801561381f57600080fd5b505af1158015613833573d6000803e3d6000fd5b5050600190990198506136a3975050505050505050565b506005859055825185906001600160a01b037f00000000000000000000000000000000000000000000000000000000000000001690859060009061388a57fe5b60200260200101516001600160a01b03161461397157836000815181106138ad57fe5b6020026020010151600080815481106138c257fe5b9060005260206000200160006101000a8154816001600160a01b0302191690836001600160a01b03160217905550606061395687600080548060200260200160405190810160405280929190818152602001828054801561394c57602002820191906000526020600020905b81546001600160a01b0316815260019091019060200180831161392e575b5050505050612a07565b90508060018151811061396557fe5b60200260200101519150505b600781905560c88104600381905560018054604080516020808402820181019092528281526060936139e093869383018282801561394c576020028201919060005260206000209081546001600160a01b0316815260019091019060200180831161392e575050505050612a07565b60025481519192506001600160a01b0316906371bb61f39083906001908110613a0557fe5b6020026020010151866040518363ffffffff1660e01b815260040180838152602001826001600160a01b03166001600160a01b0316815260200192505050600060405180830381600087803b158015613a5d57600080fd5b505af1158015613a71573d6000803e3d6000fd5b505050505050505050505050565b604080516001600160a01b0385811660248301528481166044830152606480830185905283518084039091018152608490920183526020820180516001600160e01b03166323b872dd60e01b17815292518251600094606094938a169392918291908083835b60208310613b045780518252601f199092019160209182019101613ae5565b6001836020036101000a0380198251168184511680821785525050505050509050019150506000604051808303816000865af19150503d8060008114613b66576040519150601f19603f3d011682016040523d82523d6000602084013e613b6b565b606091505b5091509150818015613b99575080511580613b995750808060200190516020811015613b9657600080fd5b50515b613bd45760405162461bcd60e51b8152600401808060200182810382526024815260200180614c4b6024913960400191505060405180910390fd5b505050505050565b604080516000808252602082019092526001600160a01b0384169083906040518082805190602001908083835b60208310613c285780518252601f199092019160209182019101613c09565b6001836020036101000a03801982511681845116808217855250505050505090500191505060006040518083038185875af1925050503d8060008114613c8a576040519150601f19603f3d011682016040523d82523d6000602084013e613c8f565b606091505b5050905080613ccf5760405162461bcd60e51b8152600401808060200182810382526023815260200180614bb76023913960400191505060405180910390fd5b505050565b60005b6001845103811015613f7057600080858381518110613cf257fe5b6020026020010151868460010181518110613d0957fe5b6020026020010151915091506000613d2183836145f4565b5090506000613d517f0000000000000000000000000000000000000000000000000000000000000000858561335c565b9050600080600080846001600160a01b0316630902f1ac6040518163ffffffff1660e01b815260040160606040518083038186803b158015613d9257600080fd5b505afa158015613da6573d6000803e3d6000fd5b505050506040513d6060811015613dbc57600080fd5b5080516020909101516001600160701b0391821693501690506000806001600160a01b038a811690891614613df2578284613df5565b83835b91509150613e53828b6001600160a01b03166370a082318a6040518263ffffffff1660e01b815260040180826001600160a01b03166001600160a01b0316815260200191505060206040518083038186803b158015611b9d57600080fd5b9550613e6086838361326c565b945050505050600080856001600160a01b0316886001600160a01b031614613e8a57826000613e8e565b6000835b91509150600060028d51038a10613ea5578b613ed9565b613ed97f0000000000000000000000000000000000000000000000000000000000000000898f8d6002018151811061377e57fe5b9050856001600160a01b0316636d9a640a8484846040518463ffffffff1660e01b815260040180848152602001838152602001826001600160a01b03166001600160a01b031681526020019350505050600060405180830381600087803b158015613f4357600080fd5b505af1158015613f57573d6000803e3d6000fd5b50506001909b019a50613cd79950505050505050505050565b506006849055825184906001600160a01b037f000000000000000000000000000000000000000000000000000000000000000016908590600090613fb057fe5b60200260200101516001600160a01b0316146140955783600081518110613fd357fe5b602002602001015160008081548110613fe857fe5b9060005260206000200160006101000a8154816001600160a01b0302191690836001600160a01b03160217905550606061407a86600080548060200260200160405190810160405280929190818152602001828054801561394c576020028201919060005260206000209081546001600160a01b0316815260019091019060200180831161392e575050505050612a07565b90508060018151811061408957fe5b60200260200101519150505b600881905560c881046003819055600180546040805160208084028201810190925282815260609361410493869383018282801561394c576020028201919060005260206000209081546001600160a01b0316815260019091019060200180831161392e575050505050612a07565b60025481519192506001600160a01b0316906371bb61f3908390600190811061412957fe5b6020026020010151866040518363ffffffff1660e01b815260040180838152602001826001600160a01b03166001600160a01b0316815260200192505050600060405180830381600087803b15801561418157600080fd5b505af1158015614195573d6000803e3d6000fd5b5050505050505050505050565b6000610f7183836040518060400160405280601e81526020017f536166654d6174683a207375627472616374696f6e206f766572666c6f7700008152506149b6565b60008084116142245760405162461bcd60e51b815260040180806020018281038252602e815260200180614acc602e913960400191505060405180910390fd5b6000831180156142345750600082115b61426f5760405162461bcd60e51b815260040180806020018281038252602a815260200180614bda602a913960400191505060405180910390fd5b60006142936103e8614287868863ffffffff61483c16565b9063ffffffff61483c16565b905060006142ad6103e5614287868963ffffffff6141a216565b90506142ca60018284816142bd57fe5b049063ffffffff61489516565b9695505050505050565b6040805163e6a4390560e01b81526001600160a01b03888116600483015287811660248301529151600092839283927f00000000000000000000000000000000000000000000000000000000000000009092169163e6a4390591604480820192602092909190829003018186803b15801561434e57600080fd5b505afa158015614362573d6000803e3d6000fd5b505050506040513d602081101561437857600080fd5b50516001600160a01b0316141561442b57604080516364e329cb60e11b81526001600160a01b038a81166004830152898116602483015291517f00000000000000000000000000000000000000000000000000000000000000009092169163c9c65396916044808201926020929091908290030181600087803b1580156143fe57600080fd5b505af1158015614412573d6000803e3d6000fd5b505050506040513d602081101561442857600080fd5b50505b6000806144597f00000000000000000000000000000000000000000000000000000000000000008b8b6148ef565b9150915081600014801561446b575080155b1561447b5787935086925061453b565b6000614488898484614548565b90508781116144db57858110156144d05760405162461bcd60e51b8152600401808060200182810382526028815260200180614afa6028913960400191505060405180910390fd5b889450925082614539565b60006144e8898486614548565b9050898111156144f457fe5b878110156145335760405162461bcd60e51b8152600401808060200182810382526028815260200180614a776028913960400191505060405180910390fd5b94508793505b505b5050965096945050505050565b60008084116145885760405162461bcd60e51b8152600401808060200182810382526027815260200180614c246027913960400191505060405180910390fd5b6000831180156145985750600082115b6145d35760405162461bcd60e51b815260040180806020018281038252602a815260200180614bda602a913960400191505060405180910390fd5b826145e4858463ffffffff61483c16565b816145eb57fe5b04949350505050565b600080826001600160a01b0316846001600160a01b031614156146485760405162461bcd60e51b8152600401808060200182810382526027815260200180614b6f6027913960400191505060405180910390fd5b826001600160a01b0316846001600160a01b03161061466857828461466b565b83835b90925090506001600160a01b0382166146cb576040805162461bcd60e51b815260206004820181905260248201527f42697467657274537761704c6962726172793a205a45524f5f41444452455353604482015290519081900360640190fd5b9250929050565b604080516001600160a01b038481166024830152604480830185905283518084039091018152606490920183526020820180516001600160e01b031663a9059cbb60e01b178152925182516000946060949389169392918291908083835b6020831061474f5780518252601f199092019160209182019101614730565b6001836020036101000a0380198251168184511680821785525050505050509050019150506000604051808303816000865af19150503d80600081146147b1576040519150601f19603f3d011682016040523d82523d6000602084013e6147b6565b606091505b50915091508180156147e45750805115806147e457508080602001905160208110156147e157600080fd5b50515b614835576040805162461bcd60e51b815260206004820152601f60248201527f5472616e7366657248656c7065723a205452414e534645525f4641494c454400604482015290519081900360640190fd5b5050505050565b60008261484b57506000610f74565b8282028284828161485857fe5b0414610f715760405162461bcd60e51b8152600401808060200182810382526021815260200180614b966021913960400191505060405180910390fd5b600082820183811015610f71576040805162461bcd60e51b815260206004820152601b60248201527f536166654d6174683a206164646974696f6e206f766572666c6f770000000000604482015290519081900360640190fd5b60008060006148fe85856145f4565b50905060008061490f88888861335c565b6001600160a01b0316630902f1ac6040518163ffffffff1660e01b815260040160606040518083038186803b15801561494757600080fd5b505afa15801561495b573d6000803e3d6000fd5b505050506040513d606081101561497157600080fd5b5080516020909101516001600160701b0391821693501690506001600160a01b03878116908416146149a45780826149a7565b81815b90999098509650505050505050565b60008184841115614a455760405162461bcd60e51b81526004018080602001828103825283818151815260200191508051906020019080838360005b83811015614a0a5781810151838201526020016149f2565b50505050905090810190601f168015614a375780820380516001836020036101000a031916815260200191505b509250505060405180910390fd5b50505090039056fe4269746765727453776170526f757465723a204558434553534956455f494e5055545f414d4f554e544269746765727453776170526f757465723a20494e53554646494349454e545f415f414d4f554e544269746765727453776170526f757465723a20494e53554646494349454e545f4f55545055545f414d4f554e5442697467657274537761704c6962726172793a20494e53554646494349454e545f4f55545055545f414d4f554e544269746765727453776170526f757465723a20494e53554646494349454e545f425f414d4f554e544269746765727453776170526f757465723a20494e56414c49445f504154480042697467657274537761704c6962726172793a20494e53554646494349454e545f494e5055545f414d4f554e5442697467657274537761704c6962726172793a204944454e544943414c5f414444524553534553536166654d6174683a206d756c7469706c69636174696f6e206f766572666c6f775472616e7366657248656c7065723a20424e425f5452414e534645525f4641494c454442697467657274537761704c6962726172793a20494e53554646494349454e545f4c49515549444954594269746765727453776170526f757465723a204558504952454400000000000042697467657274537761704c6962726172793a20494e53554646494349454e545f414d4f554e545472616e7366657248656c7065723a205452414e534645525f46524f4d5f4641494c4544a2646970667358221220b2d4c4f7fe00b3caae72df7e92eb08a7de10ab719de4b4b4aadd812c9c4a27ab64736f6c6343000606003360a06040526003805460ff1916600117905534801561001d57600080fd5b50604051610b69380380610b698339818101604052604081101561004057600080fd5b5080516020909101513360601b608052600080546001600160a01b039384166001600160a01b0319918216179091556001805493909216921691909117905560805160601c610ac36100a66000398061063952806106d0528061076a5250610ac36000f3fe608060405234801561001057600080fd5b50600436106100935760003560e01c8063d93c1f6811610066578063d93c1f681461013f578063de75584e1461015e578063e8e56088146101a3578063ef6bdb0e146101bd578063f9f92be4146101d957610093565b8063379607f51461009857806371bb61f3146100b75780639155e083146100e3578063a68c0e6a14610111575b600080fd5b6100b5600480360360208110156100ae57600080fd5b50356101ff565b005b6100b5600480360360408110156100cd57600080fd5b50803590602001356001600160a01b0316610423565b6100b5600480360360408110156100f957600080fd5b506001600160a01b0381351690602001351515610637565b6100b56004803603604081101561012757600080fd5b506001600160a01b03813581169160200135166106ce565b6100b56004803603602081101561015557600080fd5b50351515610768565b61018a6004803603604081101561017457600080fd5b506001600160a01b0381351690602001356107e7565b6040805192835260208301919091528051918290030190f35b6101ab610820565b60408051918252519081900360200190f35b6101c5610833565b604080519115158252519081900360200190f35b6101c5600480360360208110156101ef57600080fd5b50356001600160a01b031661083c565b33600090815260046020526040812080548390811061021a57fe5b9060005260206000209060020201600001541161027e576040805162461bcd60e51b815260206004820152601860248201527f506f73697469766520616d6f756e742065787065637465640000000000000000604482015290519081900360640190fd5b33600090815260046020526040902080548290811061029957fe5b90600052602060002090600202016001015460b4014210156102f4576040805162461bcd60e51b815260206004820152600f60248201526e18d85b89dd0818db185a5b481e595d608a1b604482015290519081900360640190fd5b33600090815260046020526040812080548390811061030f57fe5b600091825260208083206002909202909101543383526004909152604082208054919350908490811061033e57fe5b600091825260208083206002909202909101929092556001546040805163a9059cbb60e01b815233600482015260248101869052905192936001600160a01b039092169263a9059cbb9260448084019391929182900301818787803b1580156103a657600080fd5b505af11580156103ba573d6000803e3d6000fd5b505050506040513d60208110156103d057600080fd5b505190508061041e576040805162461bcd60e51b8152602060048201526015602482015274151bdad95b881d1c985b9cd9995c8819985a5b1959605a1b604482015290519081900360640190fd5b505050565b60405182906001600160a01b038316907f52398eafdb11f98ba10ec676f9c01e5f5aa918e1c444eeab35a379bb1a0c0dd590600090a36001600160a01b03811660009081526002602052604090205460ff16156104b6576040805162461bcd60e51b815260206004820152600c60248201526b1a5b97d89b1858dadb1a5cdd60a21b604482015290519081900360640190fd5b60035460ff16156106335760008211610516576040805162461bcd60e51b815260206004820152601f60248201527f616d6f756e742073686f756c64206265206d6f7265207468616e207a65726f00604482015290519081900360640190fd5b6001600160a01b038116610563576040805162461bcd60e51b815260206004820152600f60248201526e1859191c995cdcc81a5b9d985b1a59608a1b604482015290519081900360640190fd5b600154600054604080516370a0823160e01b81526001600160a01b0392831660048201529051859392909216916370a0823191602480820192602092909190829003018186803b1580156105b657600080fd5b505afa1580156105ca573d6000803e3d6000fd5b505050506040513d60208110156105e057600080fd5b50511015610629576040805162461bcd60e51b81526020600482015260116024820152704e6f7420656e6f75676820746f6b656e7360781b604482015290519081900360640190fd5b6106338183610851565b5050565b7f00000000000000000000000000000000000000000000000000000000000000006001600160a01b031633146106a3576040805162461bcd60e51b815260206004820152600c60248201526b2737ba1030b71037bbb732b960a11b604482015290519081900360640190fd5b6001600160a01b03919091166000908152600260205260409020805460ff1916911515919091179055565b7f00000000000000000000000000000000000000000000000000000000000000006001600160a01b0316331461073a576040805162461bcd60e51b815260206004820152600c60248201526b2737ba1030b71037bbb732b960a11b604482015290519081900360640190fd5b600080546001600160a01b039384166001600160a01b03199182161790915560018054929093169116179055565b7f00000000000000000000000000000000000000000000000000000000000000006001600160a01b031633146107d4576040805162461bcd60e51b815260206004820152600c60248201526b2737ba1030b71037bbb732b960a11b604482015290519081900360640190fd5b6003805460ff1916911515919091179055565b6004602052816000526040600020818154811061080057fe5b600091825260209091206002909102018054600190910154909250905082565b3360009081526004602052604090205490565b60035460ff1681565b60026020526000908152604090205460ff1681565b60015460005460408051636eb1769f60e11b81526001600160a01b03928316600482015230602482015290518493929092169163dd62ed3e91604480820192602092909190829003018186803b1580156108aa57600080fd5b505afa1580156108be573d6000803e3d6000fd5b505050506040513d60208110156108d457600080fd5b50511015610929576040805162461bcd60e51b815260206004820152601960248201527f546f6b656e203120616c6c6f77616e636520746f6f206c6f7700000000000000604482015290519081900360640190fd5b610633828260015460008054604080516323b872dd60e01b81526001600160a01b039283166004820152306024820152604481018690529051929391909116916323b872dd9160648082019260209290919082900301818787803b15801561099057600080fd5b505af11580156109a4573d6000803e3d6000fd5b505050506040513d60208110156109ba57600080fd5b5051905080610a08576040805162461bcd60e51b8152602060048201526015602482015274151bdad95b881d1c985b9cd9995c8819985a5b1959605a1b604482015290519081900360640190fd5b801561041e576001600160a01b03831660008181526004602090815260408083208151808301835287815242818501818152835460018181018655948852958720925160029096029092019485559051939091019290925551859391927f4360f5320ef452a3ac552e563b0a7ad91b6dd31f258c6c47bdc47ca05f97e0b391a450505056fea2646970667358221220bf8ec6e23ffc6292cdf4f0551010ab9f01b0b5915839b027398830fa6dea58ad64736f6c63430006060033",
  "linkReferences": {},
  "deployedLinkReferences": {}
}