{
  "_format": "hh-sol-artifact-1",
  "contractName": "BitgertSwapRouter",
  "sourceName": "contracts/BitgertSwapRouter.sol",
  "abi": [
    {
      "inputs": [
        {
          "internalType": "address",
          "name": "_factory",
          "type": "address"
        },
        {
          "internalType": "address",
          "name": "_WBRISE",
          "type": "address"
        },
        {
          "internalType": "address",
          "name": "_rewardToken",
          "type": "address"
        }
      ],
      "stateMutability": "nonpayable",
      "type": "constructor"
    },
    {
      "inputs": [],
      "name": "WBRISE",
      "outputs": [
        {
          "internalType": "address",
          "name": "",
          "type": "address"
        }
      ],
      "stateMutability": "view",
      "type": "function"
    },
    {
      "inputs": [
        {
          "internalType": "address",
          "name": "tokenA",
          "type": "address"
        },
        {
          "internalType": "address",
          "name": "tokenB",
          "type": "address"
        },
        {
          "internalType": "uint256",
          "name": "amountADesired",
          "type": "uint256"
        },
        {
          "internalType": "uint256",
          "name": "amountBDesired",
          "type": "uint256"
        },
        {
          "internalType": "uint256",
          "name": "amountAMin",
          "type": "uint256"
        },
        {
          "internalType": "uint256",
          "name": "amountBMin",
          "type": "uint256"
        },
        {
          "internalType": "address",
          "name": "to",
          "type": "address"
        },
        {
          "internalType": "uint256",
          "name": "deadline",
          "type": "uint256"
        }
      ],
      "name": "addLiquidity",
      "outputs": [
        {
          "internalType": "uint256",
          "name": "amountA",
          "type": "uint256"
        },
        {
          "internalType": "uint256",
          "name": "amountB",
          "type": "uint256"
        },
        {
          "internalType": "uint256",
          "name": "liquidity",
          "type": "uint256"
        }
      ],
      "stateMutability": "nonpayable",
      "type": "function"
    },
    {
      "inputs": [
        {
          "internalType": "address",
          "name": "token",
          "type": "address"
        },
        {
          "internalType": "uint256",
          "name": "amountTokenDesired",
          "type": "uint256"
        },
        {
          "internalType": "uint256",
          "name": "amountTokenMin",
          "type": "uint256"
        },
        {
          "internalType": "uint256",
          "name": "amountBRISEMin",
          "type": "uint256"
        },
        {
          "internalType": "address",
          "name": "to",
          "type": "address"
        },
        {
          "internalType": "uint256",
          "name": "deadline",
          "type": "uint256"
        }
      ],
      "name": "addLiquidityBRISE",
      "outputs": [
        {
          "internalType": "uint256",
          "name": "amountToken",
          "type": "uint256"
        },
        {
          "internalType": "uint256",
          "name": "amountBRISE",
          "type": "uint256"
        },
        {
          "internalType": "uint256",
          "name": "liquidity",
          "type": "uint256"
        }
      ],
      "stateMutability": "payable",
      "type": "function"
    },
    {
      "inputs": [],
      "name": "factory",
      "outputs": [
        {
          "internalType": "address",
          "name": "",
          "type": "address"
        }
      ],
      "stateMutability": "view",
      "type": "function"
    },
    {
      "inputs": [],
      "name": "feeTo",
      "outputs": [
        {
          "internalType": "address",
          "name": "",
          "type": "address"
        }
      ],
      "stateMutability": "view",
      "type": "function"
    },
    {
      "inputs": [],
      "name": "feeToSetter",
      "outputs": [
        {
          "internalType": "address",
          "name": "",
          "type": "address"
        }
      ],
      "stateMutability": "view",
      "type": "function"
    },
    {
      "inputs": [
        {
          "internalType": "uint256",
          "name": "amountOut",
          "type": "uint256"
        },
        {
          "internalType": "uint256",
          "name": "reserveIn",
          "type": "uint256"
        },
        {
          "internalType": "uint256",
          "name": "reserveOut",
          "type": "uint256"
        }
      ],
      "name": "getAmountIn",
      "outputs": [
        {
          "internalType": "uint256",
          "name": "amountIn",
          "type": "uint256"
        }
      ],
      "stateMutability": "pure",
      "type": "function"
    },
    {
      "inputs": [
        {
          "internalType": "uint256",
          "name": "amountIn",
          "type": "uint256"
        },
        {
          "internalType": "uint256",
          "name": "reserveIn",
          "type": "uint256"
        },
        {
          "internalType": "uint256",
          "name": "reserveOut",
          "type": "uint256"
        }
      ],
      "name": "getAmountOut",
      "outputs": [
        {
          "internalType": "uint256",
          "name": "amountOut",
          "type": "uint256"
        }
      ],
      "stateMutability": "pure",
      "type": "function"
    },
    {
      "inputs": [
        {
          "internalType": "uint256",
          "name": "amountOut",
          "type": "uint256"
        },
        {
          "internalType": "address[]",
          "name": "path",
          "type": "address[]"
        }
      ],
      "name": "getAmountsIn",
      "outputs": [
        {
          "internalType": "uint256[]",
          "name": "amounts",
          "type": "uint256[]"
        }
      ],
      "stateMutability": "view",
      "type": "function"
    },
    {
      "inputs": [
        {
          "internalType": "uint256",
          "name": "amountIn",
          "type": "uint256"
        },
        {
          "internalType": "address[]",
          "name": "path",
          "type": "address[]"
        }
      ],
      "name": "getAmountsOut",
      "outputs": [
        {
          "internalType": "uint256[]",
          "name": "amounts",
          "type": "uint256[]"
        }
      ],
      "stateMutability": "view",
      "type": "function"
    },
    {
      "inputs": [
        {
          "internalType": "uint256",
          "name": "amountA",
          "type": "uint256"
        },
        {
          "internalType": "uint256",
          "name": "reserveA",
          "type": "uint256"
        },
        {
          "internalType": "uint256",
          "name": "reserveB",
          "type": "uint256"
        }
      ],
      "name": "quote",
      "outputs": [
        {
          "internalType": "uint256",
          "name": "amountB",
          "type": "uint256"
        }
      ],
      "stateMutability": "pure",
      "type": "function"
    },
    {
      "inputs": [
        {
          "internalType": "address",
          "name": "tokenA",
          "type": "address"
        },
        {
          "internalType": "address",
          "name": "tokenB",
          "type": "address"
        },
        {
          "internalType": "uint256",
          "name": "liquidity",
          "type": "uint256"
        },
        {
          "internalType": "uint256",
          "name": "amountAMin",
          "type": "uint256"
        },
        {
          "internalType": "uint256",
          "name": "amountBMin",
          "type": "uint256"
        },
        {
          "internalType": "address",
          "name": "to",
          "type": "address"
        },
        {
          "internalType": "uint256",
          "name": "deadline",
          "type": "uint256"
        }
      ],
      "name": "removeLiquidity",
      "outputs": [
        {
          "internalType": "uint256",
          "name": "amountA",
          "type": "uint256"
        },
        {
          "internalType": "uint256",
          "name": "amountB",
          "type": "uint256"
        }
      ],
      "stateMutability": "nonpayable",
      "type": "function"
    },
    {
      "inputs": [
        {
          "internalType": "address",
          "name": "token",
          "type": "address"
        },
        {
          "internalType": "uint256",
          "name": "liquidity",
          "type": "uint256"
        },
        {
          "internalType": "uint256",
          "name": "amountTokenMin",
          "type": "uint256"
        },
        {
          "internalType": "uint256",
          "name": "amountBRISEMin",
          "type": "uint256"
        },
        {
          "internalType": "address",
          "name": "to",
          "type": "address"
        },
        {
          "internalType": "uint256",
          "name": "deadline",
          "type": "uint256"
        }
      ],
      "name": "removeLiquidityBRISE",
      "outputs": [
        {
          "internalType": "uint256",
          "name": "amountToken",
          "type": "uint256"
        },
        {
          "internalType": "uint256",
          "name": "amountBRISE",
          "type": "uint256"
        }
      ],
      "stateMutability": "nonpayable",
      "type": "function"
    },
    {
      "inputs": [
        {
          "internalType": "address",
          "name": "token",
          "type": "address"
        },
        {
          "internalType": "uint256",
          "name": "liquidity",
          "type": "uint256"
        },
        {
          "internalType": "uint256",
          "name": "amountTokenMin",
          "type": "uint256"
        },
        {
          "internalType": "uint256",
          "name": "amountBRISEMin",
          "type": "uint256"
        },
        {
          "internalType": "address",
          "name": "to",
          "type": "address"
        },
        {
          "internalType": "uint256",
          "name": "deadline",
          "type": "uint256"
        }
      ],
      "name": "removeLiquidityBRISESupportingFeeOnTransferTokens",
      "outputs": [
        {
          "internalType": "uint256",
          "name": "amountBRISE",
          "type": "uint256"
        }
      ],
      "stateMutability": "nonpayable",
      "type": "function"
    },
    {
      "inputs": [
        {
          "internalType": "address",
          "name": "token",
          "type": "address"
        },
        {
          "internalType": "uint256",
          "name": "liquidity",
          "type": "uint256"
        },
        {
          "internalType": "uint256",
          "name": "amountTokenMin",
          "type": "uint256"
        },
        {
          "internalType": "uint256",
          "name": "amountBRISEMin",
          "type": "uint256"
        },
        {
          "internalType": "address",
          "name": "to",
          "type": "address"
        },
        {
          "internalType": "uint256",
          "name": "deadline",
          "type": "uint256"
        },
        {
          "internalType": "bool",
          "name": "approveMax",
          "type": "bool"
        },
        {
          "internalType": "uint8",
          "name": "v",
          "type": "uint8"
        },
        {
          "internalType": "bytes32",
          "name": "r",
          "type": "bytes32"
        },
        {
          "internalType": "bytes32",
          "name": "s",
          "type": "bytes32"
        }
      ],
      "name": "removeLiquidityBRISEWithPermit",
      "outputs": [
        {
          "internalType": "uint256",
          "name": "amountToken",
          "type": "uint256"
        },
        {
          "internalType": "uint256",
          "name": "amountBRISE",
          "type": "uint256"
        }
      ],
      "stateMutability": "nonpayable",
      "type": "function"
    },
    {
      "inputs": [
        {
          "internalType": "address",
          "name": "token",
          "type": "address"
        },
        {
          "internalType": "uint256",
          "name": "liquidity",
          "type": "uint256"
        },
        {
          "internalType": "uint256",
          "name": "amountTokenMin",
          "type": "uint256"
        },
        {
          "internalType": "uint256",
          "name": "amountBRISEMin",
          "type": "uint256"
        },
        {
          "internalType": "address",
          "name": "to",
          "type": "address"
        },
        {
          "internalType": "uint256",
          "name": "deadline",
          "type": "uint256"
        },
        {
          "internalType": "bool",
          "name": "approveMax",
          "type": "bool"
        },
        {
          "internalType": "uint8",
          "name": "v",
          "type": "uint8"
        },
        {
          "internalType": "bytes32",
          "name": "r",
          "type": "bytes32"
        },
        {
          "internalType": "bytes32",
          "name": "s",
          "type": "bytes32"
        }
      ],
      "name": "removeLiquidityBRISEWithPermitSupportingFeeOnTransferTokens",
      "outputs": [
        {
          "internalType": "uint256",
          "name": "amountBRISE",
          "type": "uint256"
        }
      ],
      "stateMutability": "nonpayable",
      "type": "function"
    },
    {
      "inputs": [
        {
          "internalType": "address",
          "name": "tokenA",
          "type": "address"
        },
        {
          "internalType": "address",
          "name": "tokenB",
          "type": "address"
        },
        {
          "internalType": "uint256",
          "name": "liquidity",
          "type": "uint256"
        },
        {
          "internalType": "uint256",
          "name": "amountAMin",
          "type": "uint256"
        },
        {
          "internalType": "uint256",
          "name": "amountBMin",
          "type": "uint256"
        },
        {
          "internalType": "address",
          "name": "to",
          "type": "address"
        },
        {
          "internalType": "uint256",
          "name": "deadline",
          "type": "uint256"
        },
        {
          "internalType": "bool",
          "name": "approveMax",
          "type": "bool"
        },
        {
          "internalType": "uint8",
          "name": "v",
          "type": "uint8"
        },
        {
          "internalType": "bytes32",
          "name": "r",
          "type": "bytes32"
        },
        {
          "internalType": "bytes32",
          "name": "s",
          "type": "bytes32"
        }
      ],
      "name": "removeLiquidityWithPermit",
      "outputs": [
        {
          "internalType": "uint256",
          "name": "amountA",
          "type": "uint256"
        },
        {
          "internalType": "uint256",
          "name": "amountB",
          "type": "uint256"
        }
      ],
      "stateMutability": "nonpayable",
      "type": "function"
    },
    {
      "inputs": [],
      "name": "reward",
      "outputs": [
        {
          "internalType": "contract Reward",
          "name": "",
          "type": "address"
        }
      ],
      "stateMutability": "view",
      "type": "function"
    },
    {
      "inputs": [],
      "name": "rewardToken",
      "outputs": [
        {
          "internalType": "address",
          "name": "",
          "type": "address"
        }
      ],
      "stateMutability": "view",
      "type": "function"
    },
    {
      "inputs": [
        {
          "internalType": "address",
          "name": "_feeTo",
          "type": "address"
        }
      ],
      "name": "setFeeTo",
      "outputs": [],
      "stateMutability": "nonpayable",
      "type": "function"
    },
    {
      "inputs": [
        {
          "internalType": "address",
          "name": "_feeToSetter",
          "type": "address"
        }
      ],
      "name": "setFeeToSetter",
      "outputs": [],
      "stateMutability": "nonpayable",
      "type": "function"
    },
    {
      "inputs": [
        {
          "internalType": "uint256",
          "name": "amountOut",
          "type": "uint256"
        },
        {
          "internalType": "address[]",
          "name": "path",
          "type": "address[]"
        },
        {
          "internalType": "address",
          "name": "to",
          "type": "address"
        },
        {
          "internalType": "uint256",
          "name": "deadline",
          "type": "uint256"
        }
      ],
      "name": "swapBRISEForExactTokens",
      "outputs": [
        {
          "internalType": "uint256[]",
          "name": "amounts",
          "type": "uint256[]"
        }
      ],
      "stateMutability": "payable",
      "type": "function"
    },
    {
      "inputs": [
        {
          "internalType": "uint256",
          "name": "amountOutMin",
          "type": "uint256"
        },
        {
          "internalType": "address[]",
          "name": "path",
          "type": "address[]"
        },
        {
          "internalType": "address",
          "name": "to",
          "type": "address"
        },
        {
          "internalType": "uint256",
          "name": "deadline",
          "type": "uint256"
        }
      ],
      "name": "swapExactBRISEForTokens",
      "outputs": [
        {
          "internalType": "uint256[]",
          "name": "amounts",
          "type": "uint256[]"
        }
      ],
      "stateMutability": "payable",
      "type": "function"
    },
    {
      "inputs": [
        {
          "internalType": "uint256",
          "name": "amountOutMin",
          "type": "uint256"
        },
        {
          "internalType": "address[]",
          "name": "path",
          "type": "address[]"
        },
        {
          "internalType": "address",
          "name": "to",
          "type": "address"
        },
        {
          "internalType": "uint256",
          "name": "deadline",
          "type": "uint256"
        }
      ],
      "name": "swapExactBRISEForTokensSupportingFeeOnTransferTokens",
      "outputs": [],
      "stateMutability": "payable",
      "type": "function"
    },
    {
      "inputs": [
        {
          "internalType": "uint256",
          "name": "amountIn",
          "type": "uint256"
        },
        {
          "internalType": "uint256",
          "name": "amountOutMin",
          "type": "uint256"
        },
        {
          "internalType": "address[]",
          "name": "path",
          "type": "address[]"
        },
        {
          "internalType": "address",
          "name": "to",
          "type": "address"
        },
        {
          "internalType": "uint256",
          "name": "deadline",
          "type": "uint256"
        }
      ],
      "name": "swapExactTokensForBRISE",
      "outputs": [
        {
          "internalType": "uint256[]",
          "name": "amounts",
          "type": "uint256[]"
        }
      ],
      "stateMutability": "nonpayable",
      "type": "function"
    },
    {
      "inputs": [
        {
          "internalType": "uint256",
          "name": "amountIn",
          "type": "uint256"
        },
        {
          "internalType": "uint256",
          "name": "amountOutMin",
          "type": "uint256"
        },
        {
          "internalType": "address[]",
          "name": "path",
          "type": "address[]"
        },
        {
          "internalType": "address",
          "name": "to",
          "type": "address"
        },
        {
          "internalType": "uint256",
          "name": "deadline",
          "type": "uint256"
        }
      ],
      "name": "swapExactTokensForBRISESupportingFeeOnTransferTokens",
      "outputs": [],
      "stateMutability": "nonpayable",
      "type": "function"
    },
    {
      "inputs": [
        {
          "internalType": "uint256",
          "name": "amountIn",
          "type": "uint256"
        },
        {
          "internalType": "uint256",
          "name": "amountOutMin",
          "type": "uint256"
        },
        {
          "internalType": "address[]",
          "name": "path",
          "type": "address[]"
        },
        {
          "internalType": "address",
          "name": "to",
          "type": "address"
        },
        {
          "internalType": "uint256",
          "name": "deadline",
          "type": "uint256"
        }
      ],
      "name": "swapExactTokensForTokens",
      "outputs": [
        {
          "internalType": "uint256[]",
          "name": "amounts",
          "type": "uint256[]"
        }
      ],
      "stateMutability": "nonpayable",
      "type": "function"
    },
    {
      "inputs": [
        {
          "internalType": "uint256",
          "name": "amountIn",
          "type": "uint256"
        },
        {
          "internalType": "uint256",
          "name": "amountOutMin",
          "type": "uint256"
        },
        {
          "internalType": "address[]",
          "name": "path",
          "type": "address[]"
        },
        {
          "internalType": "address",
          "name": "to",
          "type": "address"
        },
        {
          "internalType": "uint256",
          "name": "deadline",
          "type": "uint256"
        }
      ],
      "name": "swapExactTokensForTokensSupportingFeeOnTransferTokens",
      "outputs": [],
      "stateMutability": "nonpayable",
      "type": "function"
    },
    {
      "inputs": [
        {
          "internalType": "uint256",
          "name": "amountOut",
          "type": "uint256"
        },
        {
          "internalType": "uint256",
          "name": "amountInMax",
          "type": "uint256"
        },
        {
          "internalType": "address[]",
          "name": "path",
          "type": "address[]"
        },
        {
          "internalType": "address",
          "name": "to",
          "type": "address"
        },
        {
          "internalType": "uint256",
          "name": "deadline",
          "type": "uint256"
        }
      ],
      "name": "swapTokensForExactBRISE",
      "outputs": [
        {
          "internalType": "uint256[]",
          "name": "amounts",
          "type": "uint256[]"
        }
      ],
      "stateMutability": "nonpayable",
      "type": "function"
    },
    {
      "inputs": [
        {
          "internalType": "uint256",
          "name": "amountOut",
          "type": "uint256"
        },
        {
          "internalType": "uint256",
          "name": "amountInMax",
          "type": "uint256"
        },
        {
          "internalType": "address[]",
          "name": "path",
          "type": "address[]"
        },
        {
          "internalType": "address",
          "name": "to",
          "type": "address"
        },
        {
          "internalType": "uint256",
          "name": "deadline",
          "type": "uint256"
        }
      ],
      "name": "swapTokensForExactTokens",
      "outputs": [
        {
          "internalType": "uint256[]",
          "name": "amounts",
          "type": "uint256[]"
        }
      ],
      "stateMutability": "nonpayable",
      "type": "function"
    },
    {
      "inputs": [
        {
          "internalType": "address",
          "name": "_rewardToken",
          "type": "address"
        }
      ],
      "name": "updateRewardToken",
      "outputs": [],
      "stateMutability": "nonpayable",
      "type": "function"
    },
    {
      "stateMutability": "payable",
      "type": "receive"
    }
  ],
  "bytecode": "0x60c06040523480156200001157600080fd5b5060405162005fba38038062005fba833981810160405260608110156200003757600080fd5b50805160208201516040928301516001600160601b0319606084811b821660805283901b1660a052600380546001600160a01b031990811633908117928390556002805483166001600160a01b0394851617905560048054938516939092169290921790559351929391929091908290620000b290620001a7565b6001600160a01b03928316815291166020820152604080519182900301906000f080158015620000e6573d6000803e3d6000fd5b50600580546001600160a01b03199081166001600160a01b039384161790915560008054600181810183557f290decd9548b62a8d60345a988386fc84ba6bc95484008f6362f93160ef3e5639182018054851690558254808201845590910180548416968516968717905580548082018255918190527fb10e2d527612073b26eecdfd717e6a320cf44b4afac2b0732d9fcbe2b7fa0cf6918201805484169096179095558454808601909555939093018054909316911617905550620001b5565b610b35806200548583390190565b60805160601c60a05160601c61518462000301600039806101ec5280610e6e52806110d9528061121f52806112bf52806112ff52806116df528061184b52806118d35280611cea5280611edc5280611f325280611f665280611fda52806121805280612290528061234652806123f8528061280252806129bb5280612abc5280612af75280612c205280612cb55280612d2d5280612d565280613121528061343852806134e752806139ad5280613a115280613d115280614464525080610e4c5280610f595280610f92528061116c528061133152806114bc52806115e7528061177252806119055280611ad85280611d645280611f1052806123d652806125bc52806128905280612b8b5280612bb45280612d885280612ff852806131af5280613bdc5280613c1f52806141e5528061436452806147ec528061489a528061491a52506151846000f3fe6080604052600436106101dc5760003560e01c80638e59e59811610102578063d06ca61f11610095578063f46901ed11610064578063f46901ed14610d43578063f7c618c114610d76578063f8cf31cb14610d8b578063fd2baef114610dbe57610215565b8063d06ca61f14610b12578063d910844714610bc7578063e8e3370014610c4b578063ecf7f16c14610cad57610215565b8063baa2abde116100d1578063baa2abde146109b7578063be41ff7a14610a14578063be631baf14610aaa578063c45a015514610afd57610215565b80638e59e59814610845578063961adc28146108db578063a2e74af61461094e578063ad615dec1461098157610215565b8063334b80291161017a578063818857c311610149578063818857c31461070057806385f8c259146107155780638803dbee1461074b5780638c310b9e146107e157610215565b8063334b8029146104cc57806338ed1739146105505780634e4c14b2146105e65780635c11d7951461066a57610215565b80630ce7cfef116101b65780630ce7cfef146102a85780631f00ca741461031b5780632195995c14610420578063228cb733146104b757610215565b8063017e7e581461021a578063054d50d41461024b578063094b74151461029357610215565b3661021557336001600160a01b037f0000000000000000000000000000000000000000000000000000000000000000161461021357fe5b005b600080fd5b34801561022657600080fd5b5061022f610e11565b604080516001600160a01b039092168252519081900360200190f35b34801561025757600080fd5b506102816004803603606081101561026e57600080fd5b5080359060208101359060400135610e20565b60408051918252519081900360200190f35b34801561029f57600080fd5b5061022f610e35565b3480156102b457600080fd5b5061028160048036036101408110156102cc57600080fd5b506001600160a01b0381358116916020810135916040820135916060810135916080820135169060a08101359060c081013515159060ff60e08201351690610100810135906101200135610e44565b34801561032757600080fd5b506103d06004803603604081101561033e57600080fd5b81359190810190604081016020820135600160201b81111561035f57600080fd5b82018360208201111561037157600080fd5b803590602001918460208302840111600160201b8311171561039257600080fd5b919080806020026020016040519081016040528093929190818152602001838360200280828437600092019190915250929550610f52945050505050565b60408051602080825283518183015283519192839290830191858101910280838360005b8381101561040c5781810151838201526020016103f4565b505050509050019250505060405180910390f35b34801561042c57600080fd5b5061049e600480360361016081101561044457600080fd5b506001600160a01b038135811691602081013582169160408201359160608101359160808201359160a08101359091169060c08101359060e081013515159060ff6101008201351690610120810135906101400135610f88565b6040805192835260208301919091528051918290030190f35b3480156104c357600080fd5b5061022f611082565b6103d0600480360360808110156104e257600080fd5b81359190810190604081016020820135600160201b81111561050357600080fd5b82018360208201111561051557600080fd5b803590602001918460208302840111600160201b8311171561053657600080fd5b91935091506001600160a01b038135169060200135611091565b34801561055c57600080fd5b506103d0600480360360a081101561057357600080fd5b813591602081013591810190606081016040820135600160201b81111561059957600080fd5b8201836020820111156105ab57600080fd5b803590602001918460208302840111600160201b831117156105cc57600080fd5b91935091506001600160a01b038135169060200135611471565b6103d0600480360360808110156105fc57600080fd5b81359190810190604081016020820135600160201b81111561061d57600080fd5b82018360208201111561062f57600080fd5b803590602001918460208302840111600160201b8311171561065057600080fd5b91935091506001600160a01b038135169060200135611697565b34801561067657600080fd5b50610213600480360360a081101561068d57600080fd5b813591602081013591810190606081016040820135600160201b8111156106b357600080fd5b8201836020820111156106c557600080fd5b803590602001918460208302840111600160201b831117156106e657600080fd5b91935091506001600160a01b038135169060200135611a45565b34801561070c57600080fd5b5061022f611ce8565b34801561072157600080fd5b506102816004803603606081101561073857600080fd5b5080359060208101359060400135611d0c565b34801561075757600080fd5b506103d0600480360360a081101561076e57600080fd5b813591602081013591810190606081016040820135600160201b81111561079457600080fd5b8201836020820111156107a657600080fd5b803590602001918460208302840111600160201b831117156107c757600080fd5b91935091506001600160a01b038135169060200135611d19565b610827600480360360c08110156107f757600080fd5b506001600160a01b0381358116916020810135916040820135916060810135916080820135169060a00135611e8d565b60408051938452602084019290925282820152519081900360600190f35b34801561085157600080fd5b50610213600480360360a081101561086857600080fd5b813591602081013591810190606081016040820135600160201b81111561088e57600080fd5b8201836020820111156108a057600080fd5b803590602001918460208302840111600160201b831117156108c157600080fd5b91935091506001600160a01b038135169060200135612132565b3480156108e757600080fd5b5061049e60048036036101408110156108ff57600080fd5b506001600160a01b0381358116916020810135916040820135916060810135916080820135169060a08101359060c081013515159060ff60e082013516906101008101359061012001356123cc565b34801561095a57600080fd5b506102136004803603602081101561097157600080fd5b50356001600160a01b03166124e0565b34801561098d57600080fd5b50610281600480360360608110156109a457600080fd5b5080359060208101359060400135612561565b3480156109c357600080fd5b5061049e600480360360e08110156109da57600080fd5b506001600160a01b038135811691602081013582169160408201359160608101359160808201359160a08101359091169060c0013561256e565b348015610a2057600080fd5b506103d0600480360360a0811015610a3757600080fd5b813591602081013591810190606081016040820135600160201b811115610a5d57600080fd5b820183602082011115610a6f57600080fd5b803590602001918460208302840111600160201b83111715610a9057600080fd5b91935091506001600160a01b0381351690602001356127b2565b348015610ab657600080fd5b5061049e600480360360c0811015610acd57600080fd5b506001600160a01b0381358116916020810135916040820135916060810135916080820135169060a00135612a6f565b348015610b0957600080fd5b5061022f612b89565b348015610b1e57600080fd5b506103d060048036036040811015610b3557600080fd5b81359190810190604081016020820135600160201b811115610b5657600080fd5b820183602082011115610b6857600080fd5b803590602001918460208302840111600160201b83111715610b8957600080fd5b919080806020026020016040519081016040528093929190818152602001838360200280828437600092019190915250929550612bad945050505050565b61021360048036036080811015610bdd57600080fd5b81359190810190604081016020820135600160201b811115610bfe57600080fd5b820183602082011115610c1057600080fd5b803590602001918460208302840111600160201b83111715610c3157600080fd5b91935091506001600160a01b038135169060200135612bda565b348015610c5757600080fd5b506108276004803603610100811015610c6f57600080fd5b506001600160a01b038135811691602081013582169160408201359160608101359160808201359160a08101359160c0820135169060e00135612f95565b348015610cb957600080fd5b506103d0600480360360a0811015610cd057600080fd5b813591602081013591810190606081016040820135600160201b811115610cf657600080fd5b820183602082011115610d0857600080fd5b803590602001918460208302840111600160201b83111715610d2957600080fd5b91935091506001600160a01b0381351690602001356130d1565b348015610d4f57600080fd5b5061021360048036036020811015610d6657600080fd5b50356001600160a01b03166132db565b348015610d8257600080fd5b5061022f61335c565b348015610d9757600080fd5b5061021360048036036020811015610dae57600080fd5b50356001600160a01b031661336b565b348015610dca57600080fd5b50610281600480360360c0811015610de157600080fd5b506001600160a01b0381358116916020810135916040820135916060810135916080820135169060a001356133ec565b6002546001600160a01b031681565b6000610e2d84848461356d565b949350505050565b6003546001600160a01b031681565b600080610e927f00000000000000000000000000000000000000000000000000000000000000008d7f000000000000000000000000000000000000000000000000000000000000000061365d565b9050600086610ea1578b610ea5565b6000195b6040805163d505accf60e01b815233600482015230602482015260448101839052606481018b905260ff8916608482015260a4810188905260c4810187905290519192506001600160a01b0384169163d505accf9160e48082019260009290919082900301818387803b158015610f1b57600080fd5b505af1158015610f2f573d6000803e3d6000fd5b50505050610f418d8d8d8d8d8d6133ec565b9d9c50505050505050505050505050565b6060610f7f7f0000000000000000000000000000000000000000000000000000000000000000848461371d565b90505b92915050565b6000806000610fb87f00000000000000000000000000000000000000000000000000000000000000008f8f61365d565b9050600087610fc7578c610fcb565b6000195b6040805163d505accf60e01b815233600482015230602482015260448101839052606481018c905260ff8a16608482015260a4810189905260c4810188905290519192506001600160a01b0384169163d505accf9160e48082019260009290919082900301818387803b15801561104157600080fd5b505af1158015611055573d6000803e3d6000fd5b505050506110688f8f8f8f8f8f8f61256e565b809450819550505050509b509b9950505050505050505050565b6005546001600160a01b031681565b606081428110156110d7576040805162461bcd60e51b815260206004820152601a60248201526000805160206150e4833981519152604482015290519081900360640190fd5b7f00000000000000000000000000000000000000000000000000000000000000006001600160a01b03168686600081811061110e57fe5b905060200201356001600160a01b03166001600160a01b031614611167576040805162461bcd60e51b815260206004820152601f6024820152600080516020615002833981519152604482015290519081900360640190fd5b6111c57f00000000000000000000000000000000000000000000000000000000000000003488888080602002602001604051908101604052809392919081815260200183836020028082843760009201919091525061386a92505050565b915086826001845103815181106111d857fe5b6020026020010151101561121d5760405162461bcd60e51b815260040180806020018281038252602d815260200180614f7f602d913960400191505060405180910390fd5b7f00000000000000000000000000000000000000000000000000000000000000006001600160a01b031663d0e30db08360008151811061125957fe5b60200260200101516040518263ffffffff1660e01b81526004016000604051808303818588803b15801561128c57600080fd5b505af11580156112a0573d6000803e3d6000fd5b50505050506112e4826000815181106112b557fe5b60200260200101517f0000000000000000000000000000000000000000000000000000000000000000866139a1565b826000815181106112f157fe5b6020026020010181815250507f00000000000000000000000000000000000000000000000000000000000000006001600160a01b031663a9059cbb61138f7f00000000000000000000000000000000000000000000000000000000000000008989600081811061135d57fe5b905060200201356001600160a01b03168a8a600181811061137a57fe5b905060200201356001600160a01b031661365d565b8460008151811061139c57fe5b60200260200101516040518363ffffffff1660e01b815260040180836001600160a01b03166001600160a01b0316815260200182815260200192505050602060405180830381600087803b1580156113f357600080fd5b505af1158015611407573d6000803e3d6000fd5b505050506040513d602081101561141d57600080fd5b505161142557fe5b61146734838888808060200260200160405190810160405280939291908181526020018383602002808284376000920191909152508a9250829150613b2d9050565b5095945050505050565b606081428110156114b7576040805162461bcd60e51b815260206004820152601a60248201526000805160206150e4833981519152604482015290519081900360640190fd5b6115157f00000000000000000000000000000000000000000000000000000000000000008988888080602002602001604051908101604052809392919081815260200183836020028082843760009201919091525061386a92505050565b91506115528260008151811061152757fe5b60200260200101518787600081811061153c57fe5b905060200201356001600160a01b0316866139a1565b8260008151811061155f57fe5b602002602001018181525050868260018451038151811061157c57fe5b602002602001015110156115c15760405162461bcd60e51b815260040180806020018281038252602d815260200180614f7f602d913960400191505060405180910390fd5b61164a868660008181106115d157fe5b905060200201356001600160a01b0316336116307f00000000000000000000000000000000000000000000000000000000000000008a8a600081811061161357fe5b905060200201356001600160a01b03168b8b600181811061137a57fe5b8560008151811061163d57fe5b6020026020010151613f39565b61168c88838888808060200260200160405190810160405280939291908181526020018383602002808284376000920191909152508a9250829150613b2d9050565b509695505050505050565b606081428110156116dd576040805162461bcd60e51b815260206004820152601a60248201526000805160206150e4833981519152604482015290519081900360640190fd5b7f00000000000000000000000000000000000000000000000000000000000000006001600160a01b03168686600081811061171457fe5b905060200201356001600160a01b03166001600160a01b03161461176d576040805162461bcd60e51b815260206004820152601f6024820152600080516020615002833981519152604482015290519081900360640190fd5b6117cb7f00000000000000000000000000000000000000000000000000000000000000008888888080602002602001604051908101604052809392919081815260200183836020028082843760009201919091525061371d92505050565b91506117dd826000815181106112b557fe5b826000815181106117ea57fe5b602002602001018181525050348260008151811061180457fe5b602002602001015111156118495760405162461bcd60e51b8152600401808060200182810382526029815260200180614f2e6029913960400191505060405180910390fd5b7f00000000000000000000000000000000000000000000000000000000000000006001600160a01b031663d0e30db08360008151811061188557fe5b60200260200101516040518263ffffffff1660e01b81526004016000604051808303818588803b1580156118b857600080fd5b505af11580156118cc573d6000803e3d6000fd5b50505050507f00000000000000000000000000000000000000000000000000000000000000006001600160a01b031663a9059cbb6119317f00000000000000000000000000000000000000000000000000000000000000008989600081811061135d57fe5b8460008151811061193e57fe5b60200260200101516040518363ffffffff1660e01b815260040180836001600160a01b03166001600160a01b0316815260200182815260200192505050602060405180830381600087803b15801561199557600080fd5b505af11580156119a9573d6000803e3d6000fd5b505050506040513d60208110156119bf57600080fd5b50516119c757fe5b611a0934838888808060200260200160405190810160405280939291908181526020018383602002808284376000920191909152508a9250829150613b2d9050565b81600081518110611a1657fe5b6020026020010151341115611467576114673383600081518110611a3657fe5b60200260200101513403614096565b8042811015611a89576040805162461bcd60e51b815260206004820152601a60248201526000805160206150e4833981519152604482015290519081900360640190fd5b611ab08786866000818110611a9a57fe5b905060200201356001600160a01b0316856139a1565b9650611b0a85856000818110611ac257fe5b905060200201356001600160a01b031633611b047f00000000000000000000000000000000000000000000000000000000000000008989600081811061135d57fe5b8a613f39565b600085856000198101818110611b1c57fe5b905060200201356001600160a01b03166001600160a01b03166370a08231856040518263ffffffff1660e01b815260040180826001600160a01b03166001600160a01b0316815260200191505060206040518083038186803b158015611b8157600080fd5b505afa158015611b95573d6000803e3d6000fd5b505050506040513d6020811015611bab57600080fd5b50516040805160208881028281018201909352888252929350611bef928b928a918a91829185019084908082843760009201919091525089925082915061418e9050565b86611ca18288886000198101818110611c0457fe5b905060200201356001600160a01b03166001600160a01b03166370a08231886040518263ffffffff1660e01b815260040180826001600160a01b03166001600160a01b0316815260200191505060206040518083038186803b158015611c6957600080fd5b505afa158015611c7d573d6000803e3d6000fd5b505050506040513d6020811015611c9357600080fd5b50519063ffffffff61468916565b1015611cde5760405162461bcd60e51b815260040180806020018281038252602d815260200180614f7f602d913960400191505060405180910390fd5b5050505050505050565b7f000000000000000000000000000000000000000000000000000000000000000081565b6000610e2d8484846146cb565b60608142811015611d5f576040805162461bcd60e51b815260206004820152601a60248201526000805160206150e4833981519152604482015290519081900360640190fd5b611dbd7f00000000000000000000000000000000000000000000000000000000000000008988888080602002602001604051908101604052809392919081815260200183836020028082843760009201919091525061371d92505050565b9150611dcf8260008151811061152757fe5b82600081518110611ddc57fe5b6020026020010181815250508682600081518110611df657fe5b60200260200101511115611e3b5760405162461bcd60e51b8152600401808060200182810382526029815260200180614f2e6029913960400191505060405180910390fd5b611e4b868660008181106115d157fe5b61168c87838888808060200260200160405190810160405280939291908181526020018383602002808284376000920191909152508a9250829150613b2d9050565b60008060008342811015611ed6576040805162461bcd60e51b815260206004820152601a60248201526000805160206150e4833981519152604482015290519081900360640190fd5b611f048a7f00000000000000000000000000000000000000000000000000000000000000008b348c8c6147bb565b90945092506000611f567f00000000000000000000000000000000000000000000000000000000000000008c7f000000000000000000000000000000000000000000000000000000000000000061365d565b9050611f648b338388613f39565b7f00000000000000000000000000000000000000000000000000000000000000006001600160a01b031663d0e30db0856040518263ffffffff1660e01b81526004016000604051808303818588803b158015611fbf57600080fd5b505af1158015611fd3573d6000803e3d6000fd5b50505050507f00000000000000000000000000000000000000000000000000000000000000006001600160a01b031663a9059cbb82866040518363ffffffff1660e01b815260040180836001600160a01b03166001600160a01b0316815260200182815260200192505050602060405180830381600087803b15801561205857600080fd5b505af115801561206c573d6000803e3d6000fd5b505050506040513d602081101561208257600080fd5b505161208a57fe5b806001600160a01b0316636a627842886040518263ffffffff1660e01b815260040180826001600160a01b03166001600160a01b03168152602001915050602060405180830381600087803b1580156120e257600080fd5b505af11580156120f6573d6000803e3d6000fd5b505050506040513d602081101561210c57600080fd5b50519250348410156121245761212433853403614096565b505096509650969350505050565b8042811015612176576040805162461bcd60e51b815260206004820152601a60248201526000805160206150e4833981519152604482015290519081900360640190fd5b6001600160a01b037f000000000000000000000000000000000000000000000000000000000000000016858560001981018181106121b057fe5b905060200201356001600160a01b03166001600160a01b031614612209576040805162461bcd60e51b815260206004820152601f6024820152600080516020615002833981519152604482015290519081900360640190fd5b61221a8786866000818110611a9a57fe5b965061222c85856000818110611ac257fe5b61226d8786868080602002602001604051908101604052809392919081815260200183836020028082843760009201919091525030925088915061418e9050565b604080516370a0823160e01b815230600482015290516000916001600160a01b037f000000000000000000000000000000000000000000000000000000000000000016916370a0823191602480820192602092909190829003018186803b1580156122d757600080fd5b505afa1580156122eb573d6000803e3d6000fd5b505050506040513d602081101561230157600080fd5b50519050868110156123445760405162461bcd60e51b815260040180806020018281038252602d815260200180614f7f602d913960400191505060405180910390fd5b7f00000000000000000000000000000000000000000000000000000000000000006001600160a01b0316632e1a7d4d826040518263ffffffff1660e01b815260040180828152602001915050600060405180830381600087803b1580156123aa57600080fd5b505af11580156123be573d6000803e3d6000fd5b50505050611cde8482614096565b600080600061241c7f00000000000000000000000000000000000000000000000000000000000000008e7f000000000000000000000000000000000000000000000000000000000000000061365d565b905060008761242b578c61242f565b6000195b6040805163d505accf60e01b815233600482015230602482015260448101839052606481018c905260ff8a16608482015260a4810189905260c4810188905290519192506001600160a01b0384169163d505accf9160e48082019260009290919082900301818387803b1580156124a557600080fd5b505af11580156124b9573d6000803e3d6000fd5b505050506124cb8e8e8e8e8e8e612a6f565b909f909e509c50505050505050505050505050565b6003546001600160a01b0316331461253f576040805162461bcd60e51b815260206004820152601c60248201527f4269746765727453776170526f757465723a20464f5242494444454e00000000604482015290519081900360640190fd5b600380546001600160a01b0319166001600160a01b0392909216919091179055565b6000610e2d848484614a2f565b60008082428110156125b5576040805162461bcd60e51b815260206004820152601a60248201526000805160206150e4833981519152604482015290519081900360640190fd5b60006125e27f00000000000000000000000000000000000000000000000000000000000000008c8c61365d565b604080516323b872dd60e01b81523360048201526001600160a01b03831660248201819052604482018d9052915192935090916323b872dd916064808201926020929091908290030181600087803b15801561263d57600080fd5b505af1158015612651573d6000803e3d6000fd5b505050506040513d602081101561266757600080fd5b50506040805163226bf2d160e21b81526001600160a01b03888116600483015282516000938493928616926389afcb44926024808301939282900301818787803b1580156126b457600080fd5b505af11580156126c8573d6000803e3d6000fd5b505050506040513d60408110156126de57600080fd5b508051602090910151909250905060006126f88e8e614adb565b509050806001600160a01b03168e6001600160a01b03161461271b57818361271e565b82825b90975095508a8710156127625760405162461bcd60e51b8152600401808060200182810382526028815260200180614f576028913960400191505060405180910390fd5b898610156127a15760405162461bcd60e51b8152600401808060200182810382526028815260200180614fda6028913960400191505060405180910390fd5b505050505097509795505050505050565b606081428110156127f8576040805162461bcd60e51b815260206004820152601a60248201526000805160206150e4833981519152604482015290519081900360640190fd5b6001600160a01b037f0000000000000000000000000000000000000000000000000000000000000000168686600019810181811061283257fe5b905060200201356001600160a01b03166001600160a01b03161461288b576040805162461bcd60e51b815260206004820152601f6024820152600080516020615002833981519152604482015290519081900360640190fd5b6128e97f00000000000000000000000000000000000000000000000000000000000000008988888080602002602001604051908101604052809392919081815260200183836020028082843760009201919091525061371d92505050565b91506128fb8260008151811061152757fe5b8260008151811061290857fe5b602002602001018181525050868260008151811061292257fe5b602002602001015111156129675760405162461bcd60e51b8152600401808060200182810382526029815260200180614f2e6029913960400191505060405180910390fd5b612977868660008181106115d157fe5b6129b987838888808060200260200160405190810160405280939291908181526020018383602002808284376000920191909152503092508a9150613b2d9050565b7f00000000000000000000000000000000000000000000000000000000000000006001600160a01b0316632e1a7d4d836001855103815181106129f857fe5b60200260200101516040518263ffffffff1660e01b815260040180828152602001915050600060405180830381600087803b158015612a3657600080fd5b505af1158015612a4a573d6000803e3d6000fd5b5050505061168c8483600185510381518110612a6257fe5b6020026020010151614096565b6000808242811015612ab6576040805162461bcd60e51b815260206004820152601a60248201526000805160206150e4833981519152604482015290519081900360640190fd5b612ae5897f00000000000000000000000000000000000000000000000000000000000000008a8a8a308a61256e565b9093509150612af5898685614bb9565b7f00000000000000000000000000000000000000000000000000000000000000006001600160a01b0316632e1a7d4d836040518263ffffffff1660e01b815260040180828152602001915050600060405180830381600087803b158015612b5b57600080fd5b505af1158015612b6f573d6000803e3d6000fd5b50505050612b7d8583614096565b50965096945050505050565b7f000000000000000000000000000000000000000000000000000000000000000081565b6060610f7f7f0000000000000000000000000000000000000000000000000000000000000000848461386a565b8042811015612c1e576040805162461bcd60e51b815260206004820152601a60248201526000805160206150e4833981519152604482015290519081900360640190fd5b7f00000000000000000000000000000000000000000000000000000000000000006001600160a01b031685856000818110612c5557fe5b905060200201356001600160a01b03166001600160a01b031614612cae576040805162461bcd60e51b815260206004820152601f6024820152600080516020615002833981519152604482015290519081900360640190fd5b60003490507f00000000000000000000000000000000000000000000000000000000000000006001600160a01b031663d0e30db0826040518263ffffffff1660e01b81526004016000604051808303818588803b158015612d0e57600080fd5b505af1158015612d22573d6000803e3d6000fd5b5050505050612d52817f0000000000000000000000000000000000000000000000000000000000000000866139a1565b90507f00000000000000000000000000000000000000000000000000000000000000006001600160a01b031663a9059cbb612db47f00000000000000000000000000000000000000000000000000000000000000008989600081811061135d57fe5b836040518363ffffffff1660e01b815260040180836001600160a01b03166001600160a01b0316815260200182815260200192505050602060405180830381600087803b158015612e0457600080fd5b505af1158015612e18573d6000803e3d6000fd5b505050506040513d6020811015612e2e57600080fd5b5051612e3657fe5b600086866000198101818110612e4857fe5b905060200201356001600160a01b03166001600160a01b03166370a08231866040518263ffffffff1660e01b815260040180826001600160a01b03166001600160a01b0316815260200191505060206040518083038186803b158015612ead57600080fd5b505afa158015612ec1573d6000803e3d6000fd5b505050506040513d6020811015612ed757600080fd5b50516040805160208981028281018201909352898252929350612f1b9285928b918b9182918501908490808284376000920191909152508a925082915061418e9050565b87611ca18289896000198101818110612f3057fe5b905060200201356001600160a01b03166001600160a01b03166370a08231896040518263ffffffff1660e01b815260040180826001600160a01b03166001600160a01b0316815260200191505060206040518083038186803b158015611c6957600080fd5b60008060008342811015612fde576040805162461bcd60e51b815260206004820152601a60248201526000805160206150e4833981519152604482015290519081900360640190fd5b612fec8c8c8c8c8c8c6147bb565b9094509250600061301e7f00000000000000000000000000000000000000000000000000000000000000008e8e61365d565b905061302c8d338388613f39565b6130388c338387613f39565b806001600160a01b0316636a627842886040518263ffffffff1660e01b815260040180826001600160a01b03166001600160a01b03168152602001915050602060405180830381600087803b15801561309057600080fd5b505af11580156130a4573d6000803e3d6000fd5b505050506040513d60208110156130ba57600080fd5b5051949d939c50939a509198505050505050505050565b60608142811015613117576040805162461bcd60e51b815260206004820152601a60248201526000805160206150e4833981519152604482015290519081900360640190fd5b6001600160a01b037f0000000000000000000000000000000000000000000000000000000000000000168686600019810181811061315157fe5b905060200201356001600160a01b03166001600160a01b0316146131aa576040805162461bcd60e51b815260206004820152601f6024820152600080516020615002833981519152604482015290519081900360640190fd5b6132087f00000000000000000000000000000000000000000000000000000000000000008988888080602002602001604051908101604052809392919081815260200183836020028082843760009201919091525061386a92505050565b915061321a8260008151811061152757fe5b8260008151811061322757fe5b602002602001018181525050868260018451038151811061324457fe5b602002602001015110156132895760405162461bcd60e51b815260040180806020018281038252602d815260200180614f7f602d913960400191505060405180910390fd5b613299868660008181106115d157fe5b6129b988838888808060200260200160405190810160405280939291908181526020018383602002808284376000920191909152503092508a9150613b2d9050565b6003546001600160a01b0316331461333a576040805162461bcd60e51b815260206004820152601c60248201527f4269746765727453776170526f757465723a20464f5242494444454e00000000604482015290519081900360640190fd5b600280546001600160a01b0319166001600160a01b0392909216919091179055565b6004546001600160a01b031681565b6003546001600160a01b031633146133ca576040805162461bcd60e51b815260206004820152601c60248201527f4269746765727453776170526f757465723a20464f5242494444454e00000000604482015290519081900360640190fd5b600480546001600160a01b0319166001600160a01b0392909216919091179055565b60008142811015613432576040805162461bcd60e51b815260206004820152601a60248201526000805160206150e4833981519152604482015290519081900360640190fd5b613461887f0000000000000000000000000000000000000000000000000000000000000000898989308961256e565b604080516370a0823160e01b815230600482015290519194506134e592508a9187916001600160a01b038416916370a0823191602480820192602092909190829003018186803b1580156134b457600080fd5b505afa1580156134c8573d6000803e3d6000fd5b505050506040513d60208110156134de57600080fd5b5051614bb9565b7f00000000000000000000000000000000000000000000000000000000000000006001600160a01b0316632e1a7d4d836040518263ffffffff1660e01b815260040180828152602001915050600060405180830381600087803b15801561354b57600080fd5b505af115801561355f573d6000803e3d6000fd5b5050505061168c8483614096565b60008084116135ad5760405162461bcd60e51b815260040180806020018281038252602d815260200180615022602d913960400191505060405180910390fd5b6000831180156135bd5750600082115b6135f85760405162461bcd60e51b815260040180806020018281038252602a8152602001806150ba602a913960400191505060405180910390fd5b600061360c856103e563ffffffff614d1c16565b90506000613620828563ffffffff614d1c16565b905060006136468361363a886103e863ffffffff614d1c16565b9063ffffffff614d7516565b905080828161365157fe5b04979650505050505050565b600080600061366c8585614adb565b604080516bffffffffffffffffffffffff19606094851b811660208084019190915293851b81166034830152825160288184030181526048830184528051908501206001600160f81b031960688401529a90941b9093166069840152607d8301989098527fd0a65eee32c829677d84ce15b5d94f37807e582560fe4d4f2150bc81a70ba430609d808401919091528851808403909101815260bd909201909752805196019590952095945050505050565b6060600282511015613776576040805162461bcd60e51b815260206004820181905260248201527f42697467657274537761704c6962726172793a20494e56414c49445f50415448604482015290519081900360640190fd5b815167ffffffffffffffff8111801561378e57600080fd5b506040519080825280602002602001820160405280156137b8578160200160208202803683370190505b50905082816001835103815181106137cc57fe5b60209081029190910101528151600019015b80156138625760008061381b878660018603815181106137fa57fe5b602002602001015187868151811061380e57fe5b6020026020010151614dcf565b9150915061383d84848151811061382e57fe5b602002602001015183836146cb565b84600185038151811061384c57fe5b60209081029190910101525050600019016137de565b509392505050565b60606002825110156138c3576040805162461bcd60e51b815260206004820181905260248201527f42697467657274537761704c6962726172793a20494e56414c49445f50415448604482015290519081900360640190fd5b815167ffffffffffffffff811180156138db57600080fd5b50604051908082528060200260200182016040528015613905578160200160208202803683370190505b509050828160008151811061391657fe5b60200260200101818152505060005b60018351038110156138625760008061395b8786858151811061394457fe5b602002602001015187866001018151811061380e57fe5b9150915061397d84848151811061396e57fe5b6020026020010151838361356d565b84846001018151811061398c57fe5b60209081029190910101525050600101613925565b6000806101f4850490507f00000000000000000000000000000000000000000000000000000000000000006001600160a01b0316846001600160a01b03161415613a93576002546040805163a9059cbb60e01b81526001600160a01b0392831660048201526024810184905290517f00000000000000000000000000000000000000000000000000000000000000009092169163a9059cbb916044808201926020929091908290030181600087803b158015613a5c57600080fd5b505af1158015613a70573d6000803e3d6000fd5b505050506040513d6020811015613a8657600080fd5b5051613a8e57fe5b613b23565b600254604080516323b872dd60e01b81526001600160a01b0386811660048301529283166024820152604481018490529051918616916323b872dd916064808201926020929091908290030181600087803b158015613af157600080fd5b505af1158015613b05573d6000803e3d6000fd5b505050506040513d6020811015613b1b57600080fd5b5051613b2357fe5b9093039392505050565b60005b6001845103811015613cd757600080858381518110613b4b57fe5b6020026020010151868460010181518110613b6257fe5b6020026020010151915091506000613b7a8383614adb565b5090506000888560010181518110613b8e57fe5b60200260200101519050600080836001600160a01b0316866001600160a01b031614613bbc57826000613bc0565b6000835b91509150600060028b51038810613bd75789613c18565b613c187f0000000000000000000000000000000000000000000000000000000000000000878d8b60020181518110613c0b57fe5b602002602001015161365d565b9050613c457f0000000000000000000000000000000000000000000000000000000000000000888861365d565b6001600160a01b0316636d9a640a8484846040518463ffffffff1660e01b815260040180848152602001838152602001826001600160a01b03166001600160a01b031681526020019350505050600060405180830381600087803b158015613cac57600080fd5b505af1158015613cc0573d6000803e3d6000fd5b505060019099019850613b30975050505050505050565b5060045483516001600160a01b03909116908490600090613cf457fe5b60200260200101516001600160a01b031614613f325760008590507f00000000000000000000000000000000000000000000000000000000000000006001600160a01b031684600081518110613d4657fe5b60200260200101516001600160a01b031614613e2d5783600081518110613d6957fe5b602002602001015160008081548110613d7e57fe5b9060005260206000200160006101000a8154816001600160a01b0302191690836001600160a01b031602179055506060613e12876000805480602002602001604051908101604052809291908181526020018280548015613e0857602002820191906000526020600020905b81546001600160a01b03168152600190910190602001808311613dea575b5050505050612bad565b905080600181518110613e2157fe5b60200260200101519150505b600060c8820490506060613e99826001805480602002602001604051908101604052809291908181526020018280548015613e08576020028201919060005260206000209081546001600160a01b03168152600190910190602001808311613dea575050505050612bad565b60055481519192506001600160a01b0316906371bb61f39083906001908110613ebe57fe5b6020026020010151866040518363ffffffff1660e01b815260040180838152602001826001600160a01b03166001600160a01b0316815260200192505050600060405180830381600087803b158015613f1657600080fd5b505af1158015613f2a573d6000803e3d6000fd5b505050505050505b5050505050565b604080516001600160a01b0385811660248301528481166044830152606480830185905283518084039091018152608490920183526020820180516001600160e01b03166323b872dd60e01b17815292518251600094606094938a169392918291908083835b60208310613fbe5780518252601f199092019160209182019101613f9f565b6001836020036101000a0380198251168184511680821785525050505050509050019150506000604051808303816000865af19150503d8060008114614020576040519150601f19603f3d011682016040523d82523d6000602084013e614025565b606091505b5091509150818015614053575080511580614053575080806020019051602081101561405057600080fd5b50515b61408e5760405162461bcd60e51b815260040180806020018281038252602481526020018061512b6024913960400191505060405180910390fd5b505050505050565b604080516000808252602082019092526001600160a01b0384169083906040518082805190602001908083835b602083106140e25780518252601f1990920191602091820191016140c3565b6001836020036101000a03801982511681845116808217855250505050505090500191505060006040518083038185875af1925050503d8060008114614144576040519150601f19603f3d011682016040523d82523d6000602084013e614149565b606091505b50509050806141895760405162461bcd60e51b81526004018080602001828103825260238152602001806150976023913960400191505060405180910390fd5b505050565b60005b600184510381101561442a576000808583815181106141ac57fe5b60200260200101518684600101815181106141c357fe5b60200260200101519150915060006141db8383614adb565b509050600061420b7f0000000000000000000000000000000000000000000000000000000000000000858561365d565b9050600080600080846001600160a01b0316630902f1ac6040518163ffffffff1660e01b815260040160606040518083038186803b15801561424c57600080fd5b505afa158015614260573d6000803e3d6000fd5b505050506040513d606081101561427657600080fd5b5080516020909101516001600160701b0391821693501690506000806001600160a01b038a8116908916146142ac5782846142af565b83835b9150915061430d828b6001600160a01b03166370a082318a6040518263ffffffff1660e01b815260040180826001600160a01b03166001600160a01b0316815260200191505060206040518083038186803b158015611c6957600080fd5b955061431a86838361356d565b945050505050600080856001600160a01b0316886001600160a01b03161461434457826000614348565b6000835b91509150600060028d51038a1061435f578b614393565b6143937f0000000000000000000000000000000000000000000000000000000000000000898f8d60020181518110613c0b57fe5b9050856001600160a01b0316636d9a640a8484846040518463ffffffff1660e01b815260040180848152602001838152602001826001600160a01b03166001600160a01b031681526020019350505050600060405180830381600087803b1580156143fd57600080fd5b505af1158015614411573d6000803e3d6000fd5b50506001909b019a506141919950505050505050505050565b5060045483516001600160a01b0390911690849060009061444757fe5b60200260200101516001600160a01b0316146146835760008490507f00000000000000000000000000000000000000000000000000000000000000006001600160a01b03168460008151811061449957fe5b60200260200101516001600160a01b03161461457e57836000815181106144bc57fe5b6020026020010151600080815481106144d157fe5b9060005260206000200160006101000a8154816001600160a01b0302191690836001600160a01b031602179055506060614563866000805480602002602001604051908101604052809291908181526020018280548015613e08576020028201919060005260206000209081546001600160a01b03168152600190910190602001808311613dea575050505050612bad565b90508060018151811061457257fe5b60200260200101519150505b600060c88204905060606145ea826001805480602002602001604051908101604052809291908181526020018280548015613e08576020028201919060005260206000209081546001600160a01b03168152600190910190602001808311613dea575050505050612bad565b60055481519192506001600160a01b0316906371bb61f3908390600190811061460f57fe5b6020026020010151866040518363ffffffff1660e01b815260040180838152602001826001600160a01b03166001600160a01b0316815260200192505050600060405180830381600087803b15801561466757600080fd5b505af115801561467b573d6000803e3d6000fd5b505050505050505b50505050565b6000610f7f83836040518060400160405280601e81526020017f536166654d6174683a207375627472616374696f6e206f766572666c6f770000815250614e96565b600080841161470b5760405162461bcd60e51b815260040180806020018281038252602e815260200180614fac602e913960400191505060405180910390fd5b60008311801561471b5750600082115b6147565760405162461bcd60e51b815260040180806020018281038252602a8152602001806150ba602a913960400191505060405180910390fd5b600061477a6103e861476e868863ffffffff614d1c16565b9063ffffffff614d1c16565b905060006147946103e561476e868963ffffffff61468916565b90506147b160018284816147a457fe5b049063ffffffff614d7516565b9695505050505050565b6040805163e6a4390560e01b81526001600160a01b03888116600483015287811660248301529151600092839283927f00000000000000000000000000000000000000000000000000000000000000009092169163e6a4390591604480820192602092909190829003018186803b15801561483557600080fd5b505afa158015614849573d6000803e3d6000fd5b505050506040513d602081101561485f57600080fd5b50516001600160a01b0316141561491257604080516364e329cb60e11b81526001600160a01b038a81166004830152898116602483015291517f00000000000000000000000000000000000000000000000000000000000000009092169163c9c65396916044808201926020929091908290030181600087803b1580156148e557600080fd5b505af11580156148f9573d6000803e3d6000fd5b505050506040513d602081101561490f57600080fd5b50505b6000806149407f00000000000000000000000000000000000000000000000000000000000000008b8b614dcf565b91509150816000148015614952575080155b1561496257879350869250614a22565b600061496f898484614a2f565b90508781116149c257858110156149b75760405162461bcd60e51b8152600401808060200182810382526028815260200180614fda6028913960400191505060405180910390fd5b889450925082614a20565b60006149cf898486614a2f565b9050898111156149db57fe5b87811015614a1a5760405162461bcd60e51b8152600401808060200182810382526028815260200180614f576028913960400191505060405180910390fd5b94508793505b505b5050965096945050505050565b6000808411614a6f5760405162461bcd60e51b81526004018080602001828103825260278152602001806151046027913960400191505060405180910390fd5b600083118015614a7f5750600082115b614aba5760405162461bcd60e51b815260040180806020018281038252602a8152602001806150ba602a913960400191505060405180910390fd5b82614acb858463ffffffff614d1c16565b81614ad257fe5b04949350505050565b600080826001600160a01b0316846001600160a01b03161415614b2f5760405162461bcd60e51b815260040180806020018281038252602781526020018061504f6027913960400191505060405180910390fd5b826001600160a01b0316846001600160a01b031610614b4f578284614b52565b83835b90925090506001600160a01b038216614bb2576040805162461bcd60e51b815260206004820181905260248201527f42697467657274537761704c6962726172793a205a45524f5f41444452455353604482015290519081900360640190fd5b9250929050565b604080516001600160a01b038481166024830152604480830185905283518084039091018152606490920183526020820180516001600160e01b031663a9059cbb60e01b178152925182516000946060949389169392918291908083835b60208310614c365780518252601f199092019160209182019101614c17565b6001836020036101000a0380198251168184511680821785525050505050509050019150506000604051808303816000865af19150503d8060008114614c98576040519150601f19603f3d011682016040523d82523d6000602084013e614c9d565b606091505b5091509150818015614ccb575080511580614ccb5750808060200190516020811015614cc857600080fd5b50515b613f32576040805162461bcd60e51b815260206004820152601f60248201527f5472616e7366657248656c7065723a205452414e534645525f4641494c454400604482015290519081900360640190fd5b600082614d2b57506000610f82565b82820282848281614d3857fe5b0414610f7f5760405162461bcd60e51b81526004018080602001828103825260218152602001806150766021913960400191505060405180910390fd5b600082820183811015610f7f576040805162461bcd60e51b815260206004820152601b60248201527f536166654d6174683a206164646974696f6e206f766572666c6f770000000000604482015290519081900360640190fd5b6000806000614dde8585614adb565b509050600080614def88888861365d565b6001600160a01b0316630902f1ac6040518163ffffffff1660e01b815260040160606040518083038186803b158015614e2757600080fd5b505afa158015614e3b573d6000803e3d6000fd5b505050506040513d6060811015614e5157600080fd5b5080516020909101516001600160701b0391821693501690506001600160a01b0387811690841614614e84578082614e87565b81815b90999098509650505050505050565b60008184841115614f255760405162461bcd60e51b81526004018080602001828103825283818151815260200191508051906020019080838360005b83811015614eea578181015183820152602001614ed2565b50505050905090810190601f168015614f175780820380516001836020036101000a031916815260200191505b509250505060405180910390fd5b50505090039056fe4269746765727453776170526f757465723a204558434553534956455f494e5055545f414d4f554e544269746765727453776170526f757465723a20494e53554646494349454e545f415f414d4f554e544269746765727453776170526f757465723a20494e53554646494349454e545f4f55545055545f414d4f554e5442697467657274537761704c6962726172793a20494e53554646494349454e545f4f55545055545f414d4f554e544269746765727453776170526f757465723a20494e53554646494349454e545f425f414d4f554e544269746765727453776170526f757465723a20494e56414c49445f504154480042697467657274537761704c6962726172793a20494e53554646494349454e545f494e5055545f414d4f554e5442697467657274537761704c6962726172793a204944454e544943414c5f414444524553534553536166654d6174683a206d756c7469706c69636174696f6e206f766572666c6f775472616e7366657248656c7065723a20424e425f5452414e534645525f4641494c454442697467657274537761704c6962726172793a20494e53554646494349454e545f4c49515549444954594269746765727453776170526f757465723a204558504952454400000000000042697467657274537761704c6962726172793a20494e53554646494349454e545f414d4f554e545472616e7366657248656c7065723a205452414e534645525f46524f4d5f4641494c4544a264697066735822122047f9ca8e9620d6ee2da118c6e6a9769093c2c51ec76632c27905aa35fc45b87564736f6c6343000606003360a06040526003805460ff1916600117905534801561001d57600080fd5b50604051610b35380380610b358339818101604052604081101561004057600080fd5b5080516020909101513360601b608052600080546001600160a01b039384166001600160a01b0319918216179091556001805493909216921691909117905560805160601c610a8f6100a660003980610605528061069c52806107365250610a8f6000f3fe608060405234801561001057600080fd5b50600436106100935760003560e01c8063d93c1f6811610066578063d93c1f681461013f578063de75584e1461015e578063e8e56088146101a3578063ef6bdb0e146101bd578063f9f92be4146101d957610093565b8063379607f51461009857806371bb61f3146100b75780639155e083146100e3578063a68c0e6a14610111575b600080fd5b6100b5600480360360208110156100ae57600080fd5b50356101ff565b005b6100b5600480360360408110156100cd57600080fd5b50803590602001356001600160a01b0316610425565b6100b5600480360360408110156100f957600080fd5b506001600160a01b0381351690602001351515610603565b6100b56004803603604081101561012757600080fd5b506001600160a01b038135811691602001351661069a565b6100b56004803603602081101561015557600080fd5b50351515610734565b61018a6004803603604081101561017457600080fd5b506001600160a01b0381351690602001356107b3565b6040805192835260208301919091528051918290030190f35b6101ab6107ec565b60408051918252519081900360200190f35b6101c56107ff565b604080519115158252519081900360200190f35b6101c5600480360360208110156101ef57600080fd5b50356001600160a01b0316610808565b33600090815260046020526040812080548390811061021a57fe5b9060005260206000209060020201600001541161027e576040805162461bcd60e51b815260206004820152601860248201527f506f73697469766520616d6f756e742065787065637465640000000000000000604482015290519081900360640190fd5b33600090815260046020526040902080548290811061029957fe5b906000526020600020906002020160010154623b5380014210156102f6576040805162461bcd60e51b815260206004820152600f60248201526e18d85b89dd0818db185a5b481e595d608a1b604482015290519081900360640190fd5b33600090815260046020526040812080548390811061031157fe5b600091825260208083206002909202909101543383526004909152604082208054919350908490811061034057fe5b600091825260208083206002909202909101929092556001546040805163a9059cbb60e01b815233600482015260248101869052905192936001600160a01b039092169263a9059cbb9260448084019391929182900301818787803b1580156103a857600080fd5b505af11580156103bc573d6000803e3d6000fd5b505050506040513d60208110156103d257600080fd5b5051905080610420576040805162461bcd60e51b8152602060048201526015602482015274151bdad95b881d1c985b9cd9995c8819985a5b1959605a1b604482015290519081900360640190fd5b505050565b6001600160a01b03811660009081526002602052604090205460ff1615610482576040805162461bcd60e51b815260206004820152600c60248201526b1a5b97d89b1858dadb1a5cdd60a21b604482015290519081900360640190fd5b60035460ff16156105ff57600082116104e2576040805162461bcd60e51b815260206004820152601f60248201527f616d6f756e742073686f756c64206265206d6f7265207468616e207a65726f00604482015290519081900360640190fd5b6001600160a01b03811661052f576040805162461bcd60e51b815260206004820152600f60248201526e1859191c995cdcc81a5b9d985b1a59608a1b604482015290519081900360640190fd5b600154600054604080516370a0823160e01b81526001600160a01b0392831660048201529051859392909216916370a0823191602480820192602092909190829003018186803b15801561058257600080fd5b505afa158015610596573d6000803e3d6000fd5b505050506040513d60208110156105ac57600080fd5b505110156105f5576040805162461bcd60e51b81526020600482015260116024820152704e6f7420656e6f75676820746f6b656e7360781b604482015290519081900360640190fd5b6105ff818361081d565b5050565b7f00000000000000000000000000000000000000000000000000000000000000006001600160a01b0316331461066f576040805162461bcd60e51b815260206004820152600c60248201526b2737ba1030b71037bbb732b960a11b604482015290519081900360640190fd5b6001600160a01b03919091166000908152600260205260409020805460ff1916911515919091179055565b7f00000000000000000000000000000000000000000000000000000000000000006001600160a01b03163314610706576040805162461bcd60e51b815260206004820152600c60248201526b2737ba1030b71037bbb732b960a11b604482015290519081900360640190fd5b600080546001600160a01b039384166001600160a01b03199182161790915560018054929093169116179055565b7f00000000000000000000000000000000000000000000000000000000000000006001600160a01b031633146107a0576040805162461bcd60e51b815260206004820152600c60248201526b2737ba1030b71037bbb732b960a11b604482015290519081900360640190fd5b6003805460ff1916911515919091179055565b600460205281600052604060002081815481106107cc57fe5b600091825260209091206002909102018054600190910154909250905082565b3360009081526004602052604090205490565b60035460ff1681565b60026020526000908152604090205460ff1681565b60015460005460408051636eb1769f60e11b81526001600160a01b03928316600482015230602482015290518493929092169163dd62ed3e91604480820192602092909190829003018186803b15801561087657600080fd5b505afa15801561088a573d6000803e3d6000fd5b505050506040513d60208110156108a057600080fd5b505110156108f5576040805162461bcd60e51b815260206004820152601960248201527f546f6b656e203120616c6c6f77616e636520746f6f206c6f7700000000000000604482015290519081900360640190fd5b6105ff828260015460008054604080516323b872dd60e01b81526001600160a01b039283166004820152306024820152604481018690529051929391909116916323b872dd9160648082019260209290919082900301818787803b15801561095c57600080fd5b505af1158015610970573d6000803e3d6000fd5b505050506040513d602081101561098657600080fd5b50519050806109d4576040805162461bcd60e51b8152602060048201526015602482015274151bdad95b881d1c985b9cd9995c8819985a5b1959605a1b604482015290519081900360640190fd5b8015610420576001600160a01b03831660008181526004602090815260408083208151808301835287815242818501818152835460018181018655948852958720925160029096029092019485559051939091019290925551859391927f4360f5320ef452a3ac552e563b0a7ad91b6dd31f258c6c47bdc47ca05f97e0b391a450505056fea26469706673582212204051a4e427d0af73e60b8cab537d2a959823196eb430c7f42a17a28fb483137064736f6c63430006060033",
  "linkReferences": {},
  "deployedLinkReferences": {}
}