{
  "_format": "hh-sol-artifact-1",
  "contractName": "BitgertSwapRouter",
  "sourceName": "contracts/BitgertSwapRouter.sol",
  "abi": [
    {
      "inputs": [
        {
          "internalType": "address",
          "name": "_factory",
          "type": "address"
        },
        {
          "internalType": "address",
          "name": "_WBRISE",
          "type": "address"
        },
        {
          "internalType": "address",
          "name": "_rewardToken",
          "type": "address"
        }
      ],
      "stateMutability": "nonpayable",
      "type": "constructor"
    },
    {
      "inputs": [],
      "name": "WBRISE",
      "outputs": [
        {
          "internalType": "address",
          "name": "",
          "type": "address"
        }
      ],
      "stateMutability": "view",
      "type": "function"
    },
    {
      "inputs": [
        {
          "internalType": "address",
          "name": "tokenA",
          "type": "address"
        },
        {
          "internalType": "address",
          "name": "tokenB",
          "type": "address"
        },
        {
          "internalType": "uint256",
          "name": "amountADesired",
          "type": "uint256"
        },
        {
          "internalType": "uint256",
          "name": "amountBDesired",
          "type": "uint256"
        },
        {
          "internalType": "uint256",
          "name": "amountAMin",
          "type": "uint256"
        },
        {
          "internalType": "uint256",
          "name": "amountBMin",
          "type": "uint256"
        },
        {
          "internalType": "address",
          "name": "to",
          "type": "address"
        },
        {
          "internalType": "uint256",
          "name": "deadline",
          "type": "uint256"
        }
      ],
      "name": "addLiquidity",
      "outputs": [
        {
          "internalType": "uint256",
          "name": "amountA",
          "type": "uint256"
        },
        {
          "internalType": "uint256",
          "name": "amountB",
          "type": "uint256"
        },
        {
          "internalType": "uint256",
          "name": "liquidity",
          "type": "uint256"
        }
      ],
      "stateMutability": "nonpayable",
      "type": "function"
    },
    {
      "inputs": [
        {
          "internalType": "address",
          "name": "token",
          "type": "address"
        },
        {
          "internalType": "uint256",
          "name": "amountTokenDesired",
          "type": "uint256"
        },
        {
          "internalType": "uint256",
          "name": "amountTokenMin",
          "type": "uint256"
        },
        {
          "internalType": "uint256",
          "name": "amountBRISEMin",
          "type": "uint256"
        },
        {
          "internalType": "address",
          "name": "to",
          "type": "address"
        },
        {
          "internalType": "uint256",
          "name": "deadline",
          "type": "uint256"
        }
      ],
      "name": "addLiquidityBRISE",
      "outputs": [
        {
          "internalType": "uint256",
          "name": "amountToken",
          "type": "uint256"
        },
        {
          "internalType": "uint256",
          "name": "amountBRISE",
          "type": "uint256"
        },
        {
          "internalType": "uint256",
          "name": "liquidity",
          "type": "uint256"
        }
      ],
      "stateMutability": "payable",
      "type": "function"
    },
    {
      "inputs": [],
      "name": "factory",
      "outputs": [
        {
          "internalType": "address",
          "name": "",
          "type": "address"
        }
      ],
      "stateMutability": "view",
      "type": "function"
    },
    {
      "inputs": [],
      "name": "feeTo",
      "outputs": [
        {
          "internalType": "address",
          "name": "",
          "type": "address"
        }
      ],
      "stateMutability": "view",
      "type": "function"
    },
    {
      "inputs": [],
      "name": "feeToSetter",
      "outputs": [
        {
          "internalType": "address",
          "name": "",
          "type": "address"
        }
      ],
      "stateMutability": "view",
      "type": "function"
    },
    {
      "inputs": [
        {
          "internalType": "uint256",
          "name": "amountOut",
          "type": "uint256"
        },
        {
          "internalType": "uint256",
          "name": "reserveIn",
          "type": "uint256"
        },
        {
          "internalType": "uint256",
          "name": "reserveOut",
          "type": "uint256"
        }
      ],
      "name": "getAmountIn",
      "outputs": [
        {
          "internalType": "uint256",
          "name": "amountIn",
          "type": "uint256"
        }
      ],
      "stateMutability": "pure",
      "type": "function"
    },
    {
      "inputs": [
        {
          "internalType": "uint256",
          "name": "amountIn",
          "type": "uint256"
        },
        {
          "internalType": "uint256",
          "name": "reserveIn",
          "type": "uint256"
        },
        {
          "internalType": "uint256",
          "name": "reserveOut",
          "type": "uint256"
        }
      ],
      "name": "getAmountOut",
      "outputs": [
        {
          "internalType": "uint256",
          "name": "amountOut",
          "type": "uint256"
        }
      ],
      "stateMutability": "pure",
      "type": "function"
    },
    {
      "inputs": [
        {
          "internalType": "uint256",
          "name": "amountOut",
          "type": "uint256"
        },
        {
          "internalType": "address[]",
          "name": "path",
          "type": "address[]"
        }
      ],
      "name": "getAmountsIn",
      "outputs": [
        {
          "internalType": "uint256[]",
          "name": "amounts",
          "type": "uint256[]"
        }
      ],
      "stateMutability": "view",
      "type": "function"
    },
    {
      "inputs": [
        {
          "internalType": "uint256",
          "name": "amountIn",
          "type": "uint256"
        },
        {
          "internalType": "address[]",
          "name": "path",
          "type": "address[]"
        }
      ],
      "name": "getAmountsOut",
      "outputs": [
        {
          "internalType": "uint256[]",
          "name": "amounts",
          "type": "uint256[]"
        }
      ],
      "stateMutability": "view",
      "type": "function"
    },
    {
      "inputs": [
        {
          "internalType": "uint256",
          "name": "amountA",
          "type": "uint256"
        },
        {
          "internalType": "uint256",
          "name": "reserveA",
          "type": "uint256"
        },
        {
          "internalType": "uint256",
          "name": "reserveB",
          "type": "uint256"
        }
      ],
      "name": "quote",
      "outputs": [
        {
          "internalType": "uint256",
          "name": "amountB",
          "type": "uint256"
        }
      ],
      "stateMutability": "pure",
      "type": "function"
    },
    {
      "inputs": [
        {
          "internalType": "address",
          "name": "tokenA",
          "type": "address"
        },
        {
          "internalType": "address",
          "name": "tokenB",
          "type": "address"
        },
        {
          "internalType": "uint256",
          "name": "liquidity",
          "type": "uint256"
        },
        {
          "internalType": "uint256",
          "name": "amountAMin",
          "type": "uint256"
        },
        {
          "internalType": "uint256",
          "name": "amountBMin",
          "type": "uint256"
        },
        {
          "internalType": "address",
          "name": "to",
          "type": "address"
        },
        {
          "internalType": "uint256",
          "name": "deadline",
          "type": "uint256"
        }
      ],
      "name": "removeLiquidity",
      "outputs": [
        {
          "internalType": "uint256",
          "name": "amountA",
          "type": "uint256"
        },
        {
          "internalType": "uint256",
          "name": "amountB",
          "type": "uint256"
        }
      ],
      "stateMutability": "nonpayable",
      "type": "function"
    },
    {
      "inputs": [
        {
          "internalType": "address",
          "name": "token",
          "type": "address"
        },
        {
          "internalType": "uint256",
          "name": "liquidity",
          "type": "uint256"
        },
        {
          "internalType": "uint256",
          "name": "amountTokenMin",
          "type": "uint256"
        },
        {
          "internalType": "uint256",
          "name": "amountBRISEMin",
          "type": "uint256"
        },
        {
          "internalType": "address",
          "name": "to",
          "type": "address"
        },
        {
          "internalType": "uint256",
          "name": "deadline",
          "type": "uint256"
        }
      ],
      "name": "removeLiquidityBRISE",
      "outputs": [
        {
          "internalType": "uint256",
          "name": "amountToken",
          "type": "uint256"
        },
        {
          "internalType": "uint256",
          "name": "amountBRISE",
          "type": "uint256"
        }
      ],
      "stateMutability": "nonpayable",
      "type": "function"
    },
    {
      "inputs": [
        {
          "internalType": "address",
          "name": "token",
          "type": "address"
        },
        {
          "internalType": "uint256",
          "name": "liquidity",
          "type": "uint256"
        },
        {
          "internalType": "uint256",
          "name": "amountTokenMin",
          "type": "uint256"
        },
        {
          "internalType": "uint256",
          "name": "amountBRISEMin",
          "type": "uint256"
        },
        {
          "internalType": "address",
          "name": "to",
          "type": "address"
        },
        {
          "internalType": "uint256",
          "name": "deadline",
          "type": "uint256"
        }
      ],
      "name": "removeLiquidityBRISESupportingFeeOnTransferTokens",
      "outputs": [
        {
          "internalType": "uint256",
          "name": "amountBRISE",
          "type": "uint256"
        }
      ],
      "stateMutability": "nonpayable",
      "type": "function"
    },
    {
      "inputs": [
        {
          "internalType": "address",
          "name": "token",
          "type": "address"
        },
        {
          "internalType": "uint256",
          "name": "liquidity",
          "type": "uint256"
        },
        {
          "internalType": "uint256",
          "name": "amountTokenMin",
          "type": "uint256"
        },
        {
          "internalType": "uint256",
          "name": "amountBRISEMin",
          "type": "uint256"
        },
        {
          "internalType": "address",
          "name": "to",
          "type": "address"
        },
        {
          "internalType": "uint256",
          "name": "deadline",
          "type": "uint256"
        },
        {
          "internalType": "bool",
          "name": "approveMax",
          "type": "bool"
        },
        {
          "internalType": "uint8",
          "name": "v",
          "type": "uint8"
        },
        {
          "internalType": "bytes32",
          "name": "r",
          "type": "bytes32"
        },
        {
          "internalType": "bytes32",
          "name": "s",
          "type": "bytes32"
        }
      ],
      "name": "removeLiquidityBRISEWithPermit",
      "outputs": [
        {
          "internalType": "uint256",
          "name": "amountToken",
          "type": "uint256"
        },
        {
          "internalType": "uint256",
          "name": "amountBRISE",
          "type": "uint256"
        }
      ],
      "stateMutability": "nonpayable",
      "type": "function"
    },
    {
      "inputs": [
        {
          "internalType": "address",
          "name": "token",
          "type": "address"
        },
        {
          "internalType": "uint256",
          "name": "liquidity",
          "type": "uint256"
        },
        {
          "internalType": "uint256",
          "name": "amountTokenMin",
          "type": "uint256"
        },
        {
          "internalType": "uint256",
          "name": "amountBRISEMin",
          "type": "uint256"
        },
        {
          "internalType": "address",
          "name": "to",
          "type": "address"
        },
        {
          "internalType": "uint256",
          "name": "deadline",
          "type": "uint256"
        },
        {
          "internalType": "bool",
          "name": "approveMax",
          "type": "bool"
        },
        {
          "internalType": "uint8",
          "name": "v",
          "type": "uint8"
        },
        {
          "internalType": "bytes32",
          "name": "r",
          "type": "bytes32"
        },
        {
          "internalType": "bytes32",
          "name": "s",
          "type": "bytes32"
        }
      ],
      "name": "removeLiquidityBRISEWithPermitSupportingFeeOnTransferTokens",
      "outputs": [
        {
          "internalType": "uint256",
          "name": "amountBRISE",
          "type": "uint256"
        }
      ],
      "stateMutability": "nonpayable",
      "type": "function"
    },
    {
      "inputs": [
        {
          "internalType": "address",
          "name": "tokenA",
          "type": "address"
        },
        {
          "internalType": "address",
          "name": "tokenB",
          "type": "address"
        },
        {
          "internalType": "uint256",
          "name": "liquidity",
          "type": "uint256"
        },
        {
          "internalType": "uint256",
          "name": "amountAMin",
          "type": "uint256"
        },
        {
          "internalType": "uint256",
          "name": "amountBMin",
          "type": "uint256"
        },
        {
          "internalType": "address",
          "name": "to",
          "type": "address"
        },
        {
          "internalType": "uint256",
          "name": "deadline",
          "type": "uint256"
        },
        {
          "internalType": "bool",
          "name": "approveMax",
          "type": "bool"
        },
        {
          "internalType": "uint8",
          "name": "v",
          "type": "uint8"
        },
        {
          "internalType": "bytes32",
          "name": "r",
          "type": "bytes32"
        },
        {
          "internalType": "bytes32",
          "name": "s",
          "type": "bytes32"
        }
      ],
      "name": "removeLiquidityWithPermit",
      "outputs": [
        {
          "internalType": "uint256",
          "name": "amountA",
          "type": "uint256"
        },
        {
          "internalType": "uint256",
          "name": "amountB",
          "type": "uint256"
        }
      ],
      "stateMutability": "nonpayable",
      "type": "function"
    },
    {
      "inputs": [],
      "name": "reward",
      "outputs": [
        {
          "internalType": "contract Reward",
          "name": "",
          "type": "address"
        }
      ],
      "stateMutability": "view",
      "type": "function"
    },
    {
      "inputs": [
        {
          "internalType": "address",
          "name": "_feeTo",
          "type": "address"
        }
      ],
      "name": "setFeeTo",
      "outputs": [],
      "stateMutability": "nonpayable",
      "type": "function"
    },
    {
      "inputs": [
        {
          "internalType": "address",
          "name": "_feeToSetter",
          "type": "address"
        }
      ],
      "name": "setFeeToSetter",
      "outputs": [],
      "stateMutability": "nonpayable",
      "type": "function"
    },
    {
      "inputs": [
        {
          "internalType": "uint256",
          "name": "amountOut",
          "type": "uint256"
        },
        {
          "internalType": "address[]",
          "name": "path",
          "type": "address[]"
        },
        {
          "internalType": "address",
          "name": "to",
          "type": "address"
        },
        {
          "internalType": "uint256",
          "name": "deadline",
          "type": "uint256"
        }
      ],
      "name": "swapBRISEForExactTokens",
      "outputs": [
        {
          "internalType": "uint256[]",
          "name": "amounts",
          "type": "uint256[]"
        }
      ],
      "stateMutability": "payable",
      "type": "function"
    },
    {
      "inputs": [
        {
          "internalType": "uint256",
          "name": "amountOutMin",
          "type": "uint256"
        },
        {
          "internalType": "address[]",
          "name": "path",
          "type": "address[]"
        },
        {
          "internalType": "address",
          "name": "to",
          "type": "address"
        },
        {
          "internalType": "uint256",
          "name": "deadline",
          "type": "uint256"
        }
      ],
      "name": "swapExactBRISEForTokens",
      "outputs": [
        {
          "internalType": "uint256[]",
          "name": "amounts",
          "type": "uint256[]"
        }
      ],
      "stateMutability": "payable",
      "type": "function"
    },
    {
      "inputs": [
        {
          "internalType": "uint256",
          "name": "amountOutMin",
          "type": "uint256"
        },
        {
          "internalType": "address[]",
          "name": "path",
          "type": "address[]"
        },
        {
          "internalType": "address",
          "name": "to",
          "type": "address"
        },
        {
          "internalType": "uint256",
          "name": "deadline",
          "type": "uint256"
        }
      ],
      "name": "swapExactBRISEForTokensSupportingFeeOnTransferTokens",
      "outputs": [],
      "stateMutability": "payable",
      "type": "function"
    },
    {
      "inputs": [
        {
          "internalType": "uint256",
          "name": "amountIn",
          "type": "uint256"
        },
        {
          "internalType": "uint256",
          "name": "amountOutMin",
          "type": "uint256"
        },
        {
          "internalType": "address[]",
          "name": "path",
          "type": "address[]"
        },
        {
          "internalType": "address",
          "name": "to",
          "type": "address"
        },
        {
          "internalType": "uint256",
          "name": "deadline",
          "type": "uint256"
        }
      ],
      "name": "swapExactTokensForBRISE",
      "outputs": [
        {
          "internalType": "uint256[]",
          "name": "amounts",
          "type": "uint256[]"
        }
      ],
      "stateMutability": "nonpayable",
      "type": "function"
    },
    {
      "inputs": [
        {
          "internalType": "uint256",
          "name": "amountIn",
          "type": "uint256"
        },
        {
          "internalType": "uint256",
          "name": "amountOutMin",
          "type": "uint256"
        },
        {
          "internalType": "address[]",
          "name": "path",
          "type": "address[]"
        },
        {
          "internalType": "address",
          "name": "to",
          "type": "address"
        },
        {
          "internalType": "uint256",
          "name": "deadline",
          "type": "uint256"
        }
      ],
      "name": "swapExactTokensForBRISESupportingFeeOnTransferTokens",
      "outputs": [],
      "stateMutability": "nonpayable",
      "type": "function"
    },
    {
      "inputs": [
        {
          "internalType": "uint256",
          "name": "amountIn",
          "type": "uint256"
        },
        {
          "internalType": "uint256",
          "name": "amountOutMin",
          "type": "uint256"
        },
        {
          "internalType": "address[]",
          "name": "path",
          "type": "address[]"
        },
        {
          "internalType": "address",
          "name": "to",
          "type": "address"
        },
        {
          "internalType": "uint256",
          "name": "deadline",
          "type": "uint256"
        }
      ],
      "name": "swapExactTokensForTokens",
      "outputs": [
        {
          "internalType": "uint256[]",
          "name": "amounts",
          "type": "uint256[]"
        }
      ],
      "stateMutability": "nonpayable",
      "type": "function"
    },
    {
      "inputs": [
        {
          "internalType": "uint256",
          "name": "amountIn",
          "type": "uint256"
        },
        {
          "internalType": "uint256",
          "name": "amountOutMin",
          "type": "uint256"
        },
        {
          "internalType": "address[]",
          "name": "path",
          "type": "address[]"
        },
        {
          "internalType": "address",
          "name": "to",
          "type": "address"
        },
        {
          "internalType": "uint256",
          "name": "deadline",
          "type": "uint256"
        }
      ],
      "name": "swapExactTokensForTokensSupportingFeeOnTransferTokens",
      "outputs": [],
      "stateMutability": "nonpayable",
      "type": "function"
    },
    {
      "inputs": [
        {
          "internalType": "uint256",
          "name": "amountOut",
          "type": "uint256"
        },
        {
          "internalType": "uint256",
          "name": "amountInMax",
          "type": "uint256"
        },
        {
          "internalType": "address[]",
          "name": "path",
          "type": "address[]"
        },
        {
          "internalType": "address",
          "name": "to",
          "type": "address"
        },
        {
          "internalType": "uint256",
          "name": "deadline",
          "type": "uint256"
        }
      ],
      "name": "swapTokensForExactBRISE",
      "outputs": [
        {
          "internalType": "uint256[]",
          "name": "amounts",
          "type": "uint256[]"
        }
      ],
      "stateMutability": "nonpayable",
      "type": "function"
    },
    {
      "inputs": [
        {
          "internalType": "uint256",
          "name": "amountOut",
          "type": "uint256"
        },
        {
          "internalType": "uint256",
          "name": "amountInMax",
          "type": "uint256"
        },
        {
          "internalType": "address[]",
          "name": "path",
          "type": "address[]"
        },
        {
          "internalType": "address",
          "name": "to",
          "type": "address"
        },
        {
          "internalType": "uint256",
          "name": "deadline",
          "type": "uint256"
        }
      ],
      "name": "swapTokensForExactTokens",
      "outputs": [
        {
          "internalType": "uint256[]",
          "name": "amounts",
          "type": "uint256[]"
        }
      ],
      "stateMutability": "nonpayable",
      "type": "function"
    },
    {
      "stateMutability": "payable",
      "type": "receive"
    }
  ],
  "bytecode": "0x60c06040523480156200001157600080fd5b5060405162005e6138038062005e61833981810160405260608110156200003757600080fd5b50805160208201516040928301516001600160601b0319606084811b821660805283901b1660a052600380546001600160a01b03199081163390811792839055600280549092166001600160a01b03939093169290921790559351929391929091908290620000a6906200019b565b6001600160a01b03928316815291166020820152604080519182900301906000f080158015620000da573d6000803e3d6000fd5b50600480546001600160a01b03199081166001600160a01b039384161790915560008054600181810183557f290decd9548b62a8d60345a988386fc84ba6bc95484008f6362f93160ef3e5639182018054851690558254808201845590910180548416968516968717905580548082018255918190527fb10e2d527612073b26eecdfd717e6a320cf44b4afac2b0732d9fcbe2b7fa0cf6918201805484169096179095558454808601909555939093018054909316911617905550620001a9565b610b35806200532c83390190565b60805160601c60a05160601c615037620002f5600039806101d65280610e10528061107b52806111c1528061126152806112a1528061168152806117ed52806118755280611c8c5280611e7e5280611ed45280611f085280611f7c5280612122528061223252806122e8528061239a52806127a4528061295d5280612a5e5280612a995280612bc25280612c575280612ccf5280612cf852806130c3528061334a52806133f952806138bf52806139235280613bf15280614311525080610dee5280610efb5280610f34528061110e52806112d3528061145e5280611589528061171452806118a75280611a7a5280611d065280611eb25280612378528061255e52806128325280612b2d5280612b565280612d2a5280612f9a52806131515280613aee5280613b3152806140c452806142435280614698528061474652806147c652506150376000f3fe6080604052600436106101c65760003560e01c80638c310b9e116100f7578063be631baf11610095578063e8e3370011610064578063e8e3370014610c35578063ecf7f16c14610c97578063f46901ed14610d2d578063fd2baef114610d60576101ff565b8063be631baf14610a94578063c45a015514610ae7578063d06ca61f14610afc578063d910844714610bb1576101ff565b8063a2e74af6116100d1578063a2e74af614610938578063ad615dec1461096b578063baa2abde146109a1578063be41ff7a146109fe576101ff565b80638c310b9e146107cb5780638e59e5981461082f578063961adc28146108c5576101ff565b8063334b8029116101645780635c11d7951161013e5780635c11d79514610654578063818857c3146106ea57806385f8c259146106ff5780638803dbee14610735576101ff565b8063334b8029146104b657806338ed17391461053a5780634e4c14b2146105d0576101ff565b80630ce7cfef116101a05780630ce7cfef146102925780631f00ca74146103055780632195995c1461040a578063228cb733146104a1576101ff565b8063017e7e5814610204578063054d50d414610235578063094b74151461027d576101ff565b366101ff57336001600160a01b037f000000000000000000000000000000000000000000000000000000000000000016146101fd57fe5b005b600080fd5b34801561021057600080fd5b50610219610db3565b604080516001600160a01b039092168252519081900360200190f35b34801561024157600080fd5b5061026b6004803603606081101561025857600080fd5b5080359060208101359060400135610dc2565b60408051918252519081900360200190f35b34801561028957600080fd5b50610219610dd7565b34801561029e57600080fd5b5061026b60048036036101408110156102b657600080fd5b506001600160a01b0381358116916020810135916040820135916060810135916080820135169060a08101359060c081013515159060ff60e08201351690610100810135906101200135610de6565b34801561031157600080fd5b506103ba6004803603604081101561032857600080fd5b81359190810190604081016020820135600160201b81111561034957600080fd5b82018360208201111561035b57600080fd5b803590602001918460208302840111600160201b8311171561037c57600080fd5b919080806020026020016040519081016040528093929190818152602001838360200280828437600092019190915250929550610ef4945050505050565b60408051602080825283518183015283519192839290830191858101910280838360005b838110156103f65781810151838201526020016103de565b505050509050019250505060405180910390f35b34801561041657600080fd5b50610488600480360361016081101561042e57600080fd5b506001600160a01b038135811691602081013582169160408201359160608101359160808201359160a08101359091169060c08101359060e081013515159060ff6101008201351690610120810135906101400135610f2a565b6040805192835260208301919091528051918290030190f35b3480156104ad57600080fd5b50610219611024565b6103ba600480360360808110156104cc57600080fd5b81359190810190604081016020820135600160201b8111156104ed57600080fd5b8201836020820111156104ff57600080fd5b803590602001918460208302840111600160201b8311171561052057600080fd5b91935091506001600160a01b038135169060200135611033565b34801561054657600080fd5b506103ba600480360360a081101561055d57600080fd5b813591602081013591810190606081016040820135600160201b81111561058357600080fd5b82018360208201111561059557600080fd5b803590602001918460208302840111600160201b831117156105b657600080fd5b91935091506001600160a01b038135169060200135611413565b6103ba600480360360808110156105e657600080fd5b81359190810190604081016020820135600160201b81111561060757600080fd5b82018360208201111561061957600080fd5b803590602001918460208302840111600160201b8311171561063a57600080fd5b91935091506001600160a01b038135169060200135611639565b34801561066057600080fd5b506101fd600480360360a081101561067757600080fd5b813591602081013591810190606081016040820135600160201b81111561069d57600080fd5b8201836020820111156106af57600080fd5b803590602001918460208302840111600160201b831117156106d057600080fd5b91935091506001600160a01b0381351690602001356119e7565b3480156106f657600080fd5b50610219611c8a565b34801561070b57600080fd5b5061026b6004803603606081101561072257600080fd5b5080359060208101359060400135611cae565b34801561074157600080fd5b506103ba600480360360a081101561075857600080fd5b813591602081013591810190606081016040820135600160201b81111561077e57600080fd5b82018360208201111561079057600080fd5b803590602001918460208302840111600160201b831117156107b157600080fd5b91935091506001600160a01b038135169060200135611cbb565b610811600480360360c08110156107e157600080fd5b506001600160a01b0381358116916020810135916040820135916060810135916080820135169060a00135611e2f565b60408051938452602084019290925282820152519081900360600190f35b34801561083b57600080fd5b506101fd600480360360a081101561085257600080fd5b813591602081013591810190606081016040820135600160201b81111561087857600080fd5b82018360208201111561088a57600080fd5b803590602001918460208302840111600160201b831117156108ab57600080fd5b91935091506001600160a01b0381351690602001356120d4565b3480156108d157600080fd5b5061048860048036036101408110156108e957600080fd5b506001600160a01b0381358116916020810135916040820135916060810135916080820135169060a08101359060c081013515159060ff60e0820135169061010081013590610120013561236e565b34801561094457600080fd5b506101fd6004803603602081101561095b57600080fd5b50356001600160a01b0316612482565b34801561097757600080fd5b5061026b6004803603606081101561098e57600080fd5b5080359060208101359060400135612503565b3480156109ad57600080fd5b50610488600480360360e08110156109c457600080fd5b506001600160a01b038135811691602081013582169160408201359160608101359160808201359160a08101359091169060c00135612510565b348015610a0a57600080fd5b506103ba600480360360a0811015610a2157600080fd5b813591602081013591810190606081016040820135600160201b811115610a4757600080fd5b820183602082011115610a5957600080fd5b803590602001918460208302840111600160201b83111715610a7a57600080fd5b91935091506001600160a01b038135169060200135612754565b348015610aa057600080fd5b50610488600480360360c0811015610ab757600080fd5b506001600160a01b0381358116916020810135916040820135916060810135916080820135169060a00135612a11565b348015610af357600080fd5b50610219612b2b565b348015610b0857600080fd5b506103ba60048036036040811015610b1f57600080fd5b81359190810190604081016020820135600160201b811115610b4057600080fd5b820183602082011115610b5257600080fd5b803590602001918460208302840111600160201b83111715610b7357600080fd5b919080806020026020016040519081016040528093929190818152602001838360200280828437600092019190915250929550612b4f945050505050565b6101fd60048036036080811015610bc757600080fd5b81359190810190604081016020820135600160201b811115610be857600080fd5b820183602082011115610bfa57600080fd5b803590602001918460208302840111600160201b83111715610c1b57600080fd5b91935091506001600160a01b038135169060200135612b7c565b348015610c4157600080fd5b506108116004803603610100811015610c5957600080fd5b506001600160a01b038135811691602081013582169160408201359160608101359160808201359160a08101359160c0820135169060e00135612f37565b348015610ca357600080fd5b506103ba600480360360a0811015610cba57600080fd5b813591602081013591810190606081016040820135600160201b811115610ce057600080fd5b820183602082011115610cf257600080fd5b803590602001918460208302840111600160201b83111715610d1357600080fd5b91935091506001600160a01b038135169060200135613073565b348015610d3957600080fd5b506101fd60048036036020811015610d5057600080fd5b50356001600160a01b031661327d565b348015610d6c57600080fd5b5061026b600480360360c0811015610d8357600080fd5b506001600160a01b0381358116916020810135916040820135916060810135916080820135169060a001356132fe565b6002546001600160a01b031681565b6000610dcf84848461347f565b949350505050565b6003546001600160a01b031681565b600080610e347f00000000000000000000000000000000000000000000000000000000000000008d7f000000000000000000000000000000000000000000000000000000000000000061356f565b9050600086610e43578b610e47565b6000195b6040805163d505accf60e01b815233600482015230602482015260448101839052606481018b905260ff8916608482015260a4810188905260c4810187905290519192506001600160a01b0384169163d505accf9160e48082019260009290919082900301818387803b158015610ebd57600080fd5b505af1158015610ed1573d6000803e3d6000fd5b50505050610ee38d8d8d8d8d8d6132fe565b9d9c50505050505050505050505050565b6060610f217f0000000000000000000000000000000000000000000000000000000000000000848461362f565b90505b92915050565b6000806000610f5a7f00000000000000000000000000000000000000000000000000000000000000008f8f61356f565b9050600087610f69578c610f6d565b6000195b6040805163d505accf60e01b815233600482015230602482015260448101839052606481018c905260ff8a16608482015260a4810189905260c4810188905290519192506001600160a01b0384169163d505accf9160e48082019260009290919082900301818387803b158015610fe357600080fd5b505af1158015610ff7573d6000803e3d6000fd5b5050505061100a8f8f8f8f8f8f8f612510565b809450819550505050509b509b9950505050505050505050565b6004546001600160a01b031681565b60608142811015611079576040805162461bcd60e51b815260206004820152601a6024820152600080516020614f97833981519152604482015290519081900360640190fd5b7f00000000000000000000000000000000000000000000000000000000000000006001600160a01b0316868660008181106110b057fe5b905060200201356001600160a01b03166001600160a01b031614611109576040805162461bcd60e51b815260206004820152601f6024820152600080516020614eb5833981519152604482015290519081900360640190fd5b6111677f00000000000000000000000000000000000000000000000000000000000000003488888080602002602001604051908101604052809392919081815260200183836020028082843760009201919091525061377c92505050565b9150868260018451038151811061117a57fe5b602002602001015110156111bf5760405162461bcd60e51b815260040180806020018281038252602d815260200180614e32602d913960400191505060405180910390fd5b7f00000000000000000000000000000000000000000000000000000000000000006001600160a01b031663d0e30db0836000815181106111fb57fe5b60200260200101516040518263ffffffff1660e01b81526004016000604051808303818588803b15801561122e57600080fd5b505af1158015611242573d6000803e3d6000fd5b50505050506112868260008151811061125757fe5b60200260200101517f0000000000000000000000000000000000000000000000000000000000000000866138b3565b8260008151811061129357fe5b6020026020010181815250507f00000000000000000000000000000000000000000000000000000000000000006001600160a01b031663a9059cbb6113317f0000000000000000000000000000000000000000000000000000000000000000898960008181106112ff57fe5b905060200201356001600160a01b03168a8a600181811061131c57fe5b905060200201356001600160a01b031661356f565b8460008151811061133e57fe5b60200260200101516040518363ffffffff1660e01b815260040180836001600160a01b03166001600160a01b0316815260200182815260200192505050602060405180830381600087803b15801561139557600080fd5b505af11580156113a9573d6000803e3d6000fd5b505050506040513d60208110156113bf57600080fd5b50516113c757fe5b61140934838888808060200260200160405190810160405280939291908181526020018383602002808284376000920191909152508a9250829150613a3f9050565b5095945050505050565b60608142811015611459576040805162461bcd60e51b815260206004820152601a6024820152600080516020614f97833981519152604482015290519081900360640190fd5b6114b77f00000000000000000000000000000000000000000000000000000000000000008988888080602002602001604051908101604052809392919081815260200183836020028082843760009201919091525061377c92505050565b91506114f4826000815181106114c957fe5b6020026020010151878760008181106114de57fe5b905060200201356001600160a01b0316866138b3565b8260008151811061150157fe5b602002602001018181525050868260018451038151811061151e57fe5b602002602001015110156115635760405162461bcd60e51b815260040180806020018281038252602d815260200180614e32602d913960400191505060405180910390fd5b6115ec8686600081811061157357fe5b905060200201356001600160a01b0316336115d27f00000000000000000000000000000000000000000000000000000000000000008a8a60008181106115b557fe5b905060200201356001600160a01b03168b8b600181811061131c57fe5b856000815181106115df57fe5b6020026020010151613e18565b61162e88838888808060200260200160405190810160405280939291908181526020018383602002808284376000920191909152508a9250829150613a3f9050565b509695505050505050565b6060814281101561167f576040805162461bcd60e51b815260206004820152601a6024820152600080516020614f97833981519152604482015290519081900360640190fd5b7f00000000000000000000000000000000000000000000000000000000000000006001600160a01b0316868660008181106116b657fe5b905060200201356001600160a01b03166001600160a01b03161461170f576040805162461bcd60e51b815260206004820152601f6024820152600080516020614eb5833981519152604482015290519081900360640190fd5b61176d7f00000000000000000000000000000000000000000000000000000000000000008888888080602002602001604051908101604052809392919081815260200183836020028082843760009201919091525061362f92505050565b915061177f8260008151811061125757fe5b8260008151811061178c57fe5b60200260200101818152505034826000815181106117a657fe5b602002602001015111156117eb5760405162461bcd60e51b8152600401808060200182810382526029815260200180614de16029913960400191505060405180910390fd5b7f00000000000000000000000000000000000000000000000000000000000000006001600160a01b031663d0e30db08360008151811061182757fe5b60200260200101516040518263ffffffff1660e01b81526004016000604051808303818588803b15801561185a57600080fd5b505af115801561186e573d6000803e3d6000fd5b50505050507f00000000000000000000000000000000000000000000000000000000000000006001600160a01b031663a9059cbb6118d37f0000000000000000000000000000000000000000000000000000000000000000898960008181106112ff57fe5b846000815181106118e057fe5b60200260200101516040518363ffffffff1660e01b815260040180836001600160a01b03166001600160a01b0316815260200182815260200192505050602060405180830381600087803b15801561193757600080fd5b505af115801561194b573d6000803e3d6000fd5b505050506040513d602081101561196157600080fd5b505161196957fe5b6119ab34838888808060200260200160405190810160405280939291908181526020018383602002808284376000920191909152508a9250829150613a3f9050565b816000815181106119b857fe5b60200260200101513411156114095761140933836000815181106119d857fe5b60200260200101513403613f75565b8042811015611a2b576040805162461bcd60e51b815260206004820152601a6024820152600080516020614f97833981519152604482015290519081900360640190fd5b611a528786866000818110611a3c57fe5b905060200201356001600160a01b0316856138b3565b9650611aac85856000818110611a6457fe5b905060200201356001600160a01b031633611aa67f0000000000000000000000000000000000000000000000000000000000000000898960008181106112ff57fe5b8a613e18565b600085856000198101818110611abe57fe5b905060200201356001600160a01b03166001600160a01b03166370a08231856040518263ffffffff1660e01b815260040180826001600160a01b03166001600160a01b0316815260200191505060206040518083038186803b158015611b2357600080fd5b505afa158015611b37573d6000803e3d6000fd5b505050506040513d6020811015611b4d57600080fd5b50516040805160208881028281018201909352888252929350611b91928b928a918a91829185019084908082843760009201919091525089925082915061406d9050565b86611c438288886000198101818110611ba657fe5b905060200201356001600160a01b03166001600160a01b03166370a08231886040518263ffffffff1660e01b815260040180826001600160a01b03166001600160a01b0316815260200191505060206040518083038186803b158015611c0b57600080fd5b505afa158015611c1f573d6000803e3d6000fd5b505050506040513d6020811015611c3557600080fd5b50519063ffffffff61453516565b1015611c805760405162461bcd60e51b815260040180806020018281038252602d815260200180614e32602d913960400191505060405180910390fd5b5050505050505050565b7f000000000000000000000000000000000000000000000000000000000000000081565b6000610dcf848484614577565b60608142811015611d01576040805162461bcd60e51b815260206004820152601a6024820152600080516020614f97833981519152604482015290519081900360640190fd5b611d5f7f00000000000000000000000000000000000000000000000000000000000000008988888080602002602001604051908101604052809392919081815260200183836020028082843760009201919091525061362f92505050565b9150611d71826000815181106114c957fe5b82600081518110611d7e57fe5b6020026020010181815250508682600081518110611d9857fe5b60200260200101511115611ddd5760405162461bcd60e51b8152600401808060200182810382526029815260200180614de16029913960400191505060405180910390fd5b611ded8686600081811061157357fe5b61162e87838888808060200260200160405190810160405280939291908181526020018383602002808284376000920191909152508a9250829150613a3f9050565b60008060008342811015611e78576040805162461bcd60e51b815260206004820152601a6024820152600080516020614f97833981519152604482015290519081900360640190fd5b611ea68a7f00000000000000000000000000000000000000000000000000000000000000008b348c8c614667565b90945092506000611ef87f00000000000000000000000000000000000000000000000000000000000000008c7f000000000000000000000000000000000000000000000000000000000000000061356f565b9050611f068b338388613e18565b7f00000000000000000000000000000000000000000000000000000000000000006001600160a01b031663d0e30db0856040518263ffffffff1660e01b81526004016000604051808303818588803b158015611f6157600080fd5b505af1158015611f75573d6000803e3d6000fd5b50505050507f00000000000000000000000000000000000000000000000000000000000000006001600160a01b031663a9059cbb82866040518363ffffffff1660e01b815260040180836001600160a01b03166001600160a01b0316815260200182815260200192505050602060405180830381600087803b158015611ffa57600080fd5b505af115801561200e573d6000803e3d6000fd5b505050506040513d602081101561202457600080fd5b505161202c57fe5b806001600160a01b0316636a627842886040518263ffffffff1660e01b815260040180826001600160a01b03166001600160a01b03168152602001915050602060405180830381600087803b15801561208457600080fd5b505af1158015612098573d6000803e3d6000fd5b505050506040513d60208110156120ae57600080fd5b50519250348410156120c6576120c633853403613f75565b505096509650969350505050565b8042811015612118576040805162461bcd60e51b815260206004820152601a6024820152600080516020614f97833981519152604482015290519081900360640190fd5b6001600160a01b037f0000000000000000000000000000000000000000000000000000000000000000168585600019810181811061215257fe5b905060200201356001600160a01b03166001600160a01b0316146121ab576040805162461bcd60e51b815260206004820152601f6024820152600080516020614eb5833981519152604482015290519081900360640190fd5b6121bc8786866000818110611a3c57fe5b96506121ce85856000818110611a6457fe5b61220f8786868080602002602001604051908101604052809392919081815260200183836020028082843760009201919091525030925088915061406d9050565b604080516370a0823160e01b815230600482015290516000916001600160a01b037f000000000000000000000000000000000000000000000000000000000000000016916370a0823191602480820192602092909190829003018186803b15801561227957600080fd5b505afa15801561228d573d6000803e3d6000fd5b505050506040513d60208110156122a357600080fd5b50519050868110156122e65760405162461bcd60e51b815260040180806020018281038252602d815260200180614e32602d913960400191505060405180910390fd5b7f00000000000000000000000000000000000000000000000000000000000000006001600160a01b0316632e1a7d4d826040518263ffffffff1660e01b815260040180828152602001915050600060405180830381600087803b15801561234c57600080fd5b505af1158015612360573d6000803e3d6000fd5b50505050611c808482613f75565b60008060006123be7f00000000000000000000000000000000000000000000000000000000000000008e7f000000000000000000000000000000000000000000000000000000000000000061356f565b90506000876123cd578c6123d1565b6000195b6040805163d505accf60e01b815233600482015230602482015260448101839052606481018c905260ff8a16608482015260a4810189905260c4810188905290519192506001600160a01b0384169163d505accf9160e48082019260009290919082900301818387803b15801561244757600080fd5b505af115801561245b573d6000803e3d6000fd5b5050505061246d8e8e8e8e8e8e612a11565b909f909e509c50505050505050505050505050565b6003546001600160a01b031633146124e1576040805162461bcd60e51b815260206004820152601c60248201527f4269746765727453776170526f757465723a20464f5242494444454e00000000604482015290519081900360640190fd5b600380546001600160a01b0319166001600160a01b0392909216919091179055565b6000610dcf8484846148db565b6000808242811015612557576040805162461bcd60e51b815260206004820152601a6024820152600080516020614f97833981519152604482015290519081900360640190fd5b60006125847f00000000000000000000000000000000000000000000000000000000000000008c8c61356f565b604080516323b872dd60e01b81523360048201526001600160a01b03831660248201819052604482018d9052915192935090916323b872dd916064808201926020929091908290030181600087803b1580156125df57600080fd5b505af11580156125f3573d6000803e3d6000fd5b505050506040513d602081101561260957600080fd5b50506040805163226bf2d160e21b81526001600160a01b03888116600483015282516000938493928616926389afcb44926024808301939282900301818787803b15801561265657600080fd5b505af115801561266a573d6000803e3d6000fd5b505050506040513d604081101561268057600080fd5b5080516020909101519092509050600061269a8e8e614987565b509050806001600160a01b03168e6001600160a01b0316146126bd5781836126c0565b82825b90975095508a8710156127045760405162461bcd60e51b8152600401808060200182810382526028815260200180614e0a6028913960400191505060405180910390fd5b898610156127435760405162461bcd60e51b8152600401808060200182810382526028815260200180614e8d6028913960400191505060405180910390fd5b505050505097509795505050505050565b6060814281101561279a576040805162461bcd60e51b815260206004820152601a6024820152600080516020614f97833981519152604482015290519081900360640190fd5b6001600160a01b037f000000000000000000000000000000000000000000000000000000000000000016868660001981018181106127d457fe5b905060200201356001600160a01b03166001600160a01b03161461282d576040805162461bcd60e51b815260206004820152601f6024820152600080516020614eb5833981519152604482015290519081900360640190fd5b61288b7f00000000000000000000000000000000000000000000000000000000000000008988888080602002602001604051908101604052809392919081815260200183836020028082843760009201919091525061362f92505050565b915061289d826000815181106114c957fe5b826000815181106128aa57fe5b60200260200101818152505086826000815181106128c457fe5b602002602001015111156129095760405162461bcd60e51b8152600401808060200182810382526029815260200180614de16029913960400191505060405180910390fd5b6129198686600081811061157357fe5b61295b87838888808060200260200160405190810160405280939291908181526020018383602002808284376000920191909152503092508a9150613a3f9050565b7f00000000000000000000000000000000000000000000000000000000000000006001600160a01b0316632e1a7d4d8360018551038151811061299a57fe5b60200260200101516040518263ffffffff1660e01b815260040180828152602001915050600060405180830381600087803b1580156129d857600080fd5b505af11580156129ec573d6000803e3d6000fd5b5050505061162e8483600185510381518110612a0457fe5b6020026020010151613f75565b6000808242811015612a58576040805162461bcd60e51b815260206004820152601a6024820152600080516020614f97833981519152604482015290519081900360640190fd5b612a87897f00000000000000000000000000000000000000000000000000000000000000008a8a8a308a612510565b9093509150612a97898685614a65565b7f00000000000000000000000000000000000000000000000000000000000000006001600160a01b0316632e1a7d4d836040518263ffffffff1660e01b815260040180828152602001915050600060405180830381600087803b158015612afd57600080fd5b505af1158015612b11573d6000803e3d6000fd5b50505050612b1f8583613f75565b50965096945050505050565b7f000000000000000000000000000000000000000000000000000000000000000081565b6060610f217f0000000000000000000000000000000000000000000000000000000000000000848461377c565b8042811015612bc0576040805162461bcd60e51b815260206004820152601a6024820152600080516020614f97833981519152604482015290519081900360640190fd5b7f00000000000000000000000000000000000000000000000000000000000000006001600160a01b031685856000818110612bf757fe5b905060200201356001600160a01b03166001600160a01b031614612c50576040805162461bcd60e51b815260206004820152601f6024820152600080516020614eb5833981519152604482015290519081900360640190fd5b60003490507f00000000000000000000000000000000000000000000000000000000000000006001600160a01b031663d0e30db0826040518263ffffffff1660e01b81526004016000604051808303818588803b158015612cb057600080fd5b505af1158015612cc4573d6000803e3d6000fd5b5050505050612cf4817f0000000000000000000000000000000000000000000000000000000000000000866138b3565b90507f00000000000000000000000000000000000000000000000000000000000000006001600160a01b031663a9059cbb612d567f0000000000000000000000000000000000000000000000000000000000000000898960008181106112ff57fe5b836040518363ffffffff1660e01b815260040180836001600160a01b03166001600160a01b0316815260200182815260200192505050602060405180830381600087803b158015612da657600080fd5b505af1158015612dba573d6000803e3d6000fd5b505050506040513d6020811015612dd057600080fd5b5051612dd857fe5b600086866000198101818110612dea57fe5b905060200201356001600160a01b03166001600160a01b03166370a08231866040518263ffffffff1660e01b815260040180826001600160a01b03166001600160a01b0316815260200191505060206040518083038186803b158015612e4f57600080fd5b505afa158015612e63573d6000803e3d6000fd5b505050506040513d6020811015612e7957600080fd5b50516040805160208981028281018201909352898252929350612ebd9285928b918b9182918501908490808284376000920191909152508a925082915061406d9050565b87611c438289896000198101818110612ed257fe5b905060200201356001600160a01b03166001600160a01b03166370a08231896040518263ffffffff1660e01b815260040180826001600160a01b03166001600160a01b0316815260200191505060206040518083038186803b158015611c0b57600080fd5b60008060008342811015612f80576040805162461bcd60e51b815260206004820152601a6024820152600080516020614f97833981519152604482015290519081900360640190fd5b612f8e8c8c8c8c8c8c614667565b90945092506000612fc07f00000000000000000000000000000000000000000000000000000000000000008e8e61356f565b9050612fce8d338388613e18565b612fda8c338387613e18565b806001600160a01b0316636a627842886040518263ffffffff1660e01b815260040180826001600160a01b03166001600160a01b03168152602001915050602060405180830381600087803b15801561303257600080fd5b505af1158015613046573d6000803e3d6000fd5b505050506040513d602081101561305c57600080fd5b5051949d939c50939a509198505050505050505050565b606081428110156130b9576040805162461bcd60e51b815260206004820152601a6024820152600080516020614f97833981519152604482015290519081900360640190fd5b6001600160a01b037f000000000000000000000000000000000000000000000000000000000000000016868660001981018181106130f357fe5b905060200201356001600160a01b03166001600160a01b03161461314c576040805162461bcd60e51b815260206004820152601f6024820152600080516020614eb5833981519152604482015290519081900360640190fd5b6131aa7f00000000000000000000000000000000000000000000000000000000000000008988888080602002602001604051908101604052809392919081815260200183836020028082843760009201919091525061377c92505050565b91506131bc826000815181106114c957fe5b826000815181106131c957fe5b60200260200101818152505086826001845103815181106131e657fe5b6020026020010151101561322b5760405162461bcd60e51b815260040180806020018281038252602d815260200180614e32602d913960400191505060405180910390fd5b61323b8686600081811061157357fe5b61295b88838888808060200260200160405190810160405280939291908181526020018383602002808284376000920191909152503092508a9150613a3f9050565b6003546001600160a01b031633146132dc576040805162461bcd60e51b815260206004820152601c60248201527f4269746765727453776170526f757465723a20464f5242494444454e00000000604482015290519081900360640190fd5b600280546001600160a01b0319166001600160a01b0392909216919091179055565b60008142811015613344576040805162461bcd60e51b815260206004820152601a6024820152600080516020614f97833981519152604482015290519081900360640190fd5b613373887f00000000000000000000000000000000000000000000000000000000000000008989893089612510565b604080516370a0823160e01b815230600482015290519194506133f792508a9187916001600160a01b038416916370a0823191602480820192602092909190829003018186803b1580156133c657600080fd5b505afa1580156133da573d6000803e3d6000fd5b505050506040513d60208110156133f057600080fd5b5051614a65565b7f00000000000000000000000000000000000000000000000000000000000000006001600160a01b0316632e1a7d4d836040518263ffffffff1660e01b815260040180828152602001915050600060405180830381600087803b15801561345d57600080fd5b505af1158015613471573d6000803e3d6000fd5b5050505061162e8483613f75565b60008084116134bf5760405162461bcd60e51b815260040180806020018281038252602d815260200180614ed5602d913960400191505060405180910390fd5b6000831180156134cf5750600082115b61350a5760405162461bcd60e51b815260040180806020018281038252602a815260200180614f6d602a913960400191505060405180910390fd5b600061351e856103e563ffffffff614bcf16565b90506000613532828563ffffffff614bcf16565b905060006135588361354c886103e863ffffffff614bcf16565b9063ffffffff614c2816565b905080828161356357fe5b04979650505050505050565b600080600061357e8585614987565b604080516bffffffffffffffffffffffff19606094851b811660208084019190915293851b81166034830152825160288184030181526048830184528051908501206001600160f81b031960688401529a90941b9093166069840152607d8301989098527fd0a65eee32c829677d84ce15b5d94f37807e582560fe4d4f2150bc81a70ba430609d808401919091528851808403909101815260bd909201909752805196019590952095945050505050565b6060600282511015613688576040805162461bcd60e51b815260206004820181905260248201527f42697467657274537761704c6962726172793a20494e56414c49445f50415448604482015290519081900360640190fd5b815167ffffffffffffffff811180156136a057600080fd5b506040519080825280602002602001820160405280156136ca578160200160208202803683370190505b50905082816001835103815181106136de57fe5b60209081029190910101528151600019015b80156137745760008061372d8786600186038151811061370c57fe5b602002602001015187868151811061372057fe5b6020026020010151614c82565b9150915061374f84848151811061374057fe5b60200260200101518383614577565b84600185038151811061375e57fe5b60209081029190910101525050600019016136f0565b509392505050565b60606002825110156137d5576040805162461bcd60e51b815260206004820181905260248201527f42697467657274537761704c6962726172793a20494e56414c49445f50415448604482015290519081900360640190fd5b815167ffffffffffffffff811180156137ed57600080fd5b50604051908082528060200260200182016040528015613817578160200160208202803683370190505b509050828160008151811061382857fe5b60200260200101818152505060005b60018351038110156137745760008061386d8786858151811061385657fe5b602002602001015187866001018151811061372057fe5b9150915061388f84848151811061388057fe5b6020026020010151838361347f565b84846001018151811061389e57fe5b60209081029190910101525050600101613837565b6000806101f4850490507f00000000000000000000000000000000000000000000000000000000000000006001600160a01b0316846001600160a01b031614156139a5576002546040805163a9059cbb60e01b81526001600160a01b0392831660048201526024810184905290517f00000000000000000000000000000000000000000000000000000000000000009092169163a9059cbb916044808201926020929091908290030181600087803b15801561396e57600080fd5b505af1158015613982573d6000803e3d6000fd5b505050506040513d602081101561399857600080fd5b50516139a057fe5b613a35565b600254604080516323b872dd60e01b81526001600160a01b0386811660048301529283166024820152604481018490529051918616916323b872dd916064808201926020929091908290030181600087803b158015613a0357600080fd5b505af1158015613a17573d6000803e3d6000fd5b505050506040513d6020811015613a2d57600080fd5b5051613a3557fe5b9093039392505050565b60005b6001845103811015613be957600080858381518110613a5d57fe5b6020026020010151868460010181518110613a7457fe5b6020026020010151915091506000613a8c8383614987565b5090506000888560010181518110613aa057fe5b60200260200101519050600080836001600160a01b0316866001600160a01b031614613ace57826000613ad2565b6000835b91509150600060028b51038810613ae95789613b2a565b613b2a7f0000000000000000000000000000000000000000000000000000000000000000878d8b60020181518110613b1d57fe5b602002602001015161356f565b9050613b577f0000000000000000000000000000000000000000000000000000000000000000888861356f565b6001600160a01b0316636d9a640a8484846040518463ffffffff1660e01b815260040180848152602001838152602001826001600160a01b03166001600160a01b031681526020019350505050600060405180830381600087803b158015613bbe57600080fd5b505af1158015613bd2573d6000803e3d6000fd5b505060019099019850613a42975050505050505050565b5060008590507f00000000000000000000000000000000000000000000000000000000000000006001600160a01b031684600081518110613c2657fe5b60200260200101516001600160a01b031614613d0d5783600081518110613c4957fe5b602002602001015160008081548110613c5e57fe5b9060005260206000200160006101000a8154816001600160a01b0302191690836001600160a01b031602179055506060613cf2876000805480602002602001604051908101604052809291908181526020018280548015613ce857602002820191906000526020600020905b81546001600160a01b03168152600190910190602001808311613cca575b5050505050612b4f565b905080600181518110613d0157fe5b60200260200101519150505b600060c8820490506060613d79826001805480602002602001604051908101604052809291908181526020018280548015613ce8576020028201919060005260206000209081546001600160a01b03168152600190910190602001808311613cca575050505050612b4f565b60045481519192506001600160a01b0316906371bb61f39083906001908110613d9e57fe5b6020026020010151866040518363ffffffff1660e01b815260040180838152602001826001600160a01b03166001600160a01b0316815260200192505050600060405180830381600087803b158015613df657600080fd5b505af1158015613e0a573d6000803e3d6000fd5b505050505050505050505050565b604080516001600160a01b0385811660248301528481166044830152606480830185905283518084039091018152608490920183526020820180516001600160e01b03166323b872dd60e01b17815292518251600094606094938a169392918291908083835b60208310613e9d5780518252601f199092019160209182019101613e7e565b6001836020036101000a0380198251168184511680821785525050505050509050019150506000604051808303816000865af19150503d8060008114613eff576040519150601f19603f3d011682016040523d82523d6000602084013e613f04565b606091505b5091509150818015613f32575080511580613f325750808060200190516020811015613f2f57600080fd5b50515b613f6d5760405162461bcd60e51b8152600401808060200182810382526024815260200180614fde6024913960400191505060405180910390fd5b505050505050565b604080516000808252602082019092526001600160a01b0384169083906040518082805190602001908083835b60208310613fc15780518252601f199092019160209182019101613fa2565b6001836020036101000a03801982511681845116808217855250505050505090500191505060006040518083038185875af1925050503d8060008114614023576040519150601f19603f3d011682016040523d82523d6000602084013e614028565b606091505b50509050806140685760405162461bcd60e51b8152600401808060200182810382526023815260200180614f4a6023913960400191505060405180910390fd5b505050565b60005b60018451038110156143095760008085838151811061408b57fe5b60200260200101518684600101815181106140a257fe5b60200260200101519150915060006140ba8383614987565b50905060006140ea7f0000000000000000000000000000000000000000000000000000000000000000858561356f565b9050600080600080846001600160a01b0316630902f1ac6040518163ffffffff1660e01b815260040160606040518083038186803b15801561412b57600080fd5b505afa15801561413f573d6000803e3d6000fd5b505050506040513d606081101561415557600080fd5b5080516020909101516001600160701b0391821693501690506000806001600160a01b038a81169089161461418b57828461418e565b83835b915091506141ec828b6001600160a01b03166370a082318a6040518263ffffffff1660e01b815260040180826001600160a01b03166001600160a01b0316815260200191505060206040518083038186803b158015611c0b57600080fd5b95506141f986838361347f565b945050505050600080856001600160a01b0316886001600160a01b03161461422357826000614227565b6000835b91509150600060028d51038a1061423e578b614272565b6142727f0000000000000000000000000000000000000000000000000000000000000000898f8d60020181518110613b1d57fe5b9050856001600160a01b0316636d9a640a8484846040518463ffffffff1660e01b815260040180848152602001838152602001826001600160a01b03166001600160a01b031681526020019350505050600060405180830381600087803b1580156142dc57600080fd5b505af11580156142f0573d6000803e3d6000fd5b50506001909b019a506140709950505050505050505050565b5060008490507f00000000000000000000000000000000000000000000000000000000000000006001600160a01b03168460008151811061434657fe5b60200260200101516001600160a01b03161461442b578360008151811061436957fe5b60200260200101516000808154811061437e57fe5b9060005260206000200160006101000a8154816001600160a01b0302191690836001600160a01b031602179055506060614410866000805480602002602001604051908101604052809291908181526020018280548015613ce8576020028201919060005260206000209081546001600160a01b03168152600190910190602001808311613cca575050505050612b4f565b90508060018151811061441f57fe5b60200260200101519150505b600060c8820490506060614497826001805480602002602001604051908101604052809291908181526020018280548015613ce8576020028201919060005260206000209081546001600160a01b03168152600190910190602001808311613cca575050505050612b4f565b60045481519192506001600160a01b0316906371bb61f390839060019081106144bc57fe5b6020026020010151866040518363ffffffff1660e01b815260040180838152602001826001600160a01b03166001600160a01b0316815260200192505050600060405180830381600087803b15801561451457600080fd5b505af1158015614528573d6000803e3d6000fd5b5050505050505050505050565b6000610f2183836040518060400160405280601e81526020017f536166654d6174683a207375627472616374696f6e206f766572666c6f770000815250614d49565b60008084116145b75760405162461bcd60e51b815260040180806020018281038252602e815260200180614e5f602e913960400191505060405180910390fd5b6000831180156145c75750600082115b6146025760405162461bcd60e51b815260040180806020018281038252602a815260200180614f6d602a913960400191505060405180910390fd5b60006146266103e861461a868863ffffffff614bcf16565b9063ffffffff614bcf16565b905060006146406103e561461a868963ffffffff61453516565b905061465d600182848161465057fe5b049063ffffffff614c2816565b9695505050505050565b6040805163e6a4390560e01b81526001600160a01b03888116600483015287811660248301529151600092839283927f00000000000000000000000000000000000000000000000000000000000000009092169163e6a4390591604480820192602092909190829003018186803b1580156146e157600080fd5b505afa1580156146f5573d6000803e3d6000fd5b505050506040513d602081101561470b57600080fd5b50516001600160a01b031614156147be57604080516364e329cb60e11b81526001600160a01b038a81166004830152898116602483015291517f00000000000000000000000000000000000000000000000000000000000000009092169163c9c65396916044808201926020929091908290030181600087803b15801561479157600080fd5b505af11580156147a5573d6000803e3d6000fd5b505050506040513d60208110156147bb57600080fd5b50505b6000806147ec7f00000000000000000000000000000000000000000000000000000000000000008b8b614c82565b915091508160001480156147fe575080155b1561480e578793508692506148ce565b600061481b8984846148db565b905087811161486e57858110156148635760405162461bcd60e51b8152600401808060200182810382526028815260200180614e8d6028913960400191505060405180910390fd5b8894509250826148cc565b600061487b8984866148db565b90508981111561488757fe5b878110156148c65760405162461bcd60e51b8152600401808060200182810382526028815260200180614e0a6028913960400191505060405180910390fd5b94508793505b505b5050965096945050505050565b600080841161491b5760405162461bcd60e51b8152600401808060200182810382526027815260200180614fb76027913960400191505060405180910390fd5b60008311801561492b5750600082115b6149665760405162461bcd60e51b815260040180806020018281038252602a815260200180614f6d602a913960400191505060405180910390fd5b82614977858463ffffffff614bcf16565b8161497e57fe5b04949350505050565b600080826001600160a01b0316846001600160a01b031614156149db5760405162461bcd60e51b8152600401808060200182810382526027815260200180614f026027913960400191505060405180910390fd5b826001600160a01b0316846001600160a01b0316106149fb5782846149fe565b83835b90925090506001600160a01b038216614a5e576040805162461bcd60e51b815260206004820181905260248201527f42697467657274537761704c6962726172793a205a45524f5f41444452455353604482015290519081900360640190fd5b9250929050565b604080516001600160a01b038481166024830152604480830185905283518084039091018152606490920183526020820180516001600160e01b031663a9059cbb60e01b178152925182516000946060949389169392918291908083835b60208310614ae25780518252601f199092019160209182019101614ac3565b6001836020036101000a0380198251168184511680821785525050505050509050019150506000604051808303816000865af19150503d8060008114614b44576040519150601f19603f3d011682016040523d82523d6000602084013e614b49565b606091505b5091509150818015614b77575080511580614b775750808060200190516020811015614b7457600080fd5b50515b614bc8576040805162461bcd60e51b815260206004820152601f60248201527f5472616e7366657248656c7065723a205452414e534645525f4641494c454400604482015290519081900360640190fd5b5050505050565b600082614bde57506000610f24565b82820282848281614beb57fe5b0414610f215760405162461bcd60e51b8152600401808060200182810382526021815260200180614f296021913960400191505060405180910390fd5b600082820183811015610f21576040805162461bcd60e51b815260206004820152601b60248201527f536166654d6174683a206164646974696f6e206f766572666c6f770000000000604482015290519081900360640190fd5b6000806000614c918585614987565b509050600080614ca288888861356f565b6001600160a01b0316630902f1ac6040518163ffffffff1660e01b815260040160606040518083038186803b158015614cda57600080fd5b505afa158015614cee573d6000803e3d6000fd5b505050506040513d6060811015614d0457600080fd5b5080516020909101516001600160701b0391821693501690506001600160a01b0387811690841614614d37578082614d3a565b81815b90999098509650505050505050565b60008184841115614dd85760405162461bcd60e51b81526004018080602001828103825283818151815260200191508051906020019080838360005b83811015614d9d578181015183820152602001614d85565b50505050905090810190601f168015614dca5780820380516001836020036101000a031916815260200191505b509250505060405180910390fd5b50505090039056fe4269746765727453776170526f757465723a204558434553534956455f494e5055545f414d4f554e544269746765727453776170526f757465723a20494e53554646494349454e545f415f414d4f554e544269746765727453776170526f757465723a20494e53554646494349454e545f4f55545055545f414d4f554e5442697467657274537761704c6962726172793a20494e53554646494349454e545f4f55545055545f414d4f554e544269746765727453776170526f757465723a20494e53554646494349454e545f425f414d4f554e544269746765727453776170526f757465723a20494e56414c49445f504154480042697467657274537761704c6962726172793a20494e53554646494349454e545f494e5055545f414d4f554e5442697467657274537761704c6962726172793a204944454e544943414c5f414444524553534553536166654d6174683a206d756c7469706c69636174696f6e206f766572666c6f775472616e7366657248656c7065723a20424e425f5452414e534645525f4641494c454442697467657274537761704c6962726172793a20494e53554646494349454e545f4c49515549444954594269746765727453776170526f757465723a204558504952454400000000000042697467657274537761704c6962726172793a20494e53554646494349454e545f414d4f554e545472616e7366657248656c7065723a205452414e534645525f46524f4d5f4641494c4544a2646970667358221220260d2687ef3d44614740824011d809290efd46ecd962546e291f06a96dda56d064736f6c6343000606003360a06040526003805460ff1916600117905534801561001d57600080fd5b50604051610b35380380610b358339818101604052604081101561004057600080fd5b5080516020909101513360601b608052600080546001600160a01b039384166001600160a01b0319918216179091556001805493909216921691909117905560805160601c610a8f6100a660003980610605528061069c52806107365250610a8f6000f3fe608060405234801561001057600080fd5b50600436106100935760003560e01c8063d93c1f6811610066578063d93c1f681461013f578063de75584e1461015e578063e8e56088146101a3578063ef6bdb0e146101bd578063f9f92be4146101d957610093565b8063379607f51461009857806371bb61f3146100b75780639155e083146100e3578063a68c0e6a14610111575b600080fd5b6100b5600480360360208110156100ae57600080fd5b50356101ff565b005b6100b5600480360360408110156100cd57600080fd5b50803590602001356001600160a01b0316610425565b6100b5600480360360408110156100f957600080fd5b506001600160a01b0381351690602001351515610603565b6100b56004803603604081101561012757600080fd5b506001600160a01b038135811691602001351661069a565b6100b56004803603602081101561015557600080fd5b50351515610734565b61018a6004803603604081101561017457600080fd5b506001600160a01b0381351690602001356107b3565b6040805192835260208301919091528051918290030190f35b6101ab6107ec565b60408051918252519081900360200190f35b6101c56107ff565b604080519115158252519081900360200190f35b6101c5600480360360208110156101ef57600080fd5b50356001600160a01b0316610808565b33600090815260046020526040812080548390811061021a57fe5b9060005260206000209060020201600001541161027e576040805162461bcd60e51b815260206004820152601860248201527f506f73697469766520616d6f756e742065787065637465640000000000000000604482015290519081900360640190fd5b33600090815260046020526040902080548290811061029957fe5b906000526020600020906002020160010154623b5380014210156102f6576040805162461bcd60e51b815260206004820152600f60248201526e18d85b89dd0818db185a5b481e595d608a1b604482015290519081900360640190fd5b33600090815260046020526040812080548390811061031157fe5b600091825260208083206002909202909101543383526004909152604082208054919350908490811061034057fe5b600091825260208083206002909202909101929092556001546040805163a9059cbb60e01b815233600482015260248101869052905192936001600160a01b039092169263a9059cbb9260448084019391929182900301818787803b1580156103a857600080fd5b505af11580156103bc573d6000803e3d6000fd5b505050506040513d60208110156103d257600080fd5b5051905080610420576040805162461bcd60e51b8152602060048201526015602482015274151bdad95b881d1c985b9cd9995c8819985a5b1959605a1b604482015290519081900360640190fd5b505050565b6001600160a01b03811660009081526002602052604090205460ff1615610482576040805162461bcd60e51b815260206004820152600c60248201526b1a5b97d89b1858dadb1a5cdd60a21b604482015290519081900360640190fd5b60035460ff16156105ff57600082116104e2576040805162461bcd60e51b815260206004820152601f60248201527f616d6f756e742073686f756c64206265206d6f7265207468616e207a65726f00604482015290519081900360640190fd5b6001600160a01b03811661052f576040805162461bcd60e51b815260206004820152600f60248201526e1859191c995cdcc81a5b9d985b1a59608a1b604482015290519081900360640190fd5b600154600054604080516370a0823160e01b81526001600160a01b0392831660048201529051859392909216916370a0823191602480820192602092909190829003018186803b15801561058257600080fd5b505afa158015610596573d6000803e3d6000fd5b505050506040513d60208110156105ac57600080fd5b505110156105f5576040805162461bcd60e51b81526020600482015260116024820152704e6f7420656e6f75676820746f6b656e7360781b604482015290519081900360640190fd5b6105ff818361081d565b5050565b7f00000000000000000000000000000000000000000000000000000000000000006001600160a01b0316331461066f576040805162461bcd60e51b815260206004820152600c60248201526b2737ba1030b71037bbb732b960a11b604482015290519081900360640190fd5b6001600160a01b03919091166000908152600260205260409020805460ff1916911515919091179055565b7f00000000000000000000000000000000000000000000000000000000000000006001600160a01b03163314610706576040805162461bcd60e51b815260206004820152600c60248201526b2737ba1030b71037bbb732b960a11b604482015290519081900360640190fd5b600080546001600160a01b039384166001600160a01b03199182161790915560018054929093169116179055565b7f00000000000000000000000000000000000000000000000000000000000000006001600160a01b031633146107a0576040805162461bcd60e51b815260206004820152600c60248201526b2737ba1030b71037bbb732b960a11b604482015290519081900360640190fd5b6003805460ff1916911515919091179055565b600460205281600052604060002081815481106107cc57fe5b600091825260209091206002909102018054600190910154909250905082565b3360009081526004602052604090205490565b60035460ff1681565b60026020526000908152604090205460ff1681565b60015460005460408051636eb1769f60e11b81526001600160a01b03928316600482015230602482015290518493929092169163dd62ed3e91604480820192602092909190829003018186803b15801561087657600080fd5b505afa15801561088a573d6000803e3d6000fd5b505050506040513d60208110156108a057600080fd5b505110156108f5576040805162461bcd60e51b815260206004820152601960248201527f546f6b656e203120616c6c6f77616e636520746f6f206c6f7700000000000000604482015290519081900360640190fd5b6105ff828260015460008054604080516323b872dd60e01b81526001600160a01b039283166004820152306024820152604481018690529051929391909116916323b872dd9160648082019260209290919082900301818787803b15801561095c57600080fd5b505af1158015610970573d6000803e3d6000fd5b505050506040513d602081101561098657600080fd5b50519050806109d4576040805162461bcd60e51b8152602060048201526015602482015274151bdad95b881d1c985b9cd9995c8819985a5b1959605a1b604482015290519081900360640190fd5b8015610420576001600160a01b03831660008181526004602090815260408083208151808301835287815242818501818152835460018181018655948852958720925160029096029092019485559051939091019290925551859391927f4360f5320ef452a3ac552e563b0a7ad91b6dd31f258c6c47bdc47ca05f97e0b391a450505056fea26469706673582212204051a4e427d0af73e60b8cab537d2a959823196eb430c7f42a17a28fb483137064736f6c63430006060033",
  "linkReferences": {},
  "deployedLinkReferences": {}
}