{
  "_format": "hh-sol-artifact-1",
  "contractName": "Master",
  "sourceName": "contracts/Master.sol",
  "abi": [
    {
      "inputs": [],
      "stateMutability": "nonpayable",
      "type": "constructor"
    },
    {
      "anonymous": false,
      "inputs": [
        {
          "indexed": true,
          "internalType": "address",
          "name": "sender",
          "type": "address"
        },
        {
          "indexed": false,
          "internalType": "uint256",
          "name": "value",
          "type": "uint256"
        }
      ],
      "name": "DepositFee",
      "type": "event"
    },
    {
      "anonymous": false,
      "inputs": [
        {
          "indexed": true,
          "internalType": "address",
          "name": "previousOwner",
          "type": "address"
        },
        {
          "indexed": true,
          "internalType": "address",
          "name": "newOwner",
          "type": "address"
        }
      ],
      "name": "OwnershipTransferred",
      "type": "event"
    },
    {
      "anonymous": false,
      "inputs": [
        {
          "indexed": true,
          "internalType": "address",
          "name": "token",
          "type": "address"
        }
      ],
      "name": "TokenCreated",
      "type": "event"
    },
    {
      "inputs": [
        {
          "internalType": "string",
          "name": "name",
          "type": "string"
        },
        {
          "internalType": "string",
          "name": "symbol",
          "type": "string"
        },
        {
          "internalType": "uint8",
          "name": "decimal",
          "type": "uint8"
        },
        {
          "internalType": "uint256",
          "name": "initialSupply",
          "type": "uint256"
        }
      ],
      "name": "createToken",
      "outputs": [
        {
          "internalType": "address",
          "name": "",
          "type": "address"
        }
      ],
      "stateMutability": "payable",
      "type": "function"
    },
    {
      "inputs": [],
      "name": "fee",
      "outputs": [
        {
          "internalType": "uint256",
          "name": "",
          "type": "uint256"
        }
      ],
      "stateMutability": "view",
      "type": "function"
    },
    {
      "inputs": [],
      "name": "feeReceiver",
      "outputs": [
        {
          "internalType": "address",
          "name": "",
          "type": "address"
        }
      ],
      "stateMutability": "view",
      "type": "function"
    },
    {
      "inputs": [],
      "name": "owner",
      "outputs": [
        {
          "internalType": "address",
          "name": "",
          "type": "address"
        }
      ],
      "stateMutability": "view",
      "type": "function"
    },
    {
      "inputs": [],
      "name": "renounceOwnership",
      "outputs": [],
      "stateMutability": "nonpayable",
      "type": "function"
    },
    {
      "inputs": [
        {
          "internalType": "uint256",
          "name": "_fee",
          "type": "uint256"
        }
      ],
      "name": "setFee",
      "outputs": [],
      "stateMutability": "nonpayable",
      "type": "function"
    },
    {
      "inputs": [
        {
          "internalType": "address",
          "name": "_feeReceiver",
          "type": "address"
        }
      ],
      "name": "setFeeReceiver",
      "outputs": [],
      "stateMutability": "nonpayable",
      "type": "function"
    },
    {
      "inputs": [
        {
          "internalType": "address",
          "name": "newOwner",
          "type": "address"
        }
      ],
      "name": "transferOwnership",
      "outputs": [],
      "stateMutability": "nonpayable",
      "type": "function"
    }
  ],
  "bytecode": "0x608060405234801561001057600080fd5b5061001a33610036565b600280546001600160a01b03191633179055600a600155610086565b600080546001600160a01b038381166001600160a01b0319831681178455604051919092169283917f8be0079c531659141344cd1fd0a4f28419497f9722a3daafe3b4186f6b6457e09190a35050565b611372806100956000396000f3fe608060405260043610620000855760003560e01c8063b3f006741162000054578063b3f00674146200011d578063ddca3f43146200013f578063efdcd9741462000166578063f2fde38b146200018b57600080fd5b8063210f5dda146200008a57806369fe0e2d14620000be578063715018a614620000e55780638da5cb5b14620000fd575b600080fd5b620000a16200009b36600462000573565b620001b0565b6040516001600160a01b0390911681526020015b60405180910390f35b348015620000cb57600080fd5b50620000e3620000dd366004620005ff565b62000320565b005b348015620000f257600080fd5b50620000e36200032f565b3480156200010a57600080fd5b506000546001600160a01b0316620000a1565b3480156200012a57600080fd5b50600254620000a1906001600160a01b031681565b3480156200014c57600080fd5b506200015760015481565b604051908152602001620000b5565b3480156200017357600080fd5b50620000e36200018536600462000541565b62000347565b3480156200019857600080fd5b50620000e3620001aa36600462000541565b62000373565b6000600154341015620001fb5760405162461bcd60e51b815260206004820152600e60248201526d4e6f7420656e6f7567682066656560901b60448201526064015b60405180910390fd5b6002546040516000916001600160a01b0316903480156108fc029184818181858888f19350505050905080620002695760405162461bcd60e51b81526020600482015260126024820152714661696c656420746f2073656e642046656560701b6044820152606401620001f2565b60405134815233907fe978212c025bb06e911a95dea3ce2ab103251bfb63891d729191b249fa2dddfc9060200160405180910390a2600086868686604051620002b2906200049e565b620002c1949392919062000669565b604051809103906000f080158015620002de573d6000803e3d6000fd5b506040519091506001600160a01b038216907f2e2b3f61b70d2d131b2a807371103cc98d51adcaa5e9a8f9c32658ad8426e74e90600090a29695505050505050565b6200032a620003f2565b600155565b62000339620003f2565b6200034560006200044e565b565b62000351620003f2565b600280546001600160a01b0319166001600160a01b0392909216919091179055565b6200037d620003f2565b6001600160a01b038116620003e45760405162461bcd60e51b815260206004820152602660248201527f4f776e61626c653a206e6577206f776e657220697320746865207a65726f206160448201526564647265737360d01b6064820152608401620001f2565b620003ef816200044e565b50565b6000546001600160a01b03163314620003455760405162461bcd60e51b815260206004820181905260248201527f4f776e61626c653a2063616c6c6572206973206e6f7420746865206f776e65726044820152606401620001f2565b600080546001600160a01b038381166001600160a01b0319831681178455604051919092169283917f8be0079c531659141344cd1fd0a4f28419497f9722a3daafe3b4186f6b6457e09190a35050565b610c7d80620006c083390190565b600082601f830112620004be57600080fd5b813567ffffffffffffffff80821115620004dc57620004dc620006a9565b604051601f8301601f19908116603f01168101908282118183101715620005075762000507620006a9565b816040528381528660208588010111156200052157600080fd5b836020870160208301376000602085830101528094505050505092915050565b6000602082840312156200055457600080fd5b81356001600160a01b03811681146200056c57600080fd5b9392505050565b600080600080608085870312156200058a57600080fd5b843567ffffffffffffffff80821115620005a357600080fd5b620005b188838901620004ac565b95506020870135915080821115620005c857600080fd5b50620005d787828801620004ac565b935050604085013560ff81168114620005ef57600080fd5b9396929550929360600135925050565b6000602082840312156200061257600080fd5b5035919050565b6000815180845260005b81811015620006415760208185018101518683018201520162000623565b8181111562000654576000602083870101525b50601f01601f19169290920160200192915050565b6080815260006200067e608083018762000619565b828103602084015262000692818762000619565b60ff95909516604084015250506060015292915050565b634e487b7160e01b600052604160045260246000fdfe60806040523480156200001157600080fd5b5060405162000c7d38038062000c7d8339810160408190526200003491620002db565b8351849084906200004d9060039060208501906200017e565b508051620000639060049060208401906200017e565b5050506200007832826200009660201b60201c565b506005805460ff191660ff9290921691909117905550620003e09050565b6001600160a01b038216620000f15760405162461bcd60e51b815260206004820152601f60248201527f45524332303a206d696e7420746f20746865207a65726f206164647265737300604482015260640160405180910390fd5b806002600082825462000105919062000366565b90915550506001600160a01b038216600090815260208190526040812080548392906200013490849062000366565b90915550506040518181526001600160a01b038316906000907fddf252ad1be2c89b69c2b068fc378daa952ba7f163c4a11628f55a4df523b3ef9060200160405180910390a35050565b8280546200018c906200038d565b90600052602060002090601f016020900481019282620001b05760008555620001fb565b82601f10620001cb57805160ff1916838001178555620001fb565b82800160010185558215620001fb579182015b82811115620001fb578251825591602001919060010190620001de565b50620002099291506200020d565b5090565b5b808211156200020957600081556001016200020e565b600082601f8301126200023657600080fd5b81516001600160401b0380821115620002535762000253620003ca565b604051601f8301601f19908116603f011681019082821181831017156200027e576200027e620003ca565b816040528381526020925086838588010111156200029b57600080fd5b600091505b83821015620002bf5785820183015181830184015290820190620002a0565b83821115620002d15760008385830101525b9695505050505050565b60008060008060808587031215620002f257600080fd5b84516001600160401b03808211156200030a57600080fd5b620003188883890162000224565b955060208701519150808211156200032f57600080fd5b506200033e8782880162000224565b935050604085015160ff811681146200035657600080fd5b6060959095015193969295505050565b600082198211156200038857634e487b7160e01b600052601160045260246000fd5b500190565b600181811c90821680620003a257607f821691505b60208210811415620003c457634e487b7160e01b600052602260045260246000fd5b50919050565b634e487b7160e01b600052604160045260246000fd5b61088d80620003f06000396000f3fe608060405234801561001057600080fd5b50600436106100a95760003560e01c80633950935111610071578063395093511461012957806370a082311461013c57806395d89b4114610165578063a457c2d71461016d578063a9059cbb14610180578063dd62ed3e1461019357600080fd5b806306fdde03146100ae578063095ea7b3146100cc57806318160ddd146100ef57806323b872dd14610101578063313ce56714610114575b600080fd5b6100b66101a6565b6040516100c391906107a1565b60405180910390f35b6100df6100da366004610777565b610238565b60405190151581526020016100c3565b6002545b6040519081526020016100c3565b6100df61010f36600461073b565b610250565b60055460405160ff90911681526020016100c3565b6100df610137366004610777565b610274565b6100f361014a3660046106e6565b6001600160a01b031660009081526020819052604090205490565b6100b6610296565b6100df61017b366004610777565b6102a5565b6100df61018e366004610777565b610325565b6100f36101a1366004610708565b610333565b6060600380546101b59061081c565b80601f01602080910402602001604051908101604052809291908181526020018280546101e19061081c565b801561022e5780601f106102035761010080835404028352916020019161022e565b820191906000526020600020905b81548152906001019060200180831161021157829003601f168201915b5050505050905090565b60003361024681858561035e565b5060019392505050565b60003361025e858285610482565b6102698585856104fc565b506001949350505050565b6000336102468185856102878383610333565b61029191906107f6565b61035e565b6060600480546101b59061081c565b600033816102b38286610333565b9050838110156103185760405162461bcd60e51b815260206004820152602560248201527f45524332303a2064656372656173656420616c6c6f77616e63652062656c6f77604482015264207a65726f60d81b60648201526084015b60405180910390fd5b610269828686840361035e565b6000336102468185856104fc565b6001600160a01b03918216600090815260016020908152604080832093909416825291909152205490565b6001600160a01b0383166103c05760405162461bcd60e51b8152602060048201526024808201527f45524332303a20617070726f76652066726f6d20746865207a65726f206164646044820152637265737360e01b606482015260840161030f565b6001600160a01b0382166104215760405162461bcd60e51b815260206004820152602260248201527f45524332303a20617070726f766520746f20746865207a65726f206164647265604482015261737360f01b606482015260840161030f565b6001600160a01b0383811660008181526001602090815260408083209487168084529482529182902085905590518481527f8c5be1e5ebec7d5bd14f71427d1e84f3dd0314c0f7b2291e5b200ac8c7c3b925910160405180910390a3505050565b600061048e8484610333565b905060001981146104f657818110156104e95760405162461bcd60e51b815260206004820152601d60248201527f45524332303a20696e73756666696369656e7420616c6c6f77616e6365000000604482015260640161030f565b6104f6848484840361035e565b50505050565b6001600160a01b0383166105605760405162461bcd60e51b815260206004820152602560248201527f45524332303a207472616e736665722066726f6d20746865207a65726f206164604482015264647265737360d81b606482015260840161030f565b6001600160a01b0382166105c25760405162461bcd60e51b815260206004820152602360248201527f45524332303a207472616e7366657220746f20746865207a65726f206164647260448201526265737360e81b606482015260840161030f565b6001600160a01b0383166000908152602081905260409020548181101561063a5760405162461bcd60e51b815260206004820152602660248201527f45524332303a207472616e7366657220616d6f756e7420657863656564732062604482015265616c616e636560d01b606482015260840161030f565b6001600160a01b038085166000908152602081905260408082208585039055918516815290812080548492906106719084906107f6565b92505081905550826001600160a01b0316846001600160a01b03167fddf252ad1be2c89b69c2b068fc378daa952ba7f163c4a11628f55a4df523b3ef846040516106bd91815260200190565b60405180910390a36104f6565b80356001600160a01b03811681146106e157600080fd5b919050565b6000602082840312156106f857600080fd5b610701826106ca565b9392505050565b6000806040838503121561071b57600080fd5b610724836106ca565b9150610732602084016106ca565b90509250929050565b60008060006060848603121561075057600080fd5b610759846106ca565b9250610767602085016106ca565b9150604084013590509250925092565b6000806040838503121561078a57600080fd5b610793836106ca565b946020939093013593505050565b600060208083528351808285015260005b818110156107ce578581018301518582016040015282016107b2565b818111156107e0576000604083870101525b50601f01601f1916929092016040019392505050565b6000821982111561081757634e487b7160e01b600052601160045260246000fd5b500190565b600181811c9082168061083057607f821691505b6020821081141561085157634e487b7160e01b600052602260045260246000fd5b5091905056fea2646970667358221220d0bf4ffb6db18aed51c26e3c4a6246ee418d54c3c437f2cffd9edadd8d113ba564736f6c63430008070033a2646970667358221220329dd112c66fece0683c4f04d21ff4a6dbd254a45a3c651d174c66c8100c688264736f6c63430008070033",
  "linkReferences": {},
  "deployedLinkReferences": {}
}